:020000040000FA
:10000000B8C3FF1F51030000B12B00007D0B00009F
:10001000A92B0000F1030000513000000000000097
:100020000000000000000000000000009502000039
:10003000F903000000000000E9020000ED2E0000BE
:10004000490C0000590C0000690C0000790C0000FC
:10005000890C0000990C0000A90C0000B90C0000EC
:10006000C90C0000D90C0000E90C0000F90C0000DC
:10007000090D0000190D0000290D0000390D0000C8
:10008000490D0000590D0000690D0000790D0000B8
:10009000890D0000990D0000A90D0000B90D0000A8
:1000A000C90D0000D90D0000E90D0000F90D000098
:1000B000090E0000190E0000290E0000390E000084
:1000C000490E00005D0E0000710E0000850E00005C
:1000D000990E0000AD0E0000C10E0000D50E00000C
:1000E000E90E0000FD0E0000110F0000250F0000BA
:1000F000390F00004D0F0000610F0000750F000068
:10010000890F00009D0F0000B10F0000C50F000017
:10011000D90F0000ED0F00000110000015100000C5
:10012000291000003D100000511000006510000073
:10013000791000008D100000A1100000B510000023
:10014000C9100000DD100000F110000005110000D2
:10015000191100002D11000041110000551100007F
:10016000691100007D11000091110000A51100002F
:10017000B9110000CD110000E1110000F5110000DF
:10018000091200001D12000031120000451200008B
:10019000591200006D12000081120000951200003B
:1001A000A9120000BD120000D1120000E5120000EB
:1001B000F91200000D130000211300003513000098
:1001C000491300005D130000711300008513000047
:1001D00099130000AD130000C1130000D5130000F7
:1001E000E9130000FD1300001114000025140000A5
:1001F000391400004D140000611400007514000053
:10020000891400009D140000B1140000C514000002
:10021000D9140000ED1400000115000015150000B0
:10022000291500003D15000051150000651500005E
:10023000791500008D150000A1150000B51500000E
:10024000C9150000F91600009D1A0000611B00008E
:10025000ED1D0000930300009303000093030000D2
:100260003D1F0000B9210000B1230000552500000A
:1002700035260000F5270000E9290000E52A0000E6
:10028000DFF80CD000F0A2F800480047013300006E
:10029000B8C3FF1F2B4B19680868B0E8F04F80F314
:1002A0000988BFF36F8F4FF0000080F3118870470B
:1002B0000000000006480068006880F3088862B605
:1002C00061B6BFF34F8FBFF36F8F00DF00BF00BF7A
:1002D00008ED00E0DFF80C00016841F470010160F6
:1002E000704700BF88ED00E0EFF30980BFF36F8F28
:1002F000144B1A681EF0100F08BF20ED108A20E979
:10030000F04F106008B44FF0500080F31188BFF335
:100310004F8FBFF36F8F03F0FBFB4FF0000080F3B4
:10032000118808BC19680868B0E8F04F1EF0100F7B
:1003300008BFB0EC108A80F30988BFF36F8F704755
:1003400000BF00BF1480FF1FEFF30580704700005F
:1003500010484FF0770101600F484FF077010160BE
:100360000E484FF4885101600A484FF07601016051
:1003700009484FF076010160094880470948004765
:10038000FEE7FEE7FEE7FEE7FEE7FEE7FEE7FEE745
:10039000FEE7FEE7040805400C080540000805409C
:1003A000792F000081020000D2B201E000F8012B99
:1003B000491EFBD270470022F6E710B513460A46E5
:1003C00004461946FFF7F0FF204610BD064C074DC6
:1003D00006E0E06840F0010394E807009847103415
:1003E000AC42F6D3FFF750FF783E0000983E000085
:1003F00010B5AFF3008010BD10B5AFF3008010BD95
:10040000FFFFFFFFFFFFFFFFFFFFFFFFFFFFFFFFFC
:10041000FFFFFFFFFFFFFFFFFFFFFFFFFFFFFFFFEC
:10042000F0B500285DD02F4991F826202E4F02F01C
:1004300007037E104FF40042052B0AD2DFE803F0D9
:10044000030507050700076021E006601FE0026062
:100450001DE0D1F80021C2F3C015D1F80021130F1F
:10046000D1F80021D1F80041C2F3082204F01F04A2
:100470004DB165B1641CB7FBF4F4521C54435B1CD2
:10048000B4FBF3F2E3E7641CB6FBF4F4F5E70268AF
:100490000B6AC3F3026322FA03F343600B6AC3F3EC
:1004A000025322FA03F383600B6A03F0070322FA74
:1004B00003F3C3600B6AC3F3021322FA03F303616D
:1004C0000B6AC3F3022322FA03F343610B6AC3F3FB
:1004D000023322FA03F38361096AC1F30241CA407D
:1004E000C261F0BD004005400024F4000F4940B156
:1004F00001280BD002280ED0032811D091F841001A
:1005000001E091F83C0000F00100704791F83C00D8
:10051000C0F3C000704791F83C00C0F34010704732
:1005200091F83C00C0F38010704700000040054087
:1005300018B500211A4A0B4600914AF20151A2F85F
:10054000FE13B8B192F8360020F0010082F83600B0
:100550004FF480540020FFF7C9FF0099491C009117
:10056000A14201D20128F5D14FF42540A2F8FE03A3
:10057000184618BD92F8260040070ED0D2F80001A8
:10058000000603D592F82A00C00706D092F836007C
:1005900040F0010082F83600E6E70123E4E70000BE
:1005A0000040054008B50300124A4FF000004AF22F
:1005B00001510090A2F8FE130F490ED00B7823F0E2
:1005C00001030B700099491C00910529FAD300BF63
:1005D0004FF42541A2F8FE1308BD92F8263003F02F
:1005E0000703022B04D00B7843F001030B70EFE7F5
:1005F0000120EDE7004005402744054018B50021E3
:10060000174A0B4600914AF20151A2F8FE13B8B105
:1006100092F82A0020F0010082F82A004FF480545A
:100620000220FFF763FF0099491C0091A14201D20B
:100630000128F5D14FF42540A2F8FE03184618BD55
:1006400092F8260000F00700052806D092F82A004C
:1006500040F0010082F82A00ECE70123EAE70000FD
:100660000040054000283AD01D49D1F8002112066B
:1006700001D41C4A00E01C4A0369B2FBF3F24AF2BF
:100680000152A1F8FE230278D1F80031521E62F324
:100690001F73C1F800310279D1F80031521E62F3A4
:1006A0001B63C1F80031027AD1F80031521E62F3A7
:1006B0001753C1F800318289D1F80031521E62F31C
:1006C0001023C1F80031007CD1F80021401E60F3F6
:1006D0000402C1F800214FF42540A1F8FE03704741
:1006E0000040054000127A000024F40007494AF255
:1006F0000152A1F8FE23D1F8002160F3C712C1F81E
:1007000000214FF42540A1F8FE037047004005404A
:1007100010B485B02149002400940A6801924A6807
:1007200002928A680392CA6804921D4A92F826309F
:1007300003F00703052B01D005280AD1194B0B60E4
:10074000DB124B608B60CB60009B5B1C0093B02B7B
:10075000FAD34AF20153A2F8FE3312F8263F60F3AF
:10076000020313704FF42540A2F8D80300940098B8
:10077000401C0090B028FAD30198086002984860A5
:10078000039888600498C86000940098401C00900A
:10079000B028FAD305B010BC02F0B0BB0080044012
:1007A00000400540EEFAFFFF30B585B02449002334
:1007B00000930A6802924A6803928A680192CA68A2
:1007C0000492204A92F8264004F00704052C14D124
:1007D0000C6844F480340C604C681B4D2C434C6016
:1007E000019C64F400448C60CC6844F01304CC6039
:1007F000009C641C0094B02CFAD34AF20154A2F875
:10080000FE4312F8244F60F3071414704FF4254090
:10081000A2F8DA0300930098401C0090B028FAD3A5
:100820000298086003984860019888600498C8603E
:1008300000930098401C0090B028FAD305B030BD5A
:10084000008004400040054009010F0070B585B0EC
:100850002949002400940A6801924A6802928A6831
:100860000392CA680492002843D0244A92F82630A2
:1008700003F00703052B0AD1214B0B60DB124B6001
:100880008B60CB60009B5B1C0093B02BFAD34AF2C9
:100890000153A2F8FE338378C578467943EA0513FD
:1008A00005792D0245EA06352B43857943EA054350
:1008B0004578007843EA055343EA006343EA007051
:1008C00010624FF42540A2F8FE0300940098401CEB
:1008D0000090B028FAD30198086002984860039805
:1008E00088600498C86000940098401C0090B0286C
:1008F000FAD305B070BD0000008004400040054000
:10090000EEFAFFFF08B502460020144900904AF2B3
:100910000150A1F8FE0391F82E00012A02D040F008
:10092000010001E020F0010081F82E004FF4254085
:10093000A1F8FE034FF480530320FFF7D7FD009981
:10094000491C0091994204D2012A04D0002181421D
:10095000F2D1002008BD0121F9E700000040054068
:1009600000283AD01D49D1F80021120601D41C4AB2
:1009700000E01C4A0369B2FBF3F24AF20152A1F80B
:10098000FE230278D1F80431521E62F31F73C1F8BE
:1009900004310279D1F80431521E62F31B63C1F8AD
:1009A0000431027AD1F80431521E62F31753C1F8B0
:1009B00004318289D1F80431521E62F31023C1F848
:1009C0000431007CD1F80421401E60F30402C1F818
:1009D00004214FF42540A1F8FE0370470040054074
:1009E00000127A000024F40008B50300124A4FF008
:1009F00000004AF201510090A2F8FE130F490ED0F8
:100A00000B7823F001030B700099491C0091052914
:100A1000FAD300BF4FF42541A2F8FE1308BD92F8A7
:100A2000263003F00703042B04D00B7843F00103B6
:100A30000B70EFE70120EDE7004005402044054042
:100A400010B5002819D00D4A4AF20151A2F8FE1340
:100A50000B4904780B7864F382030B7044780B78AD
:100A600064F301030B708378081D017863F30101BF
:100A700001704FF42540A2F8FE0310BD0040054070
:100A80002144054018B500211B4A0B4600914AF24B
:100A90000151A2F8FE13B8B192F8320020F0010023
:100AA00082F832004FF480540120FFF71FFD0099B7
:100AB000491C0091A14201D20128F5D14FF42540F3
:100AC000A2F8FE03184618BD92F8260000F00700B1
:100AD00003280ED0D2F80001000603D492F82A00B1
:100AE000C00706D092F8320040F0010082F83200D0
:100AF000E4E70123E2E700000040054008B50021DB
:100B00000091074942F210720968B1FBF2F204E069
:100B1000009200994B1E0093FBD2401EF8D208BDF4
:100B20000C80FF1F04480168012903D143F2102102
:100B300001600160704700000004014002490A683A
:100B400060F307120A60704708040140034840F24E
:100B50002311016043F2102101607047000401403D
:100B6000BFF35F8F0448016821F4803101600249BE
:100B7000002070310860704724ED00E010B5AFF33D
:100B8000008010BD00B585B0002001900290039058
:100B9000009004902B4800680490049810F47F4F54
:100BA0004ED0FFF7DDFF029820F0FF00029003987F
:100BB00000F01F000390009820F03E0020300090CD
:100BC000009840F480300090009840F4003000908D
:100BD000009840F480200090009820F0E06000F140
:100BE00080700090009820F4601000F500200090C4
:100BF000009820F080500090029812490831086057
:100C00000398091D08600098091D0860019840F0CC
:100C100001000190019840F004000190019840F01B
:100C20000200019007486C38016841F4803101608E
:100C300001980449091D0860BFF34F8FBFF36F8F00
:100C400005B000BD90ED00E002480068002800D02B
:100C5000004770477480FF1F02484068002800D09A
:100C6000004770477480FF1F02488068002800D04A
:100C7000004770477480FF1F0248C068002800D0FA
:100C8000004770477480FF1F02480069002800D0A9
:100C9000004770477480FF1F02484069002800D059
:100CA000004770477480FF1F02488069002800D009
:100CB000004770477480FF1F0248C069002800D0B9
:100CC000004770477480FF1F0248006A002800D068
:100CD000004770477480FF1F0248406A002800D018
:100CE000004770477480FF1F0248806A002800D0C8
:100CF000004770477480FF1F0248C06A002800D078
:100D0000004770477480FF1F0248006B002800D026
:100D1000004770477480FF1F0248406B002800D0D6
:100D2000004770477480FF1F0248806B002800D086
:100D3000004770477480FF1F0248C06B002800D036
:100D4000004770477480FF1F0248006C002800D0E5
:100D5000004770477480FF1F0248406C002800D095
:100D6000004770477480FF1F0248806C002800D045
:100D7000004770477480FF1F0248C06C002800D0F5
:100D8000004770477480FF1F0248006D002800D0A4
:100D9000004770477480FF1F0248406D002800D054
:100DA000004770477480FF1F0248806D002800D004
:100DB000004770477480FF1F0248C06D002800D0B4
:100DC000004770477480FF1F0248006E002800D063
:100DD000004770477480FF1F0248406E002800D013
:100DE000004770477480FF1F0248806E002800D0C3
:100DF000004770477480FF1F0248C06E002800D073
:100E0000004770477480FF1F0248006F002800D021
:100E1000004770477480FF1F0248406F002800D0D1
:100E2000004770477480FF1F0248806F002800D081
:100E3000004770477480FF1F0248C06F002800D031
:100E4000004770477480FF1F0348D0F880000028D7
:100E500000D00047704700007480FF1F0348D0F89F
:100E60008400002800D00047704700007480FF1FF6
:100E70000348D0F88800002800D0004770470000E1
:100E80007480FF1F0348D0F88C00002800D0004772
:100E9000704700007480FF1F0348D0F890000028BE
:100EA00000D00047704700007480FF1F0348D0F84F
:100EB0009400002800D00047704700007480FF1F96
:100EC0000348D0F89800002800D000477047000081
:100ED0007480FF1F0348D0F89C00002800D0004712
:100EE000704700007480FF1F0348D0F8A00000285E
:100EF00000D00047704700007480FF1F0348D0F8FF
:100F0000A400002800D00047704700007480FF1F35
:100F10000348D0F8A800002800D000477047000020
:100F20007480FF1F0348D0F8AC00002800D00047B1
:100F3000704700007480FF1F0348D0F8B0000028FD
:100F400000D00047704700007480FF1F0348D0F8AE
:100F5000B400002800D00047704700007480FF1FD5
:100F60000348D0F8B800002800D0004770470000C0
:100F70007480FF1F0348D0F8BC00002800D0004751
:100F8000704700007480FF1F0348D0F8C00000289D
:100F900000D00047704700007480FF1F0348D0F85E
:100FA000C400002800D00047704700007480FF1F75
:100FB0000348D0F8C800002800D000477047000060
:100FC0007480FF1F0348D0F8CC00002800D00047F1
:100FD000704700007480FF1F0348D0F8D00000283D
:100FE00000D00047704700007480FF1F0348D0F80E
:100FF000D400002800D00047704700007480FF1F15
:101000000348D0F8D800002800D0004770470000FF
:101010007480FF1F0348D0F8DC00002800D0004790
:10102000704700007480FF1F0348D0F8E0000028DC
:1010300000D00047704700007480FF1F0348D0F8BD
:10104000E400002800D00047704700007480FF1FB4
:101050000348D0F8E800002800D00047704700009F
:101060007480FF1F0348D0F8EC00002800D0004730
:10107000704700007480FF1F0348D0F8F00000287C
:1010800000D00047704700007480FF1F0348D0F86D
:10109000F400002800D00047704700007480FF1F54
:1010A0000348D0F8F800002800D00047704700003F
:1010B0007480FF1F0348D0F8FC00002800D00047D0
:1010C000704700007480FF1F0348D0F8000100281B
:1010D00000D00047704700007480FF1F0348D0F81D
:1010E0000401002800D00047704700007480FF1FF3
:1010F0000348D0F80801002800D0004770470000DE
:101100007480FF1F0348D0F80C01002800D000476E
:10111000704700007480FF1F0348D0F810010028BA
:1011200000D00047704700007480FF1F0348D0F8CC
:101130001401002800D00047704700007480FF1F92
:101140000348D0F81801002800D00047704700007D
:101150007480FF1F0348D0F81C01002800D000470E
:10116000704700007480FF1F0348D0F8200100285A
:1011700000D00047704700007480FF1F0348D0F87C
:101180002401002800D00047704700007480FF1F32
:101190000348D0F82801002800D00047704700001D
:1011A0007480FF1F0348D0F82C01002800D00047AE
:1011B000704700007480FF1F0348D0F830010028FA
:1011C00000D00047704700007480FF1F0348D0F82C
:1011D0003401002800D00047704700007480FF1FD2
:1011E0000348D0F83801002800D0004770470000BD
:1011F0007480FF1F0348D0F83C01002800D000474E
:10120000704700007480FF1F0348D0F84001002899
:1012100000D00047704700007480FF1F0348D0F8DB
:101220004401002800D00047704700007480FF1F71
:101230000348D0F84801002800D00047704700005C
:101240007480FF1F0348D0F84C01002800D00047ED
:10125000704700007480FF1F0348D0F85001002839
:1012600000D00047704700007480FF1F0348D0F88B
:101270005401002800D00047704700007480FF1F11
:101280000348D0F85801002800D0004770470000FC
:101290007480FF1F0348D0F85C01002800D000478D
:1012A000704700007480FF1F0348D0F860010028D9
:1012B00000D00047704700007480FF1F0348D0F83B
:1012C0006401002800D00047704700007480FF1FB1
:1012D0000348D0F86801002800D00047704700009C
:1012E0007480FF1F0348D0F86C01002800D000472D
:1012F000704700007480FF1F0348D0F87001002879
:1013000000D00047704700007480FF1F0348D0F8EA
:101310007401002800D00047704700007480FF1F50
:101320000348D0F87801002800D00047704700003B
:101330007480FF1F0348D0F87C01002800D00047CC
:10134000704700007480FF1F0348D0F88001002818
:1013500000D00047704700007480FF1F0348D0F89A
:101360008401002800D00047704700007480FF1FF0
:101370000348D0F88801002800D0004770470000DB
:101380007480FF1F0348D0F88C01002800D000476C
:10139000704700007480FF1F0348D0F890010028B8
:1013A00000D00047704700007480FF1F0348D0F84A
:1013B0009401002800D00047704700007480FF1F90
:1013C0000348D0F89801002800D00047704700007B
:1013D0007480FF1F0348D0F89C01002800D000470C
:1013E000704700007480FF1F0348D0F8A001002858
:1013F00000D00047704700007480FF1F0348D0F8FA
:10140000A401002800D00047704700007480FF1F2F
:101410000348D0F8A801002800D00047704700001A
:101420007480FF1F0348D0F8AC01002800D00047AB
:10143000704700007480FF1F0348D0F8B0010028F7
:1014400000D00047704700007480FF1F0348D0F8A9
:10145000B401002800D00047704700007480FF1FCF
:101460000348D0F8B801002800D0004770470000BA
:101470007480FF1F0348D0F8BC01002800D000474B
:10148000704700007480FF1F0348D0F8C001002897
:1014900000D00047704700007480FF1F0348D0F859
:1014A000C401002800D00047704700007480FF1F6F
:1014B0000348D0F8C801002800D00047704700005A
:1014C0007480FF1F0348D0F8CC01002800D00047EB
:1014D000704700007480FF1F0348D0F8D001002837
:1014E00000D00047704700007480FF1F0348D0F809
:1014F000D401002800D00047704700007480FF1F0F
:101500000348D0F8D801002800D0004770470000F9
:101510007480FF1F0348D0F8DC01002800D000478A
:10152000704700007480FF1F0348D0F8E0010028D6
:1015300000D00047704700007480FF1F0348D0F8B8
:10154000E401002800D00047704700007480FF1FAE
:101550000348D0F8E801002800D000477047000099
:101560007480FF1F0348D0F8EC01002800D000472A
:10157000704700007480FF1F0348D0F8F001002876
:1015800000D00047704700007480FF1F0348D0F868
:10159000F401002800D00047704700007480FF1F4E
:1015A0000348D0F8F801002800D000477047000039
:1015B0007480FF1F0348D0F8FC01002800D00047CA
:1015C000704700007480FF1F494810B5D0F85C4296
:1015D00048480068012803D1E00701D0AFF300803C
:1015E0004448001D0068012803D1A00701D5AFF3CE
:1015F0000080404808300068012803D1600701D509
:10160000AFF300803B480C300068012803D120076D
:1016100001D5AFF30080374810300068012803D1AE
:10162000E00601D5AFF3008032481430006801288D
:1016300003D1A00601D5AFF300802E481830006812
:10164000012803D1600601D5AFF3008029481C3082
:101650000068012803D1200601D5AFF3008025489A
:1016600020300068012803D1E00501D5AFF30080E8
:10167000204824300068012803D1A00501D5AFF32C
:1016800000801C4828300068012803D1600501D57E
:10169000AFF3008017482C300068012803D12005E3
:1016A00001D5AFF30080134830300068012803D122
:1016B000E00401D5AFF300800E4834300068012803
:1016C00003D1A00401D5AFF300800A483830006888
:1016D000012803D1600401D5AFF3008005483C30F8
:1016E0000068012803D1200401D5AFF3008010BDAC
:1016F00000100540800AA2422DE9F05FD448D0F8DE
:101700006042D4480068D44ED44D012822D1D5F887
:10171000000238B9D5F80001012803D1E00701D053
:10172000AFF30080D5F8400238B9D5F84001012860
:1017300003D1E00501D5AFF300807068F26800F0D6
:1017400001114FF001109043014203D0E00301D595
:10175000AFF30080C248D0F8B0034FF0021A01285E
:1017600021D1D5F8040238B9D5F80401012803D1F4
:10177000A00701D5AFF30080D5F8440238B9D5F8F9
:101780004401012803D1A00501D5AFF300807068A2
:10179000F26800F002102AEA0201084203D0E003D6
:1017A00001D5AFF30080AF4800684FF0041B01285B
:1017B00021D1D5F8080238B9D5F80801012803D19C
:1017C000600701D5AFF30080D5F8480238B9D5F8E5
:1017D0004801012803D1600501D5AFF3008070688E
:1017E000F26800F004112BEA0200014203D0E0038A
:1017F00001D5AFF300809C48D0F8B0034FF0081932
:10180000012821D1D5F80C0238B9D5F80C010128EE
:1018100003D1200701D5AFF30080D5F84C0238B9C9
:10182000D5F84C01012803D1200501D5AFF3008084
:101830007068F26800F0081129EA0200014203D042
:10184000E00301D5AFF3008088480068DFF820820C
:10185000874F884E08F10808012823D1D6F80002E6
:1018600038B9D6F80001012803D1E00601D5AFF35D
:101870000080D6F8400238B9D6F84001012803D1DB
:10188000E00401D5AFF300803868D8F8002000F0FC
:1018900001114FF001109043014203D0A00301D584
:1018A000AFF300807448D0F8B003012822D1D6F8F5
:1018B000040238B9D6F80401012803D1A00601D5E5
:1018C000AFF30080D6F8440238B9D5F844010128B6
:1018D00003D1A00401D5AFF300803868D8F8002008
:1018E00000F002112AEA0200014203D0A00301D550
:1018F000AFF3008061480068012822D1D6F80802C1
:1019000038B9D6F80801012803D1600601D5AFF334
:101910000080D6F8480238B9D5F84801012803D12B
:10192000600401D5AFF300803868D8F8002000F0DB
:1019300004112BEA0200014203D0A00301D5AFF34A
:1019400000804F48D0F8B003012822D1D6F80C020D
:1019500038B9D6F80C01012803D1200601D5AFF320
:101960000080D6F84C0238B9D5F84C01012803D1D3
:10197000200401D5AFF300803868D8F8002000F0CB
:10198000081129EA0200014203D0A00301D5AFF3F8
:1019900000803C4DD5F80003012807D13A48006883
:1019A000000703D0600301D5AFF30080D5F808032A
:1019B000012807D1D5F81402012803D1200301D54D
:1019C000AFF30080D5F80403012807D1D5F8100241
:1019D000012803D1E00201D5AFF300804FF01C4095
:1019E000C068000603D5600201D5AFF30080274927
:1019F000886949680840400603D0200201D5AFF34A
:101A000000802348006822491439096808404006CC
:101A100003D0E00101D5AFF300801E4800681D49E6
:101A2000143909680840400603D0A00101D5AFF37E
:101A300000801948006818491439096808404006B0
:101A400003D0600101D5AFF30080BDE8F09F000036
:101A500000100540B00BA642003005400000A64231
:101A60000010A642B01BA6420020A642B08BA642A0
:101A7000043405400080A6420090A642B09BA642D6
:101A800000A0A64200802042100401400020054032
:101A90001824054018280540182C054070B52A4820
:101AA000D0F86442294DD5F80802012807D1D5F8AD
:101AB0008002012803D1E00701D0AFF30080D5F800
:101AC0004802012807D1D5F8C002012803D1A00798
:101AD00001D5AFF300801E4DD5F80802012807D1CB
:101AE000D5F88002012803D1600701D5AFF300804B
:101AF000D5F84802012807D1D5F8C002012803D142
:101B0000200701D5AFF3008012480068012808D1F2
:101B1000104820300068012803D1A00201D5AFF39E
:101B200000800D48006B012803D1600201D5AFF39E
:101B300000800A48006810F4403F03D0200201D51D
:101B4000AFF3008070BD0000001005400000484267
:101B5000008048420008A842008098420494044053
:101B60002DE9F0419A48D0F868429A480068012867
:101B700007D199480068012803D1E00701D0AFF3ED
:101B800000809448001D0068012808D19248001D7B
:101B90000068012803D1A00701D5AFF300808D486C
:101BA00008300068012808D18B48083000680128F7
:101BB00003D1600701D5AFF3008086480C30006880
:101BC000012808D184480C300068012803D120077F
:101BD00001D5AFF300807F4810300068012808D19C
:101BE0007D4810300068012803D1E00601D5AFF32D
:101BF0000080784814300068012808D176481430F5
:101C00000068012803D1A00601D5AFF30080714818
:101C100018300068012808D16F4818300068012882
:101C200003D1600601D5AFF300806A481C3000681C
:101C3000012808D168481C300068012803D120061B
:101C400001D5AFF30080634820300068012808D137
:101C5000614820300068012803D1E00501D5AFF3C9
:101C600000805E4D686D4FF4C066296F06EAD010A3
:101C700001F4C061084203D0200501D5AFF3008014
:101C8000686D4FF4C057296F07EAD01001F4C051B6
:101C9000084203D0E00401D5AFF30080504800684B
:101CA000012807D14F480068012803D1E00301D57E
:101CB000AFF300804A48001D0068012808D1494858
:101CC000001D0068012803D1A00301D5AFF30080F7
:101CD000434808300068012808D1424808300068AD
:101CE000012803D1600301D5AFF300803C480C30DC
:101CF0000068012808D13B480C300068012803D156
:101D0000200301D5AFF3008035481030006801286A
:101D100008D1344810300068012803D1E00201D511
:101D2000AFF300802E4814300068012808D12D48F8
:101D300014300068012803D1A00201D5AFF3008060
:101D4000274818300068012808D126481830006854
:101D5000012803D1600201D5AFF3008020481C3078
:101D60000068012808D11F481C300068012803D1F1
:101D7000200201D5AFF30080194820300068012807
:101D800008D1184820300068012803D1E00101D5AE
:101D9000AFF30080144D286806EAD010124E1C36AE
:101DA000316801F4C061084203D0200101D5AFF3CE
:101DB00000802868316807EAD01001F4C051084259
:101DC00003D0E00001D5AFF30080BDE8F081000052
:101DD00000100540800A3042000E30420080014071
:101DE000808A3042008E30425484014070B54F48A2
:101DF000D0F86C424E480068012807D14D48006871
:101E0000012803D1E00701D0AFF300804848001D4E
:101E10000068012808D14748001D0068012803D147
:101E2000A00701D5AFF300804148083000680128C1
:101E300008D1404808300068012803D1600701D567
:101E4000AFF300803A480C300068012808D13948C7
:101E50000C300068012803D1200701D5AFF30080C2
:101E6000334810300068012808D13248103000682B
:101E7000012803D1E00601D5AFF300802C481430CF
:101E80000068012808D12B4814300068012803D1CC
:101E9000A00601D5AFF3008025481830006801285E
:101EA00008D1244818300068012803D1600601D504
:101EB000AFF300801E481C300068012808D11D487F
:101EC0001C300068012803D1200601D5AFF3008043
:101ED000174820300068012808D1164820300068D3
:101EE000012803D1E00501D5AFF30080124E306820
:101EF000114D4FF4C0611C3501EAD010296801F47E
:101F0000C061084203D0200501D5AFF300803068DE
:101F10004FF4C05101EAD010296801F4C0510842C1
:101F200003D0E00401D5AFF3008070BD0010054080
:101F3000800A3142000E3142548801402DE9F041BF
:101F40009248D0F87C42924ED6F88050E80405D5ED
:101F5000680403D5E00701D0AFF30080A80405D5DD
:101F6000280403D5A00701D5AFF3008056F8900FE1
:101F7000F168084010F0FF0F03D0600701D5AFF300
:101F8000008084480568E80405D5680403D5200767
:101F900001D5AFF30080A80405D5280403D5E006D9
:101FA00001D5AFF300807B481030006879491C31BF
:101FB0000968084010F0FF0F03D0A00601D5AFF369
:101FC000008075480568E80405D5680403D56006F7
:101FD00001D5AFF30080A80405D5280403D5200659
:101FE00001D5AFF300806C48103000686A491C319D
:101FF0000968084010F0FF0F03D0E00501D5AFF3EA
:10200000008066480568E80405D5680403D5A00586
:1020100001D5AFF30080A80405D5280403D56005D9
:1020200001D5AFF300805D48103000685B491C317A
:102030000968084010F0FF0F03D0200501D5AFF369
:102040000080574ED6F88050E80405D5680403D5C3
:10205000E00401D5AFF30080A80405D5280403D51A
:10206000A00401D5AFF3008056F8900FF168084046
:1020700010F0FF0F03D0600401D5AFF30080494892
:102080000568E80405D5680403D5E00301D5AFF37E
:102090000080A80405D5280403D5A00301D5AFF31B
:1020A00000804048103000683E491C3109680840F3
:1020B00010F0FF0F03D0600301D5AFF300804FF0A5
:1020C0008740D0F8000101280BD137498869374A89
:1020D000496910401140084203D0200301D5AFF3F5
:1020E000008033480668C568A80606D516F00B0FB1
:1020F00003D0600201D5AFF3008005EA0607B806F9
:1021000003D5200201D5AFF30080380603D5E001E6
:1021100001D5AFF30080780603D5A00101D5AFF358
:102120000080A80705D5F00503D5600101D5AFF300
:102130000080204807681F480C300568A80606D5AF
:1021400017F00B0F03D0200101D5AFF3008005EA93
:102150000706B00603D5E00001D5AFF300803006D6
:1021600003D5A00001D5AFF30080700603D5600051
:1021700001D5AFF30080A80705D5F80503D5002CDD
:1021800001DAAFF30080BDE8F081000000100540E7
:10219000005001408054014080580140805C014063
:1021A000006001408064014000000C40FBFC7CF7B3
:1021B00000D0014000D401402DE9F0417548D0F82D
:1021C000804275480668C568A80606D516F00B0F4C
:1021D00003D0E00701D0AFF3008005EA0607B80698
:1021E00003D5A00701D5AFF30080380603D56007FB
:1021F00001D5AFF30080780603D5200701D5AFF3F2
:102200000080A80705D5F00503D5E00601D5AFF39A
:1022100000806248076861480C300568A80606D54A
:1022200017F00B0F03D0A00601D5AFF3008005EA2D
:102230000706B00603D5600601D5AFF3008030066F
:1022400003D5200601D5AFF30080700603D5E00565
:1022500001D5AFF30080A80705D5F80503D5A00583
:1022600001D5AFF300804E4845684669680505D53D
:10227000300603D5200501D5AFF30080A80505D5AC
:10228000B00603D5E00401D5AFF30080280505D5DD
:10229000F00703D1A00401D5AFF30080E80506D50F
:1022A00016F01D0F03D0600401D5AFF300803D4848
:1022B00005683C4810300668680505D5300603D52A
:1022C000E00301D5AFF30080A80505D5B00603D51E
:1022D000A00301D5AFF30080280505D5F00703D191
:1022E000600301D5AFF30080E80506D516F01D0F99
:1022F00003D0200301D5AFF300802B484568466921
:10230000680505D5300603D5A00201D5AFF30080DE
:10231000A80505D5B00603D5600201D5AFF300804E
:10232000280505D5F00703D1200201D5AFF30080C1
:10233000E80506D516F01D0F03D0E00101D5AFF377
:1023400000801A480568194810300668680505D5E8
:10235000300603D5600101D5AFF30080A80505D58F
:10236000B00603D5200101D5AFF30080280505D5BF
:10237000F00703D1E00001D5AFF30080E80506D5F2
:1023800016F01D0F03D0A00001D5AFF30080BDE80B
:10239000F0810000001005400010024000140240CF
:1023A00000C0014004C40140000002400404024097
:1023B00070B56548D0F88442644D2E8BE00705D097
:1023C000F00603D5700601D5AFF30080A00705D550
:1023D000B00603D5300601D5AFF30080AE8B6007A1
:1023E00005D5F00603D5700601D5AFF300802007B0
:1023F00005D5B00603D5300601D5AFF300802E8C8D
:10240000E00605D5F00603D5700601D5AFF30080D0
:10241000A00605D5B00603D5300601D5AFF3008080
:10242000B5F84860600605D5F00503D5B00501D5BF
:10243000AFF30080200605D5B00403D5700401D5A4
:10244000AFF30080B5F8A450E00505D5E80703D048
:10245000E80601D5AFF30080A00505D5A80703D590
:10246000E80501D5AFF30080600505D5680703D501
:10247000E80401D5AFF3008035480588E00305D5B1
:10248000E80603D5680601D5AFF30080A00305D5A3
:10249000A80603D5280601D5AFF300802C48001DFF
:1024A0000588600305D5E80603D5680601D5AFF3B6
:1024B0000080200305D5A80603D5280601D5AFF373
:1024C0000080234808300588E00205D5E80603D5DA
:1024D000680601D5AFF30080A00205D5A80603D594
:1024E000280601D5AFF30080194830300588600216
:1024F00005D5E80503D5A80501D5AFF30080200276
:1025000005D5A80403D5680401D5AFF300801048B1
:102510008C300588E00105D5E80703D0E80601D531
:10252000AFF30080A00105D5A80703D5E80501D5C4
:10253000AFF30080600105D5680703D5E80401D535
:10254000AFF3008070BD0000001005400070014036
:102550001848024070B53548D0F88842344805889C
:10256000E00705D0E80603D5680601D5AFF3008083
:10257000A00705D5A80603D5280601D5AFF300802E
:102580002B48001D0588600705D5E80603D56806B9
:1025900001D5AFF30080200705D5A80603D528068E
:1025A00001D5AFF30080224808300588E00605D544
:1025B000E80603D5680601D5AFF30080A00605D56F
:1025C000A80603D5280601D5AFF30080184830309F
:1025D0000588600605D5E80503D5A80501D5AFF344
:1025E0000080200605D5A80403D5680401D5AFF303
:1025F00000800F488C300588E00505D5E80703D03A
:10260000E80601D5AFF30080A00505D5A80703D5DE
:10261000E80501D5AFF30080600505D5680703D54F
:10262000E80401D5AFF3008070BD00000010054044
:10263000184C024070B56548D0F88C426448006878
:10264000634900F00F000831096801F00F010842EA
:1026500003D0600601D5AFF300805D4820300068EC
:102660005B4900F00F002831096801F00F010842B2
:1026700003D0200601D5AFF30080554840300068F4
:10268000534900F00F004831096801F00F0108427A
:1026900003D0E00501D5AFF300804D4860300068FD
:1026A0004B4900F00F006831096801F00F01084242
:1026B00003D0A00501D5AFF30080464D686801281E
:1026C00007D1D5F88000012803D1E00301D5AFF38D
:1026D0000080E868012807D1D5F88400012803D1DB
:1026E000A00301D5AFF300802869012807D13A483B
:1026F0008068800703D0600301D5AFF30080374DB9
:102700006868012807D1D5F88000012803D120038B
:1027100001D5AFF30080E868012807D1D5F884001F
:10272000012803D1E00201D5AFF300802869012818
:1027300007D12B480068800703D0A00201D5AFF372
:102740000080284D6868012807D1D5F8800001284D
:1027500003D1600201D5AFF30080E868012807D1FA
:10276000D5F88400012803D1200201D5AFF3008001
:102770002869012807D11C488068800703D0E00140
:1027800001D5AFF30080194D6868012807D1D5F84D
:102790008000012803D1A00101D5AFF30080E868D3
:1027A000012807D1D5F88400012803D1600101D5A3
:1027B000AFF300802869012807D10D480068800721
:1027C00003D0200101D5AFF3008070BD001005409B
:1027D0000C7C014000003C4200E0014000803C4293
:1027E00008E40140000044420020024000804442CE
:1027F0000824024070B57048D0F890426F4DD5F86B
:102800009800012807D1D5F89803012803D1E006E4
:1028100001D5AFF30080D5F88C00012807D1D5F899
:102820008C03012803D1A00601D5AFF30080D5F8B1
:102830009C00012807D1D5F89C03012803D160062C
:1028400001D5AFF300805E4948685E4EC9693040EB
:102850003140084203D0200601D5AFF300805A4D25
:10286000D5F89800012807D1D5F89803012803D19D
:10287000E00501D5AFF30080D5F88C00012807D121
:10288000D5F88C03012803D1A00501D5AFF3008052
:10289000D5F89C00012807D1D5F89C03012803D165
:1028A000600501D5AFF300804848006847493040D3
:1028B000183109683140084203D0200501D5AFF333
:1028C0000080434DD5F89800012807D1D5F898032A
:1028D000012803D1E00401D5AFF30080D5F88C00C6
:1028E000012807D1D5F88C03012803D1A00401D514
:1028F000AFF30080D5F89C00012807D1D5F89C03E0
:10290000012803D1600401D5AFF30080314800688D
:1029100030493040183109683140084203D0200462
:1029200001D5AFF300802C4DD5F86002012807D106
:102930002A480068012803D1A00301D5AFF3008025
:10294000D5F87002012808D1244810300068012809
:1029500003D1600301D5AFF30080214DD5F800030A
:10296000012807D1D5F88003012803D1E00201D561
:10297000AFF30080D5F80403012807D1D5F884030C
:10298000012803D1A00201D5AFF30080D5F80803D8
:10299000012807D1D5F88803012803D1600201D5A9
:1029A000AFF300800F48406810F4403F03D020028E
:1029B00001D5AFF3008070BD0010054000009C42BF
:1029C00000E004401752F00000809C4204E4044000
:1029D00000009D4204E804400080A842241CA84254
:1029E00000809042009004402DE9F0413548D0F835
:1029F000944235480068012808D1334820380068DF
:102A0000012803D1E00701D0AFF300802E48001D5C
:102A10000068012808D12C481C380068012803D11F
:102A2000A00701D5AFF300802848B0F8B050284E79
:102A30003068284F012807D13868012800D01DB11F
:102A4000600701D5AFF300803068012807D13868EE
:102A5000012800D01DB1200701D5AFF300801E482A
:102A60000068012808D11C4820380068012803D1DB
:102A7000E00601D5AFF300801748001D006801286B
:102A800008D115481C380068012803D1A00601D5DB
:102A9000AFF30080114D2868114E012806D130880F
:102AA000C00503D0600601D5AFF300802868012877
:102AB00006D13088C00503D0200601D5AFF30080D1
:102AC000BDE8F08100100540E008804200000440AD
:102AD0002014804240168042E08880422094804248
:102AE000B004044070B52C4CD4F8080340F2F7153C
:102AF00040F27F16012811D1284800882749083163
:102B00000B88891F0988254A0A32128818402842F2
:102B100002D11140314201D0AFF30080D4F8140348
:102B200001280CD11E48018E038F428E408F194020
:102B3000294202D10240324201D0AFF30080D4F8E2
:102B40001803012827D117480378401E0278801CFB
:102B5000007814491A31097803F0010501F02004C6
:102B60002C4316D113405A0813D1C20701D0820753
:102B70000FD4420701D502070BD4C20601D5800647
:102B800007D4080701D5C80603D4480603D50806AC
:102B900001D5AFF3008070BD0050A24230FC06406A
:102BA00000000740A504074010B5AFF3008010BD3A
:102BB00010B5AFF3008010BDF0B5154E4AF20155C7
:102BC000002435800125870106F1060E05FA04F080
:102BD000084211D007EB84007044B0F800C062F3E3
:102BE000050CA0F800C0B0F800C0012B0DD02CF4EB
:102BF000807C00BFA0F800C0641CE4B2102CE5D3B8
:102C00004FF4254030800020F0BD4CF4807CF1E78B
:102C1000FC3B0540044A0129516802D00143516040
:102C200070478143FBE7000000800440094B042209
:102C3000984208D0084B984205D0084B984202D0E1
:102C4000074B984204D1426861F386124260002229
:102C50001046704700C0014000C40140000002401F
:102C600000040240654B0422984208D0644B98420D
:102C700005D0644B984202D0634B98427ED1002924
:102C80007CD00A7D012A7FD0826922F400428261D1
:102C9000826922F480428261826922F40052826158
:102CA000C26822F4E002C260C26822F0E062C26040
:102CB000C26822F0E042C2608A7C002A7ED082692B
:102CC00022F0E0028261C26822F48072C260C268AF
:102CD00022F40072C260C26822F48062C260C268DC
:102CE00022F40062C260CB7AC26863F38612C260CB
:102CF0004B7CC26863F30102C2600B7C826963F3A0
:102D00000C328261CB7B826963F30B2282618B7B05
:102D1000826963F3840282610B7B826963F34102FF
:102D200082614B7B826963F3000282618B7C426823
:102D300063F300024260CB7C426863F3410242606D
:102D40000B7D426863F3C30242604B7D426863F3CC
:102D5000C71242608B7D426863F30C324260CB7DC8
:102D6000426863F34D3242600B7E426863F3CF32B8
:102D700042604A7E416862F38E3101E002E003E086
:102D800041600022104670470B78826963F3CF32AE
:102D900082618B78826963F38E3282610B798269FA
:102DA00063F34D3282614B78C26863F31652C2609E
:102DB000CB78C26863F31A62C26000E004E04B792A
:102DC000C26863F31E7276E78B79826963F34712F8
:102DD0008261CB79C26863F30822C2600B7AC26851
:102DE00063F34922C2604B7AC26863F38A22C260ED
:102DF0008B7AC26863F3CB2274E7000000C0014005
:102E000000C40140000002400004024010B5144C10
:102E10000423A04208D0134CA04205D0124CA0427B
:102E200002D0124CA04210D131B1012908D00229A0
:102E30000DD0032908D10EE0416862F3CB2102E0F6
:102E4000416862F38A2141600023184610BD416841
:102E500062F34921F7E7416862F30821F3E70000D4
:102E600000C0014000C401400000024000040240D4
:102E70000068C0B270470000084B0422984208D096
:102E8000074B984205D0074B984202D0064B984218
:102E900001D10160002210467047000000C00140CF
:102EA00000C40140000002400004024002497620B4
:102EB00008600020704700000C0805400249772098
:102EC00008600020704700000C0805400249762089
:102ED0000860002070470000040805400249772080
:102EE00008600020704700000408054010B5AFF3EB
:102EF0000080BDE8104000F02DBA000070B51B49FD
:102F000091F826001A4E00F007021A4874104FF488
:102F10000043062A05D2DFE802F00305070507098A
:102F2000066070BD046070BD036070BDD1F8002103
:102F3000C2F3C015D1F80021C2F30823D1F8002153
:102F4000D1F80011120F01F01F015DB1002DECD07E
:102F5000491CB6FBF1F15B1C5943521CB1FBF2F169
:102F6000016070BD491CB4FBF1F1F4E7004005407D
:102F70000024F4000C80FF1FFFF7C0BF00F06CF8C6
:102F800000F060F84FF46174204600F05FFDFBE74D
:102F900010484169490703D5416921F004014161A5
:102FA0004169C90603D5416921F0100141614169B8
:102FB000090703D5416921F0080141614169C90749
:102FC00003D0416921F001014161416841F04001B4
:102FD000416070470000024001490020C8707047FE
:102FE0001080FF1F10B50D48FFF742FF0C490D4C34
:102FF00000230870552806D1CA78012A03D96278BF
:10300000222A00D0CB70CA78A054521CD0B2C8700B
:10301000322800D3CB700120487010BD0000024060
:103020001080FF1F9482FF1F10B5FF210348FFF798
:1030300023FF03490120887010BD000000000240FA
:103040001080FF1F55210148FFF716BF0000024006
:1030500010B5AFF3008010BD70B58AB01C2102A876
:10306000FDF7A9F900240121009488040194FFF7D9
:10307000D1FD00232B2201210420FFF79DFD002319
:103080002A2202210420FFF797FD04210023282291
:103090000846FFF791FD0023292208210420FFF7AD
:1030A0008BFD05258DF81D408DF816508DF81940C3
:1030B00004268DF81E408DF817608DF818408DF8A5
:1030C0001F408DF8204001208DF814408DF81A40E3
:1030D0008DF821408DF81C008DF815408DF81340B7
:1030E0008DF81B40029403943F4C02A92046FFF741
:1030F000B9FD4FF49B70ADF800003C480190ADF86D
:103100000260684600F0CAF8BDF9020000F08CF8D1
:10311000BDF902000F2100F0A1F8BDF9020000F096
:1031200090F840F23510ADF8000031480190ADF84C
:103130000250684600F0B2F8BDF9020000F074F8E1
:10314000BDF902000F2100F089F8BDF9020000F07E
:1031500078F84FF49C70ADF800000F20ADF8020035
:1031600024480190684600F099F8BDF9020000F08B
:103170005BF8BDF902000F2100F070F8BDF9020004
:1031800000F05FF840F23710ADF800001020ADF805
:10319000020019480190684600F080F8BDF902006D
:1031A00000F042F8BDF902000F2100F057F8BDF918
:1031B000020000F046F80A20FDF7A0FC01221146AB
:1031C0002046FFF723FE012202212046FFF71EFEC4
:1031D000012203212046FFF719FE01212046FFF7B7
:1031E00025FD0AB070BD000000000240293000003B
:1031F000E52F0000912F0000D92F00001CB50749D2
:103200000320CDE900010023802205A1054800F03C
:1032100033FDBDE81C4000F03FBC00000480FF1FF0
:103220004C4544007D2F0000002809DB00F01F0200
:10323000012191404009800000F1E020C0F8801297
:103240007047002809DB00F01F020121914040096E
:10325000800000F1E020C0F8001170470907090E56
:10326000002804DB00F1E02080F80014704700F033
:103270000F0000F1E02080F8141D704702E008C83C
:10328000121F08C1002AFAD170477047002001E0E0
:1032900001C1121F002AFBD17047000030B503881E
:1032A00000215A0902EB4204202202EB4405B0F946
:1032B0000220954204DC252505EB4404944203DA00
:1032C000202A01DB042113E00A4C04EB820214687B
:1032D000094DB5EBC45F0AD1146863F308041460A8
:1032E0004268B0F90200054B43F8202000E00721B6
:1032F000084630BD5C100540000080FF7480FF1F51
:103300001148016841F47001016000F04DFA0F4866
:10331000FDF786F80D484FF47A714068B0FBF1F084
:10332000401EB0F1807F0AD24FF0E0214861084A88
:10333000F02082F8140D0020886107200861FDF755
:1033400021FCFFF75BFFFEE788ED00E07482FF1FC2
:103350000FE000E010B500F0BBFC012803D0BDE891
:10336000104000F073BC10BD2DE9F041184C0F4621
:103370000546E6682068001D00F0B2FA38B92068FA
:1033800090F82C1001208840216981432161681C3C
:1033900007D137B12168BDE8F0410E48091D00F0A2
:1033A000D7BA20683544B5424560216805D2A06B84
:1033B000BDE8F041091D00F0B3BA606B091D00F0D3
:1033C000AFFAA06A854200D2A562BDE8F081000094
:1033D0001480FF1FA483FF1F2DE9F041054600F074
:1033E000C3FA2E4CA068401CA06020682C4F10B17E
:1033F000606940B32DE02560A068012829D100262E
:1034000006EB860007EB800000F07CFA761C072EA6
:10341000F6D323488C3000F075FA2148A03000F034
:1034200071FA1F48B43000F06DFA1D48C83000F042
:1034300069FA1B48DC3000F065FA19488C3060638B
:103440001430A06305E02068E96AC06A884200D8A9
:103450002560606A401C6062E96A01202269884038
:103460001043206101EB810007EB8000291D00F073
:103470006FFA00F099FA606900280CD02068E96AB8
:10348000C06A884207D207494FF080500860BFF3F6
:103490004F8FBFF36F8FBDE8F08100001480FF1FD6
:1034A000C882FF1F04ED00E070B5114E114C17E00B
:1034B00000F026FB3068B8B100F07CFC00F054FA54
:1034C000F068C568281D00F00BFAA068401EA060D7
:1034D0006068401E606000F067FA284600F00CF853
:1034E00060680028E4D170BD00F064FCF8E70000DB
:1034F0009083FF1F1480FF1F10B50446006B00F07F
:1035000067FA2046BDE8104000F062BA10484FF458
:103510007051420706D0C01D0D4920F00700411A26
:10352000C1F570510B4A00230144C2E90003083978
:10353000103A21F0070111604B600B600B1AC0E9D3
:10354000001393604FF000405360D060704700005C
:10355000B883FF1F6080FF1F074C4FF08056074D58
:10356000FFF7A2FF20680128FAD92E60BFF34F8F22
:10357000BFF36F8FF4E70000C882FF1F04ED00E087
:103580002DE9F0479A46DDE9098481466FF003038F
:10359000206B03EB82021044089D20F007067007A1
:1035A00007D0502080F31188BFF34F8FBFF36F8F88
:1035B000FEE723180A5C83F834200A5C12B1401C31
:1035C0001028F6D3002784F84370072D00D3062572
:1035D000E562C4E91157201D00F09FF904F11800BD
:1035E00000F09BF92461C5F107006462A061E76403
:1035F00084F8507052464946304600F0BFF82060CB
:10360000B8F1000F01D0C8F80040BDE8F087000015
:1036100030B5114900E011460A688242FBD34B687D
:103620005C18844203D140681844486008464368E7
:103630001C18944209D1084C103C2468A24209D0BD
:1036400052681A4442600A6812680260814200D0DF
:10365000086030BD0460F9E76080FF1F0648416BD9
:10366000096829B1416BC968C968496881627047B6
:103670004FF0FF31FAE700001480FF1F0848406850
:10368000401C4FF0500080F3118804D0BFF34F8FDF
:10369000BFF36F8FFEE7BFF34F8FBFF36F8FFEE770
:1036A0006880FF1F2DE9F0410546002700F028FA49
:1036B000314E306808B9FFF729FFF06805424BD159
:1036C000C5B3083568070ED005F00700C0F1080043
:1036D0000544680707D0502080F31188BFF34F8F4F
:1036E000BFF36F8FFEE72DB37068854234D8224850
:1036F000103001460C6801E020460C466168A94282
:1037000002D221680029F7D131688C4224D00768A1
:103710002168016060680837411B10290FD96019C2
:10372000420708D0502080F31188BFF34F8FBFF3BA
:103730006F8FFEE710E041606560FFF769FF616829
:103740007068401A7060B268904200D2B060F06851
:1037500001430020C4E9000100F02CFB780707D0EA
:10376000502080F31188BFF34F8FBFF36F8FFEE7B8
:103770003846BDE8F08100005080FF1F10B5031FE0
:103780004FF080741C601B1F21F001011960191F8C
:10379000044B0B6014390A60091F6FF002024438B1
:1037A0000A6010BD7D360000F0B58DB000261421F2
:1037B00068460C96FCF7FFFD142105A8FCF7FBFDFD
:1037C0000A9601200B96FCF7B3FE0120FCF7EAFEF7
:1037D0000020FDF757F90020FDF706F98DF832605B
:1037E0008DF8306001248DF831400CA8FDF728F9E0
:1037F0000120FDF7F9F80020FCF778FF02250620EC
:10380000CDE900502A270F20CDE90207049468462D
:10381000FCF728FF0120FCF7F1FE0220FCF766FE12
:103820000128FAD10720059009940690CDE90707F1
:1038300005A8FDF795F80120FDF764F80320FCF7D3
:1038400055FE0128FAD10B20FCF7AEFF8DF8295068
:103850008DF828608DF82C508DF82A608DF82D5049
:103860008DF82B408DF82E40FDF770F90420FDF700
:1038700065F9FDF757F9FFF731FBFFF71FFB174815
:10388000016821F0E06101F180710160016821F0BF
:10389000E04101F180510160016821F4E06101F52E
:1038A00080710160016821F4E04101F580510160FF
:1038B000016821F00701491C0160016821F07001D5
:1038C00010310160FFF702FBFFF7F0FA0520FCF76B
:1038D0001FFF0AA8FCF7BAFF0DB0F0BD00080540B5
:1038E000D0E9013201699A60D0E901235A604A683F
:1038F000824201D182684A60002202610868401E4B
:103900000860704700F108014FF0FF32C0E9011272
:10391000C1600161002101607047002101617047B1
:1039200030B50B685A1C02D000F1080202E00269AF
:1039300004E02246546825689D42FAD953684B60DA
:1039400099608A60516008610168491C016030BD5E
:1039500042684A6093688B6093685960916008611F
:103960000168491C01607047502080F31188BFF343
:103970004F8FBFF36F8F0A494868401C4860012889
:103980000CD10848006810F0FF0F07D0502080F3DA
:103990001188BFF34F8FBFF36F8FFEE770470000B2
:1039A0006880FF1F04ED00E00849486828B1401E08
:1039B000486001D180F311887047502080F311884E
:1039C000BFF34F8FBFF36F8FFEE700006880FF1FCC
:1039D00070B5002827D0144DA0F108046168E8688C
:1039E000014207D1502080F31188BFF34F8FBFF3FE
:1039F0006F8FFEE722683AB1502080F31188BFF341
:103A00004F8FBFF36F8FFEE78143616000F078F85E
:103A100060686968084468602046FFF7F9FDBDE802
:103A2000704000F0C7B970BD5080FF1F06484FF4CA
:103A30007A710068B0FBF1F14FF0E020491E41615E
:103A400007210161704700000C80FF1F10B50200C4
:103A500014D00F48006B38B1502080F31188BFF3A9
:103A60004F8FBFF36F8FFEE700F04AF8002110463A
:103A7000FFF77AFC00F09EF9002807D105494FF0C6
:103A800080500860BFF34F8FBFF36F8F10BD0000F1
:103A90001480FF1F04ED00E01CB515480024CDE99B
:103AA00000402346802213A1144800F0E5F80128C5
:103AB00009D0401C1AD1502080F31188BFF34F8FDA
:103AC000BFF36F8FFEE7502080F31188BFF34F8F55
:103AD000BFF36F8F06484FF0FF312C388162012110
:103AE0004161C460BDE81C4000F040B81CBD00004E
:103AF0004080FF1F49444C4500000000593500003C
:103B00000248016B491C0163704700001480FF1FCD
:103B10001448016B11B10121C16170470021C161DD
:103B20000169B1FA81F1C1F11F0101EB81020E4976
:103B300051F822306BB101EB820101F108034A68B0
:103B400052684A609A4201D152684A60D168016065
:103B50007047502080F31188BFF34F8FBFF36F8FF2
:103B6000FEE700001480FF1FC882FF1F1CB532480B
:103B70000168324A914207D1502080F31188BFF387
:103B80004F8FBFF36F8FFEE700682C49491E8842B4
:103B900007D1502080F31188BFF34F8FBFF36F8F91
:103BA000FEE7274908780190FF20087008788DF813
:103BB00000009DF800009DF8002000F0F000904209
:103BC00007D0502080F31188BFF34F8FBFF36F8F62
:103BD000FEE79DF800001B4A00F05000107007201F
:103BE000906005E09DF800305B008DF80030401ECD
:103BF0009DF800301B06F5D4000200F4E0609060F0
:103C0000019808700C482030016841F4700101608F
:103C1000016841F070410160FFF708FF002050602B
:103C2000FCF758FB0848016841F040410160FCF78F
:103C300041FB00201CBD000000ED00E071C20F41FF
:103C400000E400E06880FF1F34EF00E010B5502072
:103C500080F31188BFF34F8FBFF36F8F00F046F8EA
:103C600018B104494FF080500860002080F311889B
:103C700010BD000004ED00E02DE9FF5F8346DDE9A3
:103C80000E87994616468A469000FFF70BFD050001
:103C90001AD05420FFF706FD040012D0256300213E
:103CA000CDE90241CDE900874B46324651465846A0
:103CB000FFF766FC2046FFF78FFB012004B0BDE84C
:103CC000F09F2846FFF784FE4FF0FF30F6E7000034
:103CD0000548416919B1006B18B1002070470120F7
:103CE00070470220704700001480FF1F2DE9F0414B
:103CF0002E4C0027206B40B1A069401CA061E069F8
:103D000000B101273846BDE8F081E668761CE66020
:103D100013D1606B006838B1502080F31188BFF375
:103D20004F8FBFF36F8FFEE7606BA16B6163A06382
:103D3000206A401C2062FFF791FCA06ADFF87080C7
:103D4000864209D3606B006880B1606BC068C5684B
:103D5000686886420DD2A0622068C06A00EB8001CC
:103D600058F821000128CAD90127C8E74FF0FF30D1
:103D7000F1E7281DFFF7B4FDA86A18B105F1180096
:103D8000FFF7AEFDE86A01212269814011432161FC
:103D900000EB800108EB8100291DFFF7D9FDE86ADF
:103DA0002168C96A8842CDD30127CBE71480FF1F61
:103DB000C882FF1F2DE9F0472C4D00242746286BB1
:103DC00038B1FFF7D1FD286B401E2863286B40B146
:103DD00046E0502080F31188BFF34F8FBFF36F8F01
:103DE000FEE7A968224E0120D1B3A6F1B4098046AE
:103DF0003068E8B1F068C46804F11800FFF770FD9E
:103E0000201DFFF76DFDE06A2A6908FA00F11143F1
:103E1000296100EB800109EB8100211DFFF798FD6E
:103E2000E06A2968C96A8842E2D3C5F81C80DFE7E6
:103E30000CB1FFF713FCAC6944B14646FFF756FFDF
:103E400000B1EE61641EF9D10020A861E86938B1C3
:103E50000849012738070860BFF34F8FBFF36F8F02
:103E6000FFF7A2FD3846BDE8F08700001480FF1F71
:103E70007C83FF1F04ED00E0983E00000080FF1FE0
:103E8000740000007C3200000C3F00007480FF1FB3
:103E9000444300008C3200000000000000000000DD
:103EA0000000000000127A00000000000000000086
:103EB0000000000000000000000000000000000002
:103EC00000000000000000000000000000000000F2
:103ED00000000000000000000000000000000000E2
:103EE00000000000000000000000000000000000D2
:103EF00000000000000000000000000000000000C2
:0C3F000000000000AAAAAAAA000000000D
:040000050000028174
:00000001FF
