:020000040000FA
:10000000B0C5FF1F510300008D460000F91B000022
:1000100085460000F9030000C94D00000000000003
:100020000000000000000000000000009502000039
:10003000551A000000000000E9020000314C0000E9
:10004000AD200000C1200000D5200000E920000004
:10005000FD200000112100002521000039210000B1
:100060004D21000061210000752100008921000060
:100070009D210000B1210000C5210000D921000010
:10008000ED210000012200001522000029220000BD
:100090003D2200005122000065220000792200006C
:1000A0008D220000A1220000B5220000C92200001C
:1000B000DD220000F12200000523000019230000CA
:1000C0002D230000452300005D2300007523000060
:1000D0008D230000A5230000BD230000D5230000D0
:1000E000ED230000052400001D240000352400003D
:1000F0004D240000652400007D24000095240000AC
:10010000AD240000C5240000DD240000F52400001B
:100110000D250000252500003D2500005525000087
:100120006D250000852500009D250000B5250000F7
:10013000CD250000E5250000FD2500001526000066
:100140002D260000452600005D26000075260000D3
:100150008D260000A5260000BD260000D526000043
:10016000ED260000052700001D27000035270000B0
:100170004D270000652700007D270000952700001F
:10018000AD270000C5270000DD270000F52700008F
:100190000D280000252800003D28000055280000FB
:1001A0006D280000852800009D280000B52800006B
:1001B000CD280000E5280000FD28000015290000DA
:1001C0002D290000452900005D2900007529000047
:1001D0008D290000A5290000BD290000D5290000B7
:1001E000ED290000052A00001D2A0000352A000024
:1001F0004D2A0000652A00007D2A0000952A000093
:10020000AD2A0000C52A0000DD2A0000F52A000002
:100210000D2B0000252B00003D2B0000552B00006E
:100220006D2B0000852B00009D2B0000B52B0000DE
:10023000CD2B0000E52B0000FD2B0000152C00004D
:100240002D2C00007D2D0000E5310000C1320000A2
:10025000893500009303000093030000930300001E
:10026000F9360000193A0000A13C0000D13E000020
:10027000F13F0000054200006144000075450000A8
:10028000DFF80CD000F044FB00480047D55B0000CD
:10029000B0C5FF1F2B4B19680868B0E8F04F80F31A
:1002A0000988BFF36F8F4FF0000080F3118870470B
:1002B0000000000006480068006880F3088862B605
:1002C00061B6BFF34F8FBFF36F8F00DF00BF00BF7A
:1002D00008ED00E0DFF80C00016841F470010160F6
:1002E000704700BF88ED00E0EFF30980BFF36F8F28
:1002F000144B1A681EF0100F08BF20ED108A20E979
:10030000F04F106008B44FF0500080F31188BFF335
:100310004F8FBFF36F8F06F0BDF94FF0000080F3F1
:10032000118808BC19680868B0E8F04F1EF0100F7B
:1003300008BFB0EC108A80F30988BFF36F8F704755
:1003400000BF00BF3880FF1FEFF30580704700003B
:1003500010484FF0770101600F484FF077010160BE
:100360000E484FF4885101600A484FF07601016051
:1003700009484FF076010160094880470948004765
:10038000FEE7FEE7FEE7FEE7FEE7FEE7FEE7FEE745
:10039000FEE7FEE7040805400C080540000805409C
:1003A000014D000081020000D2B201E000F8012BF3
:1003B000491EFBD270470022F6E710B513460A46E5
:1003C00004461946FFF7F0FF204610BD30B50B4636
:1003D000014600202022012409E021FA02F59D4275
:1003E00005D303FA02F5491B04FA02F52844151E49
:1003F000A2F10102F1DC30BD10B5AFF3008010BDF9
:10040000FFFFFFFFFFFFFFFFFFFFFFFFFFFFFFFFFC
:10041000FFFFFFFFFFFFFFFFFFFFFFFFFFFFFFFFEC
:100420002DE9F05F0546002092469B468846064629
:10043000814640241BE0284641464746224600F0BC
:1004400048F953465A46C01A914110D311461846EE
:10045000224600F02FF92D1A67EB01084F4622467D
:100460000120002100F026F917EB00094E41201E63
:10047000A4F10104DFDC484631462A464346BDE884
:10048000F09F2DE9FE4F804681EA0300C00F0C4625
:10049000009021F0004123F00045B8EB0200A94193
:1004A00005D24046214690461C460B46024623F0A4
:1004B0000040104347D0270DC7F30A00C3F30A5189
:1004C0000290401A019040286BDAC3F3130040F405
:1004D000801B0098924620B10023D2EB030A63EB05
:1004E0000B0B01985946C0F14002504600F0E2F86B
:1004F00006460D4650465946019A00F0FAF810EBB0
:1005000008006141002487EA115284EAE7731A4324
:1005100040D0009A62B3019A012A4FEA075215DCD3
:10052000001B61EB02014FF0004202EA0752CDE9E5
:100530000042001C41F5801132462B4600F0FAF8CB
:1005400003B0BDE8F08F40462146F9E7001B61EBA0
:100550000201001C41F5801300185B412018A2F530
:10056000001747EB030140EAD570B6196D4111E061
:100570006D084FEA360645EAC0754FEA0752001B80
:1005800061EB0201001C41F5801149084FEA30007F
:100590000019514132462B4603B0BDE8F04F00F040
:1005A000BAB80098012240000023D0EB020263EBAE
:1005B000E073009821464FEAE074B8EB000061EB6D
:1005C0000401E9E783F000435BE781F0004158E76D
:1005D0002DE9FE4F81EA030404F0004421F00041BC
:1005E00000944FF0000B23F0004350EA01045ED06A
:1005F00052EA03045BD0C3F30A54C1F30A552C44F6
:10060000A4F2F3340194A0FB0254C1F3130141F4AA
:100610008011C3F3130343F4801301FB024400FB76
:10062000034E840A970A44EA815447EA8357A4FB9D
:10063000076802958D0A05FB07854FEA932C04FB9A
:100640000C542705029D4FEA065847EA1637B5EBCA
:1006500008056EEB070C870E920E47EA811742EAF7
:100660008312A7FB0201B6EB0B0164EB00042B0D18
:1006700043EA0C335E1844EB1C50DA465146E7FB64
:100680000201C5F313044FEA0B3343EA14534FEA54
:100690000432019C43EA0603A4F10C040294009C7A
:1006A000CDE900B400F046F803B0BDE8F08F0020BB
:1006B0000146F9E7202A04DB203A00FA02F1002083
:1006C00070479140C2F1200320FA03F31943904090
:1006D0007047202A04DB203A21FA02F000217047FB
:1006E00021FA02F3D040C2F120029140084319469A
:1006F0007047202A06DBCB17203A41FA02F043EA82
:10070000E07306E041FA02F3D040C2F120029140CA
:1007100008431946704710B5141E73F1000408DA37
:10072000401C41F1000192185B411A4301D120F0B5
:10073000010010BD2DE9F04D92469B4611B1B1FA72
:1007400081F202E0B0FA80F220329046FFF7B2FF69
:1007500004460F4640EA0A0041EA0B0153465A4656
:10076000084313D0114653EA010019D0C8F14002E2
:100770005046FFF7AEFF05460E46504659464246E4
:10078000FFF798FF084305D0012004E020463946D2
:10079000BDE8F08D0020054346EAE0762C43374360
:1007A0000A986305E40AA0EB08000022FD0A44EA67
:1007B00047540A3002D500200146E9E70105101927
:1007C0006941DDE9084500196941BDE8F04DA2E73E
:1007D0002DE9F04D81EA030404F0004B21F00045BF
:1007E00014464FF0000A23F0004150EA050220D0E1
:1007F00054EA01021DD0C5F30A570246C5F313039C
:10080000C1F31300C1F30A5640F4801543F480137A
:10081000A7EB0608101BD64608F2FD3873EB05005F
:1008200002D308F1010801E092185B41B8F1000F12
:1008300003DA00200146BDE8F08D00204FF480115E
:10084000064684460EE0171B73EB050705D3121B03
:1008500063EB050306434CEA010C49084FEA3000FC
:1008600092185B4150EA0107EDD152EA030012D021
:1008700082EA040083EA0501084305D0101BAB415E
:1008800006D20122002306E000224FF0004302E0DE
:100890006FF0010253101AEB06004CEB085110EBFD
:1008A0000A0041EB0B01BDE8F04DFFF734BFC1F387
:1008B0000A52C1F3130140F2FF3341F480119A420E
:1008C00002DA00200146704740F233439A42A2F216
:1008D000334202DC5242FFF7FCBEFFF7EBBE0000E2
:1008E00030B5041E71F1000404DB4FF000444042B7
:1008F00064EB0101141E73F1000405DB1C464FF08C
:100900000043524263EB0403994208BF904230BD5A
:10091000064C074D06E0E06840F0010394E807004C
:1009200098471034AC42F6D3FFF7AEFC5C6B000086
:100930007C6B0000012001490870704700000440F2
:100940002DE9F04102460B460420002A4CD0002B32
:100950004AD01F79012F47DC244FBA421AD11F68B1
:10096000C7F310011F7957B997891FFA81FC47EA2D
:100970000C079781D78947EA1147D7811CE0178A6E
:100980001FFA81FC47EA0C071782578A47EA11478A
:10099000578211E01F88C7F308011F7937B997897B
:1009A0001FFA81FC47EA0C07978105E0178A1FFAB6
:1009B00081FC47EA0C0717820024002502F120067B
:1009C0000FE001F001074FB12F4605F1010C0CF0CB
:1009D000FF05D3F8088018F8077037554908671CD9
:1009E000FCB20029EDD10020BDE8F08100000440F8
:1009F00000B5024801F09CF800BD00003080FF1FE8
:100A000010B502460420FAB1F1B1002313700C783E
:100A1000538864F3051353804C78538864F3C713E9
:100A200053808C78538864F386135380CC78538832
:100A300064F3010353800C79938864F382039380F9
:100A4000002382F84730002010BD000070B500215F
:100A500000220024002300287ED0434D2D7805F08D
:100A60000705052D15D2DFE805F00306090D100076
:100A70003E4D05603BE03E4D056038E04FF40045DB
:100A8000056034E03A4D056031E04FF40045056003
:100A90002DE0354DDA352D68C5F3C013324D263DB6
:100AA000D5F800512A0F304DDA352D68C5F30821ED
:100AB0002D4D263DD5F8005105F01F0453B9651C96
:100AC0002B4EB6FBF5F54E1C7543561CB5FBF6F5E3
:100AD00005600BE0012B09D1651C244EB6FBF5F532
:100AE0004E1C7543561CB5FBF6F5056000BF00BFF4
:100AF0001D4E263E0568366AC6F30266F54045601F
:100B0000194E263E0568366AC6F30256F5408560E2
:100B1000154E263E0568366A06F00706F540C560A4
:100B2000114E263E0568366AC6F30216F540056189
:100B30000D4E263E0568366AC6F30226F54045612D
:100B4000094E263E0568366AC6F30236F5408561D1
:100B5000054E263E056800E004E0366AC6F302460C
:100B6000F540C56170BD0000264005400024F4003A
:100B700000127A00014631B101290DD0022914D0AA
:100B8000032924D11AE0184A127802F0010282F0F7
:100B9000010282F0010024E0134A1278C2F3C0027D
:100BA00082F0010282F001001BE00F4A1278C2F3CA
:100BB000401282F0010282F0010012E00A4A12782B
:100BC000C2F3801282F0010282F0010009E0064ABD
:100BD000521D127802F0010282F0010282F001003F
:100BE00000BF00BF704700003C40054038B50446D8
:100BF0000020009000254AF201502549088054BB8E
:100C00002448007800F0070008B901253AE021489F
:100C1000DA300068C0F3C01090B11E48001D0078A3
:100C200000F0010008B901252CE01A4810300078C6
:100C300020F00100401C1749263981F8360021E0D8
:100C400014481030007820F00100401C114926396A
:100C500081F8360016E00F481030007820F00100CF
:100C60000C49263981F8360000BF0020FFF782FFCB
:100C700003460098401C00900098B0F5805F01D2B8
:100C8000012BF2D14FF4254001490880284638BD98
:100C9000FE4305402640054008B50146002200926B
:100CA00000204AF20152144B1A8089B9134A127873
:100CB00002F00702022A01D1012018E00E4A29326F
:100CC000127822F00102521C0B4B29331A700EE0ED
:100CD000094A2932127822F00102074B29331A708F
:100CE00000BF009A521C0092009A052AF9D34FF4D3
:100CF0002542014B1A8008BDFE43054026400540B1
:100D000038B504460020009000254AF201501949E8
:100D1000088094B91848007800F00700052801D130
:100D2000012521E01448001D007820F00100401C3E
:100D30001149263981F82A0016E00F48001D007875
:100D400020F001000C49263981F82A0000BF02205A
:100D5000FFF710FF03460098401C00900098B0F584
:100D6000805F01D2012BF2D14FF425400149088068
:100D7000284638BDFE4305402640054010B50021F9
:100D80000022002843D0224B1B68C3F3C0130BB9C9
:100D9000204B00E0204B0469B3FBF4F1C36803FB74
:100DA00001F24AF201531D4C238003785B1E1C4C58
:100DB000D4F8004163F31F74154B1C6003795B1E6C
:100DC000174CD4F8004163F31B64114B1C60037A89
:100DD0005B1E134CD4F8004163F317540C4B1C609A
:100DE00083895B1E0E4CD4F8004163F31024084B3A
:100DF0001C60037C5B1E0A4CD4F8004163F30404BE
:100E0000034B1C604FF42543054CA4F8FE3310BD82
:100E10000041054000127A000024F400FE43054022
:100E2000004005404AF20151074A11800749D1F8B4
:100E3000001160F3C711064A11604FF42541034ABF
:100E4000A2F8FE1370470000FE4305400040054035
:100E50000041054010B586B00446002005902948A1
:100E600000680490274840680390264880680290F4
:100E70002448C06801902448007800F00700052845
:100E800001D0052C0DD121481E490860C0124860D0
:100E90008860C86000BF0598401C05900598B02880
:100EA000F9D34AF201501A4908801748263890F8B9
:100EB000260064F30200144908704FF425401249DB
:100EC0002639A1F8FE030020059000BF0598401CBC
:100ED00005900598B028F9D30A490498086003984A
:100EE0004860029888600198C8600020059000BFA3
:100EF0000598401C05900598B028F9D303F09EFE94
:100F000006B010BD0080044026400540EEFAFFFF09
:100F1000FE43054085B0002104912F4909680391E3
:100F20002D49496802912C49896801912A49C9686B
:100F300000912A49097801F0070105291BD12649AA
:100F4000096841F48031244A116011464968244AF5
:100F50001143214A5160019961F4004191601146A9
:100F6000C96841F01301D16000BF0499491C049184
:100F70000499B029F9D34AF201511A4A118017494C
:100F8000263991F8241060F30711144A921E11704B
:100F90004FF42541114A263AA2F8FE13002104918C
:100FA00000BF0499491C04910499B029F9D30A4A55
:100FB0000399116002995160019991600099D16083
:100FC0000021049100BF0499491C04910499B0299F
:100FD000F9D305B07047000000800440264005406A
:100FE00009010F00FE43054085B0002104912F49FF
:100FF000096803912D49496802912C49896801913A
:101000002A49C968009100284ED02949097801F081
:10101000070105290DD12749244A1160C9125160E1
:101020009160D16000BF0499491C04910499B029D2
:10103000F9D34AF20151204A11808178C27841EAFD
:101040000211027941EA0221427941EA02318279B0
:1010500041EA0241427841EA0251027841EA0261E2
:1010600041EA0271124A263A11624FF42541A2F870
:10107000FE130021049100BF0499491C04910499B6
:10108000B029F9D3094A0399116002995160019975
:1010900091600099D1600021049100BF0499491C1E
:1010A00004910499B029F9D305B070470080044039
:1010B00026400540EEFAFFFFFE43054018B5034603
:1010C000002000904AF2015013490880012B01D002
:1010D000012000E000201149097860F300010F4869
:1010E0002E3880F82E104FF425400B49088000BFA1
:1010F0000320FFF73FFD04460098401C0090009835
:10110000B0F5805F06D2012B01D1012000E0002064
:10111000A042EDD1002018BDFE4305402E40054001
:1011200010B500210022002848D0254B1B68C3F3CE
:10113000C0130BB9234B00E0234B0469B3FBF4F15C
:10114000C36803FB01F24AF20153204C2380037869
:101150005B1E1F4CD4F8044163F31F74184B1B1D16
:101160001C6003795B1E1A4CD4F8044163F31B64C2
:10117000134B1B1D1C60037A5B1E154CD4F80441F5
:1011800063F317540E4B1B1D1C6083895B1E104CB0
:10119000D4F8044163F31024094B1B1D1C60037C2D
:1011A0005B1E0B4CD4F8044163F30404044B1B1D79
:1011B0001C604FF42543064CA4F8FE3310BD00001C
:1011C0000041054000127A000024F400FE4305406F
:1011D0000040054008B501460022009200204AF276
:1011E0000152144B1A8089B9134A127802F007028F
:1011F000042A01D1012018E00E4A2232127822F08E
:101200000102521C0B4B22331A700EE0094A2232A3
:10121000127822F00102074B22331A7000BF009AA5
:10122000521C0092009A052AF9D34FF42542014B33
:101230001A8008BDFE4305402640054018B34AF217
:101240000151114A118002780F492331097862F364
:1012500082010D4A2332117042780B4923310978FB
:1012600062F30101084A233211708278064927315E
:10127000097862F30101044A273211704FF42541C5
:10128000024AA2F8FE137047FE43054000400540A5
:1012900038B504460020009000254AF20150264946
:1012A00008805CBB2548007800F00700032801D1C6
:1012B00001253AE02148DA300068C0F3C01090B947
:1012C0001E48001D007800F0010008B901252CE03F
:1012D0001A480C30007820F00100401C17492639CC
:1012E00081F8320021E015480C30007820F0010030
:1012F000401C1249263981F8320016E00F480C30A4
:10130000007820F001000D49263981F8320000BF35
:101310000120FFF72FFC03460098401C0090009826
:10132000B0F5805F01D2012BF2D14FF42540024984
:101330000880284638BD0000FE4305402640054091
:1013400001200149087070473280FF1F10B5024626
:101350000420174B9A4208D0164B9A4205D0164BE0
:101360009A4202D0154B9A4221D101B30023136057
:1013700093617F235361CC79136864F30203136094
:101380008C79136864F3C40313600C7A136864F3F4
:10139000082313604C79936964F3C81393610B6855
:1013A00093610C79136864F3DF731360002010BD40
:1013B000002005400024054000280540002C054081
:1013C0002DE9F04106460C460427304600F008F8A7
:1013D00005460DB12C6000273846BDE8F0810000BD
:1013E000014600200C4A914201D10C4812E00C4AFF
:1013F000914202D10948001D0CE00A4A914202D1F3
:101400000648083006E0084A914202D103480C30F1
:1014100000E0002070470000002005400408014063
:101420000024054000280540002C054010B5074960
:10143000896888B203F0F6FB044880680449088094
:101440004FF47A700149886010BD0000002005400B
:101450003480FF1F10B500BF00F15C0303EB811364
:101460001B6823F003031478234300F15C0404EBAE
:101470008114236000BF00BF00F15C0303EB811304
:101480001B6823F00C03547843EA840400F15C03E6
:1014900003EB81131C6000BF00BF00F15C0303EB92
:1014A00081131B6823F01003947843EA041400F1BD
:1014B0005C0303EB81131C6000BF00BF00F15C0301
:1014C00003EB81131B6823F02003D47843EA441410
:1014D00000F15C0303EB81131C6000BF00BF00F14F
:1014E0005C0303EB81131B6823F04003147943EA88
:1014F000841400F15C0303EB81131C6000BF00BF88
:1015000000F15C0303EB81131B6823F08003547923
:1015100043EAC41400F15C0303EB81131C6000BFB9
:1015200000BF00F15C0303EB81131B6823F44073DD
:10153000947943EA042400F15C0303EB81131C60FB
:1015400000BF00BF00F15C0303EB81131B6823F4B1
:101550008063D47943EA842400F15C0303EB8113B4
:101560001C6000BF00BF00F15C0303EB81131B682C
:1015700023F40063147A43EAC42400F15C0303EB10
:1015800081131C6000BF00BF00F15C0303EB8113FB
:101590001B6823F48053547A43EA043400F15C035B
:1015A00003EB81131C6000BF10BD0000F0B50346C3
:1015B0001546002200265F48007800286FD10120E0
:1015C0005C4F3870DF69884027EA0006002E67D03C
:1015D000D86900F00100D8B1D1B1986C040C986EB4
:1015E0000A27B7EB104F13D3986EB4EB104F0FD9F7
:1015F00009E0501C82B2B2F5A04F04D900204D4F33
:1016000038700920F0BDD86900F001000028F0D141
:10161000D86900F00200022820D101291ED0D3F899
:101620008800040CD3F8A8000A27B7EB104F15D395
:10163000D3F8A800B4EB104F10D9002209E0501CD9
:1016400082B2B2F5A04F04D900203A4F3870092079
:10165000D8E7D86900F002000028F0D1D86900F07E
:101660000400042822D1022920D00022D3F8C80087
:10167000040CD3F8E8000A27B7EB104F16D3D3F8C1
:10168000E800B4EB104F11D90BE0501C82B2B2F558
:10169000A04F06D90020274F38700920B2E746E056
:1016A0002AE0D86900F004000028EED1D86900F0E3
:1016B0000800082820D103291ED00022D3F80801F1
:1016C000040CD3F828010A27B7EB104F14D3D3F832
:1016D0002801B4EB104F0FD909E0501C82B2B2F5CB
:1016E000A04F04D90020134F387009208AE7D86929
:1016F00000F008000028F0D14DB1012D12D1D869B9
:1017000001278F4007F00F073843D8610AE0D869F6
:1017100001278F404FF00F0C2CEA070C00EA0C0059
:10172000D86100BF00BF0020024F38706AE7012077
:1017300068E700000080FF1F70B50346002039B144
:10174000012905D0022903D0032901D0042026E075
:1017500032B1012A0AD0022A10D0032A1CD113E088
:101760005C6901258D402C435C6117E05C6901F1E7
:1017700010050126AE4034435C610FE09C690125F1
:101780008D402C439C6109E09C6901F11005012604
:10179000AE4034439C6101E0042000BF00BF70BD37
:1017A000026861F3000202607047000070B50546F0
:1017B0000C46164601212846FFF7F2FF05F15C00B2
:1017C00000EB8410006820F4805105F15C0000EB10
:1017D0008410016005F1400000EB84107168016025
:1017E00005F1440000EB8410B168016000BF05F111
:1017F000480000EB841000686FF30900318808434B
:1018000005F1480101EB8411086000BF00BF718839
:1018100005F1480000EB8410006861F31F4005F1FA
:10182000480101EB8411086000BF00BF05F14C00C6
:1018300000EB841000686FF30900B189084305F1DB
:101840004C0101EB8411086000BF00BF05F14C00A2
:1018500000EB841000682B490840F18940EA0141FF
:1018600005F14C0000EB8410016000BF00BF05F1E2
:10187000500000EB841000686FF313007169084397
:1018800005F1500101EB8411086000BF00BF318BEE
:1018900005F1500000EB8410006861F31F5005F162
:1018A000500101EB8411086000BF00BF05F1540036
:1018B00000EB841000686FF31300F169084305F131
:1018C000540101EB8411086000BF00BF318C05F1A9
:1018D000540000EB8410006861F31F5005F15401BF
:1018E00001EB8411086000BF05F1580000EB841083
:1018F0003169016006F1240221462846FFF7AAFD5E
:1019000070BD0000FFFF00FC10B5094B984205D1E7
:10191000084C04EB8103C3F8142807E0064B9842F7
:1019200004D1044C04EB8103C3F8242810BD00004B
:1019300000300540000001400034054008B5002299
:1019400000920021094A116842F21072B1FBF2F1D3
:1019500006E0009100BF009A531E0093002AFAD1BE
:10196000021EA0F10100F4D108BD00002880FF1F75
:1019700008B50122002100910D4909680D4B9942DB
:1019800010D90B490968B1FBF3F206E0009200BFE1
:1019900000994B1E00930029FAD1011EA0F101000D
:1019A000F4D104E000BF011EA0F10100FBD108BD8D
:1019B0002880FF1F8096980010B500244AF201503D
:1019C000204908802048008820F03F0020301E4930
:1019D00008804FF425401B4908801C48406820F0CF
:1019E00080601A4948601A48C06820F08050184941
:1019F000C8600846C06820F08070C8600846C068AB
:101A000020F4004000F50040C8600846C06820F49B
:101A10008050C8600846C06820F48060C8604FF4F9
:101A2000E13003F041F808B1012409E00020084941
:101A3000086148610846C06820F008000830C860A6
:101A4000204610BDFC3B0540163D0540008004408B
:101A50000010024010B5AFF3008010BD044948608B
:101A600000BF03490968C1F380110029F9D070470C
:101A7000001002400349096860F31041014A1160F7
:101A8000704700000804014004480068012804D1A0
:101A900043F21020014908600860704700040140CB
:101AA0000349096860F30711014A1160704700009B
:101AB0000804014040F223100249086043F210205C
:101AC000086070470004014010B5024610780A4BC8
:101AD000042414FB00315378086863F3C7100860CE
:101AE0009378086863F305100860D378086863F397
:101AF00001000860002010BD1010054000210720E3
:101B00000FE0421E094B9A5C00EE902AF8EE600A44
:101B1000F4EEC00AF1EE10FA01D8014603E0421ECD
:101B2000D0B20028EDD100BF084670470180FF1FEA
:101B30000249B1F8641001807047000000000440C1
:101B400001480088704700003480FF1F00BF00BFBD
:101B500000BFBFF35F8F00BF00BF00BF0548006834
:101B600020F4803003490860002002497031086089
:101B70007047000024ED00E030B58DB004460D46FE
:101B800005A8FEF763FF1948844204D10121102003
:101B900002F04AFF11E01648844204D101212020BE
:101BA00002F042FF09E01348844204D101214020A1
:101BB00002F03AFF01E00DB030BD204600F019F907
:101BC00000BF0020019002900390049000BF8DF8A8
:101BD000040003950B98029001A9204600F029F912
:101BE0000121204600F000F900BFE4E700E00440D6
:101BF00000E4044000E8044010B5AFF3008010BDDD
:101C000000B585B000BF0020049000BF00BF039066
:101C100000BF00BF029000BF00BF019000BF00BF27
:101C2000009000BF3848006800900098C0F307207B
:101C300008B905B000BDFFF789FF039820F0FF0049
:101C40000390029800F01F000290019820F03E00DF
:101C500020300190019820F4803000F58030019010
:101C6000019820F4003000F500300190019820F434
:101C7000802000F580200190019820F0E06000F1C4
:101C800080700190019820F4601000F50020019010
:101C9000019820F08050019003981B49083108609A
:101CA0000298091D08600198091D0860049820F039
:101CB0000100401C0490049820F00400001D0490D2
:101CC000049820F00200801C04900F486C380068D3
:101CD00040F480300C496C39086004980A49091DA9
:101CE000086000BF00BF00BFBFF34F8F00BF00BF41
:101CF00000BF00BF00BF00BFBFF36F8F00BF00BFBA
:101D000000BF00BF95E7000090ED00E02DE9F05F17
:101D10002DED028B04460F4691469A469FED2B0A05
:101D2000B0EE408A4FF0000B00250026A846216B3C
:101D3000C1F3001121B1216B01F003014D1C00E042
:101D4000002502261FB1BAFBF7F1A1EB090800EE4E
:101D5000105AB8EE400ADFED1E0A70EE200A00EEBF
:101D6000106AB8EE400A30EE800AF0EE000A60EE2B
:101D7000200A00EE108AB8EE400A80EE201AB0EE7B
:101D8000418A00BFB0EE480AFFF7B8FE08B9032643
:101D900000E002260F49095CB8FBF1FBE16A60F341
:101DA0001241E162C5EB5B018A1BE16A62F3040147
:101DB000E162ABEB5B01491B8A1BE16A62F30C2118
:101DC000E162BDEC028BBDE8F09F00000000000066
:101DD000000000420180FF1F026A024B0B401A43C1
:101DE00002627047DF56F000026861F30002026091
:101DF00070470146086820F001000860086820F478
:101E0000004000F50040086000207047026861F360
:101E1000082202607047026861F34922026070473D
:101E200002460020D3690B400BB1012000E00020E6
:101E3000704770B504460D46002605B10CB904265E
:101E400020E0206820F001002060206820F400409D
:101E500000F500402060206820F00100401C206058
:101E60002046D5E90131EA68FFF750FF206820F0ED
:101E700040002060206820F400402060206820F0AE
:101E800001002060304670BD416270472DE9F04787
:101E900006460F4690469946DDF820A04FF4806133
:101EA0003046FFF7BDFF012803D101033046FFF79D
:101EB00093FF4FF400313046FFF7B2FF01280FD1F6
:101EC00041023046FFF7ACFF012806D14FF6FF7004
:101ED000306201213046FFF79EFF0220BDE8F08707
:101EE00001213046FFF792FF4FF4805410E0201E8E
:101EF000A4F101040CD14FF400313046FFF790FFFC
:101F0000012803D101213046FFF785FF0320E5E7D3
:101F100080213046FFF784FF0028E8D07806010EC4
:101F20003046FFF7B1FF4FF4805410E0201EA4F1BB
:101F300001040CD14FF400313046FFF771FF012846
:101F400003D101213046FFF766FF0320C6E70821D1
:101F50003046FFF765FF0028E8D04FF4805410E0CA
:101F6000201EA4F101040CD14FF400313046FFF7DC
:101F700057FF012803D101213046FFF74CFF042011
:101F8000ACE74FF480613046FFF74AFF0128E7D005
:101F900041463046FFF778FF4FF4805410E0201E92
:101FA000A4F101040CD14FF400313046FFF738FFA3
:101FB000012803D101213046FFF72DFF03208DE7D3
:101FC00008213046FFF72CFF0028E8D04FF480545A
:101FD00010E0201EA4F101040CD14FF40031304672
:101FE000FFF71EFF012803D101213046FFF713FF41
:101FF000032073E74FF480613046FFF711FF01289B
:10200000E7D000253BE019F805103046FFF73CFF0C
:102010004FF4805410E0201EA4F101040CD14FF4C1
:1020200000313046FFF7FCFE012803D10121304684
:10203000FFF7F1FE032051E708213046FFF7F0FEDD
:102040000028E8D04FF4805410E0201EA4F10104D1
:102050000CD14FF400313046FFF7E2FE012803D1E6
:1020600001213046FFF7D7FE032037E74FF48061A8
:102070003046FFF7D5FE0128E7D0681CC5B25545AC
:10208000C1DB4FF4805400BF01213046FFF7C3FE8F
:10209000201EA4F1010401D103201FE710213046C6
:1020A000FFF7BEFE0028EFD0002017E710B5034869
:1020B000006810B101490868804710BD9C80FF1F6F
:1020C00010B50348406810B101494868804710BD09
:1020D0009C80FF1F10B50348806810B101498868D3
:1020E000804710BD9C80FF1F10B50348C06810B129
:1020F0000149C868804710BD9C80FF1F10B5034888
:10210000006910B101490869804710BD9C80FF1F1C
:1021100010B50348406910B101494869804710BDB6
:102120009C80FF1F10B50348806910B10149886980
:10213000804710BD9C80FF1F10B50348C06910B1D7
:102140000149C869804710BD9C80FF1F10B5034836
:10215000006A10B10149086A804710BD9C80FF1FCA
:1021600010B50348406A10B10149486A804710BD64
:102170009C80FF1F10B50348806A10B10149886A2E
:10218000804710BD9C80FF1F10B50348C06A10B186
:102190000149C86A804710BD9C80FF1F10B50348E5
:1021A000006B10B10149086B804710BD9C80FF1F78
:1021B00010B50348406B10B10149486B804710BD12
:1021C0009C80FF1F10B50348806B10B10149886BDC
:1021D000804710BD9C80FF1F10B50348C06B10B135
:1021E0000149C86B804710BD9C80FF1F10B5034894
:1021F000006C10B10149086C804710BD9C80FF1F26
:1022000010B50348406C10B10149486C804710BDBF
:102210009C80FF1F10B50348806C10B10149886C89
:10222000804710BD9C80FF1F10B50348C06C10B1E3
:102230000149C86C804710BD9C80FF1F10B5034842
:10224000006D10B10149086D804710BD9C80FF1FD3
:1022500010B50348406D10B10149486D804710BD6D
:102260009C80FF1F10B50348806D10B10149886D37
:10227000804710BD9C80FF1F10B50348C06D10B192
:102280000149C86D804710BD9C80FF1F10B50348F1
:10229000006E10B10149086E804710BD9C80FF1F81
:1022A00010B50348406E10B10149486E804710BD1B
:1022B0009C80FF1F10B50348806E10B10149886EE5
:1022C000804710BD9C80FF1F10B50348C06E10B141
:1022D0000149C86E804710BD9C80FF1F10B50348A0
:1022E000006F10B10149086F804710BD9C80FF1F2F
:1022F00010B50348406F10B10149486F804710BDC9
:102300009C80FF1F10B50348806F10B10149886F92
:10231000804710BD9C80FF1F10B50348C06F10B1EF
:102320000149C86F804710BD9C80FF1F10B504484D
:10233000D0F8800018B10249D1F88000804710BD64
:102340009C80FF1F10B50448D0F8840018B10249E2
:10235000D1F88400804710BD9C80FF1F10B5044851
:10236000D0F8880018B10249D1F88800804710BD24
:102370009C80FF1F10B50448D0F88C0018B10249AA
:10238000D1F88C00804710BD9C80FF1F10B5044819
:10239000D0F8900018B10249D1F89000804710BDE4
:1023A0009C80FF1F10B50448D0F8940018B1024972
:1023B000D1F89400804710BD9C80FF1F10B50448E1
:1023C000D0F8980018B10249D1F89800804710BDA4
:1023D0009C80FF1F10B50448D0F89C0018B102493A
:1023E000D1F89C00804710BD9C80FF1F10B50448A9
:1023F000D0F8A00018B10249D1F8A000804710BD64
:102400009C80FF1F10B50448D0F8A40018B1024901
:10241000D1F8A400804710BD9C80FF1F10B5044870
:10242000D0F8A80018B10249D1F8A800804710BD23
:102430009C80FF1F10B50448D0F8AC0018B10249C9
:10244000D1F8AC00804710BD9C80FF1F10B5044838
:10245000D0F8B00018B10249D1F8B000804710BDE3
:102460009C80FF1F10B50448D0F8B40018B1024991
:10247000D1F8B400804710BD9C80FF1F10B5044800
:10248000D0F8B80018B10249D1F8B800804710BDA3
:102490009C80FF1F10B50448D0F8BC0018B1024959
:1024A000D1F8BC00804710BD9C80FF1F10B50448C8
:1024B000D0F8C00018B10249D1F8C000804710BD63
:1024C0009C80FF1F10B50448D0F8C40018B1024921
:1024D000D1F8C400804710BD9C80FF1F10B5044890
:1024E000D0F8C80018B10249D1F8C800804710BD23
:1024F0009C80FF1F10B50448D0F8CC0018B10249E9
:10250000D1F8CC00804710BD9C80FF1F10B5044857
:10251000D0F8D00018B10249D1F8D000804710BDE2
:102520009C80FF1F10B50448D0F8D40018B10249B0
:10253000D1F8D400804710BD9C80FF1F10B504481F
:10254000D0F8D80018B10249D1F8D800804710BDA2
:102550009C80FF1F10B50448D0F8DC0018B1024978
:10256000D1F8DC00804710BD9C80FF1F10B50448E7
:10257000D0F8E00018B10249D1F8E000804710BD62
:102580009C80FF1F10B50448D0F8E40018B1024940
:10259000D1F8E400804710BD9C80FF1F10B50448AF
:1025A000D0F8E80018B10249D1F8E800804710BD22
:1025B0009C80FF1F10B50448D0F8EC0018B1024908
:1025C000D1F8EC00804710BD9C80FF1F10B5044877
:1025D000D0F8F00018B10249D1F8F000804710BDE2
:1025E0009C80FF1F10B50448D0F8F40018B10249D0
:1025F000D1F8F400804710BD9C80FF1F10B504483F
:10260000D0F8F80018B10249D1F8F800804710BDA1
:102610009C80FF1F10B50448D0F8FC0018B1024997
:10262000D1F8FC00804710BD9C80FF1F10B5044806
:10263000D0F8000118B10249D1F80001804710BD5F
:102640009C80FF1F10B50448D0F8040118B102495E
:10265000D1F80401804710BD9C80FF1F10B50448CD
:10266000D0F8080118B10249D1F80801804710BD1F
:102670009C80FF1F10B50448D0F80C0118B1024926
:10268000D1F80C01804710BD9C80FF1F10B5044895
:10269000D0F8100118B10249D1F81001804710BDDF
:1026A0009C80FF1F10B50448D0F8140118B10249EE
:1026B000D1F81401804710BD9C80FF1F10B504485D
:1026C000D0F8180118B10249D1F81801804710BD9F
:1026D0009C80FF1F10B50448D0F81C0118B10249B6
:1026E000D1F81C01804710BD9C80FF1F10B5044825
:1026F000D0F8200118B10249D1F82001804710BD5F
:102700009C80FF1F10B50448D0F8240118B102497D
:10271000D1F82401804710BD9C80FF1F10B50448EC
:10272000D0F8280118B10249D1F82801804710BD1E
:102730009C80FF1F10B50448D0F82C0118B1024945
:10274000D1F82C01804710BD9C80FF1F10B50448B4
:10275000D0F8300118B10249D1F83001804710BDDE
:102760009C80FF1F10B50448D0F8340118B102490D
:10277000D1F83401804710BD9C80FF1F10B504487C
:10278000D0F8380118B10249D1F83801804710BD9E
:102790009C80FF1F10B50448D0F83C0118B10249D5
:1027A000D1F83C01804710BD9C80FF1F10B5044844
:1027B000D0F8400118B10249D1F84001804710BD5E
:1027C0009C80FF1F10B50448D0F8440118B102499D
:1027D000D1F84401804710BD9C80FF1F10B504480C
:1027E000D0F8480118B10249D1F84801804710BD1E
:1027F0009C80FF1F10B50448D0F84C0118B1024965
:10280000D1F84C01804710BD9C80FF1F10B50448D3
:10281000D0F8500118B10249D1F85001804710BDDD
:102820009C80FF1F10B50448D0F8540118B102492C
:10283000D1F85401804710BD9C80FF1F10B504489B
:10284000D0F8580118B10249D1F85801804710BD9D
:102850009C80FF1F10B50448D0F85C0118B10249F4
:10286000D1F85C01804710BD9C80FF1F10B5044863
:10287000D0F8600118B10249D1F86001804710BD5D
:102880009C80FF1F10B50448D0F8640118B10249BC
:10289000D1F86401804710BD9C80FF1F10B504482B
:1028A000D0F8680118B10249D1F86801804710BD1D
:1028B0009C80FF1F10B50448D0F86C0118B1024984
:1028C000D1F86C01804710BD9C80FF1F10B50448F3
:1028D000D0F8700118B10249D1F87001804710BDDD
:1028E0009C80FF1F10B50448D0F8740118B102494C
:1028F000D1F87401804710BD9C80FF1F10B50448BB
:10290000D0F8780118B10249D1F87801804710BD9C
:102910009C80FF1F10B50448D0F87C0118B1024913
:10292000D1F87C01804710BD9C80FF1F10B5044882
:10293000D0F8800118B10249D1F88001804710BD5C
:102940009C80FF1F10B50448D0F8840118B10249DB
:10295000D1F88401804710BD9C80FF1F10B504484A
:10296000D0F8880118B10249D1F88801804710BD1C
:102970009C80FF1F10B50448D0F88C0118B10249A3
:10298000D1F88C01804710BD9C80FF1F10B5044812
:10299000D0F8900118B10249D1F89001804710BDDC
:1029A0009C80FF1F10B50448D0F8940118B102496B
:1029B000D1F89401804710BD9C80FF1F10B50448DA
:1029C000D0F8980118B10249D1F89801804710BD9C
:1029D0009C80FF1F10B50448D0F89C0118B1024933
:1029E000D1F89C01804710BD9C80FF1F10B50448A2
:1029F000D0F8A00118B10249D1F8A001804710BD5C
:102A00009C80FF1F10B50448D0F8A40118B10249FA
:102A1000D1F8A401804710BD9C80FF1F10B5044869
:102A2000D0F8A80118B10249D1F8A801804710BD1B
:102A30009C80FF1F10B50448D0F8AC0118B10249C2
:102A4000D1F8AC01804710BD9C80FF1F10B5044831
:102A5000D0F8B00118B10249D1F8B001804710BDDB
:102A60009C80FF1F10B50448D0F8B40118B102498A
:102A7000D1F8B401804710BD9C80FF1F10B50448F9
:102A8000D0F8B80118B10249D1F8B801804710BD9B
:102A90009C80FF1F10B50448D0F8BC0118B1024952
:102AA000D1F8BC01804710BD9C80FF1F10B50448C1
:102AB000D0F8C00118B10249D1F8C001804710BD5B
:102AC0009C80FF1F10B50448D0F8C40118B102491A
:102AD000D1F8C401804710BD9C80FF1F10B5044889
:102AE000D0F8C80118B10249D1F8C801804710BD1B
:102AF0009C80FF1F10B50448D0F8CC0118B10249E2
:102B0000D1F8CC01804710BD9C80FF1F10B5044850
:102B1000D0F8D00118B10249D1F8D001804710BDDA
:102B20009C80FF1F10B50448D0F8D40118B10249A9
:102B3000D1F8D401804710BD9C80FF1F10B5044818
:102B4000D0F8D80118B10249D1F8D801804710BD9A
:102B50009C80FF1F10B50448D0F8DC0118B1024971
:102B6000D1F8DC01804710BD9C80FF1F10B50448E0
:102B7000D0F8E00118B10249D1F8E001804710BD5A
:102B80009C80FF1F10B50448D0F8E40118B1024939
:102B9000D1F8E401804710BD9C80FF1F10B50448A8
:102BA000D0F8E80118B10249D1F8E801804710BD1A
:102BB0009C80FF1F10B50448D0F8EC0118B1024901
:102BC000D1F8EC01804710BD9C80FF1F10B5044870
:102BD000D0F8F00118B10249D1F8F001804710BDDA
:102BE0009C80FF1F10B50448D0F8F40118B10249C9
:102BF000D1F8F401804710BD9C80FF1F10B5044838
:102C0000D0F8F80118B10249D1F8F801804710BD99
:102C10009C80FF1F10B50448D0F8FC0118B1024990
:102C2000D1F8FC01804710BD9C80FF1F10B55148B2
:102C3000046851480068012804D104F0010008B17B
:102C4000AFF300804C48001D0068012804D104F057
:102C5000020008B1AFF3008047480830006801283F
:102C600004D104F0040008B1AFF3008042480C30F6
:102C70000068012804D104F0080008B1AFF3008017
:102C80003D4810300068012804D104F0100008B15C
:102C9000AFF30080384814300068012804D104F0F4
:102CA000200008B1AFF300803348183000680128D5
:102CB00004D104F0400008B1AFF300802E481C306E
:102CC0000068012804D104F0800008B1AFF300804F
:102CD000294820300068012804D104F4807008B12C
:102CE000AFF30080244824300068012804D104F4A4
:102CF000007008B1AFF300801F4828300068012839
:102D000004D104F4806008B1AFF300801A482C307D
:102D10000068012804D104F4006008B1AFF300801A
:102D2000154830300068012804D104F4805008B1FF
:102D3000AFF30080104834300068012804D104F457
:102D4000005008B1AFF300800B483830006801280C
:102D500004D104F4804008B1AFF3008006483C3051
:102D60000068012804D104F4004008B1AFF30080EA
:102D700010BD00005C120540800AA24270B5FE48FA
:102D8000046800260025FD48006801282BD1FC4876
:102D9000006840B9FB480068012804D104F0010034
:102DA00008B1AFF30080F6484030006848B9F548F4
:102DB00040300068012804D104F4807008B1AFF3FA
:102DC0000080F148406800F00116EF48C1684FF0FC
:102DD000011020EA010506EA050020B104F4803064
:102DE00008B1AFF30080E948006801282DD1E4481C
:102DF000001D006848B9E348001D0068012804D19F
:102E000004F0020008B1AFF30080DD4844300068F0
:102E100048B9DC4844300068012804D104F400704B
:102E200008B1AFF30080D848406800F00216D648D9
:102E3000C1684FF0021020EA010506EA050020B142
:102E400004F4803008B1AFF30080D1480068012855
:102E50002DD1CB480830006848B9CA48083000680E
:102E6000012804D104F0040008B1AFF30080C44885
:102E70004830006848B9C34848300068012804D188
:102E800004F4806008B1AFF30080BF48406800F0F0
:102E90000416BD48C1684FF0041020EA010506EA97
:102EA000050020B104F4803008B1AFF30080B948C8
:102EB000006801282DD1B2480C30006848B9B148EB
:102EC0000C300068012804D104F0080008B1AFF309
:102ED0000080AB484C30006848B9AA484C300068C4
:102EE000012804D104F4006008B1AFF30080A648C3
:102EF000406800F00816A448C1684FF0081020EAA6
:102F0000010506EA050020B104F4803008B1AFF3F2
:102F10000080A148006801282CD1A048006840B971
:102F20009F480068012804D104F0100008B1AFF3F5
:102F300000809A484030006848B99948403000689D
:102F4000012804D104F4805008B1AFF30080954803
:102F5000006800F001169348083001684FF0011036
:102F600020EA010506EA050020B104F4003008B1AA
:102F7000AFF300808C48006801282ED18748001DDF
:102F8000006848B98648001D0068012804D104F093
:102F9000200008B1AFF3008080484430006848B991
:102FA000784844300068012804D104F4005008B186
:102FB000AFF300807B48006800F0021679480830C3
:102FC00001684FF0021020EA010506EA050020B171
:102FD00004F4003008B1AFF30080744800680128A1
:102FE0002ED16E480830006848B96D480830006836
:102FF000012804D104F0400008B1AFF30080674815
:103000004830006848B95F4848300068012804D15A
:1030100004F4804008B1AFF300806248006800F01B
:1030200004166048083001684FF0041020EA0105DA
:1030300006EA050020B104F4003008B1AFF30080C7
:103040005B48006801282ED154480C30006848B90C
:1030500053480C300068012804D104F0800008B106
:10306000AFF300804D484C30006848B945484C30BB
:103070000068012804D104F4004008B1AFF30080D7
:103080004848006800F008164648083001684FF0CC
:10309000081020EA010506EA050020B104F400301A
:1030A00008B1AFF3008043480068012809D14248C5
:1030B000006800F00F0020B104F4802008B1AFF3E5
:1030C00000803C4808300068012809D13948EC38B4
:1030D0000068012804D104F4002008B1AFF3008097
:1030E0003448001D0068012809D13248F0380068D2
:1030F000012804D104F4801008B1AFF300804FF030
:103100001C40C068C0F3C01020B104F4800008B1B6
:10311000AFF3008029488669456806EA050000F09B
:103120007F0020B104F4000008B1AFF30080244810
:10313000066823481438056806EA050000F07F0099
:1031400020B104F0807008B1AFF300801D4806681C
:103150001C481438056806EA050000F07F0020B11D
:1031600004F0007008B1AFF30080174806681648F5
:10317000143805682AE0000060120540B00BA64232
:103180000002A6420001A64200300540B013A6424C
:10319000B01BA642B023A642B08BA6420082A64234
:1031A0000081A64204340540B093A642B09BA642DB
:1031B000B0A3A64200832042100401400020054035
:1031C0001824054018280540182C054006EA05007B
:1031D00000F07F0020B104F0806008B1AFF3008000
:1031E00070BD000010B52F4804682F48D0F80802C1
:1031F000012808D12D480068012804D104F00100FD
:1032000008B1AFF30080294838380068012809D197
:10321000264840300068012804D104F0020008B1BB
:10322000AFF3008022480068012809D12048783097
:103230000068012804D104F0040008B1AFF3008055
:103240001B4840300068012809D11948B83000688F
:10325000012804D104F0080008B1AFF3008015483C
:103260000068012809D1134820300068012804D1E2
:1032700004F4001008B1AFF300800F48006B012880
:1032800004D104F4800008B1AFF300800B4800685B
:1032900000F4403020B104F4000008B1AFF3008026
:1032A00010BD000064120540000048428002484200
:1032B000088248420008A8420080984204940440D2
:1032C00070B5AA48046800260025A94800680128AE
:1032D00008D1A8480068012804D104F0010008B111
:1032E000AFF30080A248001D0068012809D1A14861
:1032F000001D0068012804D104F0020008B1AFF3FA
:1033000000809B4808300068012809D1994808309E
:103310000068012804D104F0040008B1AFF3008074
:1033200093480C300068012809D192480C3000689D
:10333000012804D104F0080008B1AFF300808C48E4
:1033400010300068012809D18A481030006801282F
:1033500004D104F0100008B1AFF3008084481430A9
:103360000068012809D1834814300068012804D17D
:1033700004F0200008B1AFF300807D4818300068E9
:10338000012809D17B4818300068012804D104F0D5
:10339000400008B1AFF3008075481C300068012878
:1033A00009D174481C300068012804D104F0800061
:1033B00008B1AFF300806E4820300068012809D1C1
:1033C0006C4820300068012804D104F4807008B1F2
:1033D000AFF300806848406D00F44030C60966488D
:1033E000006F00F4C06506EA050020B104F4006037
:1033F00008B1AFF300806048406D00F44020C6097A
:103400005D48006F00F4C05506EA050020B104F4E1
:10341000805008B1AFF3008058480068012808D1F7
:1034200057480068012804D104F4803008B1AFF394
:1034300000805248001D0068012809D15048001D35
:103440000068012804D104F4003008B1AFF3008013
:103450004A4808300068012809D149480830006806
:10346000012804D104F4802008B1AFF30080434860
:103470000C300068012809D141480C30006801284F
:1034800004D104F4002008B1AFF300803B481030B1
:103490000068012809D13A4810300068012804D199
:1034A00004F4801008B1AFF3008034481430006891
:1034B000012809D1324814300068012804D104F4ED
:1034C000001008B1AFF300802C48183000680128C4
:1034D00009D12B4818300068012804D104F4800079
:1034E00008B1AFF3008025481C300068012809D1DD
:1034F00023481C300068012804D104F4000008B1FE
:10350000AFF300801D4820300068012809D11C4815
:1035100020300068012804D104F0807008B1AFF3B6
:1035200000801848006800F44030C60915481C3077
:10353000006800F4C06506EA050020B104F00060F0
:1035400008B1AFF300800F48006800F44020C609BE
:103550000C481C30006800F4C05506EA050020B194
:1035600004F0805008B1AFF3008070BD68120540D0
:10357000800A3042000E304200800140808A304292
:10358000008E30425484014070B5574804680026CC
:10359000002556480068012808D1554800680128D0
:1035A00004D104F0010008B1AFF300804F48001DC2
:1035B0000068012809D14E48001D0068012804D187
:1035C00004F0020008B1AFF30080484808300068FA
:1035D000012809D1464808300068012804D104F0C8
:1035E000040008B1AFF3008040480C3000680128A7
:1035F00009D13F480C300068012804D104F00800CC
:1036000008B1AFF30080394810300068012809D1B3
:10361000374810300068012804D104F0100008B1C8
:10362000AFF30080314814300068012809D13048D8
:1036300014300068012804D104F0200008B1AFF371
:1036400000802A4818300068012809D1284818301D
:103650000068012804D104F0400008B1AFF30080F5
:1036600022481C300068012809D121481C3000681C
:10367000012804D104F0800008B1AFF300801B489A
:1036800020300068012809D119482030006801283D
:1036900004D104F4807008B1AFF3008015480068CD
:1036A00000F44030C60913481C30006800F4C065BF
:1036B00006EA050020B104F4006008B1AFF3008011
:1036C0000C48006800F44020C6090A481C30006815
:1036D00000F4C05506EA050020B104F4805008B19A
:1036E000AFF3008070BD00006C120540800A3142CB
:1036F000000E31425488014070B500240026BA48BB
:103700000568BA48D0F8804004F4805038B104F419
:10371000804020B105F0010008B1AFF3008004F44F
:10372000005038B104F4004020B105F0020008B1A7
:10373000AFF30080AD4890300468AC48D0F89C608E
:1037400004EA0600C0B220B105F0040008B1AFF3EE
:103750000080A748046804F4805038B104F4804025
:1037600020B105F0080008B1AFF3008004F4005068
:1037700038B104F4004020B105F0100008B1AFF3F7
:1037800000809B481030046899481C30066804EAA1
:103790000600C0B220B105F0200008B1AFF30080F0
:1037A0009448046804F4805038B104F4804020B197
:1037B00005F0400008B1AFF3008004F4005038B1C8
:1037C00004F4004020B105F0800008B1AFF30080A0
:1037D00088481030046887481C30066804EA0600F0
:1037E000C0B220B105F4807008B1AFF30080824808
:1037F000046804F4805038B104F4804020B105F42A
:10380000007008B1AFF3008004F4005038B104F444
:10381000004020B105F4806008B1AFF30080764825
:103820001030046874481C30066804EA0600C0B210
:1038300020B105F4006008B1AFF300806F48046860
:1038400004F4805038B104F4804020B105F4805075
:1038500008B1AFF3008004F4005038B104F4004024
:1038600020B105F4005008B1AFF300806348103078
:10387000046862488038D0F89C6004EA0600C0B250
:1038800020B105F4804008B1AFF300805C480468C3
:1038900004F4805038B104F4804020B105F4803045
:1038A00008B1AFF3008004F4005038B104F40040D4
:1038B00020B105F4003008B1AFF30080504810305B
:1038C00004684F481C30066804EA0600C0B220B104
:1038D00005F4802008B1AFF300804A480068012851
:1038E00010D149488069494900EA010446484069C5
:1038F00000EA010604EA060020B105F4002008B140
:10390000AFF3008042480468C66806F0200038B172
:1039100004F00B0020B105F4800008B1AFF3008083
:1039200006EA040000F0200020B105F4000008B110
:10393000AFF3008006EA040000F0800020B105F03B
:10394000807008B1AFF3008006EA040000F0400088
:1039500020B105F0007008B1AFF3008006F002005E
:1039600038B104F4807020B105F0806008B1AFF385
:1039700000802848046827480C30066806F02000BC
:1039800038B104F00B0020B105F0006008B1AFF3CE
:10399000008006EA040000F0200020B105F080500D
:1039A00008B1AFF3008006EA040000F0800020B107
:1039B00005F0005008B1AFF3008006EA040000F003
:1039C000400020B105F0804008B1AFF3008006F060
:1039D000020038B104F4807020B105F0004008B155
:1039E000AFF3008070BD00007C1205400050014024
:1039F0008054014080580140805C0140806001405B
:103A0000806401400001804300000C40FBFC7CF717
:103A100000D0014000D4014070B500240026994830
:103A2000056899480468C66806F0200038B104F0BB
:103A30000B0020B105F0010008B1AFF3008006EAE9
:103A4000040000F0200020B105F0020008B1AFF33F
:103A5000008006EA040000F0800020B105F00400B8
:103A600008B1AFF3008006EA040000F0400020B186
:103A700005F0080008B1AFF3008006F0020038B18D
:103A800004F4807020B105F0100008B1AFF300809D
:103A90007E4804687D480C30066806F0200038B186
:103AA00004F00B0020B105F0200008B1AFF3008056
:103AB00006EA040000F0200020B105F0400008B143
:103AC000AFF3008006EA040000F0800020B105F0AA
:103AD000800008B1AFF3008006EA040000F0400067
:103AE00020B105F4807008B1AFF3008006F0020049
:103AF00038B104F4807020B105F4007008B1AFF360
:103B0000008063484468466904F4806038B106F078
:103B1000800020B105F4006008B1AFF3008004F428
:103B2000007038B106F0200020B105F4805008B1D3
:103B3000AFF3008004F4006038B106F0010020B952
:103B400005F4005008B1AFF3008004F4807038B180
:103B500006F01D0020B105F4804008B1AFF30080ED
:103B60004C4804684B481030066804F4806038B153
:103B700006F0800020B105F4803008B1AFF300807A
:103B800004F4007038B106F0200020B105F40030D4
:103B900008B1AFF3008004F4006038B106F0010012
:103BA00020B905F4802008B1AFF3008004F48070E0
:103BB00038B106F01D0020B105F4002008B1AFF3C4
:103BC000008035484468466904F4806038B106F0E6
:103BD000800020B105F4001008B1AFF3008004F4B8
:103BE000007038B106F0200020B105F4800008B163
:103BF000AFF3008004F4006038B106F0010020B992
:103C000005F4000008B1AFF3008004F4807038B10F
:103C100006F01D0020B105F0807008B1AFF3008000
:103C20001E4804681D481030066804F4806038B1EE
:103C300006F0800020B105F0806008B1AFF300808D
:103C400004F4007038B106F0200020B105F00060E7
:103C500008B1AFF3008004F4006038B106F0010051
:103C600020B905F0805008B1AFF3008004F48070F3
:103C700038B106F01D0020B105F0005008B1AFF3D7
:103C8000008070BD80120540001002400014024008
:103C900000C0014004C4014000000240040402408E
:103CA00070B50024874805688748048B05F001003B
:103CB00038B104F0100020B104F0400008B1AFF3B7
:103CC000008005F0020038B104F0200020B104F0BB
:103CD000800008B1AFF300807B48848B05F00400BE
:103CE00038B104F0100020B104F0400008B1AFF387
:103CF000008005F0080038B104F0200020B104F085
:103D0000800008B1AFF300806F48048C05F010000C
:103D100038B104F0100020B104F0400008B1AFF356
:103D2000008005F0200038B104F0200020B104F03C
:103D3000800008B1AFF3008063484830048805F084
:103D4000400038B104F4807020B104F4007008B170
:103D5000AFF3008005F0800038B104F4005020B1CA
:103D600004F4804008B1AFF300805748A4300488C1
:103D700005F4807038B104F0010020B104F01000A7
:103D800008B1AFF3008005F4007038B104F0020010
:103D900020B104F4807008B1AFF3008005F48060B6
:103DA00038B104F0040020B104F4805008B1AFF33E
:103DB00000804648048805F4803038B104F01000D3
:103DC00020B104F0400008B1AFF3008005F40030EA
:103DD00038B104F0200020B104F0800008B1AFF346
:103DE00000803A48001D048805F4802038B104F0B2
:103DF000100020B104F0400008B1AFF3008005F4DA
:103E0000002038B104F0200020B104F0800008B197
:103E1000AFF300802D480830048805F4801038B1D5
:103E200004F0100020B104F0400008B1AFF30080AE
:103E300005F4001038B104F0200020B104F0800037
:103E400008B1AFF3008021483030048805F48000C9
:103E500038B104F4807020B104F4007008B1AFF3FD
:103E6000008005F4000038B104F4005020B104F4DF
:103E7000804008B1AFF3008014488C30048805F00E
:103E8000807038B104F0010020B104F0100008B1D6
:103E9000AFF3008005F0007038B104F0020020B1EB
:103EA00004F4807008B1AFF3008005F0806038B191
:103EB00004F0040020B104F4805008B1AFF3008096
:103EC00070BD000084120540007001401848024097
:103ED00070B50024444805684448048805F0010092
:103EE00038B104F0100020B104F0400008B1AFF385
:103EF000008005F0020038B104F0200020B104F089
:103F0000800008B1AFF300803848001D048805F038
:103F1000040038B104F0100020B104F0400008B1F2
:103F2000AFF3008005F0080038B104F0200020B1A4
:103F300004F0800008B1AFF300802C4808300488FA
:103F400005F0100038B104F0100020B104F040007A
:103F500008B1AFF3008005F0200038B104F0200074
:103F600020B104F0800008B1AFF300801F4830306A
:103F7000048805F0400038B104F4807020B104F4E6
:103F8000007008B1AFF3008005F0800038B104F490
:103F9000005020B104F4804008B1AFF30080134812
:103FA0008C30048805F4807038B104F0010020B131
:103FB00004F0100008B1AFF3008005F4007038B1D0
:103FC00004F0020020B104F4807008B1AFF3008067
:103FD00005F4806038B104F0040020B104F480508E
:103FE00008B1AFF3008070BD88120540184C024044
:103FF00070B57A480468002600257948006800F00A
:104000000F0677480830006800F00F0506EA050043
:1040100020B104F0400008B1AFF3008070482030B8
:10402000006800F00F066E482830006800F00F05A9
:1040300006EA050020B104F0800008B1AFF300806B
:1040400067484030006800F00F0665484830006857
:1040500000F00F0506EA050020B104F4807008B1F5
:10406000AFF300805E486030006800F00F065C48E7
:104070006830006800F00F0506EA050020B104F47E
:10408000007008B1AFF3008056484068012809D19C
:10409000544880300068012804D104F4803008B10D
:1040A000AFF300804F48C068012809D14D488430E3
:1040B0000068012804D104F4003008B1AFF3008097
:1040C00048480069012809D14748806800F003008A
:1040D00020B104F4802008B1AFF300804348406869
:1040E000012809D1414880300068012804D104F436
:1040F000002008B1AFF300803C48C068012809D116
:104100003A4884300068012804D104F4801008B1D2
:10411000AFF3008035480069012809D134480068B0
:1041200000F0030020B104F4001008B1AFF30080E8
:1041300030484068012809D12E48803000680128A5
:1041400004D104F4800008B1AFF300802948C068AE
:10415000012809D1274884300068012804D104F4DB
:10416000000008B1AFF3008022480069012809D19E
:104170002148806800F0030020B104F0807008B18D
:10418000AFF300801D484068012809D11B488030EA
:104190000068012804D104F0007008B1AFF300807A
:1041A0001648C068012809D11448843000680128E5
:1041B00004D104F0806008B1AFF300800F480069BB
:1041C000012809D10E48006800F0030020B104F076
:1041D000006008B1AFF3008070BD00008C12054094
:1041E0000C7C014000003C4200E0014000803C4269
:1041F00008E40140000044420020024000804442A4
:104200000824024070B587480468002600258648C7
:10421000D0F89800012808D184480068012804D10A
:1042200004F0100008B1AFF300807F488C300068C4
:10423000012809D17D480C380068012804D104F018
:10424000200008B1AFF3008077489C300068012857
:1042500009D17648001D0068012804D104F040000F
:1042600008B1AFF3008072484068724900EA010665
:104270006F48C06900EA010506EA050020B104F0B4
:10428000800008B1AFF300806B480068012808D1B6
:104290006A480068012804D104F4807008B1AFF3C3
:1042A000008065480C380068012809D163480C3843
:1042B0000068012804D104F4007008B1AFF3008055
:1042C0005D48001D0068012809D15C48001D006898
:1042D000012804D104F4806008B1AFF3008058488D
:1042E0000068544900EA010655481830006800EAA1
:1042F000010506EA050020B104F4006008B1AFF33F
:10430000008050480068012808D14F480068012803
:1043100004D104F4805008B1AFF3008049480C3850
:104320000068012809D148480C380068012804D1E8
:1043300004F4005008B1AFF300804248001D00684B
:10434000012809D14048001D0068012804D104F467
:10435000804008B1AFF300803C480068354900EA6E
:1043600001063A481830006800EA010506EA05002F
:1043700020B104F4004008B1AFF300803448006875
:10438000012808D133480068012804D104F4003022
:1043900008B1AFF300802E4810300068012809D121
:1043A0002C4810300068012804D104F4802008B1A2
:1043B000AFF3008028480068012809D126488030E2
:1043C0000068012804D104F4801008B1AFF3008024
:1043D0002148001D0068012809D11F488430006869
:1043E000012804D104F4001008B1AFF300801A488A
:1043F00008300068012809D1174888300068012872
:1044000004D104F4800008B1AFF300801348406881
:1044100000F4403020B104F4000008B1AFF3008094
:1044200070BD00009012054000009C4298039C4221
:1044300000E004401752F00098809C4298839C4210
:1044400004E4044098009D4298039D4204E804401F
:104450006082A842241CA84200839042009004403D
:1044600070B53C48046800253B480068012809D124
:10447000394820380068012804D104F0010008B14F
:10448000AFF300803448001D0068012809D132488C
:104490001C380068012804D104F0020008B1AFF311
:1044A00000802E4805882E480068012809D12D4833
:1044B0000068012800D025B104F0040008B1AFF372
:1044C000008027480068012809D126480068012893
:1044D00000D025B104F0080008B1AFF300802248F5
:1044E0000068012809D1204820380068012804D13B
:1044F00004F0100008B1AFF300801B48001D0068F5
:10450000012809D118481C380068012804D104F09A
:10451000200008B1AFF3008014480068012809D1D9
:1045200013480088C0F3080020B104F0400008B12F
:10453000AFF300800D480068012809D10C480088BD
:10454000C0F3080020B104F0800008B1AFF3008090
:1045500070BD000094120540E0088042B0000440A5
:104560002014804240168042E0888042209480429D
:10457000B00404402DE9F05F0026B3460024002576
:104580000027A046A146A2463A48006801281AD151
:104590003948078838480830B0F80080801FB0F8E4
:1045A000009035480A30B0F800A007EA080040F251
:1045B000F711084028B909EA0A0040F27F110840C3
:1045C00008B1AFF300802B480C300068012815D1EA
:1045D0002A48078EB0F83880B0F83290B0F83AA088
:1045E00007EA080040F2F711084028B909EA0A0072
:1045F00040F27F11084008B1AFF300801D48103031
:104600000068012834D11E480678401E90F800B09A
:10461000801C04781A481A30057805F0200028BB61
:1046200006F0010010BB06EA0B0000F0FE00E8B93E
:1046300004F0010010B104F00200B8B904F0040065
:1046400010B104F0080088B904F0100010B104F0B3
:10465000200058B905F0080010B105F0100028B985
:1046600005F0400020B105F0800008B1AFF30080F4
:10467000BDE8F09F0853A24230FC0640000007400E
:10468000A504074010B5AFF3008010BD10B5AFF31F
:10469000008010BD70B500241EE004F1B001C8B266
:1046A000002100F0F7F80021084600F0F3F800219F
:1046B000102000F0EFF800250AE00121002000F0B2
:1046C000E9F80020064901EBC4114855681CC5B241
:1046D000802DF2DB601CC4B2042CDEDB70BD000058
:1046E000ACBFFF1F10B500218D2000F0D3F80021D2
:1046F000142000F0CFF80021AF2000F0CBF810BD5F
:1047000010B5002333220121032000F041F90023DA
:1047100032220221032000F03BF902490248FDF752
:104720002BFA10BD801A060000E4044010B5FFF714
:10473000E7FFC820FDF702F90021AE2000F0AAF83B
:104740000021402000F0A6F80021B02000F0A2F8DF
:104750000021C82000F09EF80021812000F09AF886
:104760000021FF2000F096F80021A12000F092F82F
:104770000021A62000F08EF80021A82000F08AF881
:1047800000211F2000F086F80021D32000F082F8DD
:104790000021084600F07EF80021D52000F07AF8CC
:1047A0000021F02000F076F80021D92000F072F806
:1047B0000021222000F06EF80021DA2000F06AF8D3
:1047C0000021022000F066F80021DB2000F062F8F2
:1047D0000021492000F05EF800218D2000F05AF8F9
:1047E0000021142000F056F80021AF2000F052F80C
:1047F000FFF778FFFFF74EFF10BD000070B50024F3
:104800001CE004F1B001C8B2002100F043F800211F
:10481000084600F03FF80021102000F03BF800258A
:1048200008E0084901EBC411485D012100F032F8AD
:10483000681CC5B2802DF4DB601CC4B2042CE0DB24
:1048400070BD0000ACBFFF1F1CB51F2900DD1CBDE3
:104850000322A2EBE102D2B200929DF80020C2F145
:104860000302A1EBC202D2B201929DF80430802271
:104870001A410192064B9DF8004003EBC4131A182D
:1048800013789DF804402343137000BFDFE7000056
:10489000ACBFFF1F70B505460C461CB1284600F0A2
:1048A00073FC02E0284600F053FC70BDF0B50546ED
:1048B0000F461346002400F097F800BF57E0012090
:1048C000A0403840002850D02C4800EB851000EB69
:1048D00084022A48801C00EB851000EB840659787E
:1048E000108861F38E3010809978108861F30C3055
:1048F0001080D978108861F34920108019791088C8
:1049000061F3861010809979108861F3820010801D
:104910005979108861F305101080187820B10128AA
:104920000BD002281AD112E0108820F40040108029
:10493000108820F00200108011E0108820F4004060
:104940001080108820F00200801C108007E0108882
:1049500020F4004000F50040108000E000BF00BFE0
:10496000D979308861F308203080601CC4B2102CE3
:10497000A5D300F005F80020F0BD0000003C054084
:104980004FF425400149088070470000FC3B05407A
:10499000F0B504460D4616461F46002300F024F8E5
:1049A000002319E001209840284098B10D4840218B
:1049B00001FB0400042101FB0302108866F30500DB
:1049C0001080012F01D1012000E00020118860F348
:1049D00008211180581CC3B2102BE3D3FFF7D0FF7E
:1049E0000020F0BD023C05404AF201500149088018
:1049F00070470000FC3B0540094A0A4B1A61012937
:104A000004D11A46126882431A6004E0054A12680B
:104A10000243044B1A60024A521E024B1A6170474D
:104A20000100A5A500800440012905D1054A52686E
:104A30008243044B5A6004E0024A52680243014B2D
:104A40005A60704700800440012905D1054AD268A8
:104A50008243044BDA6004E0024AD2680243014B0D
:104A6000DA60704700800440762002490860002028
:104A7000704700000C0805407720024908600020BC
:104A8000704700000C0805407620024908600020AD
:104A900070470000040805407720024908600020A4
:104AA00070470000040805402DE9F04F2DED028B02
:104AB00085B08246002004909FED550AB0EE408AF2
:104AC00000BF00244FF0FF3B039002905148006A62
:104AD000C0F30211012088404F490968B1FBF0F092
:104AE00003904E4880698007410F01208840039958
:104AF000B1FBF0F002905646DDF80890B9F1000FD6
:104B000002D1042004907DE04448C068C0F3C03561
:104B100000EE106AB8EE400AF2EE000A60EE200ADB
:104B200000EE105AB8EE400AB0EE001A31EE400A1C
:104B300060EE800A00EE109AB8EE401A81EE200A6C
:104B4000F7EE000A30EE600AB0EE408ABCEEC80A0A
:104B500010EE104AB5EEC08AF1EE10FA01D3FF2C28
:104B600002D9042004904DE000EE104AB8EE400A4D
:104B700038EE400ADFED2A0AB4EEE00AF1EE10FA50
:104B800028DD0021D5F1020261EB01004FF0010C9C
:104B900014EB0C0C41EB0103A2FB0C1E00FB0CE020
:104BA00002FB03020020A1FB067302FB063201FB9D
:104BB00000284FF400610022A7FB010308FB01312C
:104BC00007FB02114A460023CDE90001FBF728FC50
:104BD000B0F1800BBBF1FF3F01D0012100E00021CB
:104BE0000E48C06861F35D700C49C8600846806873
:104BF0006BF3060088600846806864F30F208860C5
:104C000000200490049805B0BDEC028BBDE8F08F45
:104C100000000000004005402880FF1F00100240F7
:104C2000ACC5273701490880704700003080FF1F5E
:104C300010B5AFF3008001F01FF810BD70B500246F
:104C40001320012100220023294D2D7805F00704AF
:104C5000062C4AD2DFE804F003070B101419254D87
:104C6000254E356041E0254D234E35603DE04FF443
:104C70000045214E356038E0204D1F4E356034E050
:104C80004FF400451C4E35602FE0194DDA352D6884
:104C9000C5F3C013164D263DD5F80051C5F30820C5
:104CA000134DDA352D68290F114D263DD5F80051E9
:104CB00005F01F025BB9551C104EB6FBF5F5461CFE
:104CC00075434E1CB5FBF6F50B4E35600CE0012B21
:104CD0000AD1551C074EB6FBF5F5461C75434E1C14
:104CE000B5FBF6F5044E356000BF00BF70BD000097
:104CF000264005400024F4002880FF1F00127A009F
:104D000000B5FFF79BFF00BD00F0C0F800F060F8B1
:104D100000F00AF901F0A2FBFCF712FFA0F57A748B
:104D2000214615A000F04CFA01F0C2FB22E0FBF78F
:104D300001FE1548007810B100201349087001F0F9
:104D40008DFBFCF7FDFEA0F57A7421460AA000F069
:104D500037FAFCF7F5FEA0F57A74E01704EB506023
:104D6000C0F3C715284600F001FF01F0A1FB0A209F
:104D700001F016FCDBE7000041494E313020646150
:104D800074613A25640D0A003280FF1F1CB500F0E3
:104D900043F9FFF7CBFCFCF70FFE08480421002382
:104DA0008022CDE9001006A1064801F071FD04E063
:104DB000FFF724FD052001F0F3FBF9E71080FF1F4A
:104DC00041444300094D000010B5AFF3008010BD11
:104DD00000B58BB0FF200A9000BF0020089009901A
:104DE00000BF00BF05900690079000BF00BF039072
:104DF000049000BF00BF0190029000BF012108464F
:104E0000FFF722FE00208DF823008DF821008DF899
:104E1000200001208DF8220008A91A48FBF7F0FDB8
:104E200002208DF8040001AA0121FFF73FFD4FF495
:104E3000806005900AA8079000208DF8180005A949
:104E40001048FBF77DFD4FF4E070ADF80C000E4804
:104E500004900320ADF80E0003A800F03BFE0948C3
:104E60004630007820F00100064981F846000548E8
:104E70004730007820F00100401C81F847000BB05B
:104E800000BD000000000440F109000000B585B03D
:104E900000BF002002900390049000BF00BF00906C
:104EA000019000BF012002908DF80D008DF80E00DA
:104EB00003208DF80F0001214FF08170FFF79CFD5A
:104EC00002A91748FCF742FA1548006820F0004094
:104ED00000F100401249086028211148FCF770FADF
:104EE0003720ADF800000C20ADF802000D4801900D
:104EF000684600F0EFFDBDF9020000280DDB00BFA1
:104F000000BF00F01F02012191404209920002F10E
:104F1000E022C2F8001100BF00BF00BF05B000BD15
:104F2000002005404113000000B58FB000BF3021C4
:104F300003A8FBF740FA00BF00BF002001900290D9
:104F400000BF0120ADF80C000020ADF80E002E4887
:104F500005902E4804904FF47A70ADF81800ADF823
:104F60001A0000218DF8371001218DF832108DF8CC
:104F7000331000208DF8300000218DF83110012110
:104F80008DF839108DF836108803FFF735FD0121B3
:104F90001F48FCF705FC03AA00211D48FCF706FC8E
:104FA000012200211A48FCF701FB022200211848C7
:104FB000FCF7C2FB2820ADF804000820ADF806007D
:104FC0001448029001A800F085FDBDF906000028F4
:104FD0000DDB00BF00BF00F01F020121914042091C
:104FE000920002F1E022C2F8001100BF00BF00BF32
:104FF00001214804FFF700FD4FF4E072002104484E
:10500000FCF782FC0FB000BD0C200540640004409A
:10501000003005402D14000000B587B000BF00200F
:105020000590069000BF00BF0390049000BF00BF32
:105030000190029000BF01208DF8140005AA4021C4
:105040000420FFF733FC05AA80210020FFF72EFC87
:1050500005AA20210120FFF729FC05AA4FF40071C1
:105060000120FFF723FC00208DF8140001208DF8AB
:10507000160005AA08210320FFF718FC05AA102135
:105080000320FFF713FC05AA20210320FFF70EFCE5
:1050900005AA40210320FFF709FC05AA4FF400618F
:1050A0000120FFF703FC01208DF8180000201B49A8
:1050B000087003208DF8000000208DF80300012007
:1050C0008DF8010003208DF802006846FCF7FCFC17
:1050D00004208DF800006846FCF7F6FC0320ADF8CC
:1050E00004000D20ADF806000D48029001A800F064
:1050F000F1FCBDF9060000F073F80420ADF80400DF
:105100000E20ADF806000748029001A800F0E2FC6E
:10511000BDF9060000F064F807B000BD2E80FF1F47
:10512000BD5B0000C95B00001CB5064803210023DD
:105130008022CDE9001004A1044801F0A9FB01F090
:105140005DFA1CBD0C80FF1F4C4544008D4D0000D6
:105150007CB505460026019500BF701CC6B2012033
:1051600001AB00223C2100900648FCF78FFE04466C
:105170001CB10A20FCF7FCFB00E001E0032EECDB95
:1051800000BF7CBD00E404407CB5054600260195C7
:1051900000BF701CC6B2012001AB40223C21009030
:1051A0000648FCF773FE04461CB10A20FCF7E0FB3E
:1051B00000E001E0032EECDB00BF7CBD00E4044016
:1051C0000FB4054B10B503A9044A029800F0EAF8A1
:1051D00010BC5DF814FB00005D5B00009880FF1FB1
:1051E00000280DDB00BF00BF00F01F02012191402D
:1051F0004209920002F1E022C2F8001100BF00BF94
:10520000704702E008C8121F08C1002AFAD170478F
:105210007047002001E001C1121F002AFBD1704736
:105220002DE9FF5F82B00021DDE90430020DDDF8D9
:1052300040B0034318D044F61050A2F2FF3242436C
:105240001514119801281FD0A5EB0B00401C5FEA34
:10525000000A4FF000064E4FDFF83891B046504636
:1052600015D5CAF1000413E0119801244AA30128BE
:1052700001D16FEA0B010298119AC0E90031C0E92F
:10528000024206B0BDE8F09FCBF10000DFE7044624
:105290000021404A491842EB0450CDE9001012E0C9
:1052A000E00707D032463B4640464946FBF790F9B7
:1052B0008046894632463B4610461946FBF788F938
:1052C00006460F466410002CEAD1DDE90401DDE951
:1052D0000023BAF1000F06DAFBF77AF942464B4693
:1052E000FBF776F905E0FBF773FA42464B46FBF70E
:1052F0006FFA04460E460022284BFBF7F1FA03D85A
:105300004FF0FF30014607E00022254B2046314692
:10531000FBF7B7F8FBF7CBFA102409E0002C0ADB07
:105320000A220023FBF77CF8039B30321A55641ED7
:1053300050EA0102F2D1641C039AC4F1110314442F
:10534000119A012A03D0012208430DD10AE0084333
:1053500004D000204FF0110B119072E7A3EB0B0566
:105360006D1E0DE05B4504DD4FF0000205F1010507
:1053700004E003DA4FF00002A5F10105002AECD0A9
:1053800002981199C0E90231C0E9004579E70000AF
:10539000000014400000F03F300000000000F04327
:1053A0000000E03F2DE9FF4F95B09B468946064639
:1053B00000250FE2252877D100242746F84A01214D
:1053C000059400E0044316F8013F203B01FA03F086
:1053D0001042F7D130782A2811D06FF02F0330789F
:1053E000A0F13002092A16D8059A44F0020402EB13
:1053F000820203EB42021044761C0590EFE759F855
:10540000042B0592002A03DA504244F4005405901C
:1054100044F00204761C30782E2816D116F8010FBD
:1054200044F004042A280DD06FF02F023078A0F148
:105430003003092B09D807EB870302EB4303C71896
:10544000761CF3E759F8047B761C30786C280FD073
:1054500006DC4C2817D068280DD06A2814D104E047
:10546000742810D07A280FD10DE044F400140AE01B
:1054700044F4801401E044F440147278824202D172
:1054800004F58014761C761C307866280BD013DC6B
:10549000582877D009DC002875D04528F6D0462852
:1054A000F4D047281AD19DE118E0632835D064284C
:1054B00079D0652812D195E1702873D008DC67286F
:1054C000F1D069286FD06E280DD06F2806D1B5E0D5
:1054D00073282CD0752875D0782874D05A4617991F
:1054E00090476D1C75E1C4F30250022809D00328CF
:1054F0000DD0D9F8001004280DD00D6009F1040971
:1055000067E1D9F80010EA17C1E90052F6E7D9F8C7
:1055100000100D80F2E70D70F0E719F8041B8DF80C
:10552000001000208DF80100EA46012003E059F840
:1055300004AB4FF0FF3061074FF0000102D40DE0E3
:1055400008F101018846B9420FDA8045F8DB1AF804
:1055500008100029F4D108E008F1010188468142D1
:10556000FADB1AF808100029F6D105985B46A0EB83
:10557000080721463846179A00F094FA284400EBB1
:10558000080507E04DE029E10DE01AF8010B5A4645
:1055900017999047B8F10108F7D25B462146384683
:1055A000179A13E142E00A220092C4F302524FF02C
:1055B000000A022A08D059F804CB032A4FEAEC71FA
:1055C0000AD00DE029E02AE009F1070121F00702E5
:1055D000F2E802C1914609E00FFA8CFC4FEAEC7147
:1055E000042A03D14FFA8CFC4FEAEC71002907DA48
:1055F0000A460021DCF1000C61EB02012D2202E0E1
:10560000220504D52B228DF80420012203E0E207B5
:1056100001D02022F7E7904659E00A2102E010224B
:105620000DE010214FF0000A00910BE010224FF026
:10563000000A44F004040827009203E008224FF017
:10564000000A0092C4F30252022A05D059F804CB92
:105650000021032A08D009E009F1070121F007021F
:10566000F2E802C1914605E01FFA8CFC042A01D140
:105670000CF0FF0C4FF00008220728D5702806D048
:10568000009B83F0100353EA0A0305D00EE040228A
:105690008DF80420012208E05CEA010206D03022E5
:1056A0008DF804208DF8050002229046009B83F0BF
:1056B000080353EA0A030AD15CEA010201D1620736
:1056C00005D530228DF804204FF001087F1E5828A0
:1056D00004D034A003900EA802900DE036A0F9E7A4
:1056E00053466046009AFAF79BFE84460398825C14
:1056F0000298401E029002705CEA0100F0D102980C
:1057000006A9081A00F1200A600702D524F48034A3
:1057100000E00127574502DDA7EB0A0000E000206A
:1057200000EB0A01009005984144401A0590E003FF
:1057300006D45B462146179A059800F0B3F9054454
:10574000002706E001A85A46C05D179990476D1CD6
:105750007F1C4745F6DBE0030CD55B462146179AD4
:10576000059800F09FF9054404E030205A46179947
:1057700090476D1C0099481E00900029F5DC08E058
:10578000029802995A460078491C0291179990474D
:105790006D1CBAF10001AAF1010AF1DC65E100001B
:1057A00009280100303132333435363738396162F7
:1057B00063646566000000003031323334353637BB
:1057C00038394142434445460000000000F058F992
:1057D0000544761C307800287FF4ECAD19B02846DB
:1057E000BDE8F08F620700D4062709F1070222F016
:1057F000070CFCE80223E14603F000485FEA080CCE
:1058000002D00FF2702C0DE05FEA045C02D50FF2BB
:10581000682C07E05FEAC47C02D00FF2602C01E044
:10582000AFF2700C4FF0FF3823F00043CDF850C0BA
:1058300065280CD006DC452809D046281DD047280D
:105840003DD13DE0662818D067287ED138E00021A0
:10585000112F01DB112000E0781CCDE9000106A921
:105860000EA8FFF7DDFCDDE90F010E9A0391002180
:10587000009207F1010A04914DE04FF000400097BB
:10588000CDE9011006A90EA8FFF7CAFCDDE90F0259
:1058900003920E9B11990022DDF80CA00093049254
:1058A00011B9791C00EB010AB7EB0A0004D4C0F16E
:1058B000FF3007F1010A0490AAEB0700019044E0D1
:1058C000012F00DA01270021112F01DD112000E056
:1058D0003846CDE9000106A90EA8FFF7A1FCDDE9D5
:1058E0000F010E9A0391002104910092BA462107FC
:1058F0000CD40399514500DA8A46BAF1010F05DD4F
:10590000009AAAF10101515C302908D0B84202DAAC
:1059100010F1040F06DA0121CDE9011015E0AAF11A
:105920000101E9E7002805DC049901440491AAEB90
:10593000000102E0411C514500DD8A460499401AED
:10594000401C01904FF000400290200704D40198C1
:10595000504501DBCDF8048000208DF84F000298FF
:105960000DF14F07B0F1004F25D02B200E9002987B
:105970004FF0020800280CDA404202902D200E90D1
:1059800007E00A210298FAF721FD3031029007F86A
:10599000011DB8F10001A8F10108F2DC029800280D
:1059A000EFD1791E0E980870307800F0200040F09A
:1059B000450007F8020D12A8C01B00F10708149853
:1059C000007800B1012000EB0A01019801EBE071C1
:1059D00005984144401A401E0590E00306D45B46FA
:1059E0002146179A059800F05DF805441498007850
:1059F00018B15A46179990476D1CE00324D55B46B1
:105A00002146179A059800F04DF805441CE00498CB
:105A1000002807DBDDE90301884203DD0098405CD4
:105A2000179901E0179930205A469047049805F1DC
:105A30000105401C04900198401E019004D12E20C5
:105A40005A46179990476D1CBAF10001AAF1010A54
:105A5000DDDC05E017F8010B5A46179990476D1CDD
:105A6000B8F10001A8F10108F4DC5B462146179A61
:105A70000598ABE62D0000002B0000002000000080
:105A80002DE9F041044600251E461746880404D43B
:105A900005E039462020B0476D1C641EF9D5284624
:105AA000BDE8F0812DE9F041044600251E469046F0
:105AB000C80301D5302700E02027880404D505E07D
:105AC00041463846B0476D1C641EF9D52846BDE8EE
:105AD000F081000070B5014600240B88DD1703EB50
