:020000040000FA
:1000000070D0FF1F5103000029340000CD160000FE
:1000100021340000150C0000554E000000000000C7
:100020000000000000000000000000009502000039
:100030002116000000000000E902000085460000D3
:10004000E1170000F117000001180000111800006E
:10005000211800003118000041180000511800005C
:10006000611800007118000081180000911800004C
:10007000A1180000B1180000C1180000D11800003C
:10008000E1180000F118000001190000111900002A
:100090002119000031190000411900005119000018
:1000A0006119000071190000811900009119000008
:1000B000A1190000B1190000C1190000D1190000F8
:1000C000E1190000F5190000091A00001D1A0000CE
:1000D000311A0000451A0000591A00006D1A00007C
:1000E000811A0000951A0000A91A0000BD1A00002C
:1000F000D11A0000E51A0000F91A00000D1B0000DB
:10010000211B0000351B0000491B00005D1B000087
:10011000711B0000851B0000991B0000AD1B000037
:10012000C11B0000D51B0000E91B0000FD1B0000E7
:10013000111C0000251C0000391C00004D1C000093
:10014000611C0000751C0000891C00009D1C000043
:10015000B11C0000C51C0000D91C0000ED1C0000F3
:10016000011D0000151D0000291D00003D1D00009F
:10017000511D0000651D0000791D00008D1D00004F
:10018000A11D0000B51D0000C91D0000DD1D0000FF
:10019000F11D0000051E0000191E00002D1E0000AC
:1001A000411E0000551E0000691E00007D1E00005B
:1001B000911E0000A51E0000B91E0000CD1E00000B
:1001C000E11E0000F51E0000091F00001D1F0000B9
:1001D000311F0000451F0000591F00006D1F000067
:1001E000811F0000951F0000A91F0000BD1F000017
:1001F000D11F0000E51F0000F91F00000D200000C6
:100200002120000035200000492000005D20000072
:10021000712000008520000099200000AD20000022
:10022000C1200000D5200000E9200000FD200000D2
:100230001121000025210000392100004D2100007E
:10024000612100008D220000C524000099250000D6
:1002500045270000810300008103000081030000A6
:10026000212800009D2A0000AD2C0000712E000006
:10027000612F0000BD3000003D320000FD32000063
:10028000DFF80CD000F0BCFB00480047BD5F000069
:1002900070D0FF1F2B4B19680868B0E8F04F80F34F
:1002A0000988BFF36F8F4FF0000080F3118870470B
:1002B0000000000006480068006880F3088862B605
:1002C00061B6BFF34F8FBFF36F8F00DF00BF00BF7A
:1002D00008ED00E0DFF80C00016841F470010160F6
:1002E000704700BF88ED00E0EFF30980BFF36F8F28
:1002F000144B1A681EF0100F08BF20ED108A20E979
:10030000F04F106008B44FF0500080F31188BFF335
:100310004F8FBFF36F8F06F047FA4FF0000080F366
:10032000118808BC19680868B0E8F04F1EF0100F7B
:1003300008BFB0EC108A80F30988BFF36F8F704755
:1003400000BF00BF8480FF1FEFF3058070470000EF
:100350004FF000504FF00002002100A1814200D96F
:100360000244084802600848804708480047FEE702
:10037000FEE7FEE7FEE7FEE7FEE7FEE7FEE7FEE755
:10038000FEE7000008ED00E01147000081020000D8
:1003900040EA01039B0703D009E008C9121F08C007
:1003A000042AFAD203E011F8013B00F8013B521E87
:1003B000F9D27047D2B201E000F8012B491EFBD2FE
:1003C00070470022F6E710B513460A460446194660
:1003D000FFF7F0FF204610BD30B50446002003466D
:1003E00000E05B1C934203D2E05CCD5C401BF8D084
:1003F00030BD000001490120087070470000044032
:10040000FFFFFFFFFFFFFFFFFFFFFFFFFFFFFFFFFC
:10041000FFFFFFFFFFFFFFFFFFFFFFFFFFFFFFFFEC
:100420002DE9FE4F804681EA0300C00F0C46009084
:1004300021F0004123F00045B8EB0200A94105D2AC
:100440004046214690461C460B46024623F000409B
:10045000104347D0270DC7F30A00C3F30A51029097
:10046000401A019040286BDAC3F3130040F4801B5C
:100470000098924620B10023D2EB030A63EB0B0BEA
:1004800001985946C0F14002504600F0D4F90646A2
:100490000D4650465946019A00F0DCF910EB080071
:1004A0006141002487EA115284EAE7731A4340D07D
:1004B000009A62B3019A012A4FEA075215DC001B29
:1004C00061EB02014FF0004202EA0752CDE900421F
:1004D000001C41F5801132462B4600F013FA03B0A0
:1004E000BDE8F08F40462146F9E7001B61EB0201B1
:1004F000001C41F5801300185B412018A2F500177D
:1005000047EB030140EAD570B6196D4111E06D0863
:100510004FEA360645EAC0754FEA0752001B61EB09
:100520000201001C41F5801149084FEA3000001912
:10053000514132462B4603B0BDE8F04F00F0D3B92D
:100540000098012240000023D0EB020263EBE0732D
:10055000009821464FEAE074B8EB000061EB04011B
:10056000E9E783F000435BE781F0004158E72DE9BC
:10057000FE4F81EA030404F0004421F0004100949E
:100580004FF0000B23F0004350EA01045ED052EA22
:1005900003045BD0C3F30A54C1F30A552C44A4F2FC
:1005A000F3340194A0FB0254C1F3130141F4801110
:1005B000C3F3130343F4801301FB024400FB034E17
:1005C000840A970A44EA815447EA8357A4FB0768E0
:1005D00002958D0A05FB07854FEA932C04FB0C540A
:1005E0002705029D4FEA065847EA1637B5EB08057E
:1005F0006EEB070C870E920E47EA811742EA8312D0
:10060000A7FB0201B6EB0B0164EB00042B0D43EAE0
:100610000C335E1844EB1C50DA465146E7FB0201EE
:10062000C5F313044FEA0B3343EA14534FEA043281
:10063000019C43EA0603A4F10C040294009CCDE95A
:1006400000B400F05FF903B0BDE8F08F0020014670
:10065000F9E72DE9F04D81EA030404F0004B21F0A5
:10066000004514464FF0000A23F0004150EA05020D
:1006700020D054EA01021DD0C5F30A570246C5F343
:100680001303C1F31300C1F30A5640F4801543F479
:100690008013A7EB0608101BD64608F2FD3873EB53
:1006A000050002D308F1010801E092185B41B8F19E
:1006B000000F03DA00200146BDE8F08D00204FF462
:1006C0008011064684460EE0171B73EB050705D321
:1006D000121B63EB050306434CEA010C49084FEA81
:1006E000300092185B4150EA0107EDD152EA030055
:1006F00012D082EA040083EA0501084305D0101BEA
:10070000AB4106D20122002306E000224FF0004355
:1007100002E06FF0010253101AEB06004CEB085197
:1007200010EB0A0041EB0B01BDE8F04D00F0DBB827
:100730000EB540F2334102910021CDE900110A4685
:100740000B4600F0DFF803B000BD00F0004230F0CF
:1007500000400AD0C10D01F56071C0F3160042EAF5
:100760000151C208400711437047002001467047FD
:1007700001F0004330B421F0004150EA010206D0FC
:100780000A0DA2F56072C1F31301002A02DC30BC2D
:1007900000207047440F44EAC104C100E01830BC97
:1007A00000EBC25000F068B830B50B46014600209F
:1007B0002022012409E021FA02F59D4205D303FA23
:1007C00002F5491B04FA02F52844151EA2F10102A4
:1007D000F1DC30BD2DE9F05F0546002092469B46D6
:1007E00088460646814640241BE028464146474647
:1007F000224600F017F953465A46C01A914110D3C9
:1008000011461846224600F016F82D1A67EB01082B
:100810004F4622460120002100F00DF817EB000999
:100820004E41201EA4F10104DFDC484631462A4631
:100830004346BDE8F09F202A04DB203A00FA02F18B
:10084000002070479140C2F1200320FA03F31943BE
:1008500090407047202A06DBCB17203A41FA02F07D
:1008600043EAE07306E041FA02F3D040C2F120020D
:1008700091400843194670470029A8BF7047401CA3
:10088000490008BF20F00100704710B4B0FA80FCA6
:1008900000FA0CF050EA010404BF10BC704749B1E3
:1008A000CCF1200421FA04F411FA0CF118BF012153
:1008B00021430843A3EB0C01CB1D4FEA00614FEA33
:1008C000102042BF002010BC704700EBC350104402
:1008D0000029A4BF10BC7047401C490008BF20F08D
:1008E000010010BC704710B5141E73F1000408DA43
:1008F000401C41F1000192185B411A4301D120F0E4
:10090000010010BD2DE9F04D92469B4611B1B1FAA0
:1009100081F202E0B0FA80F220329046FFF78BFFBE
:1009200004460F4640EA0A0041EA0B0153465A4684
:10093000084313D0114653EA010019D0C8F1400210
:10094000504600F06FF805460E465046594642465E
:10095000FFF771FF084305D0012004E02046394627
:10096000BDE8F08D0020054346EAE0762C4337438E
:100970000A986305E40AA0EB08000022FD0A44EA95
:1009800047540A3002D500200146E9E70105101955
:100990006941DDE9084500196941BDE8F04DA2E76C
:1009A000C1F30A52C1F3130140F2FF3341F4801145
:1009B0009A4202DA00200146704740F233439A42DD
:1009C000A2F2334202DC524200F02CB8FFF733BFF0
:1009D00030B5041E71F1000404DB4FF000444042C6
:1009E00064EB0101141E73F1000405DB1C464FF09B
:1009F0000043524263EB0403994208BF904230BD6A
:100A0000064C074D06E0E06840F0010394E807005B
:100A100098471034AC42F6D3FFF736FC94720000CE
:100A2000B4720000202A04DB203A21FA02F00021EF
:100A3000704721FA02F3D040C2F1200291400843EE
:100A40001946704770B50D46060003D015B12979D7
:100A5000012901D9042070BD1048864203D12868BD
:100A6000C0F3100402E02888C0F308042246304690
:100A700000F016F80028EED10246203609E0E10722
:100A800004D0A968895C3154521CD2B26408401C5D
:100A9000C0B2002CF3D1002070BD00000000044063
:100AA00010B593B20478120C24F001040470174CB2
:100AB000A0421BD131B18489C1891C4011400C4333
:100AC0000DD01AE0018A448A19401440214314D100
:100AD000818919438181C1891143C1810DE0018A56
:100AE00019430182418A1143418206E039B181896B
:100AF000194202D1018A19430182002010BD018AE6
:100B00001942FAD1818919438181F6E70000044036
:100B100068B10849437831F8C22F63F303020A80B1
:100B20008278888962F30000888100207047042061
:100B300070470000000004400248B0F86400024919
:100B400008807047000004402C80FF1F00285DD003
:100B500000295BD0027822F0010202700B784288F3
:100B600063F3051242804B78428863F3C7124280D8
:100B70008B78428863F386124280CB78428863F395
:100B8000010242800A79818862F38201818000211A
:100B9000818101828182A0F8AC10428922F080021A
:100BA0004281428922F40042428143F210220287AC
:100BB00047F254624287A0F8AC10A0F8B010144A73
:100BC000904218D1C1814182C1824BF6982282871E
:100BD0004FF6DC62C2874FF44062A0F84C20A0F8C8
:100BE000AE10A0F8B210A0F8C010A0F8C210A0F883
:100BF000CC10A0F8CE1010F8471F21F001010170B1
:100C0000017821F002010170002070470420704734
:100C10000000044010B5AFF3008010BDF0B52F4ABE
:100C200092F826102E4F01F007037E104FF400417A
:100C3000052B0AD2DFE803F003050705070007606C
:100C400021E006601FE001601DE0D2F80011C1F351
:100C5000C015D2F800110B0FD2F80011C1F3072410
:100C6000D2F8001101F01F014DB165B1491CB7FB6D
:100C7000F1F1641C61435B1CB1FBF3F1E3E7491C38
:100C8000B6FBF1F1F5E70168136AC3F3026321FAD9
:100C900003F34360136AC3F3025321FA03F383603F
:100CA000136A03F0070321FA03F3C360136AC3F363
:100CB000021321FA03F30361136AC3F3022321FA37
:100CC00003F34361136AC3F3023321FA03F383612D
:100CD000126AC2F30242D140C161F0BD004005403A
:100CE0000024F4000F4940B101280BD002280ED097
:100CF000032811D091F8410001E091F83C00C0F3C5
:100D00000000704791F83C00C0F3C000704791F8B4
:100D10003C00C0F34010704791F83C00C0F38010D5
:100D2000704700000040054008B502461649002003
:100D3000009091F82600400701D0D1F800014AF256
:100D40000150A1F8FE0391F83600012A02D040F0CC
:100D5000010001E020F0010081F836004FF4254049
:100D6000A1F8FE034FF480530020FFF7BBFF00996A
:100D7000491C0091994204D2012A03D000218142EA
:100D8000F2D108BD0121FAE70040054008B50E4A3E
:100D90000021009192F826104AF20151A2F8FE13A8
:100DA0000A490128087802D040F0010001E020F053
:100DB000010008704FF42540A2F8FE030098401C83
:100DC00000900528FAD308BD00400540274405409F
:100DD00008B5024614490020009091F826004AF216
:100DE0000150A1F8FE0391F82A00012A02D040F038
:100DF000010001E020F0010081F82A004FF42540B5
:100E0000A1F8FE034FF480530220FFF76BFF009917
:100E1000491C0091994204D2012A03D00021814249
:100E2000F2D108BD0121FAE7004005401D49D1F883
:100E30000021120601D41C4A00E01C4AC388B2FB00
:100E4000F3F24AF20152A1F8FE230278D1F8003100
:100E5000521E62F31F73C1F800314278D1F800319D
:100E6000521E62F31B63C1F800318278D1F8003161
:100E7000521E62F31753C1F800318288D1F8003155
:100E8000521E62F31023C1F800318079D1F800219D
:100E9000401E60F30402C1F800214FF42540A1F880
:100EA000FE0370470040054000127A000024F40061
:100EB00008B5002100910E494AF20252A1F8FE2322
:100EC00031F8102F60F3030221F808294FF4254070
:100ED000A1F8F603887F00F00700052806D14FF43B
:100EE00080510098401C00908842FAD308BD000051
:100EF0000040054007494AF20152A1F8FE23D1F80B
:100F0000002160F3C712C1F800214FF42540A1F879
:100F1000FE0370470040054030B486B0264B0024E5
:100F20000094196801915968029199680391D968F0
:100F3000224D049195F826104FF4805201F00701DC
:100F4000052901D005280AD11D491960C912596027
:100F50009960D9600099491C00919142FAD34AF2F4
:100F60000151A5F8FE1315F8261F60F30201297040
:100F70004FF42541A5F8D813297801F00701052978
:100F800001D0052813D100940098401C0090904295
:100F9000FAD30198186002985860039898600498F2
:100FA000D86000940098401C00909042FAD306B09C
:100FB00030BC03F06FBB00000080044000400540DF
:100FC000EEFAFFFF70B585B02C49002500950A6840
:100FD00001924A6802928A680392CA68284B049276
:100FE00093F826204FF4805402F00702052A12D10C
:100FF0000A6842F480320A604A68224E32434A60EC
:101000006A1E8A60CA6842F01302CA60009A521CC3
:101010000092A242FAD34AF20152A3F8FE2393F8B7
:10102000242060F3071283F824204FF42540A3F80E
:10103000FE0393F8260000F00700052813D1009561
:101040000098401C0090A042FAD3019808600298D2
:101050004860039888600498C86000950098401C18
:101060000090A042FAD39889800705D513F8240F81
:1010700020F0F0004030187005B070BD00800440D2
:101080000040054009010F00F0B585B02B4B00244E
:101090000094196801915968029199680391D9687F
:1010A000274D049195F826104FF4805201F0070166
:1010B00005290AD123491960C91259609960D9607C
:1010C0000099491C00919142FAD34AF20151A5F8C6
:1010D000FE138178C678477941EA0611067936020F
:1010E00046EA07363143867941EA06414678007878
:1010F00041EA065141EA006028624FF42540A5F814
:10110000FE0395F8260000F00700052813D100948F
:101110000098401C00909042FAD301981860029801
:101120005860039898600498D86000940098401C18
:1011300000909042FAD305B0F0BD0000008004405A
:1011400000400540EEFAFFFF08B5024600201349B3
:1011500000904AF20150A1F8FE0391F82E00012AF6
:1011600002D040F0010001E020F0010081F82E00E3
:101170004FF42540A1F8FE034FF480530320FFF7FE
:10118000B1FD0099491C0091994204D2012A03D073
:1011900000218142F2D108BD0121FAE7004005405B
:1011A00008B5002100910E4A0E49012801D092F89D
:1011B00026004AF20150A2F8FE03087802D040F05F
:1011C000010001E020F0010008704FF42540A2F872
:1011D000FE03009800F1010000900528F9D308BD36
:1011E00000400540204405400D4B10B54AF2015126
:1011F000A3F8FE130B4904780A7864F382020A709C
:1012000044780A7864F301020A708278081D017834
:1012100062F3010101704FF42540A3F8FE0310BDF5
:10122000004005402144054008B502460020184909
:101230000090012A07D091F8260000F0070003284B
:1012400001D0D1F800014AF20150A1F8FE0391F853
:101250003200012A02D040F0010001E020F001003C
:1012600081F832004FF42540A1F8FE034FF480537B
:101270000120FFF737FD0099491C0091994204D2E3
:10128000012A03D000218142F2D108BD0121FAE7F1
:101290000040054001490120087070472E80FF1F63
:1012A0001B4B10B50022984208D01A4B984205D02B
:1012B000194B984202D0194B984224D119B30023FC
:1012C000036083617F234361CC79036864F3020385
:1012D00003608C79036864F3C40303600C7A0368C9
:1012E00064F3082303604C79836964F3C813836152
:1012F0000B68836109790129016806D021F000415A
:101300000160104610BD042010BD41F00041F7E718
:10131000002005400024054000280540002C054021
:1013200070B50D46002400F007F808B1056000E034
:101330000424204670BD000001460C4A0020914262
:1013400001D10B4870470B4A914202D10848001D59
:101350007047094A914202D1054808307047074A50
:101360009142FBD102480C3070470000002005403C
:10137000040801400024054000280540002C0540D9
:1013800010B5064CA06880B203F076F9A068044955
:1013900008804FF47A70A06010BD00000020054066
:1013A0003080FF1F00EB8110C16D137821F0030125
:1013B0001943C165C16D537821F00C0141EA8301E5
:1013C000C165C16D937821F0100141EA0311C16537
:1013D000C16DD37821F0200141EA4311C165C16D8F
:1013E000137921F0400141EA8311C165C16D537940
:1013F00021F0800141EAC311C165C16D937921F4E7
:10140000407141EA0321C165C16DD37921F4806146
:1014100041EA8321C165C16D137A21F4006141EA7B
:10142000C321C165C16D527A21F4805141EA023174
:10143000C165704701238B4022B1012A05D1C169E2
:10144000194301E0C1699943C161704730B5002576
:1014500039B1012905D0022903D0032901D0042084
:1014600030BD01238B405AB1012410318C40012A38
:1014700009D0022A0BD0032A0CD00425284630BDFF
:101480004169194301E0416921434161F6E78169FE
:10149000194301E0816921438161EFE70129016876
:1014A00003D021F001010160704741F00101FAE72A
:1014B00030B50C4605460121FFF7F0FF05EB84131C
:1014C000D86D20F48050D8655068186490685864CE
:1014D000986C11886FF30900084398645188986CE0
:1014E00061F31F409864D86C91896FF30900084339
:1014F000D864D86C12490840D18940EA0140D864C8
:10150000186D51696FF3130008431865118B186D3E
:1015100061F31F501865586DD1696FF313000843CC
:101520005865118C586D61F31F50586510699865A6
:1015300021462846BDE830402432FFF733BF000083
:10154000FFFF00FC10B5074B074C984204EB8101EC
:1015500002D1C1F8142810BD044B9842FBD1C1F848
:10156000242810BD00300540000001400034054033
:1015700018B5094900240094096842F21072B1FBC1
:10158000F2F304E0009300994A1E0092FBD2401E41
:10159000F8D2204618BD00001C80FF1F38B500257A
:1015A0008DF800501A484AF20151018019490A8801
:1015B00022F03F0220320A804FF425410180164874
:1015C000416821F080614160144CE06820F0805057
:1015D000E060E06820F08070E060E06840F4004087
:1015E000E060E06820F48050E060E06820F4806013
:1015F000E0604FF4E13002F04BFF08B1012038BD4C
:10160000284625616561E16841F00801E16038BD67
:10161000FC3B0540163D05400080044000100240A0
:1016200010B5AFF3008010BD02494860086840065D
:10163000FCD570470010024005490128086803D016
:1016400020F480300860704740F48030FAE70000F2
:101650000804014004480168012903D143F2102124
:1016600001600160704700000004014002490A68FF
:1016700060F307120A60704708040140034840F213
:101680002311016043F21021016070470004014002
:1016900001780A4A437802EB81010A6863F3C712B2
:1016A0000A6083780A6863F305120A60C2780868E2
:1016B00062F3010008600020704700001010054030
:1016C00001480088704700003080FF1F10B5AFF35D
:1016D000008010BD70B588B004460D466846FFF71F
:1016E0009DFA069BA801B3FBF0F000EE100A07215B
:1016F0001448B8EE400A0022865C00EE906AF8EECC
:10170000600AF4EEC00AF1EE10FA01DB114603E0C4
:10171000521CD2B2082AEFD3405CE26A6843B3FBA2
:10172000F0F061F31242E262E16A420862F30401FE
:10173000E162A0EB5001E06A61F30C20E06208B0C6
:1017400070BD00000080FF1F026A024B19400A436F
:1017500002627047DF56F000026861F30002026027
:101760007047016821F001010160016841F4004106
:1017700001607047026861F3C71202607047026837
:1017800061F3082202607047026861F34922026037
:101790007047C069084000D00120704710B504466A
:1017A000006820F001002060206840F400402060C4
:1017B000206840F00100206049682046FFF78AFF5A
:1017C000206820F040002060206820F40040206065
:1017D000206820F00100206010BD416270470000C9
:1017E00002480068002800D000477047E880FF1FCB
:1017F00002484068002800D000477047E880FF1F7B
:1018000002488068002800D000477047E880FF1F2A
:101810000248C068002800D000477047E880FF1FDA
:1018200002480069002800D000477047E880FF1F89
:1018300002484069002800D000477047E880FF1F39
:1018400002488069002800D000477047E880FF1FE9
:101850000248C069002800D000477047E880FF1F99
:101860000248006A002800D000477047E880FF1F48
:101870000248406A002800D000477047E880FF1FF8
:101880000248806A002800D000477047E880FF1FA8
:101890000248C06A002800D000477047E880FF1F58
:1018A0000248006B002800D000477047E880FF1F07
:1018B0000248406B002800D000477047E880FF1FB7
:1018C0000248806B002800D000477047E880FF1F67
:1018D0000248C06B002800D000477047E880FF1F17
:1018E0000248006C002800D000477047E880FF1FC6
:1018F0000248406C002800D000477047E880FF1F76
:101900000248806C002800D000477047E880FF1F25
:101910000248C06C002800D000477047E880FF1FD5
:101920000248006D002800D000477047E880FF1F84
:101930000248406D002800D000477047E880FF1F34
:101940000248806D002800D000477047E880FF1FE4
:101950000248C06D002800D000477047E880FF1F94
:101960000248006E002800D000477047E880FF1F43
:101970000248406E002800D000477047E880FF1FF3
:101980000248806E002800D000477047E880FF1FA3
:101990000248C06E002800D000477047E880FF1F53
:1019A0000248006F002800D000477047E880FF1F02
:1019B0000248406F002800D000477047E880FF1FB2
:1019C0000248806F002800D000477047E880FF1F62
:1019D0000248C06F002800D000477047E880FF1F12
:1019E0000348D0F88000002800D00047704700006E
:1019F000E880FF1F0348D0F88400002800D000478B
:101A000070470000E880FF1F0348D0F888000028D6
:101A100000D0004770470000E880FF1F0348D0F85F
:101A20008C00002800D0004770470000E880FF1FAE
:101A30000348D0F89000002800D00047704700000D
:101A4000E880FF1F0348D0F89400002800D000472A
:101A500070470000E880FF1F0348D0F89800002876
:101A600000D0004770470000E880FF1F0348D0F80F
:101A70009C00002800D0004770470000E880FF1F4E
:101A80000348D0F8A000002800D0004770470000AD
:101A9000E880FF1F0348D0F8A400002800D00047CA
:101AA00070470000E880FF1F0348D0F8A800002816
:101AB00000D0004770470000E880FF1F0348D0F8BF
:101AC000AC00002800D0004770470000E880FF1FEE
:101AD0000348D0F8B000002800D00047704700004D
:101AE000E880FF1F0348D0F8B400002800D000476A
:101AF00070470000E880FF1F0348D0F8B8000028B6
:101B000000D0004770470000E880FF1F0348D0F86E
:101B1000BC00002800D0004770470000E880FF1F8D
:101B20000348D0F8C000002800D0004770470000EC
:101B3000E880FF1F0348D0F8C400002800D0004709
:101B400070470000E880FF1F0348D0F8C800002855
:101B500000D0004770470000E880FF1F0348D0F81E
:101B6000CC00002800D0004770470000E880FF1F2D
:101B70000348D0F8D000002800D00047704700008C
:101B8000E880FF1F0348D0F8D400002800D00047A9
:101B900070470000E880FF1F0348D0F8D8000028F5
:101BA00000D0004770470000E880FF1F0348D0F8CE
:101BB000DC00002800D0004770470000E880FF1FCD
:101BC0000348D0F8E000002800D00047704700002C
:101BD000E880FF1F0348D0F8E400002800D0004749
:101BE00070470000E880FF1F0348D0F8E800002895
:101BF00000D0004770470000E880FF1F0348D0F87E
:101C0000EC00002800D0004770470000E880FF1F6C
:101C10000348D0F8F000002800D0004770470000CB
:101C2000E880FF1F0348D0F8F400002800D00047E8
:101C300070470000E880FF1F0348D0F8F800002834
:101C400000D0004770470000E880FF1F0348D0F82D
:101C5000FC00002800D0004770470000E880FF1F0C
:101C60000348D0F80001002800D00047704700006A
:101C7000E880FF1F0348D0F80401002800D0004787
:101C800070470000E880FF1F0348D0F808010028D3
:101C900000D0004770470000E880FF1F0348D0F8DD
:101CA0000C01002800D0004770470000E880FF1FAB
:101CB0000348D0F81001002800D00047704700000A
:101CC000E880FF1F0348D0F81401002800D0004727
:101CD00070470000E880FF1F0348D0F81801002873
:101CE00000D0004770470000E880FF1F0348D0F88D
:101CF0001C01002800D0004770470000E880FF1F4B
:101D00000348D0F82001002800D0004770470000A9
:101D1000E880FF1F0348D0F82401002800D00047C6
:101D200070470000E880FF1F0348D0F82801002812
:101D300000D0004770470000E880FF1F0348D0F83C
:101D40002C01002800D0004770470000E880FF1FEA
:101D50000348D0F83001002800D000477047000049
:101D6000E880FF1F0348D0F83401002800D0004766
:101D700070470000E880FF1F0348D0F838010028B2
:101D800000D0004770470000E880FF1F0348D0F8EC
:101D90003C01002800D0004770470000E880FF1F8A
:101DA0000348D0F84001002800D0004770470000E9
:101DB000E880FF1F0348D0F84401002800D0004706
:101DC00070470000E880FF1F0348D0F84801002852
:101DD00000D0004770470000E880FF1F0348D0F89C
:101DE0004C01002800D0004770470000E880FF1F2A
:101DF0000348D0F85001002800D000477047000089
:101E0000E880FF1F0348D0F85401002800D00047A5
:101E100070470000E880FF1F0348D0F858010028F1
:101E200000D0004770470000E880FF1F0348D0F84B
:101E30005C01002800D0004770470000E880FF1FC9
:101E40000348D0F86001002800D000477047000028
:101E5000E880FF1F0348D0F86401002800D0004745
:101E600070470000E880FF1F0348D0F86801002891
:101E700000D0004770470000E880FF1F0348D0F8FB
:101E80006C01002800D0004770470000E880FF1F69
:101E90000348D0F87001002800D0004770470000C8
:101EA000E880FF1F0348D0F87401002800D00047E5
:101EB00070470000E880FF1F0348D0F87801002831
:101EC00000D0004770470000E880FF1F0348D0F8AB
:101ED0007C01002800D0004770470000E880FF1F09
:101EE0000348D0F88001002800D000477047000068
:101EF000E880FF1F0348D0F88401002800D0004785
:101F000070470000E880FF1F0348D0F888010028D0
:101F100000D0004770470000E880FF1F0348D0F85A
:101F20008C01002800D0004770470000E880FF1FA8
:101F30000348D0F89001002800D000477047000007
:101F4000E880FF1F0348D0F89401002800D0004724
:101F500070470000E880FF1F0348D0F89801002870
:101F600000D0004770470000E880FF1F0348D0F80A
:101F70009C01002800D0004770470000E880FF1F48
:101F80000348D0F8A001002800D0004770470000A7
:101F9000E880FF1F0348D0F8A401002800D00047C4
:101FA00070470000E880FF1F0348D0F8A801002810
:101FB00000D0004770470000E880FF1F0348D0F8BA
:101FC000AC01002800D0004770470000E880FF1FE8
:101FD0000348D0F8B001002800D000477047000047
:101FE000E880FF1F0348D0F8B401002800D0004764
:101FF00070470000E880FF1F0348D0F8B8010028B0
:1020000000D0004770470000E880FF1F0348D0F869
:10201000BC01002800D0004770470000E880FF1F87
:102020000348D0F8C001002800D0004770470000E6
:10203000E880FF1F0348D0F8C401002800D0004703
:1020400070470000E880FF1F0348D0F8C80100284F
:1020500000D0004770470000E880FF1F0348D0F819
:10206000CC01002800D0004770470000E880FF1F27
:102070000348D0F8D001002800D000477047000086
:10208000E880FF1F0348D0F8D401002800D00047A3
:1020900070470000E880FF1F0348D0F8D8010028EF
:1020A00000D0004770470000E880FF1F0348D0F8C9
:1020B000DC01002800D0004770470000E880FF1FC7
:1020C0000348D0F8E001002800D000477047000026
:1020D000E880FF1F0348D0F8E401002800D0004743
:1020E00070470000E880FF1F0348D0F8E80100288F
:1020F00000D0004770470000E880FF1F0348D0F879
:10210000EC01002800D0004770470000E880FF1F66
:102110000348D0F8F001002800D0004770470000C5
:10212000E880FF1F0348D0F8F401002800D00047E2
:1021300070470000E880FF1F0348D0F8F80100282E
:1021400000D0004770470000E880FF1F0348D0F828
:10215000FC01002800D0004770470000E880FF1F06
:1021600010B5494CD4F85C02C00704D0606DC007BC
:1021700001D0AFF30080D4F85C02800704D5606D15
:10218000800701D5AFF30080D4F85C02400704D586
:10219000606D400701D5AFF30080D4F85C02000702
:1021A00004D5606D000701D5AFF30080D4F85C0260
:1021B000C00604D5606DC00601D5AFF30080D4F829
:1021C0005C02800604D5606D800601D5AFF3008007
:1021D000D4F85C02400604D5606D400601D5AFF32B
:1021E0000080D4F85C02000604D5606D000601D5BD
:1021F000AFF30080D4F85C02C00504D5606DC00563
:1022000001D5AFF30080D4F85C02800504D5606D81
:10221000800501D5AFF30080D4F85C02400504D5F9
:10222000606D400501D5AFF30080D4F85C02000575
:1022300004D5606D000501D5AFF30080D4F85C02D1
:10224000C00404D5606DC00401D5AFF30080D4F89C
:102250005C02800404D5606D800401D5AFF300807A
:10226000D4F85C02400404D5606D400401D5AFF39E
:102270000080D4F85C02000404D5606D000401D530
:10228000AFF3008010BD00000010054070B5854E12
:10229000D6F86002844CC00704D0A068C00701D003
:1022A000AFF30080D6F86002800704D5A0688007ED
:1022B00001D5AFF30080D6F86002400704D5A068CE
:1022C000400701D5AFF30080D6F86002000704D5BF
:1022D000A068000701D5AFF30080D6F86002734D07
:1022E000C00604D52868C00701D0AFF30080D6F837
:1022F0006002800604D52868800701D5AFF300800E
:10230000D6F86002400604D52868400701D5AFF32F
:102310000080D6F86002000604D52868000701D5C1
:10232000AFF30080D6F86002C00504D5A068C003F2
:1023300001D5AFF30080D6F86002800504D5A0680F
:10234000800301D5AFF30080D6F86002400504D5C4
:10235000A068400301D5AFF30080D6F86002000505
:1023600004D5A068000301D5AFF30080D6F8600261
:10237000C00404D52868C00301D5AFF30080D6F8A7
:102380006002800404D52868800301D5AFF3008083
:10239000D6F86002400404D52868400301D5AFF3A5
:1023A0000080D6F86002000404D52868000301D537
:1023B000AFF30080D6F86002C00305D5606810F066
:1023C0000F1F01D0AFF30080D6F86002800307D55D
:1023D0003648001F006810F00F1F01D0AFF30080D7
:1023E000D6F86002324C400304D52068000701D0C3
:1023F000AFF30080D6F86002000304D520688006A1
:1024000001D5AFF30080D6F86002C00204D5206881
:10241000C00601D5AFF30080D6F86002400206D5B1
:102420004FF01C40C068000601D5AFF30080214981
:102430008869D6F86022C0B2120205D54968014009
:10244000480601D0AFF300801B480068D6F8601240
:10245000C0B2C90107D518491439096801404806B6
:1024600001D0AFF3008015480068D6F86012C0B202
:10247000890107D51149143909680140480601D07E
:10248000AFF300800E480068D6F86012C0B2490170
:1024900007D50B49143909680140480601D0AFF34C
:1024A000008070BD00100540003005400834054034
:1024B000100401400020054018240540182805405C
:1024C000182C054070B52D4CD4F864022C4DC00773
:1024D00004D06869C00701D0AFF30080D4F864026B
:1024E000800704D56869C00301D5AFF30080D4F834
:1024F0006402244D400704D52868C00701D0AFF31B
:102500000080D4F86402000704D52868C00301D510
:10251000AFF30080D4F864021B4D800304D5A86893
:10252000000701D5AFF30080D4F86402400304D55E
:10253000A868400701D5AFF30080D4F86402800298
:1025400006D5124890F84100C00701D0AFF30080D3
:10255000D4F86402400205D50D480088C00401D5B6
:10256000AFF30080D4F86402000206D50948006881
:1025700010F4403F01D0AFF3008070BD0010054063
:10258000004002401444024000C0044000400540A6
:1025900000C404400494044070B5674DD5F8680247
:1025A000664CC00704D0206FC00701D0AFF3008095
:1025B000D5F86802800704D5206F800701D5AFF3F6
:1025C0000080D5F86802400704D5206F400701D588
:1025D000AFF30080D5F86802000704D5206F00072C
:1025E00001D5AFF30080D5F86802C00604D5206F8E
:1025F000C00601D5AFF30080D5F86802800604D587
:10260000206F800601D5AFF30080D5F86802400640
:1026100004D5206F400601D5AFF30080D5F86802DD
:10262000000604D5206F000601D5AFF30080D5F871
:102630006802C00504D5206FC00501D5AFF3008046
:10264000D5F86802000505D5206F10F4C06F01D0E1
:10265000AFF30080D5F86802C00405D5206F10F4F0
:10266000C05F01D0AFF30080D5F86802344CC003DE
:1026700004D52068C00701D0AFF30080D5F8680208
:10268000800304D52068800701D5AFF30080D5F81A
:102690006802400304D52068400701D5AFF30080ED
:1026A000D5F86802000304D52068000701D5AFF310
:1026B0000080D5F86802C00204D52068C00601D5A4
:1026C000AFF30080D5F86802800204D52068800648
:1026D00001D5AFF30080D5F86802400204D5206828
:1026E000400601D5AFF30080D5F86802000204D59A
:1026F0002068000601D5AFF30080D5F86802C0015C
:1027000004D52068C00501D5AFF30080D5F8680274
:10271000000105D5206810F4C06F01D0AFF3008030
:10272000D5F86802C00005D5206810F4C05F01D05C
:10273000AFF3008070BD0000001005400080014034
:102740007084014070B5344DD5F86C02334CC0072D
:1027500004D02068C00701D0AFF30080D5F86C0228
:10276000800704D52068800701D5AFF30080D5F835
:102770006C02400704D52068400701D5AFF3008004
:10278000D5F86C02000704D52068000701D5AFF327
:102790000080D5F86C02C00604D52068C00601D5BB
:1027A000AFF30080D5F86C02800604D5206880065F
:1027B00001D5AFF30080D5F86C02400604D520683F
:1027C000400601D5AFF30080D5F86C02000604D5B1
:1027D0002068000601D5AFF30080D5F86C02C00573
:1027E00004D52068C00501D5AFF30080D5F86C0290
:1027F000000505D5206810F4C06F01D0AFF300804C
:10280000D5F86C02C00405D5206810F4C05F01D073
:10281000AFF3008070BD00000010054070880140DB
:1028200070B5934DD5F87C02924CC00705D0D4F812
:102830008000400401D5AFF30080D5F87C0280070A
:1028400005D5D4F88000000401D5AFF30080D5F899
:102850007C02400706D5D4F89C0010F0FF0F01D091
:10286000AFF30080D5F87C02834C000704D52068C4
:10287000400401D5AFF30080D5F87C02C00604D532
:102880002068000401D5AFF30080D5F87C028006F3
:1028900007D579481C30006810F0FF0F01D0AFF366
:1028A0000080D5F87C02754C400604D520684004B1
:1028B00001D5AFF30080D5F87C02000604D520686E
:1028C000000401D5AFF30080D5F87C02C00507D520
:1028D0006A481C30006810F0FF0F01D0AFF3008091
:1028E000D5F87C02664C800504D52068400401D5EB
:1028F000AFF30080D5F87C02400504D520680004C1
:1029000001D5AFF30080D5F87C02000507D55C48FF
:102910001C30006810F0FF0F01D0AFF30080D5F835
:102920007C02584CC00405D5D4F88000400401D581
:10293000AFF30080D5F87C02800405D5D4F8800080
:10294000000401D5AFF30080D5F87C02400406D521
:10295000D4F89C0010F0FF0F01D0AFF30080D5F841
:102960007C02494CC00304D52068400401D5AFF374
:102970000080D5F87C02800304D52068000401D5CE
:10298000AFF30080D5F87C02400307D53E481C30E9
:10299000006810F0FF0F01D0AFF30080D5F87C0283
:1029A000000306D5394840693949084201D0AFF3E0
:1029B0000080D5F87C02374C400205D5206810F025
:1029C0000B0F01D0AFF30080D5F87C02000204D5D4
:1029D0002068800601D5AFF30080D5F87C02C001E5
:1029E00004D52068000601D5AFF30080D5F87C023D
:1029F000800104D52068400601D5AFF30080D5F8EA
:102A00007C02400104D52068C00501D5AFF30080E9
:102A1000D5F87C02204C000105D5206810F00B0F82
:102A200001D0AFF30080D5F87C02C00004D5206847
:102A3000800601D5AFF30080D5F87C02800004D574
:102A40002068000601D5AFF30080D5F87C02400075
:102A500004D52068400601D5AFF30080D5F87C028C
:102A6000002804DA2068C00501D5AFF3008070BDEE
:102A70000010054000500140805401408058014042
:102A8000805C0140006001408064014000000C4017
:102A9000FBFC7CF700D0014000D4014070B57C4DB8
:102AA000D5F880027B4CC00705D0206810F00B0FD2
:102AB00001D0AFF30080D5F88002800704D52068EC
:102AC000800601D5AFF30080D5F88002400704D519
:102AD0002068000601D5AFF30080D5F8800200071A
:102AE00004D52068400601D5AFF30080D5F88002F8
:102AF000C00604D52068C00501D5AFF30080D5F825
:102B00008002654C800605D5206810F00B0F01D0BF
:102B1000AFF30080D5F88002400604D52068800617
:102B200001D5AFF30080D5F88002000604D52068F7
:102B3000000601D5AFF30080D5F88002C00504D5AA
:102B40002068400601D5AFF30080D5F880028005EB
:102B500004D52068C00501D5AFF30080D5F8800208
:102B60004E4C000504D56069000601D5AFF3008026
:102B7000D5F88002C00404D56069800601D5AFF3A2
:102B80000080D5F88002800405D5606910F01D0F23
:102B900001D0AFF30080D5F88002400404D560690D
:102BA000800701D5AFF30080D5F880023C4CC0030C
:102BB00004D52068000601D5AFF30080D5F8800267
:102BC000800304D52068800601D5AFF30080D5F8D6
:102BD0008002400305D5206810F01D0F01D0AFF32F
:102BE0000080D5F88002000304D52068800701D555
:102BF000AFF30080D5F880022A4C800204D56069CA
:102C0000000601D5AFF30080D5F88002400204D55C
:102C10006069800601D5AFF30080D5F8800200021C
:102C200005D5606910F01D0F01D0AFF30080D5F815
:102C30008002C00104D56069800701D5AFF3008030
:102C4000D5F88002184C400104D52068000601D553
:102C5000AFF30080D5F88002000104D5206880061B
:102C600001D5AFF30080D5F88002C00005D52068FB
:102C700010F01D0F01D0AFF30080D5F88002800066
:102C800004D52068800701D5AFF3008070BD000037
:102C900000100540001002400014024000C0014036
:102CA00014C40140000002401404024070B5694D94
:102CB000D5F88402684CC00704D0208B400601D5AB
:102CC000AFF30080D5F88402800704D5208B00067E
:102CD00001D5AFF30080D5F88402400704D5A08B5E
:102CE000400601D5AFF30080D5F88402000704D573
:102CF000A08B000601D5AFF30080D5F88402C00692
:102D000004D5208C400601D5AFF30080D5F88402AD
:102D1000800604D5208C000601D5AFF30080D5F8DD
:102D20008402400605D5B4F84800800501D5AFF30C
:102D30000080D5F88402000605D5B4F848004004A8
:102D400001D5AFF30080D5F88402C00505D5B4F8ED
:102D5000A400C00601D5AFF30080D5F88402800539
:102D600005D5B4F8A400C00501D5AFF30080D5F8AF
:102D70008402400505D5B4F8A400C00401D5AFF322
:102D80000080D5F88402354CC00304D52088400665
:102D900001D5AFF30080D5F88402800304D52088E4
:102DA000000601D5AFF30080D5F884022C4C400317
:102DB00004D52088400601D5AFF30080D5F8840201
:102DC000000304D52088000601D5AFF30080D5F8B4
:102DD0008402244CC00204D52088400601D5AFF3FC
:102DE0000080D5F88402800204D52088000601D531
:102DF000AFF30080D5F884021B4C400204D5208834
:102E0000800501D5AFF30080D5F88402000204D517
:102E10002088400401D5AFF30080D5F88402134C1C
:102E2000C00104D52088C00601D5AFF30080D5F8D5
:102E30008402800104D52088C00501D5AFF300804D
:102E4000D5F88402400104D52088C00401D5AFF331
:102E5000008070BD0010054000700140184802401D
:102E60001C4802402048024048480240A448024012
:102E700070B5354DD5F88802344CC00704D0208891
:102E8000400601D5AFF30080D5F88802800704D54D
:102E90002088000601D5AFF30080D5F888022C4CBD
:102EA000400704D52088400601D5AFF30080D5F84F
:102EB0008802000704D52088000601D5AFF3008002
:102EC000D5F88802234CC00604D52088400601D5D9
:102ED000AFF30080D5F88802800604D5208800066C
:102EE00001D5AFF30080D5F888021B4C400604D50D
:102EF0002088800501D5AFF30080D5F88802000650
:102F000004D52088400401D5AFF30080D5F88802AD
:102F1000124CC00504D52088C00601D5AFF300804F
:102F2000D5F88802800504D52088C00501D5AFF307
:102F30000080D5F88802400504D52088C00401D55A
:102F4000AFF3008070BD000000100540184C024037
:102F50001C4C0240204C0240484C0240A44C024011
:102F600070B5504DD5F88C02400605D54E48006826
:102F7000000701D0AFF30080D5F88C02000606D51B
:102F8000494820300068000701D0AFF30080D5F831
:102F90008C02C00506D5444840300068000701D0C7
:102FA000AFF30080D5F88C02800506D53E4860302E
:102FB0000068000701D0AFF30080D5F88C023B4CCD
:102FC000C00304D56068C00701D0AFF30080D5F816
:102FD0008C02800304D56068800701D5AFF30080C0
:102FE000D5F88C02400304D5A068800701D0AFF368
:102FF0000080D5F88C022E4C000304D52068C00751
:1030000001D0AFF30080D5F88C02C00204D520684F
:10301000800701D5AFF30080D5F88C02800206D579
:103020002348001D0068800701D0AFF30080D5F869
:103030008C02204C400204D56068C00701D0AFF379
:103040000080D5F88C02000204D56068800701D5A5
:10305000AFF30080D5F88C02C00104D5A0688007CA
:1030600001D0AFF30080D5F88C02134C800104D559
:103070002068C00701D0AFF30080D5F88C02400172
:1030800004D52068800701D5AFF30080D5F88C0205
:10309000000106D50848001D0068800701D0AFF385
:1030A000008070BD001005400C7C014000E0014034
:1030B00004E40140002002400424024070B5574E51
:1030C000D6F89002564CC00604D5E069400601D5FA
:1030D000AFF30080D6F89002800604D5E0690007BF
:1030E00001D5AFF30080D6F89002400604D5E06920
:1030F000000601D5AFF30080D6F89002494D0006D6
:1031000004D5E069284201D0AFF30080D6F89002E0
:10311000454CC00504D52068400601D5AFF30080BA
:10312000D6F89002800504D52068000701D5AFF3DA
:103130000080D6F89002400504D52068000601D52D
:10314000AFF30080D6F89002000504D5206828422D
:1031500001D0AFF30080D6F89002344CC00404D5FF
:103160002068400601D5AFF30080D6F890028004B5
:1031700004D52068000701D5AFF30080D6F890028F
:10318000400404D52068000601D5AFF30080D6F8CE
:103190009002000404D52068284201D0AFF30080DB
:1031A000D6F89002224C800305D594F8E100800700
:1031B00001D5AFF30080D6F89002400305D594F80E
:1031C000E100800701D5AFF30080D6F89002194CDA
:1031D000C00204D52068C00701D0AFF30080D6F844
:1031E0009002800204D52068800701D5AFF30080EB
:1031F000D6F89002400204D52068400701D5AFF30D
:103200000080D6F89002000206D50B48406810F402
:10321000403F01D0AFF3008070BD000000100540BA
:1032200000E004401752F0001CE404401CE8044095
:10323000004005401C8404400090044070B52B4DB4
:10324000D5F894022A4CC00705D094F84600C00770
:1032500001D0AFF30080D5F89402800705D594F82B
:103260004600800701D5AFF30080D5F894024007EF
:1032700008D5B4F8B00018B9B4F8B200C00701D04E
:10328000AFF30080D5F89402000708D5B4F8B00079
:1032900018B9B4F8B200C00701D0AFF30080D5F878
:1032A0009402144CC00604D52078C00701D0AFF3B7
:1032B0000080D5F89402800604D52078800701D5D7
:1032C000AFF30080D5F894020B4C400604D520885B
:1032D000C00501D0AFF30080D5F89402000604D5F4
:1032E0002088C00501D0AFF3008070BD00100540FC
:1032F0000000044046040440B004044070B51B4C78
:10330000D4F8980248F2F715400740F27F160AD524
:1033100017480088284204D11548801C0088304294
:1033200001D0AFF30080D4F89802800608D5114888
:10333000018E294202D1408E304201D0AFF300808D
:10334000D4F89802400610D50B48007858B90A48BE
:10335000401C007810F0150F05D107481A3000788E
:1033600010F0680F01D0AFF3008070BD0010054071
:1033700030FC064000000740A504074070B5274C0C
:103380002078032801D90020207010F0FF004FF4AE
:10339000007506D0012815D0022820D003282BD193
:1033A0002EE04021042000F07FFB8021002000F06F
:1033B0007BFB2021012000F077FB2946012000F053
:1033C0007DFB19E04021042000F06EFB80210020ED
:1033D00000F06AFB2021012000F070FB08E0402192
:1033E000042000F061FB8021002000F067FB0FE06B
:1033F0002946012000F058FB2078401C207070BD49
:103400004021042000F05AFB8021002000F04CFBFA
:103410002021012000F048FBEAE700002080FF1F88
:1034200010B5AFF3008010BD10B5AFF3008010BD34
:1034300070B5002505F1B000C0B2002100F0A2F97E
:103440000021084600F09EF90021102000F09AF9B2
:1034500000240121002000F095F9641CE4B2802CC6
:10346000F7D36D1CEDB2082DE4D370BD10B500216B
:103470008D2000F087F90021142000F083F900214D
:10348000BDE81040AF2000F07DB900001CB500235E
:1034900033220121032000F01BFB002332220221F2
:1034A000032000F015FB0121202000F04DFB094C0A
:1034B0002046FEF756F9002100918DF800100649CC
:1034C000019169462046FEF769F901212046FEF781
:1034D00043F91CBD00E40440400D030010B5FFF7A4
:1034E000D5FFC820FEF744F80021AE2000F04AF9CD
:1034F0000021402000F046F90021B02000F042F900
:103500000021C82000F03EF90021812000F03AF9A6
:103510000021FF2000F036F90021A12000F032F94F
:103520000021A62000F02EF90021A82000F02AF9A1
:1035300000211F2000F026F90021D32000F022F9FD
:103540000021084600F01EF90021D52000F01AF9EC
:103550000021F02000F016F90021D92000F012F926
:103560000021222000F00EF90021DA2000F00AF9F3
:103570000021022000F006F90021DB2000F002F912
:103580000021492000F0FEF800218D2000F0FAF81B
:103590000021142000F0F6F80021AF2000F0F2F82E
:1035A000FFF764FFBDE81040FFF742BF2DE9F0418F
:1035B0004FF4803604463546154F01E06D1E1BD38F
:1035C00080213846FEF7E5F80028F7D02146384636
:1035D000FEF703F9E00718D1344601E0641E0BD36F
:1035E00008213846FEF7D5F80028F7D035464FF4C5
:1035F000806404E06D1E02D20120BDE8F081214606
:103600003846FEF7C6F80128F4D00020F5E70000A0
:1036100000E4044010B50446B031C8B2002100F007
:10362000B1F8102040EA1410002100F0ABF804F0CB
:103630000F00BDE8104040F00100002100F0A2B8EA
:103640002DE9F041203A00240F468046D5B27F286C
:1036500003D900208F1C8046FFB23946FFF7DAFFFE
:103660000E4E04EB05100121305C00F08BF8641C59
:10367000E4B2082CF5D37F1CF9B24046FFF7CAFF2D
:10368000002404EB051030440121007A00F07AF8A0
:10369000641CE4B2082CF4D3BDE8F081246B000074
:1036A0002DE9F04117460E46044600250CE0314650
:1036B0002046FFF7C5FF0834E4B2782C02D9002475
:1036C000B61CF6B26D1CEDB27A5D002AEFD1BDE8F2
:1036D000F08100002DE9F0414FF48036164D34465C
:1036E000770050B101212846FEF72EF80121284627
:1036F000FEF740F811E0641E0CD339462846FEF769
:1037000048F80128F7D001212846FEF738F804E0F0
:10371000761E02D20120BDE8F08139462846FEF728
:1037200038F80028F4D001212846FEF732F80028A6
:10373000EED00020EFE7000000E404402DE9F04166
:103740004FF480352C466F000D4E01E0641E0CD303
:1037500039463046FEF71DF80028F7D001213046E3
:10376000FEF712F804E06D1E02D20120BDE8F081E0
:1037700010213046FEF70DF80028F4D00020F5E7C0
:1037800000E4044009B101F0F9BE01F0EDBE000013
:103790002DE9F0470E4605464FF48039DFF860A06A
:1037A0002AE04F464C46D04601E0641E1BD38021E0
:1037B0004046FDF7EEFF0028F7D015F8011B444600
:1037C0004046FEF70AF8B84601E07F1E0BD30821F9
:1037D0002046FDF7DEFF0028F7D047464FF480680B
:1037E00004E07F1E02D20120BDE8F087414620465A
:1037F000FDF7CFFF0128F4D03046761ED1D2F3E793
:1038000000E40440FEB506000BD051B1154842F269
:103810001072154D0068B0FBF2F0484300210924F6
:1038200005E00420FEBD2A88D20708D0491C814249
:10383000F9D3288820F0010028803CB110E0002452
:103840006A4601A902A800F07BF8F2E79DED001A94
:10385000DDED010A9DED020A00F008F886ED000A90
:103860002046FEBD1C80FF1F00A40440B5EEC00A28
:10387000F1EE10FA09D0F5EEC00AF1EE10FA04D01C
:10388000B5EEC01AF1EE10FA02D19FED0A0A7047A8
:10389000F7EE001A084881EE802A81EEA00AD0EDEA
:1038A000010A32EE400A60EE200A90ED020A00EEB4
:1038B000810A7047000000000880FF1F10B550B358
:1038C000194C2168A31E47F6410289B21A601A609A
:1038D0002160154912390A8822F001020A80037812
:1038E0000A8863F3C3020A800A8822F004020A806D
:1038F00043780A8863F341020A800C4940780870D3
:1039000058B19FED0B0A81ED010A9FED0A0A0020D4
:1039100081ED020A10BD042010BD9FED070A81ED64
:10392000010A9FED060AF2E712A404400880FF1F77
:1039300071A93B45295CDF418CFF33496666DC4158
:1039400030B5104B1D889B1C1C889B1C1B8800EEEF
:10395000105AB8EE400A80ED000A00EE104A0A48FC
:10396000B8EE400A81ED000A0078012804D0B7EED5
:10397000000A82ED000A30BD00EE103AB8EE400AAF
:10398000F7E7000002A404400880FF1F034A1388E1
:1039900043F001031380FFF735BF000000A404408B
:1039A00008B501208DF80000A8218DF802108DF8CF
:1039B00001000146000300F0D3F86846FFF77EFFE0
:1039C0009DF8010001284FF0010005D0FDF72CFC07
:1039D0000120FDF7DBF908BDFDF7A6F90120FDF791
:1039E000DFFBF5E7F0B5DFF8BCE04AF20153002455
:1039F000AEF800304FF0010C0CFA04F30B4242D049
:103A0000830103EB8405274B264E1B1D2B44B61D5B
:103A1000354457781E8867F38E361E8097781E8847
:103A200067F30C361E80D7781E8867F349261E8000
:103A300017791E8867F386161E8097791E8867F3AC
:103A400082061E8057791E8867F305161E80167839
:103A500026B1012E0AD0022E10D11EE01E8826F4B7
:103A600000461E801E8826F0020606E01E8826F408
:103A700000461E801E8846F002061E80D6792B88DE
:103A800066F308232B80641CE4B2102CB4D34FF4EB
:103A90002540AEF800000020F0BD1E8846F4004628
:103AA000EBE70000FC3B0540034A02EB0010026814
:103AB0000A430260002070470A380540034A02EBBF
:103AC000001002680A430260002070470838054071
:103AD000F0B5134F4AF2015500243D804FF0010E1E
:103AE000860107F1060C0EFA04F008420CD006EB32
:103AF00084006044058862F3050505800588012B74
:103B00000BD025F480750580641CE4B2102CEAD338
:103B10004FF4254038800020F0BD45F48075F2E771
:103B2000FC3B0540074A064B13610129116805D08B
:103B3000014311600248401E106170478143F8E75D
:103B40000100A5A500800440044A0129516802D063
:103B50000143516070478143FBE70000008004404F
:103B6000044A0129D16802D00143D16070478143E2
:103B7000FBE700000080044010B54FF4FA710848DC
:103B8000FFF704FF06480068FCF7DFFD41EC100B6F
:103B9000BDE8104053EC102B02A001F0F9BC00006E
:103BA0002880FF1F4350552054656D706572617405
:103BB0007572652069732025660D0A0010B54FF0F7
:103BC0001C41C4780A68002364F302020A60C278C8
:103BD000072A0FD0062A0DD0086820F4407008602C
:103BE000086820F440600860086820F440500860CD
:103BF000184610BD84780A6864F309220A60447884
:103C00000A6864F38B220A600278086862F30D3058
:103C1000EDE74FF01C4100200A6842F020020A60E4
:103C200070474FF01C4100200A6822F020020A6011
:103C3000704710B54FF01C4104780A68002364F304
:103C400015420A6044780A6864F3C7120A6004796E
:103C50000A6864F3C3020A60C4780A6864F3041251
:103C60000A60047A0A6864F302020A60027A072A88
:103C700020D0062A1ED00A6822F440720A600A6820
:103C800022F440620A600A6822F440520A60447AD0
:103C90004A6864F305124A60847A4A6864F303024E
:103CA0004A600278D20714D0C27A92B18A6822F4AC
:103CB000004212E0C4790A6864F309220A60847938
:103CC0000A6864F38B220A6044790A6864F30D324F
:103CD000DCE7C47A8A6864F3CF328A60047B8A683E
:103CE00064F30B228A60447B8A6864F386128A60DC
:103CF000847B8A6864F345128A60C47B8A6864F3B3
:103D000004128A60047C8A6864F382028A60447CBC
:103D10008A6864F301028A6084780A6864F3451251
:103D20000A60807C4861184610BD4FF01C40006955
:103D3000C0B2704701464FF01C420020116170472D
:103D400010B50446B0F5000F01D3012010BD00F0FE
:103D500034F8FFF75EFF2020FFF7ECFFC4F30740C5
:103D6000FFF7E8FFC4F30720FFF7E4FFE0B2FFF737
:103D7000E1FFFFF756FFBDE81040AFF3008030B51C
:103D800089B000256846FCF749FF00984FF47A7126
:103D9000B0FBF1F4FFF73DFF0520FFF7CBFFFFF786
:103DA000C4FF641E01D0C107F9D1012800D1092543
:103DB000FFF737FF09B0284630BD10B5FFF729FFE0
:103DC0000620FFF7B7FFBDE81040FFF72ABF70B528
:103DD00014460D460646B0F5000F03D815B1B4F5EC
:103DE000807F01D9012070BDFFF7E7FFFFF711FFCA
:103DF0000220FFF79FFFC6F30740FFF79BFFC6F3C4
:103E00000720FFF797FFF0B201E015F8010BFFF76D
:103E100091FF641EA4B2F8D2FFF703FFBDE8704023
:103E2000FFF7ADBF4368002261F38613436010467D
:103E3000704710B50B7D0022012B7CD0836923F4E1
:103E400000438361836923F480438361836923F49E
:103E500000538361C36823F4E003C360C36823F0A5
:103E6000E063C360C36823F0E043C3608B7C002B36
:103E70007DD0836923F0E0038361C36823F48073FA
:103E8000C360C36823F40073C360C36823F4806312
:103E9000C360C36823F40063C360CC7AC36864F36F
:103EA0008613C3604C7CC36864F30103C3600C7C5D
:103EB000836964F30C338361CC7B836964F30B23E4
:103EC00083618C7B836964F3840383610C7B8369E6
:103ED00064F3410383614C7B836964F30003836172
:103EE0008C7C436864F300034360CC7C436864F3D8
:103EF000410343600C7D436864F3C30343604C7D1E
:103F0000436864F3C71343608C7D436864F30C33E8
:103F10004360CC7D436864F34D3343600C7E43685B
:103F200064F3CF3343604B7E416863F38E3141606D
:103F3000104610BDFFE70C78836964F3CF338361CB
:103F40008C78836964F38E3383610C79836964F3BD
:103F50004D3383614C78C36864F31653C360CC78E7
:103F6000C36864F31A63C3604C79C36800E002E07D
:103F700064F31E7379E78C79836964F34713836173
:103F8000CC79C36864F30823C3600C7AC36864F314
:103F90004923C3604C7AC36864F38A23C3608C7A74
:103FA000C36864F3CB2377E7002331B1012908D03C
:103FB00002290CD0032908D10DE0416862F3CB211E
:103FC00002E0416862F38A21416018467047416807
:103FD00062F34921F8E7416862F30821F4E70068D9
:103FE000C0B2704702460020116070470249762037
:103FF00008600020704700000C0805400249772047
:1040000008600020704700000C0805400249762037
:10401000086000207047000004080540024977202E
:104020000860002070470000040805402DE9F041B9
:1040300006465F480F462DED028B4FF0FF34864257
:1040400008D05C48864205D05B48864202D05B4877
:1040500086422AD1304600F001FF05463846FCF77B
:1040600067FB9FED571B53EC112BFCF780FA41ECDB
:10407000180B2846FCF75CFB53EC182BFCF7E9FA0D
:104080009FED511B53EC112BFCF76BFAFCF770FB07
:1040900000EE100AFCEEC00AB5EEC00A10EE902A3F
:1040A000F1EE10FA01D3FF2A04D90420BDEC028BF3
:1040B000BDE8F08100EE902AF8EE600AB4EE600AE6
:1040C000F1EE10FA60D0501C7843B0F5800F04D2A6
:1040D0008002B0FBF5F4803C56E06FF07F01B0F554
:1040E000000F05D24002B0FBF5F001EB40044BE0BD
:1040F000B0F1807F05D20002B0FBF5F001EB800447
:1041000042E0B0F1007F05D2C001B0FBF5F001EB59
:10411000C00439E0B0F1806F05D28001B0FBF5F04A
:1041200001EB001430E0B0F1006F05D24001B0FBAC
:10413000F5F001EB401427E0B0F1805F05D20001FB
:10414000B0FBF5F001EB80141EE0B0F1005F05D28A
:10415000C000B0FBF5F001EBC01415E0B0F1804FEA
:1041600005D28000B0FBF5F001EB00240CE0B0F1CB
:10417000004F05D24000B0FBF5F001EB402403E016
:10418000B0FBF5F001EB8024601CF06802D040F039
:10419000005001E020F00050F060B06864F30600C9
:1041A000B060B06862F30F20B06000207EE70000CE
:1041B00000D0014000D40140001002400014024031
:1041C0000000000000001040000000000000F03F70
:1041D00070B504462DED028B0D462A4884B00FC8F9
:1041E0008DE80F002848844208D02848844205D032
:1041F0002748844202D0274884422FD1204600F02D
:104200002DFE06466069C0F342503DF81000684339
:10421000FCF78EFA9FED201B53EC112BFCF7A7F94E
:1042200041EC180B3046FCF783FA53EC182BFCF7E3
:1042300010FA9FED1B1B53EC112BFCF792F9FCF7C6
:1042400097FA00EE100AFCEEC00AB5EEC00A10EEB6
:10425000900AF1EE10FA01D3FF2804D9042004B02B
:10426000BDEC028B70BDE16821F00051E160A168F6
:104270007F2262F30601A160A16860F30F21A160B3
:104280000020ECE7146B000000D0014000D4014096
:104290000010024000140240000000000000004036
:1042A000000000000000F03F2DE9F04105466E4897
:1042B0000E462DED028B4FF0FF37854208D06B483C
:1042C000854205D06A48854202D06A4885423CD181
:1042D000284600F0C3FD0446E868C0F3C0308046BD
:1042E000FCF726FA9FED641B53EC112BFCF73CF90D
:1042F00041EC180B3046FCF71BFA9FED611B53ECA9
:10430000112BFCF734F953EC182BFCF730F941EC86
:10431000180B2046FCF70CFA53EC182BFCF799F914
:104320009FED591B53EC112BFCF71BF9FCF720FAFE
:1043300000EE100AFCEEC00AB5EEC00A10EE902A9C
:10434000F1EE10FA01D3FF2A04D90420BDEC028B50
:10435000BDE8F08100EE902AF8EE600AB4EE600A43
:10436000F1EE10FA6CD0C8F10200511C48437043C2
:10437000B0F5001F04D2C002B0FBF4F7803F5FE04D
:104380006FF07F01B0F5800F05D28002B0FBF4F032
:1043900001EB400754E0B0F5000F05D24002B0FB3E
:1043A000F4F001EB80074BE0B0F1807F05D2000212
:1043B000B0FBF4F001EBC00742E0B0F1007F05D2A2
:1043C000C001B0FBF4F001EB001739E0B0F1806FF1
:1043D00005D28001B0FBF4F001EB401730E0B0F102
:1043E000006F05D24001B0FBF4F001EB801727E02D
:1043F000B0F1805F05D20001B0FBF4F001EBC01713
:104400001EE0B0F1005F05D2C000B0FBF4F001EB9C
:10441000002715E0B0F1804F05D28000B0FBF4F02A
:1044200001EB40270CE0B0F1004F05D24000B0FB9B
:10443000F4F001EB802703E0B0FBF4F001EBC027C0
:10444000781CE86802D040F0005001E020F00050F5
:10445000E860A86867F30600A860A86862F30F2008
:10446000A860002072E7000000D0014000D40140A5
:104470000010024000140240000000000000004054
:104480000000000000002040000000000000F03F9D
:104490002DE9F04106466F484FF0FF372DED028BB6
:1044A000006A0123C0F3021003FA00F26A486B4D60
:1044B0000068B0FBF2F1A8698007400F03FA00F230
:1044C000B1FBF2F4E868C0F3C0308046FCF730F985
:1044D0009FED631B53EC112BFCF746F841EC180BD6
:1044E0003046FCF725F99FED601B53EC112BFCF7D0
:1044F0003EF853EC182BFCF73AF841EC180B204629
:10450000FCF716F953EC182BFCF7A3F89FED581B9A
:1045100053EC112BFCF725F8FCF72AF900EE100AF2
:10452000FCEEC00AB5EEC00A10EE902AF1EE10FAC9
:1045300001D3FF2A04D90420BDEC028BBDE8F08131
:1045400000EE902AF8EE600AB4EE600AF1EE10FA7E
:104550006CD0C8F10201501C41437143B1F5001FFA
:1045600004D2C802B0FBF4F7803F5FE06FF07F0039
:10457000B1F5800F05D28902B1FBF4F100EB4107E0
:1045800054E0B1F5000F05D24902B1FBF4F100EBA4
:1045900081074BE0B1F1807F05D20902B1FBF4F154
:1045A00000EBC10742E0B1F1007F05D2C901B1FBC8
:1045B000F4F100EB011739E0B1F1806F05D2890108
:1045C000B1FBF4F100EB411730E0B1F1006F05D21F
:1045D0004901B1FBF4F100EB811727E0B1F1805FF5
:1045E00005D20901B1FBF4F100EBC1171EE0B1F1F6
:1045F000005F05D2C900B1FBF4F100EB012715E023
:10460000B1F1804F05D28900B1FBF4F100EB4127F5
:104610000CE0B1F1004F05D24900B1FBF4F100EB21
:10462000812703E0B1FBF4F100EBC127781CE868B7
:1046300002D040F0005001E020F00050E860A8688F
:1046400067F30600A860A86862F30F20A860002046
:1046500072E70000004005401C80FF1F0010024070
:1046600000000000000000400000000000002040AA
:10467000000000000000F03F014908807047000082
:104680002C80FF1F10B5AFF30080BDE8104001F093
:10469000B7BC000070B51B4991F826001A4E00F017
:1046A00007021A4875104FF40043062A05D2DFE8C6
:1046B00002F0030507050709066070BD056070BDBF
:1046C000036070BDD1F80021C2F3C014D1F80021FD
:1046D000D1F80031C2F30722D1F800111B0F01F00D
:1046E0001F015CB1002CECD0491CB6FBF1F1521C4F
:1046F00051435B1CB1FBF3F1016070BD491CB5FB7C
:10470000F1F1F4E7004005400024F4001C80FF1F95
:10471000FFF7C0BF00F014FC00F0B8FB00F050FC45
:1047200000F044FD00F06EF800250B4C4FF47A7653
:10473000FBF760FE207800B1257001F061FFFCF707
:10474000BFFF014605A000F023FF01F079FF3046CE
:1047500001F0C8FFECE700002E80FF1F41494E31F9
:104760003020646174613A25640D0A001CB500F0C4
:1047700091FCFEF7B3FE00F017FDFCF70FFF01F010
:104780003FFF13A200213020FEF78AFF12A2022170
:104790002020FEF785FF13A000F0FAFEFFF7ECF9EA
:1047A00001F04EFF00F066FD00F052FE12490420B9
:1047B000CDE900010023802210A1114802F0AAF8DF
:1047C0004FF47A74FEF7DAFD204601F08BFFF9E72B
:1047D00048445343000000004843333246343630E7
:1047E0000000000073797374656D20496E6974610F
:1047F000696C6564210D0A001880FF1F4144430065
:1048000015470000F8B50526002542248DF8036001
:104810006846FFF7D3F92846FFF792FA22460D497A
:104820002846FFF7D4FA8DF803606846FFF7C6F90B
:104830004FF0184122460848FBF7AAFD22460649D8
:104840000448FBF7C9FD18B104A000F0A1FEF8BDB3
:1048500007A0FAE74080FF1F3A83FF1F51535049DA
:104860002074657374206661696C6564210D0A00AB
:1048700051535049207465737420506173730D0A4D
:104880000000000018B50023012A00D00022824C4D
:10489000A0420AD0814CA04207D0814CA04204D053
:1048A000804CA04201D0042018BD0F297DD2DFE842
:1048B00001F0080C1115191D212D312529DEE2E723
:1048C000EB00C16862F3820102E0C16862F3451146
:1048D000C160DFE0C16862F3C301F9E7C16862F358
:1048E000C711F5E7C16862F30001F1E7C16862F33F
:1048F0004101EDE7C16862F30411E9E7C16862F3C1
:104900008A21E5E7C16862F39E71E1E7C16862F35D
:104910008611DDE7C468009964F300010091C16865
:104920004C08009964F341010091C1688C0800991A
:1049300064F382010091C168CC08009964F3C3015B
:104940000091C1680C09009964F304110091C168D9
:104950004C09009964F345110091C1688C090099D4
:1049600064F386110091C168CC09009964F3C71102
:10497000009181890C0A009964F308210091C168B3
:104980004C0A009964F349210091C1688C0A00998E
:1049900064F38A2100918189CC0A009964F3CB21C8
:1049A0000091C1680C0B009900E072E064F30C31D7
:1049B000009181894C0B009964F34E310091C168DC
:1049C000CC0B009964F3CF310091C1680C0C0099B5
:1049D00064F310410091C1684C0C009964F351419B
:1049E0000091C1688C0C009964F392410091C168F8
:1049F000CC0C009964F3D3410091C1680C0D00996F
:104A000064F314510091C1684C0D009964F357513F
:104A10000091C1680C0E009964F318610091C1689F
:104A20004C0E009964F35B610091C1680C0F009912
:104A300064F31C710091C1684C0F009964F35D71BF
:104A40000091C1688C0F009964F39E710091C16858
:104A5000CC0F009964F3DF710091009962F3C301F8
:104A60000091009962F3C7110091009930E7C16885
:104A700062F35D712CE7016962F30001016109E0F5
:104A8000416962F3451102E0416962F349214161E4
:104A900000E00423184618BD00D0014000D40140B6
:104AA00000100240001402400148006870470000F6
:104AB000041402400B49086802070B4803D502683A
:104AC00042F4002202600A68920703D5026842F4A9
:104AD000003202600968C90703D0016841F48031DF
:104AE00001607047001402400C1402400C4A9042CE
:104AF0000AD00C4A904207D00B4A904204D00B4A8D
:104B0000904201D0042070474269920601D5FFF718
:104B10005FBBC268D20101D5FFF788BAFFF7C4BBFB
:104B200000D0014000D401400010024000140240B7
:104B30000FB500220092019202920392944B984288
:104B400008D0944B984205D0934B984202D0934B97
:104B5000984232D189B36FF00C03C360DB07C360A6
:104B6000026142614FF6FF7383608261039A22F013
:104B700020020392019A22F0807201924B78009AEF
:104B800063F3010200928B78019A63F30C32019275
:104B9000CB78019A63F31C7201920B79029A63F34A
:104BA0004D3202920B78029A63F3CC2202924A7938
:104BB00032B1012A08D0022A7ED0042004B000BD00
:104BC000019A22F4806203E0019A22F40072DAE092
:104BD00001920B7A039A63F349220392CB79019AEB
:104BE00063F3DF7201928A79019962F3CF31019107
:104BF000009A816962F3010181610199C26861F3E0
:104C00000002C26001994A08C16862F34101C160B3
:104C100001998A08C16862F38201C1600199CA08DA
:104C2000C16862F3C301C16001990A09C16862F3F6
:104C30000411C16001994A09C16862F34511C1605C
:104C400001998A09C16862F38611C1600199CA0994
:104C5000C16862F3C711C1609DF8051041730199E5
:104C60004A0AC16862F34921C16001998A0AC16890
:104C700062F38A21C1609DF80510417301990A0B06
:104C8000C16862F30C31C1609DF805104173019950
:104C9000CA0BC16862F3CF31C16001990A0CC168C7
:104CA00062F31041C16001994A0CC16862F351413D
:104CB000C1609DF8061000E062E081730199CA0CA2
:104CC000C16862F3D341C16001990A0DC16862F302
:104CD0001451C1609DF80610817301990A0EC168D4
:104CE00062F31861C1609DF80710C17301990A0F42
:104CF000C16862F31C71C16001994A0FC16862F317
:104D00005D71C16001998A0FC16862F39E71C160D3
:104D10000199CA0FC16862F3DF71C160029902692B
:104D200061F300020261BDF8081001820299CA0A0B
:104D3000016962F3CC21016102994A0B016962F3B6
:104D40004D3101619DF80C10017503994A094169C3
:104D500062F345114161BDF80C10818203994A0A42
:104D6000416962F349214161BDF80D10A0F81510A9
:104D700003994A0D416962F35751416100201DE7D3
:104D8000019A42F400720192019A42F480621FE794
:104D900000D0014000D40140001002400014024045
:104DA00010484169490703D5416921F00401416177
:104DB0004169C90603D5416921F01001416141698A
:104DC000090703D5416921F0080141614169C9071B
:104DD00003D0416921F001014161416841F0400186
:104DE000416070470000024001490020C8707047D0
:104DF0002380FF1F10B50D48FFF7F1F80C4A0D4C4A
:104E000000231070552806D1D178012903D9617883
:104E1000222900D0D370D1786054491CC8B2D07018
:104E2000322800D3D3700120507010BD0000024022
:104E30002380FF1F0883FF1F10B5FF210348FFF7E2
:104E4000D1F803490120887010BD00000000024025
:104E50002380FF1F10B5AFF3008010BD0949096A18
:104E60000123C1F3021103FA01F2074980690968BD
:104E7000B1FBF2F18007400F03FA00F2B1FBF2F050
:104E800070470000004005401C80FF1F30B58BB00C
:104E9000002460208DF8280000940194029403946B
:104EA000049405940694079408940121032009941E
:104EB000FEF756FE8DF803408DF801408DF8004056
:104EC00001201C4D8DF8020069462846FBF73EFE86
:104ED00069461948FBF73AFE0D208DF8240009A811
:104EE000FBF716FE02208DF81C0007AA0121FEF731
:104EF00079FD281502900AA804908DF80C4002A9AB
:104F00002846FBF79FFD4FF4E070ADF814000B4806
:104F100006900320ADF8160005A801F013F815F867
:104F2000460F20F001002870687840F0010068709A
:104F30000BB030BD0000044000040440390B0000F9
:104F400030B585B0002001240190029003900490B8
:104F50008DF805408DF8064003208DF80700009479
:104F600021464FF08170FEF7DDFD134D694628465E
:104F7000FCF796F9286840F0004028602821284670
:104F8000FCF7CEF93720ADF80C000C20ADF80E0080
:104F90000A48049003A800F0D5FFBDF90E000028D0
:104FA00008DB00F01F018C404009800000F1E02088
:104FB000C0F8004105B030BD00200540951200004A
:104FC00030B58FB030216846FBF7FBF90020012493
:104FD0004FF47A710C90ADF800400D90ADF80210CE
:104FE000284A8DF826400292ADF80C108DF8274023
:104FF000254AADF80E108DF82B008DF82400019293
:105000008DF8250001218DF82D408DF82A40880368
:10501000FEF788FD1D4D01212846FCF73FFA6A4640
:1050200000212846FCF744FA012200212846FCF71B
:1050300001FA022200212846FCF708FA2820ADF8E0
:1050400030000820ADF8320011480D900CA800F097
:1050500079FFBDF93210002908DB01F01F00844000
:105060004809800000F1E020C0F800410121480417
:10507000FEF758FD4FF4E07200212846FCF762FA73
:105080000FB030BD0C2005406400044000300540E6
:1050900081130000F0B587B000240094012501942D
:1050A000029403948DF800506A4640210420FEF7D4
:1050B00099FC6A4680210020FEF794FC6A46202174
:1050C0000120FEF78FFC6A4669020120FEF78AFC88
:1050D0008DF800408DF802506A4608210320FEF743
:1050E00081FC6A4610210320FEF77CFC1A488DF8EB
:1050F0000450032604708DF810608DF813408DF86D
:105100001150164F8DF8126004A80597FCF7C0FAED
:105110000424134D8DF8104004A80595FCF7B8FA47
:10512000ADF808600D20ADF80A0002A8039700F062
:1051300009FFBDF90A0000F055FAADF808400E204D
:10514000ADF80A0002A8039500F0FCFEBDF90A00C4
:1051500000F048FA07B0F0BD2080FF1FA55F0000F7
:10516000B15F00002DE9F04104461D4616460F468A
:105170000020FEF7AFFA002814D16006000EFEF7FB
:1051800015FA00280ED13846FEF710FA002809D18A
:1051900029463046FEF7FCFA002803D1BDE8F0416D
:1051A000FEF7CCBABDE8F081FEF7FABB00B585B0DA
:1051B00014216846FBF705F901210820FEF7C4FC1D
:1051C0000023072240210220FEF782FC0023072251
:1051D00080210220FEF77CFC002307224FF480711F
:1051E0000320FEF775FC002307224FF40071032013
:1051F000FEF76EFC002307224FF480610320FEF7C8
:1052000067FC002307224FF400610320FEF760FCD7
:10521000032200208DF800208DF801008DF8020097
:105220008DF803008DF8040001218DF81000022094
:105230008DF80C208DF807008DF8091007238DF8E4
:105240000D108DF806008DF80A308DF80E108DF8CF
:1052500011008DF805008DF80B108DF80F10EB2064
:1052600005218DF812008DF808106846FEF7E1FC64
:1052700005B000BD70B58AB01C2102A8FBF7A1F8EB
:1052800000240121009488040194FEF75DFC0023B2
:105290002B2201210420FEF71BFC00232A220221DD
:1052A0000420FEF715FC0421002328220846FEF7FF
:1052B0000FFC0023292208210420FEF709FC052504
:1052C0008DF816508DF8194004268DF81D408DF884
:1052D00020408DF817608DF818408DF81E408DF82D
:1052E00021408DF814408DF81A408DF81F408DF83C
:1052F0000E408DF815408DF813408DF81B408DF849
:105300001C408DF80F40424C02A92046FEF791FD4B
:105310004FF49B70ADF800003E480190ADF802607C
:10532000684600F00FFEBDF9020000F041F9BDF93A
:1053300002000F2100F07DF9BDF9020000F05FF9D5
:1053400040F23510ADF8000033480190ADF802503E
:10535000684600F0F7FDBDF9020000F029F9BDF93B
:1053600002000F2100F065F9BDF9020000F047F9D5
:105370004FF49C70ADF800000F20ADF802002748F4
:105380000190684600F0DEFDBDF9020000F010F962
:10539000BDF902000F2100F04CF9BDF9020000F048
:1053A0002EF940F23710ADF800001020ADF80200E1
:1053B0001B480190684600F0C5FDBDF9020000F0F1
:1053C000F7F8BDF902000F2100F033F9BDF9020032
:1053D00000F015F901212046FEF724FD0A20FCF714
:1053E000C7F8012211462046FEF7DEFD0122022108
:1053F0002046FEF7D9FD012203212046FEF7D4FD09
:10540000012200212046FEF7CFFD0AB070BD00004A
:1054100000000240394E0000F54D0000A14D000093
:10542000E94D00001CB507490320CDE90001002328
:10543000802205A1054801F06DFABDE81C4001F08D
:1054400077B900001480FF1F4C4544006D470000F1
:1054500030B587B00024009401940594069401258A
:105460008DF800408DF805408DF802408DF804401D
:105470000294039404948DF803408DF80650294655
:10548000E806FEF761FB8DF8145005AA04210520FB
:10549000FEF7A8FA8DF8144005AA04210520FEF7AE
:1054A000A1FA0023252269030220FEF711FB002345
:1054B000242204210520FEF70BFB274D69462846D0
:1054C000FFF736FB4FF4E1312846FFF70FFB0122CF
:1054D00002212846FFF7D6F9012200212846FFF7CE
:1054E000D1F9012211462846FFF7CCF94FF4937009
:1054F000ADF80C001620ADF80E001848049003A873
:1055000000F020FDBDF90E00022100F0A2F8BDF967
:105510000E0000F05AF8BDF90E0000F07DF840F2E0
:105520002510ADF80C001720ADF80E000C480490C3
:1055300003A800F007FDBDF90E00032100F089F873
:10554000BDF90E0000F041F8BDF90E0000F064F85E
:105550000448446007B030BD00140240A94A00006E
:10556000B54A00003480FF1F08B501238DF8000004
:105570006A4600213C20FFF7F5FD08BD08B5012370
:105580008DF800006A4640213C20FFF7EBFD08BD86
:105590000FB4054B10B503A9044A029800F03AF97C
:1055A00010BC5DF814FB0000955F0000E480FF1F55
:1055B000002809DB00F01F02012191404009800012
:1055C00000F1E020C0F880127047002809DB00F0ED
:1055D0001F02012191404009800000F1E020C0F845
:1055E00080127047002809DB00F01F020121914062
:1055F0004009800000F1E020C0F800117047002849
:1056000009DB00F01F02012191404009800000F1F8
:10561000E020C0F800117047002809DB00F01F02ED
:10562000012191404009800000F1E020C0F8001104
:1056300070470907090E002804DB00F1E02080F81C
:105640000014704700F00F0000F1E02080F8141DF6
:1056500070470907090E002804DB00F1E02080F8FC
:105660000014704700F00F0000F1E02080F8141DD6
:10567000704702E008C8121F08C1002AFAD170471B
:105680007047002001E001C1121F002AFBD17047C2
:105690002DE9FF5F82B00021DDE90430020DDDF865
:1056A00040B0034318D044F61050A2F2FF324243F8
:1056B0001514119801281FD0A5EB0B00401C5FEAC0
:1056C000000A4FF000064E4FDFF83891B0465046C2
:1056D00015D5CAF1000413E0119801244AA301284A
:1056E00001D16FEA0B010298119AC0E90031C0E9BB
:1056F000024206B0BDE8F09FCBF10000DFE70446B0
:105700000021404A491842EB0450CDE9001012E054
:10571000E00707D032463B4640464946FAF727FFA6
:105720008046894632463B4610461946FAF71FFF27
:1057300006460F466410002CEAD1DDE90401DDE9DC
:105740000023BAF1000F06DAFAF711FF42464B4682
:10575000FAF70DFF05E0FAF77CFF42464B46FAF7F1
:1057600078FF04460E460022284BFBF731F903D898
:105770004FF0FF30014607E00022254B204631461E
:10578000FAF74EFEFBF70CF9102409E0002C0ADBB7
:105790000A220023FBF71EF8039B30321A55641EC1
:1057A00050EA0102F2D1641C039AC4F111031444BB
:1057B000119A012A03D0012208430DD10AE00843BF
:1057C00004D000204FF0110B119072E7A3EB0B05F2
:1057D0006D1E0DE05B4504DD4FF0000205F1010593
:1057E00004E003DA4FF00002A5F10105002AECD035
:1057F00002981199C0E90231C0E9004579E700003B
:10580000000014400000F03F300000000000F043B2
:105810000000E03F2DE9FF4F95B09B4689460646C4
:1058200000250FE2252877D100242746F84A0121D8
:10583000059400E0044316F8013F203B01FA03F011
:105840001042F7D130782A2811D06FF02F0330782A
:10585000A0F13002092A16D8059A44F0020402EB9E
:10586000820203EB42021044761C0590EFE759F8E0
:10587000042B0592002A03DA504244F400540590A8
:1058800044F00204761C30782E2816D116F8010F49
:1058900044F004042A280DD06FF02F023078A0F1D4
:1058A0003003092B09D807EB870302EB4303C71822
:1058B000761CF3E759F8047B761C30786C280FD0FF
:1058C00006DC4C2817D068280DD06A2814D104E0D3
:1058D000742810D07A280FD10DE044F400140AE0A7
:1058E00044F4801401E044F440147278824202D1FE
:1058F00004F58014761C761C307866280BD013DCF7
:10590000582877D009DC002875D04528F6D04628DD
:10591000F4D047281AD19DE118E0632835D06428D7
:1059200079D0652812D195E1702873D008DC6728FA
:10593000F1D069286FD06E280DD06F2806D1B5E060
:1059400073282CD0752875D0782874D05A461799AA
:1059500090476D1C75E1C4F30250022809D003285A
:105960000DD0D9F8001004280DD00D6009F10409FC
:1059700067E1D9F80010EA17C1E90052F6E7D9F853
:1059800000100D80F2E70D70F0E719F8041B8DF898
:10599000001000208DF80100EA46012003E059F8CC
:1059A00004AB4FF0FF3061074FF0000102D40DE06F
:1059B00008F101018846B9420FDA8045F8DB1AF890
:1059C00008100029F4D108E008F10101884681425D
:1059D000FADB1AF808100029F6D105985B46A0EB0F
:1059E000080721463846179A00F094FA284400EB3D
:1059F000080507E04DE029E10DE01AF8010B5A46D1
:105A000017999047B8F10108F7D25B46214638460E
:105A1000179A13E142E00A220092C4F302524FF0B7
:105A2000000A022A08D059F804CB032A4FEAEC7185
:105A30000AD00DE029E02AE009F1070121F0070270
:105A4000F2E802C1914609E00FFA8CFC4FEAEC71D2
:105A5000042A03D14FFA8CFC4FEAEC71002907DAD3
:105A60000A460021DCF1000C61EB02012D2202E06C
:105A7000220504D52B228DF80420012203E0E20741
:105A800001D02022F7E7904659E00A2102E01022D7
:105A90000DE010214FF0000A00910BE010224FF0B2
:105AA000000A44F004040827009203E008224FF0A3
:105AB000000A0092C4F30252022A05D059F804CB1E
:105AC0000021032A08D009E009F1070121F00702AB
:105AD000F2E802C1914605E01FFA8CFC042A01D1CC
