:020000040000FA
:1000000060D3FF1F51030000DD3E00009D1E000075
:10001000D53E0000B90A00008B7B00000000000004
:100020000000000000000000000000009502000039
:100030005D1C000000000000E9020000C95B000038
:10004000FD1F00000D2000001D2000002D200000DD
:100050003D2000004D2000005D2000006D200000CC
:100060007D2000008D2000009D200000AD200000BC
:10007000BD200000CD200000DD200000ED200000AC
:10008000FD2000000D2100001D2100002D21000099
:100090003D2100004D2100005D2100006D21000088
:1000A0007D2100008D2100009D210000AD21000078
:1000B000BD210000CD210000DD210000ED21000068
:1000C000FD2100001122000025220000392200003D
:1000D0004D220000612200007522000089220000EC
:1000E0009D220000B1220000C5220000D92200009C
:1000F000ED22000001230000152300002923000049
:100100003D230000512300006523000079230000F7
:100110008D230000A1230000B5230000C9230000A7
:10012000DD230000F1230000052400001924000055
:100130002D24000041240000552400006924000003
:100140007D24000091240000A5240000B9240000B3
:10015000CD240000E1240000F52400000925000062
:100160001D2500003125000045250000592500000F
:100170006D2500008125000095250000A9250000BF
:10018000BD250000D1250000E5250000F92500006F
:100190000D2600002126000035260000492600001B
:1001A0005D260000712600008526000099260000CB
:1001B000AD260000C1260000D5260000E92600007B
:1001C000FD26000011270000252700003927000028
:1001D0004D270000612700007527000089270000D7
:1001E0009D270000B1270000C5270000D927000087
:1001F000ED27000001280000152800002928000034
:100200003D280000512800006528000079280000E2
:100210008D280000A1280000B5280000C928000092
:10022000DD280000F1280000052900001929000040
:100230002D290000412900005529000069290000EE
:100240007D290000AD2A0000392D0000FD2D0000A1
:100250008930000093030000930300009303000023
:10026000D9310000553400004D360000F137000050
:10027000D1380000913A0000713C00006D3D000053
:10028000DFF80CD000F0EAFA00480047A195000022
:1002900060D3FF1F2B4B19680868B0E8F04F80F35C
:1002A0000988BFF36F8F4FF0000080F3118870470B
:1002B0000000000006480068006880F3088862B605
:1002C00061B6BFF34F8FBFF36F8F00DF00BF00BF7A
:1002D00008ED00E0DFF80C00016841F470010160F6
:1002E000704700BF88ED00E0EFF30980BFF36F8F28
:1002F000144B1A681EF0100F08BF20ED108A20E979
:10030000F04F106008B44FF0500080F31188BFF335
:100310004F8FBFF36F8F09F099FE4FF0000080F30D
:10032000118808BC19680868B0E8F04F1EF0100F7B
:1003300008BFB0EC108A80F30988BFF36F8F704755
:1003400000BF00BF0C82FF1FEFF305807047000065
:1003500010484FF0770101600F484FF077010160BE
:100360000E484FF4885101600A484FF07601016051
:1003700009484FF076010160094880470948004765
:10038000FEE7FEE7FEE7FEE7FEE7FEE7FEE7FEE745
:10039000FEE7FEE7040805400C080540000805409C
:1003A000495C000081020000D2B201E000F8012B9C
:1003B000491EFBD270470022F6E710B513460A46E5
:1003C00004461946FFF7F0FF204610BD00F000423A
:1003D00030F000400AD0C10D01F56071C0F3160085
:1003E00042EA0151C208400711437047002001460C
:1003F0007047000001490120087070470000044068
:10040000FFFFFFFFFFFFFFFFFFFFFFFFFFFFFFFFFC
:10041000FFFFFFFFFFFFFFFFFFFFFFFFFFFFFFFFEC
:100420002DE9F05F0546002092469B468846064629
:10043000814640241BE0284641464746224600F0BC
:1004400045F853465A46C01A914110D311461846F2
:10045000224600F02CF82D1A67EB01084F46224681
:100460000120002100F023F817EB00094E41201E67
:10047000A4F10104DFDC484631462A464346BDE884
:10048000F09F30B50B46014600202022012409E0F0
:1004900021FA02F59D4205D303FA02F5491B04FA3D
:1004A00002F52844151EA2F10102F1DC30BD202A1C
:1004B00004DB203A00FA02F1002070479140C2F1BB
:1004C000200320FA03F3194390407047202A04DBED
:1004D000203A21FA02F00021704721FA02F3D040BD
:1004E000C2F1200291400843194670472DE9FE4FA2
:1004F000804681EA0300C00F0C46009021F00041C5
:1005000023F00045B8EB0200A94105D24046214640
:1005100090461C460B46024623F00040104347D04D
:10052000270DC7F30A00C3F30A510290401A019045
:1005300040286BDAC3F3130040F4801B0098924606
:1005400020B10023D2EB030A63EB0B0B0198594651
:10055000C0F140025046FFF7AAFF06460D4650463E
:100560005946019A00F08CF910EB08006141002413
:1005700087EA115284EAE7731A4340D0009A62B3C3
:10058000019A012A4FEA075215DC001B61EB0201B8
:100590004FF0004202EA0752CDE90042001C41F54B
:1005A000801132462B4600F08CF903B0BDE8F08F85
:1005B00040462146F9E7001B61EB0201001C41F5B2
:1005C000801300185B412018A2F5001747EB0301C8
:1005D00040EAD570B6196D4111E06D084FEA360654
:1005E00045EAC0754FEA0752001B61EB0201001C8F
:1005F00041F5801149084FEA300000195141324657
:100600002B4603B0BDE8F04F00F04CB90098012232
:1006100040000023D0EB020263EBE0730098214618
:100620004FEAE074B8EB000061EB0401E9E783F006
:1006300000435BE781F0004158E72DE9FE4F81EA76
:10064000030404F0004421F0004100944FF0000B3B
:1006500023F0004350EA01045ED052EA03045BD069
:10066000C3F30A54C1F30A552C44A4F2F3340194A1
:10067000A0FB0254C1F3130141F48011C3F313032F
:1006800043F4801301FB024400FB034E840A970AE3
:1006900044EA815447EA8357A4FB076802958D0A10
:1006A00005FB07854FEA932C04FB0C542705029D9C
:1006B0004FEA065847EA1637B5EB08056EEB070C0C
:1006C000870E920E47EA811742EA8312A7FB0201C6
:1006D000B6EB0B0164EB00042B0D43EA0C335E1800
:1006E00044EB1C50DA465146E7FB0201C5F3130404
:1006F0004FEA0B3343EA14534FEA0432019C43EAB6
:100700000603A4F10C040294009CCDE900B400F0AF
:10071000D8F803B0BDE8F08F00200146F9E72DE9D5
:10072000F04D81EA030404F0004B21F0004514462B
:100730004FF0000A23F0004150EA050220D054EAAD
:1007400001021DD0C5F30A570246C5F31303C1F3D6
:100750001300C1F30A5640F4801543F48013A7EB4D
:100760000608101BD64608F2FD3873EB050002D3CD
:1007700008F1010801E092185B41B8F1000F03DABB
:1007800000200146BDE8F08D00204FF480110646A0
:1007900084460EE0171B73EB050705D3121B63EBB2
:1007A000050306434CEA010C49084FEA3000921851
:1007B0005B4150EA0107EDD152EA030012D082EA10
:1007C000040083EA0501084305D0101BAB4106D2A3
:1007D0000122002306E000224FF0004302E06FF008
:1007E000010253101AEB06004CEB085110EB0A0003
:1007F00041EB0B01BDE8F04D00F054B8C1F30A52D3
:10080000C1F3130140F2FF3341F480119A4202DA3E
:1008100000200146704740F233439A42A2F233422D
:1008200002DC5242FFF752BEFFF741BE30B5041E54
:1008300071F1000404DB4FF00044404264EB01011D
:10084000141E73F1000405DB1C464FF000435242B6
:1008500063EB0403994208BF904230BD064C074D3C
:1008600006E0E06840F0010394E807009847103480
:10087000AC42F6D3FFF708FD44AC000064AC0000C6
:10088000202A06DBCB17203A41FA02F043EAE07354
:1008900006E041FA02F3D040C2F120029140084341
:1008A0001946704710B5141E73F1000408DA401C95
:1008B00041F1000192185B411A4301D120F001007F
:1008C00010BD2DE9F04D92469B4611B1B1FA81F26F
:1008D00002E0B0FA80F220329046FFF7E8FD0446CD
:1008E0000F4640EA0A0041EA0B0153465A460843C4
:1008F00013D0114653EA010019D0C8F14002504606
:10090000FFF7E4FD05460E46504659464246FFF7BE
:10091000CEFD084305D0012004E020463946BDE85D
:10092000F08D0020054346EAE0762C4337430A98D1
:100930006305E40AA0EB08000022FD0A44EA4754DC
:100940000A3002D500200146E9E701051019694186
:10095000DDE9084500196941BDE8F04DA2E730B571
:100960008C1810F8012B12F00F0301D110F8013B85
:10097000120906D110F8012B03E010F8015B01F811
:10098000015B5B1EF9D101E001F8013B521EFBD176
:10099000A142E6D3002030BD30B50422A8B3A1B3F4
:1009A0000B79012B31D81A4A904213D10A68C2F34D
:1009B00010023BB1038A13430382438A43EA124382
:1009C00043820EE0838913438381C38943EA124340
:1009D000C38106E00A88C2F3080233B1038A1343D5
:1009E000038200231C4620300DE08389134383815A
:1009F000F7E7D50704D08D682D5DC554641CE4B2BB
:100A000052085B1CDBB2002AF3D1104630BD000057
:100A100000000440034931F8CC2FC0F30800024322
:100A20000A80704700000440054A32F8C23F60F374
:100A300003031380908961F30000908170470000E8
:100A4000000004400248B0F8520002490880704794
:100A5000000004407881FF1F10B50422E8B1E1B125
:100A6000002202700C78438864F3051343804C78AD
:100A7000438864F3C71343808C78438864F38613F8
:100A80004380CC78438864F3010343800B798188E9
:100A900063F38201818080F84720104610BD00007A
:100AA0000449012831F8C00F20F00F0000D10E30AA
:100AB000088070470000044010B5AFF3008010BDFF
:100AC000F0B500285DD02F4991F826202E4F02F076
:100AD00007037E104FF40042052B0AD2DFE803F033
:100AE000030507050700076021E006601FE00260BC
:100AF0001DE0D1F80021C2F3C015D1F80021130F79
:100B0000D1F80021D1F80041C2F3082204F01F04FB
:100B10004DB165B1641CB7FBF4F4521C54435B1C2B
:100B2000B4FBF3F2E3E7641CB6FBF4F4F5E7026808
:100B30000B6AC3F3026322FA03F343600B6AC3F345
:100B4000025322FA03F383600B6A03F0070322FACD
:100B500003F3C3600B6AC3F3021322FA03F30361C6
:100B60000B6AC3F3022322FA03F343610B6AC3F354
:100B7000023322FA03F38361096AC1F30241CA40D6
:100B8000C261F0BD004005400024F4000F4940B1AF
:100B900001280BD002280ED0032811D091F8410073
:100BA00001E091F83C0000F00100704791F83C0032
:100BB000C0F3C000704791F83C00C0F3401070478C
:100BC00091F83C00C0F380107047000000400540E1
:100BD00018B500211A4A0B4600914AF20151A2F8B9
:100BE000FE13B8B192F8360020F0010082F836000A
:100BF0004FF480540020FFF7C9FF0099491C009171
:100C0000A14201D20128F5D14FF42540A2F8FE03FC
:100C1000184618BD92F8260040070ED0D2F8000101
:100C2000000603D592F82A00C00706D092F83600D5
:100C300040F0010082F83600E6E70123E4E7000017
:100C40000040054008B50300124A4FF000004AF288
:100C500001510090A2F8FE130F490ED00B7823F03B
:100C600001030B700099491C00910529FAD300BFBC
:100C70004FF42541A2F8FE1308BD92F8263003F088
:100C80000703022B04D00B7843F001030B70EFE74E
:100C90000120EDE7004005402744054018B500213C
:100CA000174A0B4600914AF20151A2F8FE13B8B15F
:100CB00092F82A0020F0010082F82A004FF48054B4
:100CC0000220FFF763FF0099491C0091A14201D265
:100CD0000128F5D14FF42540A2F8FE03184618BDAF
:100CE00092F8260000F00700052806D092F82A00A6
:100CF00040F0010082F82A00ECE70123EAE7000057
:100D00000040054000283AD01D49D1F800211206C4
:100D100001D41C4A00E01C4A0369B2FBF3F24AF218
:100D20000152A1F8FE230278D1F80031521E62F37D
:100D30001F73C1F800310279D1F80031521E62F3FD
:100D40001B63C1F80031027AD1F80031521E62F300
:100D50001753C1F800318289D1F80031521E62F375
:100D60001023C1F80031007CD1F80021401E60F34F
:100D70000402C1F800214FF42540A1F8FE0370479A
:100D80000040054000127A000024F40006494AF2AF
:100D90000252A1F8FE230A8A60F303020A824FF48A
:100DA0002540A1F8FE0370470040054007494AF27C
:100DB0000152A1F8FE23D1F8002160F3C712C1F857
:100DC00000214FF42540A1F8FE0370470040054084
:100DD00010B485B02149002400940A6801924A6841
:100DE00002928A680392CA6804921D4A92F82630D9
:100DF00003F00703052B01D005280AD1194B0B601E
:100E0000DB124B608B60CB60009B5B1C0093B02BB4
:100E1000FAD34AF20153A2F8FE3312F8263F60F3E8
:100E2000020313704FF42540A2F8D80300940098F1
:100E3000401C0090B028FAD30198086002984860DE
:100E4000039888600498C86000940098401C009043
:100E5000B028FAD305B010BC04F0B8BE008004403E
:100E600000400540EEFAFFFF30B585B0244900236D
:100E700000930A6802924A6803928A680192CA68DB
:100E80000492204A92F8264004F00704052C14D15D
:100E90000C6844F480340C604C681B4D2C434C604F
:100EA000019C64F400448C60CC6844F01304CC6072
:100EB000009C641C0094B02CFAD34AF20154A2F8AE
:100EC000FE4312F8244F60F3071414704FF42540CA
:100ED000A2F8DA0300930098401C0090B028FAD3DF
:100EE0000298086003984860019888600498C86078
:100EF00000930098401C0090B028FAD305B030BD94
:100F0000008004400040054009010F0070B585B025
:100F10002849002400940A6801924A6802928A686B
:100F20000392CA680492002841D0234A92F82630DE
:100F300003F00703052B0AD1204B0B60DB124B603B
:100F40008B60CB60009B5B1C0093B02BFAD34AF202
:100F50000153A2F8FE338378C578467943EA051336
:100F600005792D0245EA06352B43857943EA054389
:100F70004578007843EA055343EA006010624FF475
:100F80002540A2F8FE0300940098401C0090B02871
:100F9000FAD3019808600298486003988860049822
:100FA000C86000940098401C0090B028FAD305B0A7
:100FB00070BD00000080044000400540EEFAFFFFD5
:100FC00008B502460020144900904AF20150A1F8E9
:100FD000FE0391F82E00012A02D040F0010001E04A
:100FE00020F0010081F82E004FF42540A1F8FE0307
:100FF0004FF480530320FFF7C9FD0099491C00916D
:10100000994204D2012A04D000218142F2D1002069
:1010100008BD0121F9E700000040054000283AD052
:101020001D49D1F80021120601D41C4A00E01C4AD7
:101030000369B2FBF3F24AF20152A1F8FE230278EF
:10104000D1F80431521E62F31F73C1F804310279E2
:10105000D1F80431521E62F31B63C1F80431027AE5
:10106000D1F80431521E62F31753C1F8043182895A
:10107000D1F80431521E62F31023C1F80431007C10
:10108000D1F80421401E60F30402C1F804214FF49A
:101090002540A1F8FE0370470040054000127A0089
:1010A0000024F40008B50300124A4FF000004AF291
:1010B00001510090A2F8FE130F490ED00B7823F0D7
:1010C00001030B700099491C00910529FAD300BF58
:1010D0004FF42541A2F8FE1308BD92F8263003F024
:1010E0000703042B04D00B7843F001030B70EFE7E8
:1010F0000120EDE7004005402044054010B50028E0
:1011000019D00D4A4AF20151A2F8FE130B49047896
:101110000B7864F382030B7044780B7864F301035B
:101120000B708378081D017863F3010101704FF49F
:101130002540A2F8FE0310BD0040054021440540B3
:1011400018B500211B4A0B4600914AF20151A2F842
:10115000FE13B8B192F8320020F0010082F832009C
:101160004FF480540120FFF711FD0099491C0091B4
:10117000A14201D20128F5D14FF42540A2F8FE0387
:10118000184618BD92F8260000F0070003280ED07C
:10119000D2F80001000603D492F82A00C00706D056
:1011A00092F8320040F0010082F83200E4E70123B7
:1011B000E2E700000040054010B5002818D00D4AB5
:1011C0004AF20151A2F8FE130B4904780B7864F33C
:1011D000C7130B7044780B7864F386130B70837815
:1011E000087863F3051008704FF42540A2F8FE0359
:1011F00010BD0000004005401044054010B50A46EF
:101200000C0601F07F0303EB830100EBC10102D563
:1012100001F5967101E001F56B71D2090B704A700E
:1012200006F0B4FA002010BD0A4610B5090602F017
:101230007F0306D503EB830100EBC10101F5967135
:1012400005E002EB820100EBC10101F56B710024A6
:101250008C700B70D2094A7006F07FFA002010BD26
:1012600010B50A0604D501F07F0106F09CFB01E0F1
:1012700006F080FB002010BD70B50C460E0601F094
:101280007F0505EB850100EBC10102D501F59671E3
:1012900001E001F56B71E4090D704C708A60CB7050
:1012A00000D0CD80022B01D100220A7106F02CFA69
:1012B000002070BD10B501F07F0404EB840100EB49
:1012C000C101C1F8C033C1F8B8230023C1F8C43349
:1012D00081F8AD3381F8AC43C37801F56B71012B14
:1012E00000D10A6114F0FF0F03D006F081FA00204C
:1012F00010BD06F089F9FAE70069002261F30A12CD
:1013000001681143016070470A4610B5090602F0F2
:101310007F0306D503EB830100EBC10101F5967154
:1013200005E002EB820100EBC10101F56B710124C4
:101330008C700B70D2094A7006F042FA002010BD82
:1013400070B511F07F0404EB840100EBC1014FF094
:10135000010581F82D5181F82C41C1F83821C1F8DF
:101360003C2101F596714FF00002C1E9053203D02E
:1013700006F03EFA002070BD06F046F9FAE70000DC
:101380002DE9F04100250646A84606F050FB074629
:1013900057E0F80753D03069EAB20369416BD14096
:1013A00006EB820201F00101926943EAC1119468DF
:1013B0000C40E1071CD00124426B04FA05F18A437A
:1013C000426306EB8500806984602048E9B20068CA
:1013D000426830469047F078012809D145B996F81F
:1013E0002101042804D1304606F072F986F82181E3
:1013F000200704D506EB8500082480698460E00698
:1014000004D506EB8500102480698460600604D54D
:1014100006EB8500402480698460A00704D506EBB4
:101420008500022480698460200608D5294630465C
:1014300000F08CF906EB85018020896988607F08BF
:101440006D1C002FA5D10120BDE8F081B480FF1FE5
:101450002DE9F04700240546A14606F0EEFA0646BF
:10146000DFF8B48052E0F0074ED0E1B2284606F033
:10147000EAFA0746C00730D005EB84000127816DEA
:101480008F60E978012915D1806D026904EB840031
:1014900005EBC001D1F8C033D1F8B403984200D3B2
:1014A0001846C2F31202801AC1F8C40314B1981A84
:1014B000C1F8C403D8F80000E1B20268284690479A
:1014C000E878012809D144B995F82101052804D10B
:1014D000284606F0FDF885F82191B80704D505EBFC
:1014E00084010220896D8860E1B2284606F0ABFADB
:1014F000000709D5D8F8000081682846884705EB21
:1015000084010820896D88607608641C002EAAD1A9
:101510000120BDE8F0870000B480FF1F70B50646CB
:10152000C068816921F010018161F068056A05F0E9
:101530000F0000EB800006EBC004C5F3434004F548
:101540006B74072821D2DFE800F02020042020203F
:10155000150047F6F070054217D0C5F30A152A4664
:101560003046E16806F077FAE0682844E060A06958
:10157000284409E0082206F22C61304606F06BFA96
:10158000A069C5F30A110844A061F068816941F0BF
:1015900010018161012070BD38B5044600208DF82E
:1015A000000016A006F09CFD94F822018DF80000C2
:1015B0001548006841692046884720698068E268CC
:1015C0004FF400615161A17AA9B1C00713D094F81A
:1015D000250101280FD19DF8000003280BD1D4F874
:1015E0001C01016841F001010160D4F81C0101688F
:1015F00041F003010160012038BD00007375737074
:10160000656E642021210A00B480FF1F70B5044676
:101610000025224922A006F063FD206901264168C9
:1016200021F0010141600021204606F0BCF90020B4
:10163000FF2106E004EB800293699960926D91604E
:10164000401C62788242F5D821694FF0FF308861F2
:101650002846216966F30F0066F31F40C8612169BF
:1016600045F02B004861216945F00B0008612069B5
:10167000016821F4FE6101600AA006F031FD2046F8
:1016800006F026F8E1684FF480504861074800688A
:10169000016920468847012070BD0000D4A30000E6
:1016A00025730A0072657365740A0000B480FF1F19
:1016B00070B5044606F0E0F90125002284F82251B5
:1016C00084F824211046402311E000BF00EB800184
:1016D00004EBC10181F82D5181F82C01A1F83201F0
:1016E00081F82F21C1E94D32401CC1F840216178B9
:1016F0008142EBD8002010E000EB800104EBC10137
:1017000081F8AD2381F8AC03A1F8B20381F8AF23CF
:10171000C1E9ED32401CC1F8C02361788142EBD8A9
:1017200094F8240184F82401204605F047FF204660
:1017300005F06FFE0021204606F0FEF9204605F078
:1017400099FE2046BDE8704006F00CB92DE9F0473F
:101750000D46064601EB850006EBC004D4E95001B6
:10176000421AD4F8340104F59674904200D202462D
:10177000D21C970806EB850918E000BFA0EB010812
:10178000A068404500D2804608F1030087081FFA90
:1017900088F3EAB23046E16806F0E3F9E16801EB6C
:1017A0000800E060A16901EB0800A061D9F8180009
:1017B000806980B2B84205D9D4E90501814201D2DD
:1017C0000028DBD10120BDE8F0870000014901209D
:1017D000087070477A81FF1F184B0422984208D086
:1017E000174B984205D0174B984202D0164B98429F
:1017F00021D101B30022026082617F224261CB7954
:10180000026863F3020202608B79026863F3C40228
:1018100002600B7A026863F3082202604B798269E6
:1018200063F3C81282610A6882610A79016862F30F
:10183000DF71016000221046704700000020054063
:101840000024054000280540002C054070B50D46D9
:10185000042400F005F808B105600024204670BD9E
:1018600001460C4A0020914201D10B4870470B4AB7
:10187000914202D10848001D7047094A914202D1A5
:10188000054808307047074A9142FBD102480C30A6
:101890007047000000200540040801400024054076
:1018A00000280540002C054010B5064CA06880B209
:1018B00004F026F9A068044908804FF47A70A0600B
:1018C00010BD0000002005407C81FF1F00EB81104F
:1018D000C16D137821F003011943C165C16D5378BF
:1018E00021F00C0141EA8301C165C16D937821F0BB
:1018F000100141EA0311C165C16DD37821F02001C7
:1019000041EA4311C165C16D137921F0400141EAFB
:101910008311C165C16D537921F0800141EAC31182
:10192000C165C16D937921F4407141EA0321C1651C
:10193000C16DD37921F4806141EA8321C165C16D14
:10194000137A21F4006141EAC321C165C16D527A65
:1019500021F4805141EA0231C16570472DE9F0431D
:1019600091464E4A0025137813B10120BDE8F0835B
:1019700001231370C6698B409E434FF0000479D059
:10198000C6694FF4A0475FEAC67C4FF00A0618D03C
:10199000B9B1D0F848C0D0F868804FEA1C4CB6EB1B
:1019A000184F0ED3D0F86880BCEB184F04D808E06D
:1019B0006D1CADB2BD4257D8D0F81CC05FEACC7CDC
:1019C000F6D1C569AD0719D5012917D0D0F88850CF
:1019D000D0F8A8C02D0CB6EB1C4F0FD3D0F8A8C080
:1019E000B5EB1C4F0AD9002503E06D1CADB2BD421A
:1019F0003AD8D0F81CC05FEA8C7CF6D4C5696D0774
:101A00001AD5022918D0D0F8C8C00025D0F8E8802F
:101A10004FEA1C4CB6EB184F0ED3D0F8E880BCEB65
:101A2000184F04D808E06D1CADB2BD421CD8D0F8E8
:101A30001CC05FEA4C7CF6D4C5692D071AD5032972
:101A400018D0D0F808510021D0F828C12D0CB6EBE1
:101A50001C4F0FD3D0F82861B5EB164F07D809E01B
:101A6000491C89B2B94202D9147009207EE7C569C0
:101A70002D07F5D45FEA090107D0B9F1010F09D1AB
:101A8000C16903F00F03194303E0C1690F259D43AA
:101A90002940C1611470002068E700000080FF1F2A
:101AA00030B5002329B1012903D0022901D003292F
:101AB0000BD101248C405AB1012510318D40012AEF
:101AC00009D0022A0BD0032A0CD00423184630BDBB
:101AD0004169214301E0416929434161F6E7816998
:101AE000214301E0816929438161EFE7026861F3E5
:101AF000000202607047000030B40468012363F301
:101B00000004046000EB8113DC6D24F48054DC6578
:101B100054681C6494685C649C6C15886FF30904B9
:101B20002C439C6455889C6C65F31F449C64DC6C5E
:101B300095896FF309042C43DC64DC6C104D2C4058
:101B4000D58944EA0544DC641C6D55696FF31304C0
:101B50002C431C65158B1C6D65F31F541C655C6D57
:101B6000D5696FF313042C435C65158C5C6D65F3CC
:101B70001F545C6514699C6530BC2432FFF7A6BE17
:101B8000FFFF00FC10B5074C074BA04203EB81019F
:101B900002D1C1F8142810BD044B9842FBD1C1F802
:101BA000242810BD003005400000014000340540ED
:101BB00008B500210091074942F210720968B1FB93
:101BC000F2F204E0009200994B1E0093FBD2401EFB
:101BD000F8D208BD8480FF1F70B51C494AF201503D
:101BE000002508801A48028822F03F022032028035
:101BF0004FF4254008801748416821F0806141601A
:101C0000154CE06820F08050E060E06820F08070C3
:101C1000E060E06840F40040E060E06820F480505C
:101C2000E060E06820F48060E0604FF4E13003F0B1
:101C3000D3FE08B1012506E0002020616061E06864
:101C400040F00800E060284670BD0000FC3B054005
:101C5000163D0540008004400010024010B5AFF36F
:101C6000008010BD0249486008684006FCD57047F6
:101C7000001002402DE9F0438DB007462A48149E1B
:101C80001C4690468946874204D14FF4F0754FF4C4
:101C9000804003E040F2E3154FF40040A10751EA11
:101CA000C65103D004200DB0BDE8F083012102F03D
:101CB000E9FC01213846FFF719FF30216846FEF79D
:101CC0007AFB8020ADF80000700AADF8020008F140
:101CD0002000CDE9010400208DF8240001208DF8BA
:101CE000250002208DF82A006A4649463846FFF74B
:101CF00003FF012249463846FFF730FE02224946DB
:101D00003846FFF7CDFE032249463846FFF7C8FEA6
:101D10000121480402F0B6FC2A4649463846FFF73E
:101D200031FF0020BFE70000003005402DE9F043FF
:101D30008DB007462A48149E1C4690468946874225
:101D400004D140F2E1154FF4804003E04FF4F27506
:101D50004FF40040A10751EAC65103D004200DB052
:101D6000BDE8F083012102F08DFC01213846FFF728
:101D7000BDFE30216846FEF71EFB8020ADF8000056
:101D8000700AADF8020008F12000CDE90140012001
:101D90008DF8240000208DF8250002208DF82A00FF
:101DA0006A4649463846FFF7A7FE012249463846AB
:101DB000FFF7D4FD022249463846FFF771FE0322A1
:101DC00049463846FFF76CFE0121480402F05AFCF0
:101DD0002A4649463846FFF7D5FE0020BFE70000F7
:101DE0000030054002490A6860F310420A607047FB
:101DF0000804014004480168012903D143F210217D
:101E000001600160704700000004014002490A6857
:101E100060F307120A60704708040140034840F26B
:101E20002311016043F2102101607047000401405A
:101E300001780A4A437802EB81010A6863F3C7120A
:101E40000A6083780A6863F305120A60C27808683A
:101E500062F3010008600020704700001010054088
:101E600008B54FF4FA6300930346024802F0E8FC19
:101E700008BD00009081FF1F08B54FF4FA6300937E
:101E80000346024802F0A4FD08BD00009081FF1F38
:101E900001480088704700007C81FF1F10B5AFF338
:101EA000008010BD70B50024066B2546F60603D5EC
:101EB000046B04F00304641C11B1B3FBF1F18D1A3F
:101EC00000EE104ADFED200A0023B8EE400A1F4A58
:101ED000072170EE200AB0EE000A70EE800A60EE74
:101EE000800A00EE105AB8EE401A81EE200A561809
:101EF00016F8016C00EE906AF8EE600AF4EEC00A83
:101F0000F1EE10FA18D8E1B10223525CB5FBF2F2FF
:101F1000C56A61F31245C562C4EB5201CD1AC16AAC
:101F200065F30401C162A2EB5201091BCA1AC16A1E
:101F300062F30C21C16270BD491E11F0FF01D6D1C0
:101F400019460323E1E70000000000420180FF1F63
:101F5000026A024B19400A4302627047DF56F000E2
:101F6000026861F3000202607047016821F001011C
:101F70000160016841F4004101600020704702687F
:101F800061F3C71202607047026861F308220260C1
:101F90007047026861F349220260704702460020E0
:101FA000D2690A4200D00120704730B504460025AE
:101FB00001B3FCB1206820F001002060206840F4EB
:101FC00000402060206840F001002060CA68D1E92C
:101FD00001312046FFF766FF206820F040002060B6
:101FE000206820F400402060206820F0010020607C
:101FF000284630BD0425FBE741627047024800686F
:10200000002800D0004770477C82FF1F02484068CC
:10201000002800D0004770477C82FF1F024880687C
:10202000002800D0004770477C82FF1F0248C0682C
:10203000002800D0004770477C82FF1F02480069DB
:10204000002800D0004770477C82FF1F024840698B
:10205000002800D0004770477C82FF1F024880693B
:10206000002800D0004770477C82FF1F0248C069EB
:10207000002800D0004770477C82FF1F0248006A9A
:10208000002800D0004770477C82FF1F0248406A4A
:10209000002800D0004770477C82FF1F0248806AFA
:1020A000002800D0004770477C82FF1F0248C06AAA
:1020B000002800D0004770477C82FF1F0248006B59
:1020C000002800D0004770477C82FF1F0248406B09
:1020D000002800D0004770477C82FF1F0248806BB9
:1020E000002800D0004770477C82FF1F0248C06B69
:1020F000002800D0004770477C82FF1F0248006C18
:10210000002800D0004770477C82FF1F0248406CC7
:10211000002800D0004770477C82FF1F0248806C77
:10212000002800D0004770477C82FF1F0248C06C27
:10213000002800D0004770477C82FF1F0248006DD6
:10214000002800D0004770477C82FF1F0248406D86
:10215000002800D0004770477C82FF1F0248806D36
:10216000002800D0004770477C82FF1F0248C06DE6
:10217000002800D0004770477C82FF1F0248006E95
:10218000002800D0004770477C82FF1F0248406E45
:10219000002800D0004770477C82FF1F0248806EF5
:1021A000002800D0004770477C82FF1F0248C06EA5
:1021B000002800D0004770477C82FF1F0248006F54
:1021C000002800D0004770477C82FF1F0248406F04
:1021D000002800D0004770477C82FF1F0248806FB4
:1021E000002800D0004770477C82FF1F0248C06F64
:1021F000002800D0004770477C82FF1F0348D0F8BA
:102200008000002800D00047704700007C82FF1F3C
:102210000348D0F88400002800D000477047000031
:102220007C82FF1F0348D0F88800002800D00047B8
:10223000704700007C82FF1F0348D0F88C00002804
:1022400000D00047704700007C82FF1F0348D0F891
:102250009000002800D00047704700007C82FF1FDC
:102260000348D0F89400002800D0004770470000D1
:102270007C82FF1F0348D0F89800002800D0004758
:10228000704700007C82FF1F0348D0F89C000028A4
:1022900000D00047704700007C82FF1F0348D0F841
:1022A000A000002800D00047704700007C82FF1F7C
:1022B0000348D0F8A400002800D000477047000071
:1022C0007C82FF1F0348D0F8A800002800D00047F8
:1022D000704700007C82FF1F0348D0F8AC00002844
:1022E00000D00047704700007C82FF1F0348D0F8F1
:1022F000B000002800D00047704700007C82FF1F1C
:102300000348D0F8B400002800D000477047000010
:102310007C82FF1F0348D0F8B800002800D0004797
:10232000704700007C82FF1F0348D0F8BC000028E3
:1023300000D00047704700007C82FF1F0348D0F8A0
:10234000C000002800D00047704700007C82FF1FBB
:102350000348D0F8C400002800D0004770470000B0
:102360007C82FF1F0348D0F8C800002800D0004737
:10237000704700007C82FF1F0348D0F8CC00002883
:1023800000D00047704700007C82FF1F0348D0F850
:10239000D000002800D00047704700007C82FF1F5B
:1023A0000348D0F8D400002800D000477047000050
:1023B0007C82FF1F0348D0F8D800002800D00047D7
:1023C000704700007C82FF1F0348D0F8DC00002823
:1023D00000D00047704700007C82FF1F0348D0F800
:1023E000E000002800D00047704700007C82FF1FFB
:1023F0000348D0F8E400002800D0004770470000F0
:102400007C82FF1F0348D0F8E800002800D0004776
:10241000704700007C82FF1F0348D0F8EC000028C2
:1024200000D00047704700007C82FF1F0348D0F8AF
:10243000F000002800D00047704700007C82FF1F9A
:102440000348D0F8F400002800D00047704700008F
:102450007C82FF1F0348D0F8F800002800D0004716
:10246000704700007C82FF1F0348D0F8FC00002862
:1024700000D00047704700007C82FF1F0348D0F85F
:102480000001002800D00047704700007C82FF1F39
:102490000348D0F80401002800D00047704700002E
:1024A0007C82FF1F0348D0F80801002800D00047B5
:1024B000704700007C82FF1F0348D0F80C01002801
:1024C00000D00047704700007C82FF1F0348D0F80F
:1024D0001001002800D00047704700007C82FF1FD9
:1024E0000348D0F81401002800D0004770470000CE
:1024F0007C82FF1F0348D0F81801002800D0004755
:10250000704700007C82FF1F0348D0F81C010028A0
:1025100000D00047704700007C82FF1F0348D0F8BE
:102520002001002800D00047704700007C82FF1F78
:102530000348D0F82401002800D00047704700006D
:102540007C82FF1F0348D0F82801002800D00047F4
:10255000704700007C82FF1F0348D0F82C01002840
:1025600000D00047704700007C82FF1F0348D0F86E
:102570003001002800D00047704700007C82FF1F18
:102580000348D0F83401002800D00047704700000D
:102590007C82FF1F0348D0F83801002800D0004794
:1025A000704700007C82FF1F0348D0F83C010028E0
:1025B00000D00047704700007C82FF1F0348D0F81E
:1025C0004001002800D00047704700007C82FF1FB8
:1025D0000348D0F84401002800D0004770470000AD
:1025E0007C82FF1F0348D0F84801002800D0004734
:1025F000704700007C82FF1F0348D0F84C01002880
:1026000000D00047704700007C82FF1F0348D0F8CD
:102610005001002800D00047704700007C82FF1F57
:102620000348D0F85401002800D00047704700004C
:102630007C82FF1F0348D0F85801002800D00047D3
:10264000704700007C82FF1F0348D0F85C0100281F
:1026500000D00047704700007C82FF1F0348D0F87D
:102660006001002800D00047704700007C82FF1FF7
:102670000348D0F86401002800D0004770470000EC
:102680007C82FF1F0348D0F86801002800D0004773
:10269000704700007C82FF1F0348D0F86C010028BF
:1026A00000D00047704700007C82FF1F0348D0F82D
:1026B0007001002800D00047704700007C82FF1F97
:1026C0000348D0F87401002800D00047704700008C
:1026D0007C82FF1F0348D0F87801002800D0004713
:1026E000704700007C82FF1F0348D0F87C0100285F
:1026F00000D00047704700007C82FF1F0348D0F8DD
:102700008001002800D00047704700007C82FF1F36
:102710000348D0F88401002800D00047704700002B
:102720007C82FF1F0348D0F88801002800D00047B2
:10273000704700007C82FF1F0348D0F88C010028FE
:1027400000D00047704700007C82FF1F0348D0F88C
:102750009001002800D00047704700007C82FF1FD6
:102760000348D0F89401002800D0004770470000CB
:102770007C82FF1F0348D0F89801002800D0004752
:10278000704700007C82FF1F0348D0F89C0100289E
:1027900000D00047704700007C82FF1F0348D0F83C
:1027A000A001002800D00047704700007C82FF1F76
:1027B0000348D0F8A401002800D00047704700006B
:1027C0007C82FF1F0348D0F8A801002800D00047F2
:1027D000704700007C82FF1F0348D0F8AC0100283E
:1027E00000D00047704700007C82FF1F0348D0F8EC
:1027F000B001002800D00047704700007C82FF1F16
:102800000348D0F8B401002800D00047704700000A
:102810007C82FF1F0348D0F8B801002800D0004791
:10282000704700007C82FF1F0348D0F8BC010028DD
:1028300000D00047704700007C82FF1F0348D0F89B
:10284000C001002800D00047704700007C82FF1FB5
:102850000348D0F8C401002800D0004770470000AA
:102860007C82FF1F0348D0F8C801002800D0004731
:10287000704700007C82FF1F0348D0F8CC0100287D
:1028800000D00047704700007C82FF1F0348D0F84B
:10289000D001002800D00047704700007C82FF1F55
:1028A0000348D0F8D401002800D00047704700004A
:1028B0007C82FF1F0348D0F8D801002800D00047D1
:1028C000704700007C82FF1F0348D0F8DC0100281D
:1028D00000D00047704700007C82FF1F0348D0F8FB
:1028E000E001002800D00047704700007C82FF1FF5
:1028F0000348D0F8E401002800D0004770470000EA
:102900007C82FF1F0348D0F8E801002800D0004770
:10291000704700007C82FF1F0348D0F8EC010028BC
:1029200000D00047704700007C82FF1F0348D0F8AA
:10293000F001002800D00047704700007C82FF1F94
:102940000348D0F8F401002800D000477047000089
:102950007C82FF1F0348D0F8F801002800D0004710
:10296000704700007C82FF1F0348D0F8FC0100285C
:1029700000D00047704700007C82FF1F494810B517
:10298000D0F85C4248480068012803D1E00701D034
:10299000AFF300804448001D0068012803D1A00760
:1029A00001D5AFF30080404808300068012803D10A
:1029B000600701D5AFF300803B480C300068012868
:1029C00003D1200701D5AFF30080374810300068ED
:1029D000012803D1E00601D5AFF30080324814305E
:1029E0000068012803D1A00601D5AFF300802E486E
:1029F00018300068012803D1600601D5AFF30080CC
:102A000029481C300068012803D1200601D5AFF306
:102A10000080254820300068012803D1E00501D559
:102A2000AFF30080204824300068012803D1A005BE
:102A300001D5AFF300801C4828300068012803D17D
:102A4000600501D5AFF3008017482C3000680128DD
:102A500003D1200501D5AFF3008013483030006862
:102A6000012803D1E00401D5AFF300800E483430D3
:102A70000068012803D1A00401D5AFF300800A4803
:102A800038300068012803D1600401D5AFF300801D
:102A900005483C300068012803D1200401D5AFF37C
:102AA000008010BD00100540800AA24270B5974812
:102AB000D0F86042964DD5F8000238B9D5F800013B
:102AC000012803D1E00701D0AFF30080D5F804025C
:102AD00038B9D5F80401012803D1A00701D5AFF317
:102AE0000080D5F8080238B9D5F80801012803D1CB
:102AF000600701D5AFF30080D5F80C0238B9D5F8DE
:102B00000C01012803D1200701D5AFF30080814ECD
:102B1000D6F8000238B9D6F80001012803D1E00642
:102B200001D5AFF30080D6F8040238B9D6F8040115
:102B3000012803D1A00601D5AFF30080D6F8080222
:102B400038B9D6F80801012803D1600601D5AFF3E2
:102B50000080D6F80C0238B9D6F80C01012803D150
:102B6000200601D5AFF30080D5F8400238B9D5F87A
:102B70004001012803D1E00501D5AFF30080D5F86D
:102B8000440238B9D5F84401012803D1A00501D584
:102B9000AFF30080D5F8480238B9D5F848010128CC
:102BA00003D1600501D5AFF30080D5F84C0238B9E8
:102BB000D5F84C01012803D1200501D5AFF30080E1
:102BC000D6F8400238B9D6F84001012803D1E00414
:102BD00001D5AFF30080D6F8440238B9D5F84401E6
:102BE000012803D1A00401D5AFF30080D6F8480234
:102BF00038B9D5F84801012803D1600401D5AFF3F5
:102C00000080D6F84C0238B9D5F84C01012803D120
:102C1000200401D5AFF300803F484168C26801F04D
:102C20000F114FF00F1525EA0200014203D0E00317
:102C300001D5AFF3008039480068384900F00F1023
:102C4000083109688D43284203D0A00301D5AFF3B2
:102C50000080334DD5F80003012807D131480068C2
:102C6000000703D0600301D5AFF30080D5F8080357
:102C7000012807D1D5F81402012803D1200301D57A
:102C8000AFF30080D5F80403012807D1D5F810026E
:102C9000012803D1E00201D5AFF300804FF01C40C2
:102CA000C068000603D5600201D5AFF300801E495D
:102CB000886949680840400603D0200201D5AFF377
:102CC00000801A480068194914390968084040060C
:102CD00003D0E00101D5AFF3008015480068144926
:102CE000143909680840400603D0A00101D5AFF3AC
:102CF0000080104800680F491439096808404006F0
:102D000003D0600101D5AFF3008070BD0010054015
:102D10000000A6420080A642003005400434054071
:102D20000080204210040140002005401824054086
:102D300018280540182C054070B52A48D0F8644280
:102D4000294DD5F80802012807D1D5F880020128BD
:102D500003D1E00701D0AFF30080D5F84802012885
:102D600007D1D5F8C002012803D1A00701D5AFF3E0
:102D700000801E4DD5F80802012807D1D5F8800241
:102D8000012803D1600701D5AFF30080D5F84802D0
:102D9000012807D1D5F8C002012803D1200701D5A9
:102DA000AFF3008012480068012808D11048203095
:102DB0000068012803D1A00201D5AFF300800D48BF
:102DC000006B012803D1600201D5AFF300800A48EF
:102DD000006810F4403F03D0200201D5AFF300801B
:102DE00070BD0000001005400000484200804842CD
:102DF0000008A84200809842049404402DE9F04164
:102E00009A48D0F868429A480068012807D1994842
:102E10000068012803D1E00701D0AFF30080944897
:102E2000001D0068012808D19248001D0068012893
:102E300003D1A00701D5AFF300808D4808300068AA
:102E4000012808D18B4808300068012803D16007A9
:102E500001D5AFF3008086480C300068012808D106
:102E600084480C300068012803D1200701D5AFF356
:102E700000807F4810300068012808D17D4810305C
:102E80000068012803D1E00601D5AFF3008078483F
:102E900014300068012808D17648143000680128F1
:102EA00003D1A00601D5AFF3008071481830006847
:102EB000012808D16F4818300068012803D1600646
:102EC00001D5AFF300806A481C300068012808D1A2
:102ED00068481C300068012803D1200601D5AFF3F3
:102EE0000080634820300068012808D16148203004
:102EF0000068012803D1E00501D5AFF300805E4DE5
:102F0000686D4FF4C066296F06EAD01001F4C06105
:102F1000084203D0200501D5AFF30080686D4FF45F
:102F2000C057296F07EAD01001F4C051084203D0FE
:102F3000E00401D5AFF3008050480068012807D1B4
:102F40004F480068012803D1E00301D5AFF30080AA
:102F50004A48001D0068012808D14948001D006842
:102F6000012803D1A00301D5AFF300804348083006
:102F70000068012808D1424808300068012803D1C0
:102F8000600301D5AFF300803C480C300068012895
:102F900008D13B480C300068012803D1200301D53B
:102FA000AFF30080354810300068012808D134485C
:102FB00010300068012803D1E00201D5AFF3008092
:102FC0002E4814300068012808D12D4814300068BC
:102FD000012803D1A00201D5AFF3008027481830A3
:102FE0000068012808D1264818300068012803D15C
:102FF000600201D5AFF3008020481C300068012832
:1030000008D11F481C300068012803D1200201D5D7
:10301000AFF30080194820300068012808D1184813
:1030200020300068012803D1E00101D5AFF3008012
:10303000144D286806EAD010124E1C36316801F48F
:10304000C061084203D0200101D5AFF30080286899
:10305000316807EAD01001F4C051084203D0E00003
:1030600001D5AFF30080BDE8F081000000100540FD
:10307000800A3042000E304200800140808A304297
:10308000008E30425484014070B54F48D0F86C42F5
:103090004E480068012807D14D480068012803D137
:1030A000E00701D0AFF300804848001D0068012808
:1030B00008D14748001D0068012803D1A00701D5A9
:1030C000AFF30080414808300068012808D140482B
:1030D00008300068012803D1600701D5AFF30080F4
:1030E0003A480C300068012808D139480C30006893
:1030F000012803D1200701D5AFF3008033481030F9
:103100000068012808D1324810300068012803D136
:10311000E00601D5AFF300802C4814300068012888
:1031200008D12B4814300068012803D1A00601D52E
:10313000AFF30080254818300068012808D12448E2
:1031400018300068012803D1600601D5AFF3008074
:103150001E481C300068012808D11D481C3000683A
:10316000012803D1200601D5AFF300801748203095
:103170000068012808D1164820300068012803D1D2
:10318000E00501D5AFF30080124E3068114D4FF4C9
:10319000C0611C3501EAD010296801F4C061084201
:1031A00003D0200501D5AFF3008030684FF4C05143
:1031B00001EAD010296801F4C051084203D0E004AC
:1031C00001D5AFF3008070BD00100540800A314288
:1031D000000E3142548801402DE9F0419248D0F868
:1031E0007C42924ED6F88050E80405D5680403D599
:1031F000E00701D0AFF30080A80405D5280403D56B
:10320000A00701D5AFF3008056F8900FF168084091
:1032100010F0FF0F03D0600701D5AFF300808448A2
:103220000568E80405D5680403D5200701D5AFF388
:103230000080A80405D5280403D5E00601D5AFF326
:1032400000807B481030006879491C3109680840CB
:1032500010F0FF0F03D0A00601D5AFF30080754832
:103260000568E80405D5680403D5600601D5AFF309
:103270000080A80405D5280403D5200601D5AFF3A6
:1032800000806C48103000686A491C3109680840A9
:1032900010F0FF0F03D0E00501D5AFF300806648C2
:1032A0000568E80405D5680403D5A00501D5AFF38A
:1032B0000080A80405D5280403D5600501D5AFF327
:1032C00000805D48103000685B491C310968084087
:1032D00010F0FF0F03D0200501D5AFF30080574E4B
:1032E000D6F88050E80405D5680403D5E00401D57C
:1032F000AFF30080A80405D5280403D5A00401D5A8
:10330000AFF3008056F8900FF168084010F0FF0FFF
:1033100003D0600401D5AFF3008049480568E80494
:1033200005D5680403D5E00301D5AFF30080A804F8
:1033300005D5280403D5A00301D5AFF3008040488C
:10334000103000683E491C310968084010F0FF0F3A
:1033500003D0600301D5AFF300804FF08740D0F871
:10336000000101280BD137498869374A4969104063
:103370001140084203D0200301D5AFF30080334849
:103380000668C568A80606D516F00B0F03D06002C4
:1033900001D5AFF3008005EA0607B80603D5200281
:1033A00001D5AFF30080380603D5E00101D5AFF3B6
:1033B0000080780603D5A00101D5AFF30080A807EF
:1033C00005D5F00503D5600101D5AFF30080204895
:1033D00007681F480C300568A80606D517F00B0FC4
:1033E00003D0200101D5AFF3008005EA0706B0063F
:1033F00003D5E00001D5AFF30080300603D5A0006F
:1034000001D5AFF30080700603D5600001D5AFF39E
:103410000080A80705D5F80503D5002C01DAAFF325
:103420000080BDE8F0810000001005400050014020
:103430008054014080580140805C014000600140A0
:103440008064014000000C40FBFC7CF700D0014090
:1034500000D401402DE9F0417548D0F8804275480C
:103460000668C568A80606D516F00B0F03D0E0075E
:1034700001D0AFF3008005EA0607B80603D5A00720
:1034800001D5AFF30080380603D5600701D5AFF34F
:103490000080780603D5200701D5AFF30080A80788
:1034A00005D5F00503D5E00601D5AFF300806248ED
:1034B000076861480C300568A80606D517F00B0FA1
:1034C00003D0A00601D5AFF3008005EA0706B006D9
:1034D00003D5600601D5AFF30080300603D5200682
:1034E00001D5AFF30080700603D5E00501D5AFF339
:1034F0000080A80705D5F80503D5A00501D5AFF3D1
:1035000000804E4845684669680505D5300603D5F4
:10351000200501D5AFF30080A80505D5B00603D579
:10352000E00401D5AFF30080280505D5F00703D1ED
:10353000A00401D5AFF30080E80506D516F01D0FF5
:1035400003D0600401D5AFF300803D4805683C48D6
:1035500010300668680505D5300603D5E00301D5AF
:10356000AFF30080A80505D5B00603D5A00301D5AB
:10357000AFF30080280505D5F00703D1600301D51E
:10358000AFF30080E80506D516F01D0F03D0200329
:1035900001D5AFF300802B4845684669680505D51D
:1035A000300603D5A00201D5AFF30080A80505D5EC
:1035B000B00603D5600201D5AFF30080280505D51C
:1035C000F00703D1200201D5AFF30080E80506D54E
:1035D00016F01D0F03D0E00101D5AFF300801A48AB
:1035E0000568194810300668680505D5300603D50A
:1035F000600101D5AFF30080A80505D5B00603D55D
:10360000200101D5AFF30080280505D5F00703D1CF
:10361000E00001D5AFF30080E80506D516F01D0FD8
:1036200003D0A00001D5AFF30080BDE8F081000019
:1036300000100540001002400014024000C001408C
:1036400004C40140000002400404024070B5654813
:10365000D0F88442644D2E8BE00705D0F00603D5E8
:10366000700601D5AFF30080A00705D5B00603D5DD
:10367000300601D5AFF30080AE8B600705D5F006AC
:1036800003D5700601D5AFF30080200705D5B0063D
:1036900003D5300601D5AFF300802E8CE00605D5AA
:1036A000F00603D5700601D5AFF30080A00605D55E
:1036B000B00603D5300601D5AFF30080B5F84860F9
:1036C000600605D5F00503D5B00501D5AFF3008040
:1036D000200605D5B00403D5700401D5AFF30080F2
:1036E000B5F8A450E00505D5E80703D0E80601D5F4
:1036F000AFF30080A00505D5A80703D5E80501D5DF
:10370000AFF30080600505D5680703D5E80401D54F
:10371000AFF3008035480588E00305D5E80603D5FA
:10372000680601D5AFF30080A00305D5A80603D530
:10373000280601D5AFF300802C48001D05886003E2
:1037400005D5E80603D5680601D5AFF30080200350
:1037500005D5A80603D5280601D5AFF30080234878
:1037600008300588E00205D5E80603D5680601D5CE
:10377000AFF30080A00205D5A80603D5280601D521
:10378000AFF30080194830300588600205D5E805A0
:1037900003D5A80501D5AFF30080200205D5A80404
:1037A00003D5680401D5AFF3008010488C3005883C
:1037B000E00105D5E80703D0E80601D5AFF30080A6
:1037C000A00105D5A80703D5E80501D5AFF3008012
:1037D000600105D5680703D5E80401D5AFF3008083
:1037E00070BD000000100540007001401848024004
:1037F00070B53548D0F8884234480588E00705D0D0
:10380000E80603D5680601D5AFF30080A00705D50B
:10381000A80603D5280601D5AFF300802B48001D6C
:103820000588600705D5E80603D5680601D5AFF31E
:103830000080200705D5A80603D5280601D5AFF3DB
:103840000080224808300588E00605D5E80603D543
:10385000680601D5AFF30080A00605D5A80603D5FC
:10386000280601D5AFF3008018483030058860067F
:1038700005D5E80503D5A80501D5AFF300802006DE
:1038800005D5A80403D5680401D5AFF300800F481F
:103890008C300588E00505D5E80703D0E80601D59A
:1038A000AFF30080A00505D5A80703D5E80501D52D
:1038B000AFF30080600505D5680703D5E80401D59E
:1038C000AFF3008070BD000000100540184C0240AE
:1038D00070B56548D0F88C4264480068634900F0D0
:1038E0000F000831096801F00F01084203D060069B
:1038F00001D5AFF300805D48203000685B4900F0DF
:103900000F002831096801F00F01084203D020069A
:1039100001D5AFF30080554840300068534900F0AE
:103920000F004831096801F00F01084203D0E0059B
:1039300001D5AFF300804D48603000684B4900F07E
:103940000F006831096801F00F01084203D0A0059B
:1039500001D5AFF30080464D6868012807D1D5F83E
:103960008000012803D1E00301D5AFF30080E868AF
:10397000012807D1D5F88400012803D1A00301D57F
:10398000AFF300802869012807D13A488068800792
:1039900003D0600301D5AFF30080374D686801287C
:1039A00007D1D5F88000012803D1200301D5AFF35A
:1039B0000080E868012807D1D5F88400012803D1E8
:1039C000E00201D5AFF300802869012807D12B4818
:1039D0000068800703D0A00201D5AFF30080284D16
:1039E0006868012807D1D5F88000012803D160025A
:1039F00001D5AFF30080E868012807D1D5F884002D
:103A0000012803D1200201D5AFF3008028690128E5
:103A100007D11C488068800703D0E00101D5AFF3CF
:103A20000080194D6868012807D1D5F88000012869
:103A300003D1A00101D5AFF30080E868012807D1C8
:103A4000D5F88400012803D1600101D5AFF30080CF
:103A50002869012807D10D480068800703D020019C
:103A600001D5AFF3008070BD001005400C7C014013
:103A700000003C4200E0014000803C4208E401407C
:103A800000004442002002400080444208240240DA
:103A900070B56C48D0F890426B4DD5F8980001286D
:103AA00007D1D5F89803012803D1E00601D5AFF37B
:103AB0000080D5F88C00012807D1D5F88C030128A7
:103AC00003D1A00601D5AFF30080D5F89C000128F2
:103AD00007D1D5F89C03012803D1600601D5AFF3C7
:103AE00000805A4948685A4EC969304031400842FE
:103AF00003D0200601D5AFF30080564DD5F89800CD
:103B0000012807D1D5F89803012803D1E00501D594
:103B1000AFF30080D5F88C00012807D1D5F88C03CD
:103B2000012803D1A00501D5AFF30080D5F89C0092
:103B3000012807D1D5F89C03012803D1600501D5E0
:103B4000AFF30080444800684349304018310968A9
:103B50003140084203D0200501D5AFF300803F4D2E
:103B6000D5F89800012807D1D5F89803012803D18A
:103B7000E00401D5AFF30080D5F88C00012807D10F
:103B8000D5F88C03012803D1A00401D5AFF3008040
:103B9000D5F89C00012807D1D5F89C03012803D152
:103BA000600401D5AFF300802D4800682C493040F7
:103BB000183109683140084203D0200401D5AFF321
:103BC000008028480068012803D1A00301D5AFF385
:103BD0000080244810300068012803D1600301D51B
:103BE000AFF30080204DD5F80003012807D1D5F8A8
:103BF0008003012803D1E00201D5AFF30080D5F89E
:103C00000403012807D1D5F88403012803D1A002B9
:103C100001D5AFF30080D5F80803012807D1D5F806
:103C20008803012803D1600201D5AFF300800F485B
:103C3000406810F4403F03D0200201D5AFF300806C
:103C400070BD00000010054000009C4200E00440F0
:103C50001752F00000809C4204E4044000009D42A2
:103C600004E80440241CA8420080904200900440D4
:103C70002DE9F0413548D0F89442354800680128D4
:103C800008D1334820380068012803D1E00701D06B
:103C9000AFF300802E48001D0068012808D12C4891
:103CA0001C380068012803D1A00701D5AFF30080BC
:103CB0002848B0F8B050284E3068284F012807D166
:103CC0003868012800D01DB1600701D5AFF300802E
:103CD0003068012807D13868012800D01DB12007BD
:103CE00001D5AFF300801E480068012808D11C48A8
:103CF00020380068012803D1E00601D5AFF3008029
:103D00001748001D0068012808D115481C380068B4
:103D1000012803D1A00601D5AFF30080114D28681A
:103D2000114E012806D13088C00503D0600601D5A8
:103D3000AFF300802868012806D13088C00503D081
:103D4000200601D5AFF30080BDE8F08100100540EA
:103D5000E008804200000440201480424016804267
:103D6000E088804220948042B004044070B52C4C1E
:103D7000D4F8080340F2F71540F27F16012811D15C
:103D800028480088274908310B88891F0988254A57
:103D90000A3212881840284202D11140314201D023
:103DA000AFF30080D4F8140301280CD11E48018E13
:103DB000038F428E408F1940294202D10240324285
:103DC00001D0AFF30080D4F81803012827D1174899
:103DD0000378401E0278801C007814491A31097853
:103DE00003F0010501F020042C4316D113405A08BA
:103DF00013D1C20701D082070FD4420701D50207B1
:103E00000BD4C20601D5800607D4080701D5C80621
:103E100003D4480603D5080601D5AFF3008070BD72
:103E20000050A24230FC064000000740A5040740B5
:103E300070B5274C2078032801D90020207010F09D
:103E4000FF004FF4007506D0012815D0022820D0BD
:103E500003282BD12EE04021042000F0D1FB80214B
:103E6000002000F0CDFB2021012000F0C9FB2946F5
:103E7000012000F0CFFB19E04021042000F0C0FB3E
:103E80008021002000F0BCFB2021012000F0C2FBBB
:103E900008E04021042000F0B3FB8021002000F066
:103EA000B9FB0FE02946012000F0AAFB2078401C56
:103EB000207070BD4021042000F0ACFB8021002068
:103EC00000F09EFB2021012000F09AFBEAE70000B1
:103ED0007081FF1F10B5AFF3008010BD10B5AFF3B8
:103EE000008010BD70B5002404F1B000C0B2002104
:103EF00000F0A6F90021084600F0A2F900211020E8
:103F000000F09EF900250121002000F099F96D1CB8
:103F1000EDB2802DF7D3641CE4B2082CE4D370BD5D
:103F200010B500218D2000F08BF90021142000F045
:103F300087F90021BDE81040AF2000F081B90000F2
:103F40001FB5002333220121032000F06DFB002365
:103F500032220221032000F067FB0121202000F023
:103F6000A3FB0A4C2046FEF700F800210091084808
:103F7000019103918DF80010029069462046FEF7EA
:103F800014F801212046FDF7EBFF1FBD00E40440BB
:103F9000400D030010B5FFF7D3FFC820FDF708FE62
:103FA0000021AE2000F04CF90021402000F048F93B
:103FB0000021B02000F044F90021C82000F040F9B1
:103FC0000021812000F03CF90021FF2000F038F9A9
:103FD0000021A12000F034F90021A62000F030F9E2
:103FE0000021A82000F02CF900211F2000F028F962
:103FF0000021D32000F024F90021084600F020F928
:104000000021D52000F01CF90021F02000F018F963
:104010000021D92000F014F90021222000F010F92D
:104020000021DA2000F00CF90021022000F008F94C
:104030000021DB2000F004F90021492000F000F904
:1040400000218D2000F0FCF80021142000F0F8F889
:104050000021AF2000F0F4F8FFF762FFBDE8104048
:10406000FFF740BF2DE9F0414FF480340746254665
:10407000144E01E06D1E1AD380213046FDF78EFFED
:104080000028F7D039463046FDF7B6FFF80717D1BC
:10409000254601E06D1E0AD308213046FDF77EFF5C
:1040A0000028F7D04FF4806504E0641E02D201209E
:1040B000BDE8F08129463046FDF770FF0128F4D0B5
:1040C0000020F5E700E4044010B50446B031C8B262
:1040D000002100F0B5F8102040EA1410002100F093
:1040E000AFF804F00F00BDE8104040F001000021DF
:1040F00000F0A6B82DE9F041203A00240D46804694
:10410000D7B27F2803D900208D1C8046EDB2294606
:10411000FFF7DAFF0F4E00BF04EB07100121305C00
:1041200000F08EF8641CE4B2082CF5D36D1CE9B2E3
:104130004046FFF7C9FF002404EB0710304401217B
:10414000007A00F07DF8641CE4B2082CF4D3BDE8DA
:10415000F081000010A400002DE9F04117460E4642
:10416000044600250CE031462046FFF7C3FF083423
:10417000E4B2782C02D90024B61CF6B26D1CEDB264
:104180007A5D002AEFD1BDE8F08100002DE9F04111
:104190004FF48034164E2546670050B10121304659
:1041A000FDF7D6FE01213046FDF7E9FE11E06D1E58
:1041B0000CD339463046FDF7F1FE0128F7D0012136
:1041C0003046FDF7E1FE04E0641E02D20120BDE8A6
:1041D000F08139463046FDF7E1FE0028F4D0012198
:1041E0003046FDF7DBFE0028EED00020EFE70000B0
:1041F00000E404402DE9F0414FF480352C466F0077
:104200000E4E01E0641E0DD339463046FDF7C6FE62
:104210000028F7D0012134463046FDF7BAFE04E00D
:104220006D1E02D20120BDE8F08110212046FDF76D
:10423000B5FE0028F4D00020F5E7000000E40440BB
:1042400009B103F043BF03F037BF00002DE9F04789
:104250000D4606464FF48039DFF860802AE04F466D
:104260004C4601E0641E1CD380214046FDF796FEBB
:104270000028F7D016F8011B4046FDF7BDFEB946F1
:104280003C46474601E0641E0BD308213846FDF743
:1042900085FE0028F7D04C464FF4806A04E0641E87
:1042A00002D20120BDE8F08751463846FDF776FE80
:1042B0000128F4D028466D1ED1D2F3E700E4044073
:1042C000F0B587B09FED1A0A07008DED010A8DED5C
:1042D000020A4FF004048DED030A25D021B31548DE
:1042E00042F2107200250068134EB0FBF2F0484312
:1042F00009242946009504E0316839B10099491C28
:1043000000918142F8D335603CB10DE0002403AA4E
:1043100002A901A800F080F8356001A890EC030A1A
:1043200000F00CF887ED000A07B02046F0BD000051
:10433000000000008480FF1F00809442F0EE401ACD
:104340009FED110AF5EEC01AF1EE10FA1AD0F5EE53
:10435000C00AF1EE10FA15D0B5EEC01AF1EE10FA5F
:1043600010D0B7EE000A094880EE212AC0EE201ACC
:10437000D0ED010A32EE610A60EE200A90ED020AE9
:1043800000EE810A70470000000000000C80FF1F53
:1043900010B5042148B3194A1168941E47F6410329
:1043A00089B2236023601160154A0021116013490E
:1043B000037812390A8863F3C3020A800A8822F05C
:1043C00004020A8043780A8863F341020A80417834
:1043D0000C48017059B19FED0C0A80ED010A9FED68
:1043E0000B0A00BF80ED020A0021084610BD9FEDB8
:1043F000080A80ED010A9FED070AF3E712A40440C2
:10440000008094420C80FF1F71A93B45295CDF416D
:104410008CFF33496666DC4130B5104B1D889B1C10
:104420001C889B1C1B8800EE105AB8EE400A80EDD9
:10443000000A00EE104A0A48B8EE400A81ED000A70
:104440000078012805D0B7EE000A00BF82ED000A0F
:1044500030BD00EE103AB8EE400AF7E702A404407F
:104460000C80FF1F02004FF0040007D0002905D088
:10447000034B012018601046FFF722BF7047000071
:104480000080944206480178491CC9B20170042991
:1044900001D3002101700121024801F0DBBC0000C2
:1044A0007E81FF1F0070014008B501208DF80000DB
:1044B000A8218DF802108DF801000146000300F0DC
:1044C0000BF96846FFF764FF9DF8010001284FF0E3
:1044D000010005D0FCF734FE0120FCF7B3FB08BD5A
:1044E000FCF776FB0120FCF7DDFDF5E7034A02EB64
:1044F00000100068084000D00120704700380540D7
:10450000F0B53E4F4AF2015300243B805FF00106B4
:1045100006FA04F30B4263D0830103EB8405374BA7
:10452000DFF8D8C01B1D2B440CF1060C654492F833
:1045300001E0B3F800C06EF38E3CA3F800C092F81F
:1045400002E0B3F800C06EF30C3CA3F800C092F890
:1045500003E0B3F800C06EF3492CA3F800C092F852
:1045600004E0B3F800C06EF3861CA3F800C092F814
:1045700006E0B3F800C06EF3820CA3F800C092F816
:1045800005E0B3F800C06EF3051CA3F800C092F874
:1045900000C0BCF1000F06D0BCF1010F0ED0BCF181
:1045A000020F17D125E0B3F800C02CF4004CA3F89B
:1045B00000C0B3F800C02CF0020C09E0B3F800C052
:1045C0002CF4004CA3F800C0B3F800C04CF0020C6F
:1045D000A3F800C092F807C02B886CF308232B8047
:1045E000641CE4B2102C93D34FF425403880002093
:1045F000F0BDB3F800C04CF4004CE9E7FC3B0540CB
:10460000034A02EB001002680A4302600020704770
:104610000A380540034A02EB001002680A430260B0
:104620000020704708380540F0B5154E4AF2015594
:10463000002435800125870106F1060E05FA04F0F5
:10464000084211D007EB84007044B0F800C062F358
:10465000050CA0F800C0B0F800C0012B0DD02CF460
:10466000807C00BFA0F800C0641CE4B2102CE5D32D
:104670004FF4254030800020F0BD4CF4807CF1E701
:10468000FC3B0540074A064B13610129116805D020
:10469000014311600248401E106170478143F8E7F2
:1046A0000100A5A500800440044A0129516802D0F8
:1046B0000143516070478143FBE7000000800440E4
:1046C000044A0129916802D00143916070478143F7
:1046D000FBE7000000800440044A0129D16802D0B1
:1046E0000143D16070478143FBE700000080044034
:1046F00010B54FF4FA710848FFF7B4FE0648006899
:10470000FBF764FE41EC100BBDE8104053EC102B9E
:1047100002A003F0E5BC00007481FF1F4350552048
:1047200054656D70657261747572652069732025BA
:10473000660D0A0030B510B3C16D0123C1F3074205
:1047400000F15001402A0A461FD0117AD479890716
:10475000090D01EB84019479157901EB94115479D9
:10476000491CA407640F04EBD514A41C557AA1407E
:1047700005F00F040A2C1DD00B2C1DD01DE0416943
:1047800041F000614161042030BDD1799479090480
:1047900001EB0421547921448902947A527A24014C
:1047A00044EA121402F00F029340046201F58061A2
:1047B000C36209E0490000E08900927A1201A34037
:1047C00042EA1512C36202625A0A816251430163CE
:1047D0004FF400714163002030BD000010B50400AB
:1047E00028D039B3E16014492068884202D1012100
:1047F000001504E0114988421CD10121C014FFF7C3
:1048000053FFE068C168206800F024FA204600F0F9
:10481000B4FF00280FD1204600F081FF00280AD104
:10482000204601F011F8002805D12046BDE81040CF
:1048300001F030B8042010BD00FC06400000074025
:104840002DE9F04F0400614815464FF4FA52006814
:1048500085B0B0FBF2F00E460E99994600FB01F8C8
:10486000CDF80480277911D0B9F1000F0ED06DB1C9
:1048700000206061216B701988420BD9606940F09B
:1048800000706061042005B0BDE8F08F606940F001
:104890000060F6E7A069012800D0760204F1380232
:1048A00020684FF4007B5946049200F021FC002858
:1048B000E9D10E20ADF80A508DF80E004FF0010A34
:1048C000ADF808B08DF80DA0012D02D94FF0010010
:1048D00001E04FF000008DF80C0002D94FF002000B
:1048E00001E04FF000008DF80F0002A9206800F0F1
:1048F0004DF90028C7D19FB1012F11D1A06878B11F
:10490000D0F800C0BCF1000F0AD04FF6FF7101EAE9
:104910004521009101794B4660462268FDF7AAF9CE
:10492000012D0AD00220206120683146049A00F04F
:1049300027FC0600A7D147B126E0C4F810A02068E4
:104940003146049A00F0F8FBF3E74FF4006739466C
:10495000206800F079F9012810D12021206800F0AA
:104960006BF901280AD15A464946206800F008FA36
:104970006D1EADB209F50079CDF804800198411E95
:1049800001911ED3002DE2D14046CDF8048008E00D
:104990000221206800F050F90128019804D0401E3F
:1049A00001900028F4D10CE058B10221206800F0F9
:1049B000DDF84FF40041206800F03EF9012802D0F4
:1049C00002E009205FE7012630465CE78480FF1F94
:1049D0002DE9F04F8846644915464FF4FA520968AC
:1049E00085B0B1FBF2F604000E98994606FB00F67E
:1049F0000196277914D0B9F1000F11D085B14FF08D
:104A0000000AC4F814A0216B08EB050088420BD9FA
:104A1000606940F000706061042005B0BDE8F08F6F
:104A2000606940F00060F6E704F1380220684FF456
:104A3000007B5946049200F05BFB0028EDD10E206C
:104A4000ADF80A508DF80E00ADF808B08DF80DA045
:104A5000012D02D94FF0010001E04FF000008DF868
:104A60000C0002D94FF0020001E04FF000008DF879
:104A70000F0002A9206800F089F80028CDD1A069B4
:104A8000012801D04FEA48289FB1012F11D1A06819
:104A900078B1D0F800C0BCF1000F0AD04FF6FF711A
:104AA00001EA4521009101794B4660462268FDF7F5
:104AB0003DF92068049A012D414605D000F0A8FB7D
:104AC0000028AAD11FB120E000F07EFBF8E74FF4E8
:104AD00080673946206800F0B7F801280FD110210F
:104AE000206800F0A9F8012809D15A4649462068F3
:104AF00000F04CFA6D1EADB209F5007901960198EF
:104B0000411E01912DD3002DE3D101964EB34FF4F8
:104B100080152946206800F097F8012805D1022168
:104B2000206800F089F8012804D00198401E019007
:104B3000EFD116E00198A0B10221206800F016F82C
:104B40003146204600F0D0FD002897D14FF40041B7
:104B5000206800F071F81021206800F007F80020AC
:104B60005BE7092059E700008480FF1F054B042202
:104B7000984202D0044B984201D10186002210468F
:104B80007047000000FC06400000074038B50023D5
:104B90000093274C0422A04202D0264CA0420AD106
:104BA00049B1CC79002244B1012C0BD0022C14D095
:104BB000032C13D00422104638BDBDF8004024F069
:104BC000200403E0BDF8004044F02004ADF80040AC
:104BD000BDF8004024F002040AE04B88BDF8004014
:104BE00044F02004ADF80040BDF8004044F0020459
:104BF000ADF80040A4B224F00104ADF800404D79B6
:104C0000BDF8004065F30414ADF800400D79BDF81F
:104C1000004065F38304ADF800408C7980F82E40A5
:104C2000C38009888180BDF800108181C3E700003E
:104C300000FC064000000740008E084000D0012024
:104C40007047084400697047406A084000D001205E
:104C5000704700002DE9F8430646DFF81891002060
:104C60000C460090D9F800106420B1FBF0F804273E
:104C7000304600F08DFE050078D096F82F0040F009
:104C8000010086F82F0004E00098411C0091404587
:104C900003D896F82F00C007F6D10099414564D299
:104CA0003548006AC0F3025101208840D9F800104D
:104CB000B1FBF0F0314900F02FFEB18D60F30F2110
:104CC000B185B08D40F00400B085B08D40F001009A
:104CD000B08596F8290040F0010086F8290040F2DE
:104CE0007F107086F086F720308640F2F710B0868D
:104CF000CCB3206808B1008830876068B0B1006824
:104D0000286060684068686060688068A860606863
:104D1000C068E8606068006928616068406968612F
:104D200060688069A8616068C069E861A06808B1CE
:104D300000887087E068B0B100682862E068406869
:104D40006862E0688068A862E068C068E862E0685D
:104D500000692863E0688069A863E0684069686367
:104D6000E068C069E863002700E009273846BDE82D
:104D7000F88300008480FF1F00400540801A060071
:104D800030B50023042489B1094DA84202D0094D51
:104D9000A8420BD1950709D18D0707D1203002E039
:104DA0000468CC501B1D9342FAD30024204630BD2A
:104DB00000FC06400000074018B5394B0422984219
:104DC00002D0384B984268D199B34B7A00220A2B13
:104DD00062D2DFE803F005282F0A1C1C282F2828A0
:104DE000BDF8003023F0030316E0BDF8003023F0D7
:104DF00003035B1CADF80030BDF8003043F008033E
:104E0000ADF80030BDF8003023F0100322E0BDF80B
:104E1000003023F003039B1CADF80030BDF80030D8
:104E200023F00803ECE7BDF8003023F003039B1CDC
:104E300004E032E0BDF8003043F00303ADF8003089
:104E4000BDF8003043F00803ADF80030BDF8003085
:104E500043F01003ADF800309BB223F00403ADF82B
:104E600000300C7ABDF8003064F38713ADF80030E1
:104E70000C78BDF8003064F30D23ADF800308C7A67
:104E8000BDF8003064F34513ADF800304968816027
:104E9000BDF80010C18100E00422104618BD0000DA
:104EA00000FC064000000740134B0422984202D049
:104EB000124B984206D1002279B1012916D002295D
:104EC00002D004221046704710F8281F21F020015C
:104ED0000170017821F002010CE010F8281F21F088
:104EE00020010170017841F0020103E010F8281F51
:104EF00041F020010170E5E700FC0640000007409A
:104F000010B50446104A0420944202D00F4A94423D
:104F100018D10F48006AC0F30252012090400D4A98
:104F20001268B2FBF0F0A28D22F00402A28500F01C
:104F3000F3FCA18D60F30F21A185A08D40F004004A
:104F4000A085002010BD000000FC064000000740C6
:104F5000004005408480FF1F0A4B0422984202D083
:104F6000094B984209D1012990F8281007D021F067
:104F7000040100BF80F8281000221046704741F05D
:104F80000401F7E700FC06400000074030B50023AD
:104F9000042489B1094DA84202D0094DA8420BD181
:104FA000950709D18D0707D1203002E0CC58046065
:104FB0001B1D9342FAD30024204630BD00FC06405E
:104FC00000000740FEB54FF0000514000E460746EE
:104FD00000950195029521D000F0B0FA00281CD16F
:104FE00029208DF8000046F48010019004208DF8EF
:104FF00009008DF80A508DF8085069463846FFF7C9
:10500000DBFE002809D12146384600F083FA00284B
:1050100003D12168002900DB0520FEBD0420FEBD70
:10502000FEB5002416460D460746009401940294EE
:1050300000F084FA002816D106208DF80000012027
:105040008DF809008DF80A4001958DF808406946F1
:105050003846FFF7B1FE002805D142F21072314602
:10506000384600F01FFAFEBD3EB500240546009408
:105070000194029400F062FA002813D18DF80940DF
:105080008DF80A408DF8004001948DF8084069467B
:105090002846FFF791FE002804D142F210712846FD
:1050A00000F068FA3EBDFEB5002416460D460746E0
:1050B00000940194029400F041FA002817D10D20C9
:1050C0008DF800002804019001208DF809008DF86A
:1050D0000A408DF8084069463846FFF76DFE002803
:1050E00005D142F210723146384600F0DBF9FEBDC0
:1050F000FEB5002416460D4607460094019402941E
:1051000000F01CFA002816D110208DF800000120B4
:105110008DF809008DF80A4001958DF80840694620
:105120003846FFF749FE002805D142F21072314699
:10513000384600F0B7F9FEBDFEB5002416460D4610
:10514000074600940194029400F0F8F9002816D163
:1051500011208DF8000001208DF809008DF80A005B
:1051600001958DF8084069463846FFF725FE00286E
:1051700005D142F210723146384600F093F9FEBD77
:10518000FEB5002416460D4607460094019402948D
:1051900000F0D4F9002816D112208DF8000001206B
:1051A0008DF809008DF80A0001958DF808406946D0
:1051B0003846FFF701FE002805D142F21072314651
:1051C000384600F06FF9FEBDFEB5002416460D46C8
:1051D000074600940194029400F0B0F9002816D11B
:1051E00018208DF8000001208DF809008DF80A00C4
:1051F00001958DF8084069463846FFF7DDFD002827
:1052000005D142F210723146384600F04BF9FEBD2E
:10521000FEB5002416460D460746009401940294FC
:1052200000F08CF9002816D119208DF8000001201B
:105230008DF809008DF80A0001958DF8084069463F
:105240003846FFF7B9FD002805D142F21072314609
:10525000384600F027F9FEBDFEB500240D4606468F
:1052600000940194029400F069F9002814D10220FE
:105270008DF8000003208DF809008DF80A40019494
:105280008DF8084069463046FFF796FD002803D1A7
:105290002946304600F01CF9FEBDFEB500240D463F
:1052A000064600940194029400F048F9002824D1A5
:1052B00003208DF8000008208DF809008DF80A40C1
:1052C00001948DF8084069463046FFF775FD0028C7
:1052D00013D13DB142F21071304600F04BF9040099
:1052E0000AD101E0042407E000213046FFF7A9FCC1
:1052F00010F4604F02D001242046FEBD000C28604F
:10530000FAE7FEB5002416460D46074600940194C0
:10531000029400F013F9002816D137208DF8000010
:1053200001208DF809008DF80A4001958DF808409C
:1053300069463846FFF740FD002805D142F2107259
:105340003146384600F0AEF8FEBD0000FEB5002440
:1053500015460F46064600940194029400F0EEF8BC
:1053600000281FD106208DF8000001208DF80900CB
:105370008DF80A4001978DF8084069463046FFF7DE
:105380001BFD00280ED1084C641EFDD204213046BE
:10539000FFF75AFC0128F7D042F210722946304636
:1053A00000F080F8FEBD00003E0D0300FEB50024B5
:1053B00016460D46074600940194029400F0BEF88C
:1053C000002817D107208DF8000028040190012043
:1053D0008DF809008DF80A408DF808406946384676
:1053E000FFF7EAFC002805D142F210723146384638
:1053F00000F058F8FEBDFEB500250C4606460095A7
:105400000195029500F09AF8002824D108208DF823
:1054100000004FF4D570019009208DF809008DF837
:105420000A508DF8085069463046FFF7C5FC050064
:1054300011D18CB142F21071304600F09BF8002877
:1054400009D100213046FFF7FCFB2060C0B2AA283A
:1054500000D001252846FEBD0420FEBDFEB5002477
:1054600016460D46074600940194029400F066F833
:10547000002815D109208DF8000028040190032090
:105480008DF809008DF80A408DF8084069463846C5
:10549000FFF792FC002803D13146384600F018F897
:1054A000FEBD000070B50D460646114600F062F8DC
:1054B00004000AD100213046FFF7C3FB034908422C
:1054C00000D0012405B12860204670BD08E0FFFD32
:1054D00070B50C0006461BD042F2107100F04AF87D
:1054E000050014D100213046FFF7ABFB20600421FA
:1054F0003046FFF7A6FB606008213046FFF7A1FBAE
:10550000A0600C213046FFF79CFBE060284670BD90
:10551000042070BD70B50C0006460CD042F210712C
:1055200000F028F8050005D100213046FFF789FB7F
:105530002060284670BD042070BD000070B50600D4
:105540004FF0090401D00A4D01E0042070BD012193
:105550003046FFF779FB38B102213046FFF774FB84
:1055600010B16D1EF3D200E00024204670BD000093
:105570003F0D0300F8B52C4D04004FF4FA5628688F
:10558000B0FBF6F000FB01F000900DD04FF40047A7
:105590000098411E009101D20920F8BD39462046ED
:1055A000FFF74AFB10B107E00420F8BD01212046B7
:1055B000FFF742FB0028EBD039462046FFF73CFBC3
:1055C0000128F2D0286841F28831B0FBF6F0484358
:1055D0004FF400350090009A501E00900CD32946DD
:1055E0002046FFF731FB0028F5D04FF480312046EC
:1055F000FFF72AFB012801D00320F8BD0121204636
:10560000FFF71AFB012803D101212046FFF7AEFA6C
:1056100002212046FFF710FB012803D1022120467A
:10562000FFF7A4FA0020F8BD8480FF1F10B5002406
:10563000234609224FF480710220FEF7F5FF002374
:1056400009224FF400710220FEF7EEFF0023092229
:105650004FF480610220FEF7E7FF002309224FF498
:1056600000610220FEF7E0FF002309224FF4804191
:105670000420FEF7D9FF002309224FF480510220B5
:10568000FEF7D2FF0023092204210320FEF7CCFFFE
:10569000044901F11000FFF7A1F800B101242046F0
:1056A00010BD00008081FF1F0249762008600020A5
:1056B000704700000C080540024977200860002070
:1056C000704700000C080540024976200860002061
:1056D0007047000004080540024977200860002058
:1056E000704700000408054070B504460D46416A45
:1056F00004F1380200681646FFF7D5FC00280BD1EC
:1057000005E03246616A2068FFF7CDFC6D1E25B1C9
:10571000208FC005F5D5002070BD092070BD10B5E3
:10572000040028D0A069032816D004F140012068A5
:10573000FFF792FD00281DD104F164012068FFF7F6
:10574000ACFD002816D1616E616204F15002206840
:10575000FFF784FE00280DD12046FEF7EBFF00285E
:1057600008D104F13802616A2068FFF71FFE0028A3
:1057700000D0012010BD042010BD2DE9FC474FF0E2
:10578000000504000195009508D065612068FFF7C9
:105790006BFC30B1616941F480314CE00420BDE81C
:1057A000FC8701A92068FFF726FE010004F13806F6
:1057B00004F13C0A4FF080484FF6FF7719D0E561BD
:1057C0000098421C0092B84205D1606940F0807098
:1057D00060610846E3E7324600212068FFF791FD4B
:1057E00030BB524641462068FFF7ECFB00BBA56189
:1057F00028E04FF00109C4F81C9013E0606940F004
:10580000807060610120CAE7324600212068FFF7FE
:1058100078FD68B9524641462068FFF7D3FB01285E
:1058200006D050B10098411C0091B842ECD1E5E798
:10583000616941F080516161B1E7E06B4000D6D50C
:10584000C4F818900020AAE770B504004FF00005D6
:1058500005D0E06818B1007818B1022802D0042001
:1058600070BD0225A08C04F13802010416462068A0
:10587000FFF747FD0028F3D1324629462068FFF79D
:10588000CFFB0028ECD1E06801782068BDE87040CB
:10589000FFF70ABB7CB51F4D040005D0E06818B1C6
:1058A000007A012802D02BE004207CBD04F13802EC
:1058B000164640212068FFF71BFC0028F5D1012087
:1058C000ADF802004021ADF800100E218DF8061051
:1058D0008DF8050000208DF804008DF8070069465A
:1058E0002068FFF753F90028DFD1324629462068A7
:1058F000FFF72CFD0028D8D101212068FFF72CFBF1
:1059000001212068FFF728FBE06841682068FFF765
:10591000F7FA7CBD01FFFF80034610B58020002907
:1059200010D0B3FBF1F2B3FBF1F401FB143101B180
:10593000521CA2F181017F2904D9A2F141003F2824
:1059400001D8402010BDA2F121001F2801D820203D
:1059500010BDA2F111000F2801D8102010BDA2F136
:105960000900072801D8082010BD501F032801D8BE
:10597000042010BDD01E012801D8022010BD012A2C
:1059800003D9022A01D8012010BD002010BD00005B
:105990000F4A10B50D49116003000E494FF0000089
:1059A00051640CD05FF0000101EB011452F8244067
:1059B0009C4205D101EB011002EB8000001D10BDDF
:1059C000491CC9B20229EFD310BD000000FC0640FB
:1059D0007C84FF1F000007402DE9F047444A002562
:1059E000691E126A434CC2F302130122246802FAB0
:1059F00003F3B4FBF3F4404B9E69B607760FB24055
:105A0000B4FBF2F252B39946DB6800EE100AF2EEF4
:105A1000000AC3F3C033B8EE400AB0EE001A60EEDD
:105A2000200A00EE103AB8EE400A31EE400A60EE6D
:105A3000800A00EE102AB8EE400A80EE201AB7EE77
:105A4000000A31EE400AFCEEC00AB5EEC00A10EEC4
:105A5000904AF1EE10FA01D3FF2C01D9042543E05E
:105A600000EE904A254FF8EE600A30EE600A10EE24
:105A7000106ABE4226DD02274FF0000AD3EB07036F
:105A80006AEB0A06671CA3FB071806FB07864AF1A8
:105A9000000C03FB0C66A1FB003C06FB00C001FBF5
:105AA0000A00C10241EA5351D8020023FAF7B8FCB8
:105AB0006FF07F014118481C04D0D9F80C0040F069
:105AC000005203E0D9F80C0020F00052C9F80C2075
:105AD000D9F8082061F30602C9F80820D9F808109F
