:020000040000FA
:1000000010DCFF1F59030000914C0000B11E0000DE
:10001000894C0000FF0A0000F16E000000000000A3
:100020000000000000000000000000009D02000031
:100030000D1B000000000000F1020000F56B000045
:10004000D5250000E9250000FD250000112600004F
:1000500025260000392600004D26000061260000FC
:1000600075260000892600009D260000B1260000AC
:10007000C5260000D9260000ED260000012700005B
:1000800015270000292700003D2700005127000008
:1000900065270000792700008D270000A1270000B8
:1000A000B5270000C9270000DD270000F127000068
:1000B00005280000192800002D2800004128000014
:1000C000552800006D280000852800009D280000AC
:1000D000B5280000CD280000E5280000FD2800001C
:1000E000152900002D290000452900005D29000088
:1000F000752900008D290000A5290000BD290000F8
:10010000D5290000ED290000052A00001D2A000065
:10011000352A00004D2A0000652A00007D2A0000D3
:10012000952A0000AD2A0000C52A0000DD2A000043
:10013000F52A00000D2B0000252B00003D2B0000B0
:10014000552B00006D2B0000852B00009D2B00001F
:10015000B52B0000CD2B0000E52B0000FD2B00008F
:10016000152C00002D2C0000452C00005D2C0000FB
:10017000752C00008D2C0000A52C0000BD2C00006B
:10018000D52C0000ED2C0000052D00001D2D0000D9
:10019000352D00004D2D0000652D00007D2D000047
:1001A000952D0000AD2D0000C52D0000DD2D0000B7
:1001B000F52D00000D2E0000252E00003D2E000024
:1001C000552E00006D2E0000852E00009D2E000093
:1001D000B52E0000CD2E0000E52E0000FD2E000003
:1001E000152F00002D2F0000452F00005D2F00006F
:1001F000752F00008D2F0000A52F0000BD2F0000DF
:10020000D52F0000ED2F0000053000001D3000004C
:10021000353000004D300000653000007D300000BA
:1002200095300000AD300000C5300000DD3000002A
:10023000F53000000D310000253100003D31000097
:1002400055310000A53200000D370000E9370000ED
:10025000B13A00009B0300009B0300009B030000D9
:10026000213C0000413F0000C9410000054400005E
:100270002D450000414700009D490000B14A0000A3
:10028000DFF814D000F080FB00F0D6F800480047FB
:10029000818E000000F0CAFA10DCFF1F2B4B19689A
:1002A0000868B0E8F04F80F30988BFF36F8F4FF014
:1002B000000080F3118870470000000006480068C5
:1002C000006880F3088862B661B6BFF34F8FBFF352
:1002D0006F8F00DF00BF00BF08ED00E0DFF80C000B
:1002E000016841F470010160704700BF88ED00E0D3
:1002F000EFF30980BFF36F8F144B1A681EF0100FD5
:1003000008BF20ED108A20E9F04F106008B44FF0CC
:10031000500080F31188BFF34F8FBFF36F8F09F048
:1003200073FD4FF0000080F3118808BC196808685D
:10033000B0E8F04F1EF0100F08BFB0EC108A80F349
:100340000988BFF36F8F704700BF00BF1081FF1F88
:10035000EFF305807047000010484FF0770101600F
:100360000F484FF0770101600E484FF4885101604B
:100370000A484FF07601016009484FF076010160AC
:100380000948804709480047FEE7FEE7FEE7FEE729
:10039000FEE7FEE7FEE7FEE7FEE7FEE704080540AE
:1003A0000C08054000080540C56C000081020000F3
:1003B0002DE9F05F0546002092469B46884606469A
:1003C000814640241BE0284641464746224600F02D
:1003D00007FA53465A46C01A914110D3114618469F
:1003E000224600F0EEF92D1A67EB01084F4622462F
:1003F0000120002100F0E5F917EB00094E41201E15
:10040000A4F10104DFDC484631462A464346BDE8F4
:10041000F09FD2B201E000F8012B491EFBD27047D9
:100420000022F6E710B513460A4604461946FFF7C0
:10043000F0FF204610BD000070B5054C054D03E0EF
:10044000206820448047241DAC42F9D170BD0000D3
:1004500080AD000084AD00002DE9F041074615464F
:100460000E46102008F05EFD04000AD06760C4E963
:10047000026500F0D7F90168216004600020BDE842
:10048000F0810120FBE72DE9FE4F804681EA030061
:10049000C00F0C46009021F0004123F00045B8EB5E
:1004A0000200A94105D24046214690461C460B4613
:1004B000024623F00040104347D0270DC7F30A003F
:1004C000C3F30A510290401A019040286BDAC3F33B
:1004D000130040F4801B0098924620B10023D2EB19
:1004E000030A63EB0B0B01985946C0F140025046DA
:1004F00000F067F906460D4650465946019A00F04D
:100500007FF910EB08006141002487EA115284EA68
:10051000E7731A4340D0009A62B3019A012A4FEA66
:10052000075215DC001B61EB02014FF0004202EAAA
:100530000752CDE90042001C41F5801132462B469E
:1005400000F0A4F903B0BDE8F08F40462146F9E77A
:10055000001B61EB0201001C41F5801300185B4198
:100560002018A2F5001747EB030140EAD570B61931
:100570006D4111E06D084FEA360645EAC0754FEA55
:100580000752001B61EB0201001C41F58011490874
:100590004FEA30000019514132462B4603B0BDE806
:1005A000F04F00F064B90098012240000023D0EB26
:1005B000020263EBE073009821464FEAE074B8EB67
:1005C000000061EB0401E9E783F000435BE781F0A1
:1005D000004158E72DE9FE4F81EA030404F000448E
:1005E00021F0004100944FF0000B23F0004350EA4B
:1005F00001045ED052EA03045BD0C3F30A54C1F392
:100600000A552C44A4F2F3340194A0FB0254C1F324
:10061000130141F48011C3F3130343F4801301FB6E
:10062000024400FB034E840A970A44EA815447EAD5
:100630008357A4FB076802958D0A05FB07854FEADF
:10064000932C04FB0C542705029D4FEA065847EAF9
:100650001637B5EB08056EEB070C870E920E47EACE
:10066000811742EA8312A7FB0201B6EB0B0164EB90
:1006700000042B0D43EA0C335E1844EB1C50DA46A1
:100680005146E7FB0201C5F313044FEA0B3343EA7B
:1006900014534FEA0432019C43EA0603A4F10C040C
:1006A0000294009CCDE900B400F0F0F803B0BDE87E
:1006B000F08F00200146F9E72DE9F04D81EA0304AF
:1006C00004F0004B21F0004514464FF0000A23F0DF
:1006D000004150EA050220D054EA01021DD0C5F3C2
:1006E0000A570246C5F31303C1F31300C1F30A56B8
:1006F00040F4801543F48013A7EB0608101BD64680
:1007000008F2FD3873EB050002D308F1010801E09F
:1007100092185B41B8F1000F03DA00200146BDE8F2
:10072000F08D00204FF48011064684460EE0171B22
:1007300073EB050705D3121B63EB050306434CEA75
:10074000010C49084FEA300092185B4150EA01075A
:10075000EDD152EA030012D082EA040083EA0501D7
:10076000084305D0101BAB4106D20122002306E04E
:1007700000224FF0004302E06FF0010253101AEB29
:1007800006004CEB085110EB0A0041EB0B01BDE8F1
:10079000F04D00F06CB830B50B4601460020202229
:1007A000012409E021FA02F59D4205D303FA02F57E
:1007B000491B04FA02F52844151EA2F10102F1DCDE
:1007C00030BD202A04DB203A00FA02F100207047F5
:1007D0009140C2F1200320FA03F31943904070477F
:1007E000202A04DB203A21FA02F00021704721FA86
:1007F00002F3D040C2F120029140084319467047ED
:10080000202A06DBCB17203A41FA02F043EAE073D4
:1008100006E041FA02F3D040C2F1200291400843C1
:100820001946704700487047B481FF1F2DE9F04119
:100830000646FFF7F7FF8046454613E016B1E0682D
:10084000B0420ED120682860D4E90101D8F80070C8
:100850008847204608F028FAD8F80000B842EBD1C3
:1008600000E025462C68002CE8D1BDE8F08110B5E9
:10087000141E73F1000408DA401C41F100019218C3
:100880005B411A4301D120F0010010BD2DE9F04D6C
:1008900092469B4611B1B1FA81F202E0B0FA80F2C1
:1008A00020329046FFF78DFF04460F4640EA0A00CB
:1008B00041EA0B0153465A46084313D0114653EA06
:1008C000010019D0C8F140025046FFF789FF0546E4
:1008D0000E46504659464246FFF773FF084305D07F
:1008E000012004E020463946BDE8F08D0020054394
:1008F00046EAE0762C4337430A986305E40AA0EB06
:1009000008000022FD0A44EA47540A3002D50020BC
:100910000146E9E7010510196941DDE908450019BB
:100920006941BDE8F04DA2E7C1F30A52C1F31301DA
:1009300040F2FF3341F480119A4202DA002001466E
:10094000704740F233439A42A2F2334202DC5242F1
:10095000FFF746BFFFF735BF30B5041E71F1000445
:1009600004DB4FF00044404264EB0101141E73F1BC
:10097000000405DB1C464FF00043524263EB0403C6
:10098000994208BF904230BD064C074D06E0E06832
:1009900040F0010394E8070098471034AC42F6D3C6
:1009A000FFF772FC60AD000080AD0000704730B50D
:1009B0008C1810F8012B12F00F0301D110F8013B35
:1009C000120906D110F8012B03E010F8015B01F8C1
:1009D000015B5B1EF9D101E001F8013B521EFBD126
:1009E000A142E6D3002030BD0120014908707047C4
:1009F000000004402DE9F04102460B460420002A85
:100A00004CD0002B4AD01F79012F47DC244FBA422B
:100A10001AD11F68C7F310011F7957B997891FFAB8
:100A200081FC47EA0C079781D78947EA1147D781AC
:100A30001CE0178A1FFA81FC47EA0C071782578AC5
:100A400047EA1147578211E01F88C7F308011F7951
:100A500037B997891FFA81FC47EA0C07978105E0AF
:100A6000178A1FFA81FC47EA0C0717820024002529
:100A700002F120060FE001F001074FB12F4605F10A
:100A8000010C0CF0FF05D3F8088018F807703755F3
:100A90004908671CFCB20029EDD10020BDE8F081B7
:100AA0000000044000B5024801F08CF900BD0000D0
:100AB0007C80FF1F10B502460420FAB1F1B100237B
:100AC00013700C78538864F3051353804C78538863
:100AD00064F3C71353808C78538864F38613538070
:100AE000CC78538864F3010353800C79938864F3C2
:100AF00082039380002382F84730002010BD10B598
:100B0000AFF3008010BD000070B50021002200246A
:100B1000002300287ED0434D2D7805F00705052DD4
:100B200015D2DFE805F00306090D10003E4D056003
:100B30003BE03E4D056038E04FF40045056034E091
:100B40003A4D056031E04FF4004505602DE0354D2C
:100B5000DA352D68C5F3C013324D263DD5F8005166
:100B60002A0F304DDA352D68C5F308212D4D263D6D
:100B7000D5F8005105F01F0453B9651C2B4EB6FB88
:100B8000F5F54E1C7543561CB5FBF6F505600BE0FC
:100B9000012B09D1651C244EB6FBF5F54E1C75439F
:100BA000561CB5FBF6F5056000BF00BF1D4E263E86
:100BB0000568366AC6F30266F5404560194E263E62
:100BC0000568366AC6F30256F5408560154E263E26
:100BD0000568366A06F00706F540C560114E263EE8
:100BE0000568366AC6F30216F54005610D4E263ECD
:100BF0000568366AC6F30226F5404561094E263E71
:100C00000568366AC6F30236F5408561054E263E14
:100C1000056800E004E0366AC6F30246F540C561A7
:100C200070BD0000264005400024F40000127A0048
:100C3000014631B101290DD0022914D0032924D154
:100C40001AE0184A127802F0010282F0010282F0E2
:100C5000010024E0134A1278C2F3C00282F00102BC
:100C600082F001001BE00F4A1278C2F3401282F0BA
:100C7000010282F0010012E00A4A1278C2F38012E7
:100C800082F0010282F0010009E0064A521D12784A
:100C900002F0010282F0010282F0010000BF00BFF9
:100CA000704700003C40054038B5044600200090E5
:100CB00000252A4800884AF2015108432849A1F832
:100CC000FE0344BB26482630007800F0070008B930
:100CD000012536E023480068C0F3C01088B12048E1
:100CE0002A30007800F0010008B9012529E01C48ED
:100CF0003630007820F00100401C194981F8360098
:100D00001FE017483630007820F00100401C1449DD
:100D100081F8360015E012483630007820F00100E6
:100D20000F4981F8360000BF0020FFF781FF03461E
:100D30000098401C00900098B0F5805F01D2012B14
:100D4000F2D1064800884FF6FE71084040F4254075
:100D50000349A1F8FE03284638BD0000FE430540C4
:100D6000004005400041054008B5014600220092C0
:100D700000201B4A12884AF201531A43194BA3F868
:100D8000FE2391B9174A2632127802F00702022A8E
:100D900001D1012018E0124A2932127822F0010212
:100DA000521C0F4B29331A700EE00D4A293212786B
:100DB00022F001020A4B29331A7000BF009A521C1C
:100DC0000092009A052AF9D3054A12884FF6FE735D
:100DD0001A4042F42542034BA3F8FE2308BD00004D
:100DE000FE4305400040054038B504460020009011
:100DF00000251F4800884AF2015108431D49A1F807
:100E0000FE0394B91B482630007800F0070005283F
:100E100001D101251FE017482A30007820F0010099
:100E2000401C144981F82A0015E012482A30007845
:100E300020F001000F4981F82A0000BF0220FFF7CF
:100E4000F7FE03460098401C00900098B0F5805FC4
:100E500001D2012BF2D1064800884FF6FE710840FE
:100E600040F425400349A1F8FE03284638BD0000A0
:100E7000FE4305400040054000283ED01F49098838
:100E80004AF2015211431D4A11800178491E1C4A41
:100E9000D2F8002161F31F721A490A600179491ED4
:100EA000174AD2F8002161F31B6216490A60017AE1
:100EB000491E134AD2F8002161F3175211490A6002
:100EC0008189491E0E4AD2F8002161F310220D4992
:100ED0000A60017C491E0A4AD2F8002161F304022B
:100EE0000749C1F80021B1F8FE134FF6FE72114018
:100EF00041F42541024AA2F8FE137047FE43054023
:100F000000400540004105400D4909884AF2015260
:100F100011430C4AA2F8FE131146D1F8001160F3F8
:100F2000C711C2F800111146B1F8FE134FF6FE7258
:100F3000114041F42541034AA2F8FE137047000016
:100F4000FE4305400040054010B586B00446002031
:100F500005902E48006804902C48406803902B4868
:100F6000806802902948C06801902948007800F004
:100F70000700052801D0052C0DD12648234908601B
:100F8000C01248608860C86000BF0598401C05908A
:100F90000598B028F9D3204800884AF20151084347
:100FA0001B492639A1F8FE03084690F8260064F391
:100FB000020081F826000846B0F8FE034FF6FE71E5
:100FC000084040F4254012492639A1F8FE030020CC
:100FD000059000BF0598401C05900598B028F9D3EE
:100FE0000A4904980860039848600298886001984C
:100FF000C8600020059000BF0598401C059005982A
:10100000B028F9D305F0FCFD06B010BD0080044007
:1010100026400540EEFAFFFFFE43054085B0002163
:101020000491334909680391314949680291304973
:10103000896801912E49C96800912E49097801F00B
:10104000070105291BD12A49096841F48031284A42
:10105000116011464968284A1143254A5160019997
:1010600061F4004191601146C96841F01301D160FB
:1010700000BF0499491C04910499B029F9D31F4970
:1010800009884AF2015211431A4A263AA2F8FE137D
:10109000114691F8241060F3071182F824101146CC
:1010A000B1F8FE134FF6FE72114041F42541114A8A
:1010B000263AA2F8FE130021049100BF0499491CAE
:1010C00004910499B029F9D3094A0399116002994E
:1010D0005160019991600099D1600021049100BF95
:1010E0000499491C04910499B029F9D305B07047BB
:1010F000008004402640054009010F00FE430540E2
:1011000085B0002104913449096803913249496846
:1011100002913149896801912F49C96800910028DD
:1011200058D02E49097801F0070105290DD12C4925
:10113000294A1160C91251609160D16000BF0499C1
:10114000491C04910499B029F9D3264909884AF227
:1011500001521143234A11808178C27841EA021179
:10116000027941EA0221427941EA0231827941EA77
:101170000241427841EA0251027841EA026141EAC1
:101180000271164A263A1162164909884FF6FE7214
:10119000114041F42541114A263AA2F8FE130021DC
:1011A000049100BF0499491C04910499B029F9D312
:1011B000094A03991160029951600199916000995F
:1011C000D1600021049100BF0499491C0491049945
:1011D000B029F9D305B0704700800440264005408F
:1011E000EEFAFFFFFE43054018B5034600200090CD
:1011F000194800884AF2015108431849A1F8FE0332
:10120000012B01D0012000E0002014492E31097883
:1012100060F30001114880F82E100F4800884FF647
:10122000FE71084040F425400C49A1F8FE0300BFC0
:101230000320FFF7FDFC04460098401C0090009836
:10124000B0F5805F06D2012B01D1012000E0002023
:10125000A042EDD1002018BDFE43054000400540EE
:1012600000283ED01F4909884AF2015211431D4A05
:1012700011800178491E1C4AD2F8042161F31F72C3
:101280001A490A600179491E174AD2F8042161F30C
:101290001B6216490A60017A491E134AD2F80421DA
:1012A00061F3175211490A608189491E0E4AD2F82A
:1012B000042161F310220D490A60017C491E0A4A8B
:1012C000D2F8042161F304020749C1F80421B1F8FE
:1012D000FE134FF6FE72114041F42541024AA2F876
:1012E000FE137047FE4305400040054004410540A1
:1012F00008B501460022009200201B4A12884AF2DB
:1013000001531A43194BA3F8FE2391B9174A263209
:10131000127802F00702042A01D1012018E0124AD3
:101320002232127822F00102521C0F4B22331A7023
:101330000EE00D4A2232127822F001020A4B2233CB
:101340001A7000BF009A521C0092009A052AF9D325
:10135000054A12884FF6FE731A4042F42542034BA9
:10136000A3F8FE2308BD0000FE43054000400540F1
:1013700058B3164909884AF201521143134A1180A1
:10138000027812492331097862F382010F4A23322D
:10139000117042780D492331097862F301010B4A3B
:1013A00023321170827809492731097862F30101EB
:1013B000064A27321170054909884FF6FE7211401E
:1013C00041F42541024AA2F8FE137047FE4305404E
:1013D0000040054038B504460020009000252A480A
:1013E00000884AF2015108432849A1F8FE034CBB8A
:1013F00026482630007800F00700032801D1012597
:1014000036E023480068C0F3C01088B91F482A306E
:10141000007800F0010008B9012529E01B483230AE
:10142000007820F00100401C184981F832001FE0CC
:1014300016483230007820F00100401C134981F832
:10144000320015E011483230007820F001000F49D9
:1014500081F8320000BF0120FFF7EAFB0346009845
:10146000401C00900098B0F5805F01D2012BF2D1B2
:10147000054800884FF6FE71084040F425400349B6
:10148000A1F8FE03284638BDFE4305400040054054
:101490000041054001200149087070477E80FF1F10
:1014A00010B502460420174B9A4208D0164B9A42B8
:1014B00005D0164B9A4202D0154B9A4221D101B366
:1014C0000023136093617F235361CC79136864F325
:1014D000020313608C79136864F3C40313600C7AFD
:1014E000136864F3082313604C79936964F3C81399
:1014F00093610B6893610C79136864F3DF73136075
:10150000002010BD002005400024054000280540B3
:10151000002C05402DE9F04106460C4604273046D4
:1015200000F008F805460DB12C6000273846BDE8EC
:10153000F0810000014600200C4A914201D10C4884
:1015400012E00C4A914202D10948001D0CE00A4AFF
:10155000914202D10648083006E0084A914202D181
:1015600003480C3000E000207047000000200540D8
:10157000040801400024054000280540002C0540D7
:1015800010B50749896888B205F02EFB04488068C9
:10159000044908804FF47A700149886010BD00004A
:1015A000002005408080FF1F10B500BF00F15C03E4
:1015B00003EB81131B6823F003031478234300F12A
:1015C0005C0404EB8114236000BF00BF00F15C03E6
:1015D00003EB81131B6823F00C03547843EA840463
:1015E00000F15C0303EB81131C6000BF00BF00F13E
:1015F0005C0303EB81131B6823F01003947843EA28
:10160000041400F15C0303EB81131C6000BF00BFF6
:1016100000F15C0303EB81131B6823F02003D478F3
:1016200043EA441400F15C0303EB81131C6000BF28
:1016300000BF00F15C0303EB81131B6823F0400340
:10164000147943EA841400F15C0303EB81131C60FA
:1016500000BF00BF00F15C0303EB81131B6823F0A4
:101660008003547943EAC41400F15C0303EB811353
:101670001C6000BF00BF00F15C0303EB81131B681B
:1016800023F44073947943EA042400F15C0303EBF0
:1016900081131C6000BF00BF00F15C0303EB8113EA
:1016A0001B6823F48063D47943EA842400F15C034B
:1016B00003EB81131C6000BF00BF00F15C0303EB70
:1016C00081131B6823F40063147A43EAC42400F1F5
:1016D0005C0303EB81131C6000BF00BF00F15C03DF
:1016E00003EB81131B6823F48053547A43EA0434D8
:1016F00000F15C0303EB81131C6000BF10BD000010
:10170000F0B503461546002200265F480078002801
:101710006FD101205C4F3870DF69884027EA0006EE
:10172000002E67D0D86900F00100D8B1D1B1986C13
:10173000040C986E0A27B7EB104F13D3986EB4EBD6
:10174000104F0FD909E0501C82B2B2F5A04F04D956
:1017500000204D4F38700920F0BDD86900F001001D
:101760000028F0D1D86900F00200022820D1012918
:101770001ED0D3F88800040CD3F8A8000A27B7EBD2
:10178000104F15D3D3F8A800B4EB104F10D9002296
:1017900009E0501C82B2B2F5A04F04D900203A4FA4
:1017A00038700920D8E7D86900F002000028F0D18D
:1017B000D86900F00400042822D1022920D0002298
:1017C000D3F8C800040CD3F8E8000A27B7EB104F91
:1017D00016D3D3F8E800B4EB104F11D90BE0501C2E
:1017E00082B2B2F5A04F06D90020274F38700920E9
:1017F000B2E746E02AE0D86900F004000028EED104
:10180000D86900F00800082820D103291ED0002242
:10181000D3F80801040CD3F828010A27B7EB104FBE
:1018200014D3D3F82801B4EB104F0FD909E0501CA2
:1018300082B2B2F5A04F04D90020134F38700920AE
:101840008AE7D86900F008000028F0D14DB1012DD9
:1018500012D1D86901278F4007F00F073843D861AC
:101860000AE0D86901278F404FF00F0C2CEA070CD3
:1018700000EA0C00D86100BF00BF0020024F3870A2
:101880006AE7012068E700000080FF1F70B503468B
:10189000002039B1012905D0022903D0032901D044
:1018A000042026E032B1012A0AD0022A10D0032AED
:1018B0001CD113E05C6901258D402C435C6117E06D
:1018C0005C6901F110050126AE4034435C610FE014
:1018D0009C6901258D402C439C6109E09C6901F1C4
:1018E00010050126AE4034439C6101E0042000BF96
:1018F00000BF70BD026861F3000202607047000023
:1019000070B505460C46164601212846FFF7F2FF42
:1019100005F15C0000EB8410006820F4805105F1B3
:101920005C0000EB8410016005F1400000EB8410C6
:101930007168016005F1440000EB8410B16801603A
:1019400000BF05F1480000EB841000686FF3090048
:101950003188084305F1480101EB8411086000BF9C
:1019600000BF718805F1480000EB8410006861F346
:101970001F4005F1480101EB8411086000BF00BF62
:1019800005F14C0000EB841000686FF30900B18989
:10199000084305F14C0101EB8411086000BF00BF52
:1019A00005F14C0000EB841000682B490840F189D8
:1019B00040EA014105F14C0000EB8410016000BFDA
:1019C00000BF05F1500000EB841000686FF31300B6
:1019D0007169084305F1500101EB8411086000BFF3
:1019E00000BF318B05F1500000EB8410006861F3FB
:1019F0001F5005F1500101EB8411086000BF00BFCA
:101A000005F1540000EB841000686FF31300F169D6
:101A1000084305F1540101EB8411086000BF00BFC9
:101A2000318C05F1540000EB8410006861F31F5005
:101A300005F1540101EB8411086000BF05F1580065
:101A400000EB84103169016006F12402214628462A
:101A5000FFF7AAFD70BD0000FFFF00FC10B5094BA9
:101A6000984205D1084C04EB8103C3F8142807E021
:101A7000064B984204D1044C04EB8103C3F824289C
:101A800010BD00000030054000000140003405405A
:101A900008B5002200920021094A116842F2107232
:101AA000B1FBF2F106E0009100BF009A531E0093D3
:101AB000002AFAD1021EA0F10100F4D108BD0000F5
:101AC0007480FF1F08B50122002100910D490968AB
:101AD0000D4B994210D90B490968B1FBF3F206E0AE
:101AE000009200BF00994B1E00930029FAD1011EFD
:101AF000A0F10100F4D104E000BF011EA0F101003B
:101B0000FBD108BD7480FF1F8096980010B5AFF31D
:101B1000008010BD704700002DE9F04F8DB00646E3
:101B2000894615461C46169F3048864202D14FF41E
:101B3000804001E04FF4004082462D48854202D1AA
:101B40004FF4F07001E040F2E31083464FF00408D8
:101B5000002C47D0C7F30800002843D104F003004D
:101B600000283FD10121504603F04CFB01213046B3
:101B7000FFF7C0FE00BF302101A8FEF751FC00BFF7
:101B80008020ADF80400780AADF8060005F12000C9
:101B90000290039400208DF8280001218DF829106F
:101BA00002218DF82E1001AA49463046FFF7A8FE03
:101BB000012249463046FFF7A3FD0222494630463E
:101BC000FFF764FE032249463046FFF75FFE01211E
:101BD000480403F017FB5A4649463046FFF73EFFDC
:101BE0004FF0000840460DB0BDE8F08F00300540D2
:101BF00000FC06402DE9F04F8DB00646894615469B
:101C00001C46169F3048864202D14FF4804001E0C6
:101C10004FF4004082462D48854202D140F2E11047
:101C200001E04FF4F27083464FF00408002C47D0D7
:101C3000C7F30800002843D104F0030000283FD177
:101C40000121504603F0DEFA01213046FFF752FE33
:101C500000BF302101A8FEF7E3FB00BF8020ADF8F4
:101C60000400780AADF80600029405F12000039004
:101C700001208DF8280000218DF8291002218DF80F
:101C80002E1001AA49463046FFF73AFE0122494686
:101C90003046FFF735FD022249463046FFF7F6FD94
:101CA000032249463046FFF7F1FD0121480403F0C5
:101CB000A9FA5A4649463046FFF7D0FE4FF00008D1
:101CC00040460DB0BDE8F08F0030054000FC0640F6
:101CD0000349096860F31041014A11607047000030
:101CE0000804014004480068012804D143F2102090
:101CF0000149086008607047000401400349096811
:101D000060F30711014A11607047000008040140A8
:101D100040F223100249086043F210200860704727
:101D20000004014010B5024610780A4B042414FB4D
:101D300000315378086863F3C71008609378086827
:101D400063F305100860D378086863F30100086046
:101D5000002010BD101005401CB5064803210023CB
:101D60008022CDE9001004A1084808F0D9F900202C
:101D70001CBD00008081FF1F46696C65205379738C
:101D800074656D205461736B00000000116E0000DB
:101D9000002107200FE0421E094B9A5C00EE902ABA
:101DA000F8EE600AF4EEC00AF1EE10FA01D801462E
:101DB00003E0421ED0B20028EDD100BF08467047B4
:101DC0000180FF1F0249B1F86410018070470000D4
:101DD0000000044001480088704700008080FF1F19
:101DE00000BF00BF00BFBFF35F8F00BF00BF00BFD9
:101DF0000548006820F4803003490860002002494B
:101E0000703108607047000024ED00E030B58DB0FF
:101E100004460D4605A8FEF777FE1B48844204D110
:101E20000121102003F00AFA12E01848844204D17C
:101E30000121202003F002FA0AE01548844204D16F
:101E40000121402003F0FAF902E001200DB030BD7D
:101E500000F020F8204600F026F900BF0020019095
:101E600002900390049000BF8DF8040003950B9836
:101E7000029001A9204600F03BF90121204600F024
:101E80000DF90020E2E7000000E0044000E4044017
:101E900000E8044010B5002331221021022003F095
:101EA0007DF9002330222021022003F077F910BDB4
:101EB00010B5AFF3008010BD00B585B000BF0020A5
:101EC000049000BF00BF039000BF00BF029000BF9E
:101ED00000BF019000BF00BF009000BF38480068FD
:101EE00000900098C0F3072008B905B000BDFFF7C7
:101EF00077FF039820F0FF000390029800F01F0086
:101F00000290019820F03E0020300190019820F4CA
:101F1000803000F580300190019820F4003000F509
:101F200000300190019820F4802000F5802001907D
:101F3000019820F0E06000F180700190019820F499
:101F4000601000F500200190019820F08050019071
:101F500003981B49083108600298091D0860019820
:101F6000091D0860049820F00100401C04900498AA
:101F700020F00400001D0490049820F00200801C52
:101F800004900F486C38006840F480300C496C397C
:101F9000086004980A49091D086000BF00BF00BF1F
:101FA000BFF34F8F00BF00BF00BF00BF00BF00BF27
:101FB000BFF36F8F00BF00BF00BF00BF95E70000F9
:101FC00090ED00E02DE9F05F2DED028B04460F4609
:101FD00091469A469FED2A0AB0EE408A4FF0000BD8
:101FE00000250026A846216BC1F3001121B1216B09
:101FF00001F003014D1C00E0002502261FB1BAFBD1
:10200000F7F1A1EB090800EE105AB8EE400ADFED37
:102010001D0A70EE200A00EE106AB8EE400A30EE9B
:10202000800AF0EE000A60EE200A00EE108AB8EE98
:10203000400A80EE201AB0EE418AB0EE480AFFF75F
:10204000A7FE08B9032600E002260F49095CB8FB89
:10205000F1FBE16A60F31241E162C5EB5B018A1BAF
:10206000E16A62F30401E162ABEB5B01491B8A1B8D
:10207000E16A62F30C21E162BDEC028BBDE8F09FE6
:1020800000000000000000420180FF1F026A024BB6
:102090000B401A4302627047DF56F000026861F39A
:1020A0000002026070470146086820F001000860E5
:1020B000086820F4004000F50040086000207047E8
:1020C000026861F3C71202607047026861F3082278
:1020D00002607047026861F349220260704702465D
:1020E0000020D3690B400BB1012000E000207047B5
:1020F00070B504460D46002605B10CB9042620E053
:10210000206820F001002060206820F4004000F5E5
:1021100000402060206820F00100401C2060204624
:10212000D5E90131EA68FFF74DFF206820F0400053
:102130002060206820F400402060206820F001002A
:102140002060304670BD026861F38A2202607047E9
:102150002DE9F04707460E4690469946DDF820A047
:102160004FF480613846FFF7BAFF012803D101031D
:102170003846FFF78BFF4FF400313846FFF7AFFFCB
:10218000012802D10220BDE8F08701213846FFF77F
:102190009CFF4FF4805410E0201EA4F101040CD1E8
:1021A0004FF400313846FFF79AFF012803D101218F
:1021B0003846FFF78FFF0320E5E780213846FFF719
:1021C0008EFF0028E8D07006010E384600F0EFF8C8
:1021D0004FF4805410E0201EA4F101040CD14FF400
:1021E00000313846FFF77BFF012803D10121384633
:1021F000FFF770FF0320C6E708213846FFF76FFF9F
:102200000028E8D04FF4805410E0201EA4F101040F
:102210000CD14FF400313846FFF761FF012803D19C
:1022200001213846FFF756FF0420ACE74FF48061E8
:102230003846FFF754FF0128E7D04146384600F002
:10224000B6F84FF4805410E0201EA4F101040CD124
:102250004FF400313846FFF742FF012803D1012136
:102260003846FFF737FF03208DE708213846FFF790
:1022700036FF0028E8D04FF4805410E0201EA4F16F
:1022800001040CD14FF400313846FFF728FF012834
:1022900003D101213846FFF71DFF032073E74FF4F8
:1022A00080613846FFF71BFF0128E7D0012138463F
:1022B000FFF7ECFE01213846FFF702FF4FF4805490
:1022C00009E0201EA4F1010405D101213846FFF7E1
:1022D00001FF012057E74FF400313846FFF7FFFEBA
:1022E0000028EED001213846FFF7F9FE0028E8D09B
:1022F0004FF4805410E0201EA4F101040CD14FF4DF
:1023000000313846FFF7EBFE012803D101213846A2
:10231000FFF7E0FE032036E780213846FFF7DFFEB7
:102320000028E8D0012000EB4600C1B2384600F09A
:102330003EF8002524E04FF4805409E0201EA4F16B
:10234000010405D101213846FFF7C4FE03201AE736
:1023500040213846FFF7C3FE0028EFD0B86A09F8DD
:102360000500AAF10100A84204D101213846FFF777
:10237000EAFE03E000213846FFF7E5FE681CC5B21F
:102380005545D8DB4FF4805400BF01213846FFF794
:10239000A1FE201EA4F1010401D10320F3E61021C7
:1023A0003846FFF79CFE0028EFD00020EBE64162A4
:1023B00070472DE9F04706460F4690469946DDF8EE
:1023C00020A04FF480613046FFF789FE012803D139
:1023D00001033046FFF75AFE4FF400313046FFF755
:1023E0007EFE01280FD141023046FFF778FE01281A
:1023F00006D14FF6FF70306201213046FFF76AFECA
:102400000220BDE8F08701213046FFF75EFE4FF461
:10241000805410E0201EA4F101040CD14FF40031CF
:102420003046FFF75CFE012803D101213046FFF75B
:1024300051FE0320E5E780213046FFF750FE0028DB
:10244000E8D07806010E3046FFF7B1FF4FF4805414
:1024500010E0201EA4F101040CD14FF400313046ED
:10246000FFF73DFE012803D101213046FFF732FE80
:102470000320C6E708213046FFF731FE0028E8D0E8
:102480004FF4805410E0201EA4F101040CD14FF44D
:1024900000313046FFF723FE012803D101213046E9
:1024A000FFF718FE0420ACE74FF480613046FFF7D9
:1024B00016FE0128E7D041463046FFF778FF4FF47B
:1024C000805410E0201EA4F101040CD14FF400311F
:1024D0003046FFF704FE012803D101213046FFF703
:1024E000F9FD03208DE708213046FFF7F8FD0028AD
:1024F000E8D04FF4805410E0201EA4F101040CD168
:102500004FF400313046FFF7EAFD012803D10121E5
:102510003046FFF7DFFD032073E74FF4806130465C
:10252000FFF7DDFD0128E7D000253BE019F8051095
:102530003046FFF73CFF4FF4805410E0201EA4F11A
:1025400001040CD14FF400313046FFF7C8FD0128DB
:1025500003D101213046FFF7BDFD032051E70821DB
:102560003046FFF7BCFD0028E8D04FF4805410E05F
:10257000201EA4F101040CD14FF400313046FFF7C6
:10258000AEFD012803D101213046FFF7A3FD032052
:1025900037E74FF480613046FFF7A1FD0128E7D00F
:1025A000681CC5B25545C1DB4FF4805400BF012102
:1025B0003046FFF78FFD201EA4F1010401D1032056
:1025C0001FE710213046FFF78AFD0028EFD00020DA
:1025D00017E7000010B50348006810B1014908680A
:1025E000804710BDC081FF1F10B50348406810B17F
:1025F00001494868804710BDC081FF1F10B50348DE
:10260000806810B101498868804710BDC081FF1FF4
:1026100010B50348C06810B10149C868804710BDB3
:10262000C081FF1F10B50348006910B10149086956
:10263000804710BDC081FF1F10B50348406910B12D
:1026400001494869804710BDC081FF1F10B503488C
:10265000806910B101498869804710BDC081FF1FA2
:1026600010B50348C06910B10149C869804710BD61
:10267000C081FF1F10B50348006A10B10149086A04
:10268000804710BDC081FF1F10B50348406A10B1DC
:102690000149486A804710BDC081FF1F10B503483B
:1026A000806A10B10149886A804710BDC081FF1F50
:1026B00010B50348C06A10B10149C86A804710BD0F
:1026C000C081FF1F10B50348006B10B10149086BB2
:1026D000804710BDC081FF1F10B50348406B10B18B
:1026E0000149486B804710BDC081FF1F10B50348EA
:1026F000806B10B10149886B804710BDC081FF1FFE
:1027000010B50348C06B10B10149C86B804710BDBC
:10271000C081FF1F10B50348006C10B10149086C5F
:10272000804710BDC081FF1F10B50348406C10B139
:102730000149486C804710BDC081FF1F10B5034898
:10274000806C10B10149886C804710BDC081FF1FAB
:1027500010B50348C06C10B10149C86C804710BD6A
:10276000C081FF1F10B50348006D10B10149086D0D
:10277000804710BDC081FF1F10B50348406D10B1E8
:102780000149486D804710BDC081FF1F10B5034847
:10279000806D10B10149886D804710BDC081FF1F59
:1027A00010B50348C06D10B10149C86D804710BD18
:1027B000C081FF1F10B50348006E10B10149086EBB
:1027C000804710BDC081FF1F10B50348406E10B197
:1027D0000149486E804710BDC081FF1F10B50348F6
:1027E000806E10B10149886E804710BDC081FF1F07
:1027F00010B50348C06E10B10149C86E804710BDC6
:10280000C081FF1F10B50348006F10B10149086F68
:10281000804710BDC081FF1F10B50348406F10B145
:102820000149486F804710BDC081FF1F10B50348A4
:10283000806F10B10149886F804710BDC081FF1FB4
:1028400010B50348C06F10B10149C86F804710BD73
:10285000C081FF1F10B50448D0F8800018B10249AC
:10286000D1F88000804710BDC081FF1F10B504481B
:10287000D0F8840018B10249D1F88400804710BD17
:10288000C081FF1F10B50448D0F8880018B1024974
:10289000D1F88800804710BDC081FF1F10B50448E3
:1028A000D0F88C0018B10249D1F88C00804710BDD7
:1028B000C081FF1F10B50448D0F8900018B102493C
:1028C000D1F89000804710BDC081FF1F10B50448AB
:1028D000D0F8940018B10249D1F89400804710BD97
:1028E000C081FF1F10B50448D0F8980018B1024904
:1028F000D1F89800804710BDC081FF1F10B5044873
:10290000D0F89C0018B10249D1F89C00804710BD56
:10291000C081FF1F10B50448D0F8A00018B10249CB
:10292000D1F8A000804710BDC081FF1F10B504483A
:10293000D0F8A40018B10249D1F8A400804710BD16
:10294000C081FF1F10B50448D0F8A80018B1024993
:10295000D1F8A800804710BDC081FF1F10B5044802
:10296000D0F8AC0018B10249D1F8AC00804710BDD6
:10297000C081FF1F10B50448D0F8B00018B102495B
:10298000D1F8B000804710BDC081FF1F10B50448CA
:10299000D0F8B40018B10249D1F8B400804710BD96
:1029A000C081FF1F10B50448D0F8B80018B1024923
:1029B000D1F8B800804710BDC081FF1F10B5044892
:1029C000D0F8BC0018B10249D1F8BC00804710BD56
:1029D000C081FF1F10B50448D0F8C00018B10249EB
:1029E000D1F8C000804710BDC081FF1F10B504485A
:1029F000D0F8C40018B10249D1F8C400804710BD16
:102A0000C081FF1F10B50448D0F8C80018B10249B2
:102A1000D1F8C800804710BDC081FF1F10B5044821
:102A2000D0F8CC0018B10249D1F8CC00804710BDD5
:102A3000C081FF1F10B50448D0F8D00018B102497A
:102A4000D1F8D000804710BDC081FF1F10B50448E9
:102A5000D0F8D40018B10249D1F8D400804710BD95
:102A6000C081FF1F10B50448D0F8D80018B1024942
:102A7000D1F8D800804710BDC081FF1F10B50448B1
:102A8000D0F8DC0018B10249D1F8DC00804710BD55
:102A9000C081FF1F10B50448D0F8E00018B102490A
:102AA000D1F8E000804710BDC081FF1F10B5044879
:102AB000D0F8E40018B10249D1F8E400804710BD15
:102AC000C081FF1F10B50448D0F8E80018B10249D2
:102AD000D1F8E800804710BDC081FF1F10B5044841
:102AE000D0F8EC0018B10249D1F8EC00804710BDD5
:102AF000C081FF1F10B50448D0F8F00018B102499A
:102B0000D1F8F000804710BDC081FF1F10B5044808
:102B1000D0F8F40018B10249D1F8F400804710BD94
:102B2000C081FF1F10B50448D0F8F80018B1024961
:102B3000D1F8F800804710BDC081FF1F10B50448D0
:102B4000D0F8FC0018B10249D1F8FC00804710BD54
:102B5000C081FF1F10B50448D0F8000118B1024928
:102B6000D1F80001804710BDC081FF1F10B5044897
:102B7000D0F8040118B10249D1F80401804710BD12
:102B8000C081FF1F10B50448D0F8080118B10249F0
:102B9000D1F80801804710BDC081FF1F10B504485F
:102BA000D0F80C0118B10249D1F80C01804710BDD2
:102BB000C081FF1F10B50448D0F8100118B10249B8
:102BC000D1F81001804710BDC081FF1F10B5044827
:102BD000D0F8140118B10249D1F81401804710BD92
:102BE000C081FF1F10B50448D0F8180118B1024980
:102BF000D1F81801804710BDC081FF1F10B50448EF
:102C0000D0F81C0118B10249D1F81C01804710BD51
:102C1000C081FF1F10B50448D0F8200118B1024947
:102C2000D1F82001804710BDC081FF1F10B50448B6
:102C3000D0F8240118B10249D1F82401804710BD11
:102C4000C081FF1F10B50448D0F8280118B102490F
:102C5000D1F82801804710BDC081FF1F10B504487E
:102C6000D0F82C0118B10249D1F82C01804710BDD1
:102C7000C081FF1F10B50448D0F8300118B10249D7
:102C8000D1F83001804710BDC081FF1F10B5044846
:102C9000D0F8340118B10249D1F83401804710BD91
:102CA000C081FF1F10B50448D0F8380118B102499F
:102CB000D1F83801804710BDC081FF1F10B504480E
:102CC000D0F83C0118B10249D1F83C01804710BD51
:102CD000C081FF1F10B50448D0F8400118B1024967
:102CE000D1F84001804710BDC081FF1F10B50448D6
:102CF000D0F8440118B10249D1F84401804710BD11
:102D0000C081FF1F10B50448D0F8480118B102492E
:102D1000D1F84801804710BDC081FF1F10B504489D
:102D2000D0F84C0118B10249D1F84C01804710BDD0
:102D3000C081FF1F10B50448D0F8500118B10249F6
:102D4000D1F85001804710BDC081FF1F10B5044865
:102D5000D0F8540118B10249D1F85401804710BD90
:102D6000C081FF1F10B50448D0F8580118B10249BE
:102D7000D1F85801804710BDC081FF1F10B504482D
:102D8000D0F85C0118B10249D1F85C01804710BD50
:102D9000C081FF1F10B50448D0F8600118B1024986
:102DA000D1F86001804710BDC081FF1F10B50448F5
:102DB000D0F8640118B10249D1F86401804710BD10
:102DC000C081FF1F10B50448D0F8680118B102494E
:102DD000D1F86801804710BDC081FF1F10B50448BD
:102DE000D0F86C0118B10249D1F86C01804710BDD0
:102DF000C081FF1F10B50448D0F8700118B1024916
:102E0000D1F87001804710BDC081FF1F10B5044884
:102E1000D0F8740118B10249D1F87401804710BD8F
:102E2000C081FF1F10B50448D0F8780118B10249DD
:102E3000D1F87801804710BDC081FF1F10B504484C
:102E4000D0F87C0118B10249D1F87C01804710BD4F
:102E5000C081FF1F10B50448D0F8800118B10249A5
:102E6000D1F88001804710BDC081FF1F10B5044814
:102E7000D0F8840118B10249D1F88401804710BD0F
:102E8000C081FF1F10B50448D0F8880118B102496D
:102E9000D1F88801804710BDC081FF1F10B50448DC
:102EA000D0F88C0118B10249D1F88C01804710BDCF
:102EB000C081FF1F10B50448D0F8900118B1024935
:102EC000D1F89001804710BDC081FF1F10B50448A4
:102ED000D0F8940118B10249D1F89401804710BD8F
:102EE000C081FF1F10B50448D0F8980118B10249FD
:102EF000D1F89801804710BDC081FF1F10B504486C
:102F0000D0F89C0118B10249D1F89C01804710BD4E
:102F1000C081FF1F10B50448D0F8A00118B10249C4
:102F2000D1F8A001804710BDC081FF1F10B5044833
:102F3000D0F8A40118B10249D1F8A401804710BD0E
:102F4000C081FF1F10B50448D0F8A80118B102498C
:102F5000D1F8A801804710BDC081FF1F10B50448FB
:102F6000D0F8AC0118B10249D1F8AC01804710BDCE
:102F7000C081FF1F10B50448D0F8B00118B1024954
:102F8000D1F8B001804710BDC081FF1F10B50448C3
:102F9000D0F8B40118B10249D1F8B401804710BD8E
:102FA000C081FF1F10B50448D0F8B80118B102491C
:102FB000D1F8B801804710BDC081FF1F10B504488B
:102FC000D0F8BC0118B10249D1F8BC01804710BD4E
:102FD000C081FF1F10B50448D0F8C00118B10249E4
:102FE000D1F8C001804710BDC081FF1F10B5044853
:102FF000D0F8C40118B10249D1F8C401804710BD0E
:10300000C081FF1F10B50448D0F8C80118B10249AB
:10301000D1F8C801804710BDC081FF1F10B504481A
:10302000D0F8CC0118B10249D1F8CC01804710BDCD
:10303000C081FF1F10B50448D0F8D00118B1024973
:10304000D1F8D001804710BDC081FF1F10B50448E2
:10305000D0F8D40118B10249D1F8D401804710BD8D
:10306000C081FF1F10B50448D0F8D80118B102493B
:10307000D1F8D801804710BDC081FF1F10B50448AA
:10308000D0F8DC0118B10249D1F8DC01804710BD4D
:10309000C081FF1F10B50448D0F8E00118B1024903
:1030A000D1F8E001804710BDC081FF1F10B5044872
:1030B000D0F8E40118B10249D1F8E401804710BD0D
:1030C000C081FF1F10B50448D0F8E80118B10249CB
:1030D000D1F8E801804710BDC081FF1F10B504483A
:1030E000D0F8EC0118B10249D1F8EC01804710BDCD
:1030F000C081FF1F10B50448D0F8F00118B1024993
:10310000D1F8F001804710BDC081FF1F10B5044801
:10311000D0F8F40118B10249D1F8F401804710BD8C
:10312000C081FF1F10B50448D0F8F80118B102495A
:10313000D1F8F801804710BDC081FF1F10B50448C9
:10314000D0F8FC0118B10249D1F8FC01804710BD4C
:10315000C081FF1F10B5514804685148006801281C
:1031600004D104F0010008B1AFF300804C48001D09
:103170000068012804D104F0020008B1AFF3008018
:10318000474808300068012804D104F0040008B161
:10319000AFF3008042480C300068012804D104F0ED
:1031A000080008B1AFF300803D48103000680128E6
:1031B00004D104F0100008B1AFF300803848143097
:1031C0000068012804D104F0200008B1AFF30080AA
:1031D000334818300068012804D104F0400008B1D9
:1031E000AFF300802E481C300068012804D104F0A1
:1031F000800008B1AFF30080294820300068012822
:1032000004D104F4807008B1AFF300802448243066
:103210000068012804D104F4007008B1AFF3008005
:103220001F4828300068012804D104F4806008B1E8
:10323000AFF300801A482C300068012804D104F450
:10324000006008B1AFF300801548303000680128F5
:1032500004D104F4805008B1AFF30080104834303A
:103260000068012804D104F4005008B1AFF30080D5
:103270000B4838300068012804D104F4804008B1BC
:10328000AFF3008006483C300068012804D104F404
:10329000004008B1AFF3008010BD00005C12054093
:1032A000800AA24270B5FE48046800260025FD4849
:1032B000006801282BD1FC48006840B9FB48006831
:1032C000012804D104F0010008B1AFF30080F648F2
:1032D0004030006848B9F54840300068012804D102
:1032E00004F4807008B1AFF30080F148406800F04A
:1032F0000116EF48C1684FF0011020EA010506EA07
:10330000050020B104F4803008B1AFF30080E94833
:10331000006801282DD1E448001D006848B9E34841
:10332000001D0068012804D104F0020008B1AFF3C9
:103330000080DD484430006848B9DC48443000680B
:10334000012804D104F4007008B1AFF30080D8481C
:10335000406800F00216D648C1684FF0021020EA1B
:10336000010506EA050020B104F4803008B1AFF38E
:103370000080D148006801282DD1CB480830006872
:1033800048B9CA4808300068012804D104F0040094
:1033900008B1AFF30080C4484830006848B9C3485A
:1033A00048300068012804D104F4806008B1AFF30C
:1033B0000080BF48406800F00416BD48C1684FF067
:1033C000041020EA010506EA050020B104F480306B
:1033D00008B1AFF30080B948006801282DD1B24888
:1033E0000C30006848B9B1480C300068012804D19D
:1033F00004F0080008B1AFF30080AB484C3000681F
:1034000048B9AA484C300068012804D104F400608F
:1034100008B1AFF30080A648406800F00816A44841
:10342000C1684FF0081020EA010506EA050020B146
:1034300004F4803008B1AFF30080A148006801288F
:103440002CD1A048006840B99F480068012804D1E9
:1034500004F0100008B1AFF300809A4840300068D3
:1034600048B9994840300068012804D104F48050DC
:1034700008B1AFF300809548006800F0011693484A
:10348000083001684FF0011020EA010506EA050046
:1034900020B104F4003008B1AFF300808C4800681C
:1034A00001282ED18748001D006848B98648001DB4
:1034B0000068012804D104F0200008B1AFF30080B7
:1034C00080484430006848B9784844300068012892
:1034D00004D104F4005008B1AFF300807B480068C9
:1034E00000F002167948083001684FF0021020EA17
:1034F000010506EA050020B104F4003008B1AFF37D
:1035000000807448006801282ED16E480830006899
:1035100048B96D4808300068012804D104F0400023
:1035200008B1AFF3008067484830006848B95F4889
:1035300048300068012804D104F4804008B1AFF39A
:1035400000806248006800F0041660480830016896
:103550004FF0041020EA010506EA050020B104F44A
:10356000003008B1AFF300805B48006801282ED11D
:1035700054480C30006848B953480C3000680128A2
:1035800004D104F0800008B1AFF300804D484C3006
:10359000006848B945484C300068012804D104F45B
:1035A000004008B1AFF300804848006800F00816FA
:1035B0004648083001684FF0081020EA010506EA85
:1035C000050020B104F4003008B1AFF30080434897
:1035D0000068012809D14248006800F00F0020B1BE
:1035E00004F4802008B1AFF300803C480830006844
:1035F000012809D13948EC380068012804D104F4C5
:10360000002008B1AFF300803448001D0068012895
:1036100009D13248F0380068012804D104F4801040
:1036200008B1AFF300804FF01C40C068C0F3C01079
:1036300020B104F4800008B1AFF300802948866906
:10364000456806EA050000F07F0020B104F40000A0
:1036500008B1AFF300802448066823481438056891
:1036600006EA050000F07F0020B104F0807008B188
:10367000AFF300801D4806681C481438056806EA48
:10368000050000F07F0020B104F0007008B1AFF336
:103690000080174806681648143805682AE00000BC
:1036A00060120540B00BA6420002A6420001A642ED
:1036B00000300540B013A642B01BA642B023A6427C
:1036C000B08BA6420082A6420081A6420434054087
:1036D000B093A642B09BA642B0A3A642008320426C
:1036E000100401400020054018240540182805401A
:1036F000182C054006EA050000F07F0020B104F018
:10370000806008B1AFF3008070BD000010B52F4895
:1037100004682F48D0F80802012808D12D48006815
:10372000012804D104F0010008B1AFF3008029485A
:1037300038380068012809D126484030006801283F
:1037400004D104F0020008B1AFF300802248006801
:10375000012809D1204878300068012804D104F0FC
:10376000040008B1AFF300801B4840300068012816
:1037700009D11948B8300068012804D104F00800C4
:1037800008B1AFF3008015480068012809D113483B
:1037900020300068012804D104F4001008B1AFF310
:1037A00000800F48006B012804D104F4800008B1A8
:1037B000AFF300800B48006800F4403020B104F4FF
:1037C000000008B1AFF3008010BD00006412054096
:1037D0000000484280024842088248420008A8424D
:1037E000008098420494044070B5AA4804680026FA
:1037F0000025A9480068012808D1A84800680128C8
:1038000004D104F0010008B1AFF30080A248001D0C
:103810000068012809D1A148001D0068012804D1D1
:1038200004F0020008B1AFF300809B480830006844
:10383000012809D1994808300068012804D104F012
:10384000040008B1AFF3008093480C3000680128F1
:1038500009D192480C300068012804D104F0080016
:1038600008B1AFF300808C4810300068012809D1FE
:103870008A4810300068012804D104F0100008B113
:10388000AFF30080844814300068012809D18348D0
:1038900014300068012804D104F0200008B1AFF30F
:1038A00000807D4818300068012809D17B48183015
:1038B0000068012804D104F0400008B1AFF3008093
:1038C00075481C300068012809D174481C30006814
:1038D000012804D104F0800008B1AFF300806E48E5
:1038E00020300068012809D16C4820300068012888
:1038F00004D104F4807008B1AFF300806848406DD3
:1039000000F44030C6096648006F00F4C06506EA5E
:10391000050020B104F4006008B1AFF300806048F6
:10392000406D00F44020C6095D48006F00F4C055AA
:1039300006EA050020B104F4805008B1AFF300801E
:1039400058480068012808D157480068012804D168
:1039500004F4803008B1AFF300805248001D0068C5
:10396000012809D15048001D0068012804D104F441
:10397000003008B1AFF300804A48083000680128E1
:1039800009D1494808300068012804D104F4802096
:1039900008B1AFF3008043480C300068012809D11A
:1039A00041480C300068012804D104F4002008B11B
:1039B000AFF300803B4810300068012809D13A4835
:1039C00010300068012804D104F4801008B1AFF36E
:1039D0000080344814300068012809D1324814307E
:1039E0000068012804D104F4001008B1AFF300808E
:1039F0002C4818300068012809D12B48183000687D
:103A0000012804D104F4800008B1AFF300802548F8
:103A10001C300068012809D123481C3000680128A7
:103A200004D104F4000008B1AFF300801D48203039
:103A30000068012809D11C4820300068012804D101
:103A400004F0807008B1AFF300801848006800F4FB
:103A50004030C60915481C30006800F4C06506EA0D
:103A6000050020B104F0006008B1AFF300800F48FA
:103A7000006800F44020C6090C481C30006800F4BF
:103A8000C05506EA050020B104F0805008B1AFF33C
:103A9000008070BD68120540800A3042000E30423E
:103AA00000800140808A3042008E304254840140C0
:103AB00070B557480468002600255648006801285C
:103AC00008D155480068012804D104F0010008B16C
:103AD000AFF300804F48001D0068012809D14E480F
:103AE000001D0068012804D104F0020008B1AFF302
:103AF0000080484808300068012809D1464808304D
:103B00000068012804D104F0040008B1AFF300807C
:103B100040480C300068012809D13F480C3000684B
:103B2000012804D104F0080008B1AFF3008039483F
:103B300010300068012809D137481030006801288A
:103B400004D104F0100008B1AFF300803148143004
:103B50000068012809D1304814300068012804D1D8
:103B600004F0200008B1AFF300802A481830006844
:103B7000012809D1284818300068012804D104F030
:103B8000400008B1AFF3008022481C3000680128D3
:103B900009D121481C300068012804D104F08000BC
:103BA00008B1AFF300801B4820300068012809D11C
:103BB000194820300068012804D104F4807008B14D
:103BC000AFF300801548006800F44030C609134880
:103BD0001C30006800F4C06506EA050020B104F45A
:103BE000006008B1AFF300800C48006800F440208A
:103BF000C6090A481C30006800F4C05506EA0500F2
:103C000020B104F4805008B1AFF3008070BD000013
:103C10006C120540800A3142000E31425488014046
:103C200070B500240026BA480568BA48D0F880402C
:103C300004F4805038B104F4804020B105F0010054
:103C400008B1AFF3008004F4005038B104F4004030
:103C500020B105F0020008B1AFF30080AD4890300C
:103C60000468AC48D0F89C6004EA0600C0B220B1F9
:103C700005F0040008B1AFF30080A748046804F41D
:103C8000805038B104F4804020B105F0080008B13C
:103C9000AFF3008004F4005038B104F4004020B1C8
:103CA00005F0100008B1AFF300809B4810300468A5
:103CB00099481C30066804EA0600C0B220B105F03D
:103CC000200008B1AFF300809448046804F48050E9
:103CD00038B104F4804020B105F0400008B1AFF3E2
:103CE000008004F4005038B104F4004020B105F025
:103CF000800008B1AFF3008088481030046887481E
:103D00001C30066804EA0600C0B220B105F48070D9
:103D100008B1AFF300808248046804F4805038B1E1
:103D200004F4804020B105F4007008B1AFF30080C6
:103D300004F4005038B104F4004020B105F4806070
:103D400008B1AFF3008076481030046874481C3026
:103D5000066804EA0600C0B220B105F4006008B1AC
:103D6000AFF300806F48046804F4805038B104F465
:103D7000804020B105F4805008B1AFF3008004F416
:103D8000005038B104F4004020B105F4005008B1EF
:103D9000AFF3008063481030046862488038D0F880
:103DA0009C6004EA0600C0B220B105F4804008B16E
:103DB000AFF300805C48046804F4805038B104F428
:103DC000804020B105F4803008B1AFF3008004F4E6
:103DD000005038B104F4004020B105F4003008B1BF
:103DE000AFF300805048103004684F481C3006681C
:103DF00004EA0600C0B220B105F4802008B1AFF398
:103E000000804A480068012810D149488069494922
:103E100000EA01044648406900EA010604EA060097
:103E200020B105F4002008B1AFF3008042480468D7
:103E3000C66806F0200038B104F00B0020B105F48C
:103E4000800008B1AFF3008006EA040000F0200013
:103E500020B105F4000008B1AFF3008006EA0400C9
:103E600000F0800020B105F0807008B1AFF3008051
:103E700006EA040000F0400020B105F0007008B12F
:103E8000AFF3008006F0020038B104F4807020B176
:103E900005F0806008B1AFF3008028480468274827
:103EA0000C30066806F0200038B104F00B0020B199
:103EB00005F0006008B1AFF3008006EA040000F0EE
:103EC000200020B105F0805008B1AFF3008006EA71
:103ED000040000F0800020B105F0005008B1AFF3FD
:103EE000008006EA040000F0400020B105F08040A8
:103EF00008B1AFF3008006F0020038B104F480701E
:103F000020B105F0004008B1AFF3008070BD0000A3
:103F10007C1205400050014080540140805801400F
:103F2000805C01408060014080640140000180436A
:103F300000000C40FBFC7CF700D0014000D40140A5
:103F400070B5002400269948056899480468C66839
:103F500006F0200038B104F00B0020B105F001009C
:103F600008B1AFF3008006EA040000F0200020B1A1
:103F700005F0020008B1AFF3008006EA040000F08B
:103F8000800020B105F0040008B1AFF3008006EA1C
:103F9000040000F0400020B105F0080008B1AFF3C4
:103FA000008006F0020038B104F4807020B105F002
:103FB000100008B1AFF300807E4804687D480C30E3
:103FC000066806F0200038B104F00B0020B105F0BF
:103FD000200008B1AFF3008006EA040000F02000E2
:103FE00020B105F0400008B1AFF3008006EA0400FC
:103FF00000F0800020B105F0800008B1AFF3008030
:1040000006EA040000F0400020B105F4807008B119
:10401000AFF3008006F0020038B104F4807020B1E4
:1040200005F4007008B1AFF3008063484468466946
:1040300004F4806038B106F0800020B105F400601F
:1040400008B1AFF3008004F4007038B106F020002E
:1040500020B105F4805008B1AFF3008004F4006093
:1040600038B106F0010020B905F4005008B1AFF3F3
:10407000008004F4807038B106F01D0020B105F412
:10408000804008B1AFF300804C4804684B481030C2
:10409000066804F4806038B106F0800020B105F4B1
:1040A000803008B1AFF3008004F4007038B106F03E
:1040B000200020B105F4003008B1AFF3008004F413
:1040C000006038B106F0010020B905F4802008B185
:1040D000AFF3008004F4807038B106F01D0020B109
:1040E00005F4002008B1AFF3008035484468466904
:1040F00004F4806038B106F0800020B105F40010AF
:1041000008B1AFF3008004F4007038B106F020006D
:1041100020B105F4800008B1AFF3008004F4006022
:1041200038B106F0010020B905F4000008B1AFF382
:10413000008004F4807038B106F01D0020B105F055
:10414000807008B1AFF300801E4804681D4810302D
:10415000066804F4806038B106F0800020B105F0F4
:10416000806008B1AFF3008004F4007038B106F04D
:10417000200020B105F0006008B1AFF3008004F426
:10418000006038B106F0010020B905F0805008B198
:10419000AFF3008004F4807038B106F01D0020B148
:1041A00005F0005008B1AFF3008070BD80120540EB
:1041B000001002400014024000C0014004C401404D
:1041C000000002400404024070B500248A480568DB
:1041D0008A48048B05F0010038B104F0100020B1CA
:1041E00004F0400008B1AFF3008005F0020038B1E0
:1041F00004F0200020B104F0800008B1AFF300808B
:104200007E48848B05F0040038B104F0100020B122
:1042100004F0400008B1AFF3008005F0080038B1A9
:1042200004F0200020B104F0800008B1AFF300805A
:104230007248048C05F0100038B104F0100020B171
:1042400004F0400008B1AFF3008005F0200038B161
:1042500004F0200020B104F0800008B1AFF300802A
:1042600066484830048805F0400038B104F4807096
:1042700020B104F4007008B1AFF3008005F08000B5
:1042800038B104F4005020B104F4804008B1AFF319
:1042900000805A48A430048805F4807040B104F0CE
:1042A0000100C04320B104F0100008B1AFF300805A
:1042B00005F4007040B104F00200C04320B104F4E2
:1042C000807008B1AFF3008005F4806040B104F065
:1042D0000400C04320B104F4805008B1AFF3008063
:1042E0004748048805F4803038B104F0100020B14C
:1042F00004F0400008B1AFF3008005F4003038B19D
:1043000004F0200020B104F0800008B1AFF3008079
:104310003B48001D048805F4802038B104F01000EB
:1043200020B104F0400008B1AFF3008005F4002094
:1043300038B104F0200020B104F0800008B1AFF3E0
:1043400000802F480830048805F4801038B104F04C
:10435000100020B104F0400008B1AFF3008005F474
:10436000001038B104F0200020B104F0800008B142
:10437000AFF3008022483030048805F4800038B163
:1043800004F4807020B104F4007008B1AFF3008031
:1043900005F4000038B104F4005020B104F480406A
:1043A00008B1AFF3008016488C30048805F08070A7
:1043B00040B104F00100C04320B104F0100008B186
:1043C000AFF3008005F0007040B104F00200C0437C
:1043D00020B104F4807008B1AFF3008005F0806074
:1043E00040B104F00400C04320B104F4805008B18F
:1043F000AFF3008070BD00008412054000700140E2
:104400001848024070B500244648056846480488AC
:1044100005F0010038B104F0100020B104F04000B4
:1044200008B1AFF3008005F0020038B104F02000BD
:1044300020B104F0800008B1AFF300803A48001DBD
:10444000048805F0040038B104F0100020B104F035
:10445000400008B1AFF3008005F0080038B104F067
:10446000200020B104F0800008B1AFF300802E4896
:104470000830048805F0100038B104F0100020B1B5
:1044800004F0400008B1AFF3008005F0200038B11F
:1044900004F0200020B104F0800008B1AFF30080E8
:1044A00021483030048805F0400038B104F48070B1
:1044B00020B104F4007008B1AFF3008005F0800073
:1044C00038B104F4005020B104F4804008B1AFF3D7
:1044D000008015488C30048805F4807040B104F0E9
:1044E0000100C04320B104F0100008B1AFF3008018
:1044F00005F4007040B104F00200C04320B104F4A0
:10450000807008B1AFF3008005F4806040B104F022
:104510000400C04320B104F4805008B1AFF3008020
:1045200070BD000088120540184C024070B57A48F2
:104530000468002600257948006800F00F067748D7
:104540000830006800F00F0506EA050020B104F00D
:10455000400008B1AFF3008070482030006800F0E0
:104560000F066E482830006800F00F0506EA0500C7
:1045700020B104F0800008B1AFF3008067484030FC
:10458000006800F00F0665484830006800F00F052D
:1045900006EA050020B104F4807008B1AFF3008092
:1045A0005E486030006800F00F065C4868300068C4
:1045B00000F00F0506EA050020B104F4007008B110
:1045C000AFF3008056484068012809D15448803034
:1045D0000068012804D104F4803008B1AFF30080F2
:1045E0004F48C068012809D14D488430006801282F
:1045F00004D104F4003008B1AFF3008048480069EA
:10460000012809D14748806800F0030020B104F474
:10461000802008B1AFF3008043484068012809D1E9
:10462000414880300068012804D104F4002008B11A
:10463000AFF300803C48C068012809D13A48843073
:104640000068012804D104F4801008B1AFF30080A1
:1046500035480069012809D13448006800F003009A
:1046600020B104F4001008B1AFF300803048406876
:10467000012809D12E4880300068012804D104F4B3
:10468000800008B1AFF300802948C068012809D133
:10469000274884300068012804D104F4000008B1E0
:1046A000AFF3008022480069012809D121488068C1
:1046B00000F0030020B104F0807008B1AFF3008077
:1046C0001D484068012809D11B4880300068012836
:1046D00004D104F0007008B1AFF300801648C06840
:1046E000012809D1144884300068012804D104F05D
:1046F000806008B1AFF300800F480069012809D13C
:104700000E48006800F0030020B104F0006008B11A
:10471000AFF3008070BD00008C1205400C7C01409E
:1047200000003C4200E0014000803C4208E40140BF
:10473000000044420020024000804442082402401D
:1047400070B587480468002600258648D0F8980090
:10475000012808D184480068012804D104F0100021
:1047600008B1AFF300807F488C300068012809D180
:104770007D480C380068012804D104F0200008B1FD
:10478000AFF3008077489C300068012809D1764853
:10479000001D0068012804D104F0400008B1AFF307
:1047A000008072484068724900EA01066F48C0699B
:1047B00000EA010506EA050020B104F0800008B116
:1047C000AFF300806B480068012808D16A48006890
:1047D000012804D104F4807008B1AFF3008065486B
:1047E0000C380068012809D163480C38006801289A
:1047F00004D104F4007008B1AFF300805D48001DDF
:104800000068012809D15C48001D0068012804D116
:1048100004F4806008B1AFF3008058480068544940
:1048200000EA010655481830006800EA010506EA6A
:10483000050020B104F4006008B1AFF300805048D7
:104840000068012808D14F480068012804D104F409
:10485000805008B1AFF3008049480C380068012847
:1048600009D148480C380068012804D104F40050EC
:1048700008B1AFF300804248001D0068012809D14B
:104880004048001D0068012804D104F4804008B1AC
:10489000AFF300803C480068354900EA01063A4819
:1048A0001830006800EA010506EA050020B104F4AA
:1048B000004008B1AFF3008034480068012808D1F7
:1048C00033480068012804D104F4003008B1AFF384
:1048D00000802E4810300068012809D12C48103083
:1048E0000068012804D104F4802008B1AFF30080EF
:1048F00028480068012809D126488030006801282E
:1049000004D104F4801008B1AFF300802148001DE9
:104910000068012809D11F4884300068012804D1AB
:1049200004F4001008B1AFF300801A4808300068A2
:10493000012809D1174888300068012804D104F4FF
:10494000800008B1AFF300801348406800F44030A5
:1049500020B104F4000008B1AFF3008070BD000086
:104960009012054000009C4298039C4200E00440E5
:104970001752F00098809C4298839C4204E40440C3
:1049800098009D4298039D4204E804406082A8423A
:10499000241CA842008390420090044070B53C481B
:1049A000046800253B480068012809D139482038AF
:1049B0000068012804D104F0010008B1AFF30080C1
:1049C0003448001D0068012809D132481C380068AD
:1049D000012804D104F0020008B1AFF300802E4892
:1049E00005882E480068012809D12D480068012853
:1049F00000D025B104F0040008B1AFF300802748CF
:104A00000068012809D126480068012800D025B196
:104A100004F0080008B1AFF30080224800680128C4
:104A200009D1204820380068012804D104F0100082
:104A300008B1AFF300801B48001D0068012809D1B0
:104A400018481C380068012804D104F0200008B17F
:104A5000AFF3008014480068012809D1134800888A
:104A6000C0F3080020B104F0400008B1AFF30080AB
:104A70000D480068012809D10C480088C0F30800DF
:104A800020B104F0800008B1AFF3008070BD0000D9
:104A900094120540E0088042B00004402014804297
:104AA00040168042E088804220948042B004044056
:104AB0002DE9F05F0026B346002400250027A0461C
:104AC000A146A2463A48006801281AD13948078809
:104AD00038480830B0F80080801FB0F800903548A2
:104AE0000A30B0F800A007EA080040F2F7110840C9
:104AF00028B909EA0A0040F27F11084008B1AFF373
:104B000000802B480C300068012815D12A48078EF8
:104B1000B0F83880B0F83290B0F83AA007EA080050
:104B200040F2F711084028B909EA0A0040F27F1163
:104B3000084008B1AFF300801D481030006801281C
:104B400034D11E480678401E90F800B0801C0478CE
:104B50001A481A30057805F0200028BB06F001003D
:104B600010BB06EA0B0000F0FE00E8B904F00100FB
:104B700010B104F00200B8B904F0040010B104F060
:104B8000080088B904F0100010B104F0200058B9F2
:104B900005F0080010B105F0100028B905F040003C
:104BA00020B105F0800008B1AFF30080BDE8F09FB0
:104BB0000853A24230FC064000000740A50407400D
:104BC00010B530480078032802DD00202D49087018
:104BD0002C48007830B1012816D0022826D00328AE
:104BE00048D135E04021042000F0BCFA80210020AB
:104BF00000F0B8FA2021012000F0B4FA4FF400715F
:104C0000012000F0BDFA36E04021042000F0AAFAAD
:104C10008021002000F0A6FA2021012000F0B0FA47
:104C20004FF40071012000F09DFA24E0402104209F
:104C300000F098FA8021002000F0A2FA2021012043
:104C400000F090FA4FF40071012000F08BFA12E0AE
:104C50004021042000F094FA8021002000F082FA24
:104C60002021012000F07EFA4FF40071012000F0B5
:104C700079FA00E000BF00BF02480078401C0149FB
:104C8000087010BD7A80FF1F10B5AFF3008010BD13
:104C900010B5AFF3008010BD70B500241EE004F124
:104CA000B001C8B2002100F0DEF90021084600F092
:104CB000DAF90021102000F0D6F900250AE00121E0
:104CC000002000F0D0F90020064901EBC41148553E
:104CD000681CC5B2802DF2DB601CC4B2042CDEDB84
:104CE00070BD000038C6FF1F1CB5202900DB1CBDAD
:104CF000802800DBFBE70322A2EBE102D2B20092A4
:104D00009DF80020C2F10302A1EBC202D2B20192CF
:104D10009DF8043080221A410192064B9DF8004014
:104D200003EBC4131A1813789DF80440A3431370BF
:104D300000BFDCE738C8FF1F10B500218D2000F050
:104D400092F90021142000F08EF90021AF2000F02C
:104D50008AF910BD10B500F065F8C820FCF798FE80
:104D60000021AE2000F07FF90021402000F07BF907
:104D70000021B02000F077F90021C82000F073F97D
:104D80000021812000F06FF90021FF2000F06BF975
:104D90000021A12000F067F90021A62000F063F9AE
:104DA0000021A82000F05FF900211F2000F05BF92E
:104DB0000021D32000F057F90021084600F053F9F4
:104DC0000021D52000F04FF90021F02000F04BF930
:104DD0000021D92000F047F90021222000F043F9FA
:104DE0000021DA2000F03FF90021022000F03BF919
:104DF0000021DB2000F037F90021492000F033F9D1
:104E000000218D2000F02FF90021142000F02BF953
:104E10000021AF2000F027F9FFF78EFFFFF73CFFDE
:104E200010BD000010B5002333220121032000F043
:104E3000B5F9002332220221032000F0AFF9024924
:104E40000248FCF7E3FF10BD801A060000E40440AE
:104E500070B5002414E000250EE01B4800EBC410E0
:104E6000405D1A4901EBC411495D0843184901EB43
:104E7000C4114855681CC5B2802DEEDB601CC4B25D
:104E8000042CE8DB00241CE004F1B001C8B20021CE
:104E900000F0E9F80021084600F0E5F800211020B4
:104EA00000F0E1F8002508E0094901EBC411485D74
:104EB000012100F0D8F8681CC5B2802DF4DB601C1D
:104EC000C4B2042CE0DB70BD38C8FF1F38CAFF1F16
:104ED00038C6FF1F1CB5202900DB1CBD802800DB65
:104EE000FBE70322A2EBE102D2B200929DF8002080
:104EF000C2F10302A1EBC202D2B201929DF80430CA
:104F000080221A410192064B9DF8004003EBC41326
:104F10001A1813789DF804402343137000BFDCE790
:104F200038C8FF1F1CB5202900DB1CBD802800DB12
:104F3000FBE70322A2EBE102D2B200929DF800202F
:104F4000C2F10302A1EBC202D2B201929DF8043079
:104F500080221A410192064B9DF8004003EBC413D6
:104F60001A1813789DF804402343137000BFDCE740
:104F700038CAFF1F2DE9F04F06460F4692464FF004
:104F8000000800240025AAF1200000F0FF087F2E71
:104F900002DD0026781CC7B2002445E0082000EBA3
:104FA00008102044224911F800B04FF08009002574
:104FB00013E00BEA090030B17A19D1B23219D0B23C
:104FC000FFF788FF05E07A19D1B23219D0B2FFF7A6
:104FD0008BFE4FEA6909681CC5B2082DE9DB04EBBA
:104FE0000810134911F800B04FF08009002517E0B0
:104FF0000BEA090040B107F108022A44D1B2321984
:10500000D0B2FFF767FF07E007F108022A44D1B2E8
:105010003219D0B2FFF768FE4FEA6909681CC5B2C1
:10502000082DE5DB601CC4B2082CB7DBBDE8F08FAF
:10503000ACA60000F0B504460F46154600260EE06B
:10504000AA5D39462046FFF795FF04F10800C4B277
:10505000782C02DD0024B81CC7B2701CC6B2A85D53
:105060000028EDD1F0BD70B505460C461CB12846B0
:1050700002F01EF902E0284602F0FEF870BD0000C2
:10508000F0B505460F461346002400F0B3F800BF04
:1050900057E00120A0403840002850D02C4800EBB9
:1050A000851000EB84022A48801C00EB851000EB81
:1050B00084065978108861F38E30108099781088B2
:1050C00061F30C301080D978108861F3492010808A
:1050D0001979108861F3861010809979108861F32E
:1050E000820010805979108861F3051010801878BB
:1050F00020B101280BD002281AD112E0108820F428
:1051000000401080108820F00200108011E010880C
:1051100020F400401080108820F00200801C1080D5
:1051200007E0108820F4004000F50040108000E007
:1051300000BF00BFD979308861F308203080601C3F
:10514000C4B2102CA5D300F005F80020F0BD00007B
:10515000003C05404FF4254001490880704700009D
:10516000FC3B054010B502460448102404FB020332
:10517000188808431880002010BD00000A38054038
:1051800010B502460448102404FB020318880843A3
:105190001880002010BD000008380540F0B5044616
:1051A0000D4616461F46002300F024F8002319E0A0
:1051B00001209840284098B10D48402101FB04008F
:1051C000042101FB0302108866F305001080012F03
:1051D00001D1012000E00020118860F30821118036
:1051E000581CC3B2102BE3D3FFF7B4FF0020F0BD6F
:1051F000023C05404AF20150014908807047000016
:10520000FC3B05400B4A12690B4B1A43094B1A61D0
:10521000012904D11A46126882431A6004E0054A43
:1052200012680243034B1A60034A521E014B1A6173
:1052300070470000008004400100A5A5012905D1A8
:10524000054A52688243044B5A6004E0024A52689D
:105250000243014B5A60704700800440012905D188
:10526000054AD2688243044BDA6004E0024AD268FD
:105270000243014BDA60704700800440F0B50146FC
:10528000002500240026002200230420002966D0E7
:10529000CF6D07F47F07B7F5800F1ED101F15003E2
:1052A000DF79BF06BF0A93F806C007EB0C2793F817
:1052B00005C007EB0C056F1CBC029F7A3F0193F8F9
:1052C00009C047EA1C1CC1F820C05F7A07F00F0C28
:1052D000012707FA0CF7CF6234E001F15002177A88
:1052E000BF073F0D92F807C007EB8C0792F806C086
:1052F00007EB9C155779BF077F0F92F804C007EBA7
:10530000DC166F1C06F1020C07FA0CF4577A07F052
:105310000F070A2F01D1640005E0577A07F00F0745
:105320000B2F00D1A400977A3F0192F809C047EAF9
:105330001C1CC1F820C0577A07F00F0C012707FA90
:105340000CF7CF628C62D1E90A7C4FEA5C2C07FB38
:105350000CF70F634FF4007CC1F834C00020F0BD9F
:1053600001460879704770B505460E4604240DB312
:1053700006B3EE60284601F0CBF904460CB1204696
:1053800070BD284601F021FA04460CB12046F7E72B
:10539000284601F0E5F904460CB12046F0E728461E
:1053A00001F0A1FA04460CB12046E9E7284601F0D5
:1053B000D3FA04462046E3E72DE9F04F87B00446D0
:1053C0000F4615469846C1466A480068C0084FF423
:1053D0007A71B0FBF1F0109900FB01FACDF810A042
:1053E0002046FFF7BDFF83460020039002901CB9C2
:1053F000042007B0BDE8F08FB8F1000F00D02DB940
:10540000606940F0006060610420F2E700206061A4
:105410007919206B814205D9606940F000706061A4
:105420000420E6E7A069012800D07F0204F13802D9
:105430004FF40071206800F05BFD06460EB1304667
:10544000D7E7ADF816504FF40070ADF814000E20F9
:105450008DF81A0001208DF81900012D00D900E007
:1054600000208DF81800012D01D9022000E0002055
:105470008DF81B0005A9206800F0AEF906460EB1B4
:105480003046B6E7BBF1010F10D1A06870B1A0683B
:10549000006858B14FF6FF7000EA45200090A368FD
:1054A0001979226818684B46FCF736FB012D09D1A3
:1054B0000120206104F138023946206800F04CFDDB
:1054C000064608E00220206104F1380239462068CF
:1054D00000F076FD06460EB130468AE7BBF1000FBC
:1054E00025D122E04FF40061206800F0F0F903902C
:1054F0002021206800F0DEF90290039801280ED1E7
:10550000029801280BD14FF400724946206800F040
:1055100091FA681E85B2CDF810A009F500790498BB
:10552000411E049108B9092063E7002DDAD1CDF8B6
:1055300010A009E00221206800F0BCF9012800D188
:1055400005E00498401E049004980028F2D100BFA2
:10555000049808B909204CE70221206800F02CF9D2
:105560004FF40041206800F0A5F9012800D1012680
:1055700030463EE77480FF1F2DE9F04F87B00446A8
:10558000884615469946CA46754800683221B0FBE0
:10559000F1F04FF47A71B0FBF1F0109900FB01F7D4
:1055A00004972046FFF7DCFE83460020039002901C
:1055B0001CB9042007B0BDE8F08FB9F1000F00D08E
:1055C0002DB9606940F0006060610420F2E70020BE
:1055D000606108EB0501206B814205D9606940F0EC
:1055E000007060610420E5E704F138024FF40071B7
:1055F000206800F07DFC06460EB13046DAE7ADF8D3
:1056000016504FF40070ADF814000E208DF81A00FB
:1056100000208DF81900012D01D9012000E00020A3
:105620008DF81800012D01D9022000E000208DF82E
:105630001B0005A9206800F0CFF806460EB13046E1
:10564000B8E7A069012801D04FEA4828BBF1010F53
:1056500010D1A06870B1A068006858B14FF6FF7013
:1056600000EA45200090A36819792268186853461B
:10567000FCF7C0FA012D07D104F138024146206839
:1056800000F0D2FC064606E004F1380241462068EC
:1056900000F0FEFC06460EB130468BE7BBF1000F72
:1056A00024D121E04FF48061206800F010F90390CC
:1056B0001021206800F0FEF80290039801280DD117
:1056C000029801280AD14FF400725146206800F078
:1056D00007FB681E85B204970AF5007A0498411EFC
:1056E000049108B9092065E7002DDBD1049714E087
:1056F0004FF48011206800F0EAF80390022120683E
:1057000000F0D8F802900398012803D102980128EC
:1057100000D105E00498401E049004980028E7D1C9
:1057200000BF049808B9092044E70221206800F06E
:1057300043F83946204600F0CFFF06460EB130460A
:1057400038E74FF40041206800F0B4F8012800D198
:1057500030E71021206800F02FF800202AE7000031
:105760007480FF1F01460420064A914202D0064A77
:10577000914206D191F8292022F0010281F82920D6
:105780000020704700FC064000000740014604204E
:10579000074A914202D0074A914207D191F8292045
:1057A00022F00102521C81F82920002070470000DD
:1057B00000FC06400000074002460420044B9A42C9
:1057C00002D0044B9A4201D111860020704700009C
:1057D00000FC06400000074078B502460024002582
:1057E00000950420314DAA4202D0314DAA425BD12E
:1057F000002959D00020CD7935B1012D0FD0022DCF
:1058000019D0032D32D124E0BDF8005025F0200539
:105810000095BDF8005025F00205009528E0BDF880
:10582000005025F0200520350095BDF8005025F0EA
:10583000020500951CE04C88BDF8005025F02005BD
:1058400020350095BDF8005025F00205AD1C0095EF
:105850000EE0BDF8005025F0200520350095BDF87C
:10586000005025F00205AD1C009501E0042000BFAA
:1058700000BFC8B9BDF8005025F0010500954E796C
:10588000BDF8005066F3041500950E79BDF8005080
:1058900066F3830500958D7982F82E50D4800D88AB
:1058A00095806B461D88958178BD000000FC064000
:1058B000000007400246108E084008B101207047E2
:1058C0000020FCE7024602F11000405870470246F3
:1058D000506A084008B1012070470020FCE7000032
:1058E0002DE9F84305460C460020009080464E48BE
:1058F00000686421B0FBF1F74FF004090026284648
:1059000001F01AF90646002E7ED095F82F0020F0FF
:105910000100401C85F82F0005E00098411C009113
:10592000B84200D905E095F82F0000F001000028EA
:10593000F3D100BF0098B84271D23C48006AC0F36E
:1059400002510120884038490968B1FBF0F8384914
:10595000404601F0A9F8A98D60F30F21A985A88D13
:1059600020F00400001DA885A88D20F00100401C37
:10597000A88595F8290020F00100401C85F8290031
:1059800040F27F106886E886F720288640F2F710FC
:10599000A886002C40D0206810B120680088288795
:1059A0006068B8B1606800683060606840687060C6
:1059B00060688068B0606068C068F06060680069B6
:1059C000306160684069706160688069B06160687A
:1059D000C069F061A06810B1A06800886887E068BD
:1059E000D0B1E06800683062E06841687162E068E8
:1059F0008168B162E068C168F162E06801693163A1
:105A0000E0688169B16301E00BE008E0E0684169AA
:105A10007163E068C169F1634FF0000901E04FF084
:105A200009094846BDE8F8837480FF1F004005401F
:105A3000801A06002DE9F041034615460022002495
:105A40000026042021B3134FBB4202D0124FBB42A9
:105A50001ED105F00307DFB903F1200615E0346815
:105A60009446521C01F80C40C4F307281746521CF8
:105A700001F80780C4F307481746521C01F8078055
:105A8000270E9446521C01F80C70AA42E7D300205E
:105A9000BDE8F08100FC06400000074038B5024632
:105AA00004204B4CA24202D04A4CA2427DD1002994
:105AB0007BD000204C7A0A2C64D2DFE804F0053950
:105AC0004F1527283A503B3CBDF8004024F0030412
:105AD0000094BDF8004024F008040094BDF8004094
