:020000040000FA
:10000000001E00205903000009640000E12E0000DA
:10001000016400008F0B0000B5D10000000000005B
:100020000000000000000000000000009D02000031
:10003000552B000000000000F102000099A1000013
:10004000253A0000393A00004D3A0000613A0000BC
:10005000753A0000893A00009D3A0000B13A00006C
:10006000C53A0000D93A0000ED3A0000013B00001B
:10007000153B0000293B00003D3B0000513B0000C8
:10008000653B0000793B00008D3B0000A13B000078
:10009000B53B0000C93B0000DD3B0000F13B000028
:1000A000053C0000193C00002D3C0000413C0000D4
:1000B000553C0000693C00007D3C0000913C000084
:1000C000A53C0000BD3C0000D53C0000ED3C00001C
:1000D000053D00001D3D0000353D00004D3D000088
:1000E000653D00007D3D0000953D0000AD3D0000F8
:1000F000C53D0000DD3D0000F53D00000D3E000067
:10010000253E00003D3E0000553E00006D3E0000D3
:10011000853E00009D3E0000B53E0000CD3E000043
:10012000E53E0000FD3E0000153F00002D3F0000B1
:10013000453F00005D3F0000753F00008D3F00001F
:10014000A53F0000BD3F0000D53F0000ED3F00008F
:10015000054000001D400000354000004D400000FB
:10016000654000007D40000095400000AD4000006B
:10017000C5400000DD400000F54000000D410000DA
:10018000254100003D410000554100006D41000047
:10019000854100009D410000B5410000CD410000B7
:1001A000E5410000FD410000154200002D42000025
:1001B000454200005D420000754200008D42000093
:1001C000A5420000BD420000D5420000ED42000003
:1001D000054300001D430000354300004D4300006F
:1001E000654300007D43000095430000AD430000DF
:1001F000C5430000DD430000F54300000D4400004E
:10020000254400003D440000554400006D440000BA
:10021000854400009D440000B5440000CD4400002A
:10022000E5440000FD440000154500002D45000098
:10023000454500005D450000754500008D45000006
:10024000A5450000F54600005D4B0000394C00005C
:10025000014F00009B0300009B0300009B03000074
:1002600071500000915300001956000055580000CD
:100270007D590000915B0000ED5D0000015F000012
:10028000DFF814D000F0C8FB00F004F90048004784
:1002900005EA000000F012FB001E00202B4B19683D
:1002A0000868B0E8F04F80F30988BFF36F8F4FF014
:1002B000000080F3118870470000000006480068C5
:1002C000006880F3088862B661B6BFF34F8FBFF352
:1002D0006F8F00DF00BF00BF08ED00E0DFF80C000B
:1002E000016841F470010160704700BF88ED00E0D3
:1002F000EFF30980BFF36F8F144B1A681EF0100FD5
:1003000008BF20ED108A20E9F04F106008B44FF0CC
:10031000500080F31188BFF34F8FBFF36F8F0FF042
:1003200041F94FF0000080F3118808BC1968086893
:10033000B0E8F04F1EF0100F08BFB0EC108A80F349
:100340000988BFF36F8F704700BF00BF9481FF1F04
:10035000EFF305807047000010484FF0770101600F
:100360000F484FF0770101600E484FF4885101604B
:100370000A484FF07601016009484FF076010160AC
:100380000948804709480047FEE7FEE7FEE7FEE729
:10039000FEE7FEE7FEE7FEE7FEE7FEE704080540AE
:1003A0000C0805400008054069A200008102000019
:1003B00040EA01039B0703D009E008C9121F08C0E7
:1003C000042AFAD203E011F8013B00F8013B521E67
:1003D000F9D27047D2B201E000F8012B491EFBD2DE
:1003E00070470022F6E710B513460A460446194640
:1003F000FFF7F0FF204610BD00487047A882FF1F9E
:10040000FFFFFFFFFFFFFFFFFFFFFFFFFFFFFFFFFC
:10041000FFFFFFFFFFFFFFFFFFFFFFFFFFFFFFFFEC
:100420002DE9F05F0546002092469B468846064629
:10043000814640241BE0284641464746224600F0BC
:100440001BFA53465A46C01A914110D3114618461A
:10045000224600F002FA2D1A67EB01084F462246A9
:100460000120002100F0F9F917EB00094E41201E90
:10047000A4F10104DFDC484631462A464346BDE884
:10048000F09F034611F8012B00F8012B002AF9D147
:100490001846704770B5054C054D03E020682044B0
:1004A0008047241DAC42F9D170BD0000C404010096
:1004B000C80401002DE9F041074615460E461020FC
:1004C0000EF004FB04000AD06760C4E90265FFF780
:1004D00093FF0168216004600020BDE8F0810120E5
:1004E000FBE72DE9FE4F804681EA0300C00F0C4672
:1004F000009021F0004123F00045B8EB0200A94133
:1005000005D24046214690461C460B46024623F043
:100510000040104347D0270DC7F30A00C3F30A5128
:100520000290401A019040286BDAC3F3130040F4A4
:10053000801B0098924620B10023D2EB030A63EBA4
:100540000B0B01985946C0F14002504600F085F966
:1005500006460D4650465946019A00F09DF910EBAB
:1005600008006141002487EA115284EAE7731A43C4
:1005700040D0009A62B3019A012A4FEA075215DC73
:10058000001B61EB02014FF0004202EA0752CDE985
:100590000042001C41F5801132462B4600F0BEF9A6
:1005A00003B0BDE8F08F40462146F9E7001B61EB40
:1005B0000201001C41F5801300185B412018A2F5D0
:1005C000001747EB030140EAD570B6196D4111E001
:1005D0006D084FEA360645EAC0754FEA0752001B20
:1005E00061EB0201001C41F5801149084FEA30001F
:1005F0000019514132462B4603B0BDE8F04F00F0E0
:100600007EB90098012240000023D0EB020263EB88
:10061000E073009821464FEAE074B8EB000061EB0C
:100620000401E9E783F000435BE781F0004158E70C
:100630002DE9FE4F81EA030404F0004421F000415B
:1006400000944FF0000B23F0004350EA01045ED009
:1006500052EA03045BD0C3F30A54C1F30A552C4495
:10066000A4F2F3340194A0FB0254C1F3130141F44A
:100670008011C3F3130343F4801301FB024400FB16
:10068000034E840A970A44EA815447EA8357A4FB3D
:10069000076802958D0A05FB07854FEA932C04FB3A
:1006A0000C542705029D4FEA065847EA1637B5EB6A
:1006B00008056EEB070C870E920E47EA811742EA97
:1006C0008312A7FB0201B6EB0B0164EB00042B0DB8
:1006D00043EA0C335E1844EB1C50DA465146E7FB04
:1006E0000201C5F313044FEA0B3343EA14534FEAF4
:1006F0000432019C43EA0603A4F10C040294009C1A
:10070000CDE900B400F00AF903B0BDE8F08F002095
:100710000146F9E72DE9F04D81EA030404F0004BAE
:1007200021F0004514464FF0000A23F0004150EA42
:10073000050220D054EA01021DD0C5F30A57024633
:10074000C5F31303C1F31300C1F30A5640F4801537
:1007500043F48013A7EB0608101BD64608F2FD38B9
:1007600073EB050002D308F1010801E092185B4128
:10077000B8F1000F03DA00200146BDE8F08D00203B
:100780004FF48011064684460EE0171B73EB0507F5
:1007900005D3121B63EB050306434CEA010C490821
:1007A0004FEA300092185B4150EA0107EDD152EA5E
:1007B000030012D082EA040083EA0501084305D051
:1007C000101BAB4106D20122002306E000224FF0AD
:1007D000004302E06FF0010253101AEB06004CEBED
:1007E000085110EB0A0041EB0B01BDE8F04D00F0A1
:1007F00086B80EB5C10F80EAE0700844CA07002130
:1008000040F233438DE80E000A460B4600F086F8AE
:1008100003B000BD0EB540F2334102910021CDE995
:1008200000110A460B4600F079F803B000BD30B560
:100830000B46014600202022012409E021FA02F59E
:100840009D4205D303FA02F5491B04FA02F5284438
:10085000151EA2F10102F1DC30BD202A04DB203A92
:1008600000FA02F1002070479140C2F1200320FA03
:1008700003F3194390407047202A04DB203A21FA01
:1008800002F00021704721FA02F3D040C2F12002A9
:100890009140084319467047202A06DBCB17203ABF
:1008A00041FA02F043EAE07306E041FA02F3D04075
:1008B000C2F1200291400843194670472DE9F041EA
:1008C0000646FFF799FD8046454613E016B1E068FD
:1008D000B0420ED120682860D4E90101D8F8007038
:1008E000884720460EF018F8D8F80000B842EBD13F
:1008F00000E025462C68002CE8D1BDE8F08110B559
:10090000141E73F1000408DA401C41F10001921832
:100910005B411A4301D120F0010010BD2DE9F04DDB
:1009200092469B4611B1B1FA81F202E0B0FA80F230
:1009300020329046FFF791FF04460F4640EA0A0036
:1009400041EA0B0153465A46084313D0114653EA75
:10095000010019D0C8F140025046FFF78DFF05464F
:100960000E46504659464246FFF777FF084305D0EA
:10097000012004E020463946BDE8F08D0020054303
:1009800046EAE0762C4337430A986305E40AA0EB75
:1009900008000022FD0A44EA47540A3002D500202C
:1009A0000146E9E7010510196941DDE9084500192B
:1009B0006941BDE8F04DA2E7C1F30A52C1F313014A
:1009C00040F2FF3341F480119A4202DA00200146DE
:1009D000704740F233439A42A2F2334202DC524261
:1009E000FFF74ABFFFF739BF30B5041E71F10004AD
:1009F00004DB4FF00044404264EB0101141E73F12C
:100A0000000405DB1C464FF00043524263EB040335
:100A1000994208BF904230BD064C074D06E0E068A1
:100A200040F0010394E8070098471034AC42F6D335
:100A3000FFF72AFCA4040100C4040100704730B58C
:100A40008C1810F8012B12F00F0301D110F8013BA4
:100A5000120906D110F8012B03E010F8015B01F830
:100A6000015B5B1EF9D101E001F8013B521EFBD195
:100A7000A142E6D3002030BD012001490870704733
:100A8000000004402DE9F04102460B460420002AF4
:100A90004CD0002B4AD01F79012F47DC244FBA429B
:100AA0001AD11F68C7F310011F7957B997891FFA28
:100AB00081FC47EA0C079781D78947EA1147D7811C
:100AC0001CE0178A1FFA81FC47EA0C071782578A35
:100AD00047EA1147578211E01F88C7F308011F79C1
:100AE00037B997891FFA81FC47EA0C07978105E01F
:100AF000178A1FFA81FC47EA0C0717820024002599
:100B000002F120060FE001F001074FB12F4605F179
:100B1000010C0CF0FF05D3F8088018F80770375562
:100B20004908671CFCB20029EDD10020BDE8F08126
:100B30000000044000B5024802F056F900BD000074
:100B4000FC80FF1F10B502460420FAB1F1B100236A
:100B500013700C78538864F3051353804C785388D2
:100B600064F3C71353808C78538864F386135380DF
:100B7000CC78538864F3010353800C79938864F331
:100B800082039380002382F84730002010BD10B507
:100B9000AFF3008010BD00000F4800884AF20151F9
:100BA00008430E49A1F8FE030C484130007800F0DC
:100BB000010030B109484130007820F0010081F88F
:100BC0004100054800884FF6FE71084040F425407A
:100BD0000249A1F8FE037047FE430540004005406E
:100BE00070B5002100220024002300287ED0434D50
:100BF0002D7805F00705052D15D2DFE805F0030671
:100C0000090D10003E4D05603BE03E4D056038E0AB
:100C10004FF40045056034E03A4D056031E04FF493
:100C2000004505602DE0354DDA352D68C5F3C0135C
:100C3000324D263DD5F800512A0F304DDA352D685A
:100C4000C5F308212D4D263DD5F8005105F01F04B0
:100C500053B9651C2B4EB6FBF5F54E1C7543561C5F
:100C6000B5FBF6F505600BE0012B09D1651C244EA0
:100C7000B6FBF5F54E1C7543561CB5FBF6F5056045
:100C800000BF00BF1D4E263E0568366AC6F30266E9
:100C9000F5404560194E263E0568366AC6F3025691
:100CA000F5408560154E263E0568366A06F0070653
:100CB000F540C560114E263E0568366AC6F3021639
:100CC000F54005610D4E263E0568366AC6F30226DC
:100CD000F5404561094E263E0568366AC6F3023680
:100CE000F5408561054E263E056800E004E0366A61
:100CF000C6F30246F540C56170BD000026400540C0
:100D00000024F40000127A00014631B101290DD00F
:100D1000022914D0032924D11AE0184A127802F0CB
:100D2000010282F0010282F0010024E0134A1278ED
:100D3000C2F3C00282F0010282F001001BE00F4A00
:100D40001278C2F3401282F0010282F0010012E038
:100D50000A4A1278C2F3801282F0010282F0010086
:100D600009E0064A521D127802F0010282F00102E7
:100D700082F0010000BF00BF704700003C4005400A
:100D80002DE9F04F0021002600278C460022002389
:100D9000884689468A460024DFF810B2DBF800B1A5
:100DA000CBF3C015DFF804B2DBF800B14FEA1B76D5
:100DB000DFF8F8B1DBF800B1CBF30367DFF8ECB193
:100DC000DBF800B1CBF3035CDFF8E0B1DBF800B196
:100DD000CBF30821DFF8D4B1DBF800B10BF01F0230
:100DE000DFF8C8B1DBF804B14FEA1B78DFF8BCB11B
:100DF000DBF804B1CBF30369DFF8B0B1DBF804B181
:100E0000CBF3035ADFF8A4B1DBF804B1CBF308232A
:100E1000DFF898B1DBF804B10BF01F04F5BB02F169
:100E2000010BDFF88CE1BEFBFBFB01F1010E0BFBBC
:100E30000EFB06F1010EBBFBFEFBC0F800B002F199
:100E4000010BDFF86CE1BEFBFBFB01F1010E0BFBBC
:100E50000EFB07F1010EBBFBFEFBC0F804B002F174
:100E6000010BDFF84CE1BEFBFBFB01F1010E0BFBBC
:100E70000EFB0CF1010EBBFBFEFBC0F808B004F149
:100E8000010BDFF82CE1BEFBFBFB03F1010E0BFBBA
:100E90000EFB08F1010EBBFBFEFB00E022E0C0F8F8
:100EA0000CB004F1010BDFF808E1BEFBFBFB03F122
:100EB000010E0BFB0EFB09F1010EBBFBFEFBC0F8A4
:100EC00010B004F1010BDFF8E8E0BEFBFBFB03F11F
:100ED000010E0BFB0EFB0AF1010EBBFBFEFBC0F883
:100EE00014B061E0012D5FD102F1010BDFF8C4E025
:100EF000BEFBFBFB01F1010E0BFB0EFB06F1010E2D
:100F0000BBFBFEFBC0F800B002F1010BDFF8A4E070
:100F1000BEFBFBFB01F1010E0BFB0EFB07F1010E0B
:100F2000BBFBFEFBC0F804B002F1010BDFF884E06C
:100F3000BEFBFBFB01F1010E0BFB0EFB0CF1010EE6
:100F4000BBFBFEFBC0F808B004F1010BDFF864E066
:100F5000BEFBFBFB03F1010E0BFB0EFB08F1010EC8
:100F6000BBFBFEFBC0F80CB004F1010BDFF844E062
:100F7000BEFBFBFB03F1010E0BFB0EFB09F1010EA7
:100F8000BBFBFEFBC0F810B004F1010BDFF824E05E
:100F9000BEFBFBFB03F1010E0BFB0EFB0AF1010E86
:100FA000BBFBFEFBC0F814B0BDE8F08F004005406D
:100FB00000127A000024F40038B5044600200090A6
:100FC00000252A4800884AF2015108432849A1F81F
:100FD000FE0344BB26482630007800F0070008B91D
:100FE000012536E023480068C0F3C01088B12048CE
:100FF0002A30007800F0010008B9012529E01C48DA
:101000003630007820F00100401C194981F8360084
:101010001FE017483630007820F00100401C1449CA
:1010200081F8360015E012483630007820F00100D3
:101030000F4981F8360000BF0020FFF765FE034628
:101040000098401C00900098B0F5805F01D2012B01
:10105000F2D1064800884FF6FE71084040F4254062
:101060000349A1F8FE03284638BD0000FE430540B1
:10107000004005400041054008B5014600220092AD
:1010800000201B4A12884AF201531A43194BA3F855
:10109000FE2391B9174A2632127802F00702022A7B
:1010A00001D1012018E0124A2932127822F00102FF
:1010B000521C0F4B29331A700EE00D4A2932127858
:1010C00022F001020A4B29331A7000BF009A521C09
:1010D0000092009A052AF9D3054A12884FF6FE734A
:1010E0001A4042F42542034BA3F8FE2308BD00003A
:1010F000FE4305400040054038B5044600200090FE
:1011000000251F4800884AF2015108431D49A1F8F3
:10111000FE0394B91B482630007800F0070005282C
:1011200001D101251FE017482A30007820F0010086
:10113000401C144981F82A0015E012482A30007832
:1011400020F001000F4981F82A0000BF0220FFF7BC
:10115000DBFD03460098401C00900098B0F5805FCE
:1011600001D2012BF2D1064800884FF6FE710840EB
:1011700040F425400349A1F8FE03284638BD00008D
:10118000FE4305400040054000283ED01F49098825
:101190004AF2015211431D4A11800178491E1C4A2E
:1011A000D2F8002161F31F721A490A600179491EC1
:1011B000174AD2F8002161F31B6216490A60017ACE
:1011C000491E134AD2F8002161F3175211490A60EF
:1011D0008189491E0E4AD2F8002161F310220D497F
:1011E0000A60017C491E0A4AD2F8002161F3040218
:1011F0000749C1F80021B1F8FE134FF6FE72114005
:1012000041F42541024AA2F8FE137047FE4305400F
:1012100000400540004105400B4909884AF202524E
:1012200011430A4AA2F8FE131146098A60F303012A
:101230001182054909884FF6FD72114041F425419C
:10124000024AA2F8FE137047FE43054000400540E5
:101250000D4909884AF2015211430C4AA2F8FE13C3
:101260001146D1F8001160F3C711C2F80011114600
:10127000B1F8FE134FF6FE72114041F42541034AC6
:10128000A2F8FE1370470000FE43054000400540F1
:1012900010B586B00446002005902E4800680490E2
:1012A0002C48406803902B48806802902948C06809
:1012B00001902948007800F00700052801D0052C8E
:1012C0000DD1264823490860C01248608860C86074
:1012D00000BF0598401C05900598B028F9D3204818
:1012E00000884AF2015108431B492639A1F8FE0340
:1012F000084690F8260064F3020081F826000846AC
:10130000B0F8FE034FF6FE71084040F42540124944
:101310002639A1F8FE030020059000BF0598401C67
:1013200005900598B028F9D30A49049808600398F5
:101330004860029888600198C8600020059000BF4E
:101340000598401C05900598B028F9D308F02AFFAD
:1013500006B010BD0080044026400540EEFAFFFFB5
:10136000FE43054085B0002104913349096803918B
:101370003149496802913049896801912E49C9680B
:1013800000912E49097801F0070105291BD12A494E
:10139000096841F48031284A116011464968284A99
:1013A0001143254A5160019961F400419160114651
:1013B000C96841F01301D16000BF0499491C049130
:1013C0000499B029F9D31F4909884AF201521143FF
:1013D0001A4A263AA2F8FE13114691F8241060F337
:1013E000071182F824101146B1F8FE134FF6FE7271
:1013F000114041F42541114A263AA2F8FE1300217A
:10140000049100BF0499491C04910499B029F9D3AF
:10141000094A0399116002995160019991600099FC
:10142000D1600021049100BF0499491C04910499E2
:10143000B029F9D305B0704700800440264005402C
:1014400009010F00FE43054085B000210491344995
:1014500009680391324949680291314989680191CB
:101460002F49C9680091002858D02E49097801F009
:10147000070105290DD12C49294A1160C912516073
:101480009160D16000BF0499491C04910499B0296E
:10149000F9D3264909884AF201521143234A11809F
:1014A0008178C27841EA0211027941EA0221427947
:1014B00041EA0231827941EA0241427841EA02512D
:1014C000027841EA026141EA0271164A263A116243
:1014D000164909884FF6FE72114041F42541114A20
:1014E000263AA2F8FE130021049100BF0499491C7A
:1014F00004910499B029F9D3094A0399116002991A
:101500005160019991600099D1600021049100BF60
:101510000499491C04910499B029F9D305B0704786
:101520000080044026400540EEFAFFFFFE430540E0
:1015300018B5034600200090194800884AF201516E
:1015400008431849A1F8FE03012B01D0012000E057
:10155000002014492E31097860F30001114880F809
:101560002E100F4800884FF6FE71084040F42540C9
:101570000C49A1F8FE0300BF0320FFF7C5FB04469A
:101580000098401C00900098B0F5805F06D2012BB7
:1015900001D1012000E00020A042EDD1002018BDC3
:1015A000FE4305400040054000283ED01F49098801
:1015B0004AF2015211431D4A11800178491E1C4A0A
:1015C000D2F8042161F31F721A490A600179491E99
:1015D000174AD2F8042161F31B6216490A60017AA6
:1015E000491E134AD2F8042161F3175211490A60C7
:1015F0008189491E0E4AD2F8042161F310220D4957
:101600000A60017C491E0A4AD2F8042161F30402EF
:101610000749C1F80421B1F8FE134FF6FE721140DC
:1016200041F42541024AA2F8FE137047FE430540EB
:10163000004005400441054008B5014600220092E3
:1016400000201B4A12884AF201531A43194BA3F88F
:10165000FE2391B9174A2632127802F00702042AB3
:1016600001D1012018E0124A2232127822F0010240
:10167000521C0F4B22331A700EE00D4A22321278A0
:1016800022F001020A4B22331A7000BF009A521C4A
:101690000092009A052AF9D3054A12884FF6FE7384
:1016A0001A4042F42542034BA3F8FE2308BD000074
:1016B000FE4305400040054058B3164909884AF2E8
:1016C00001521143134A11800278124923310978DB
:1016D00062F382010F4A2332117042780D4923319F
:1016E000097862F301010B4A2332117082780949AB
:1016F0002731097862F30101064A27321170054942
:1017000009884FF6FE72114041F42541024AA2F8C1
:10171000FE137047FE4305400040054038B50446BF
:101720000020009000252A4800884AF20151084311
:101730002849A1F8FE034CBB26482630007800F06B
:101740000700032801D1012536E023480068C0F3D3
:10175000C01088B91F482A30007800F0010008B98D
:10176000012529E01B483230007820F00100401CA0
:10177000184981F832001FE016483230007820F016
:101780000100401C134981F8320015E01148323045
:10179000007820F001000F4981F8320000BF0120DD
:1017A000FFF7B2FA03460098401C00900098B0F58D
:1017B000805F01D2012BF2D1054800884FF6FE71FF
:1017C000084040F425400349A1F8FE03284638BDEF
:1017D000FE430540004005400041054058B316490E
:1017E00009884AF201521143134A118002781249C2
:1017F0001231097862F3C7110F4A12321170427820
:101800000D491231097862F386110B4A12321170B8
:10181000827809491231097862F30511064A1232B9
:101820001170054909884FF6FE72114041F42541B7
:10183000024AA2F8FE137047FE43054000400540EF
:101840000D4909884AF2015211430C4AA2F8FE13CD
:10185000114691F8A21060F3030182F8A21011461C
:10186000B1F8FE134FF6FE72114041F42541034AD0
:10187000A2F8FE1370470000FE43054000400540FB
:10188000A8B31B4909884AF201521143184A118032
:101890000278184991F8401062F3C711154A403296
:1018A00011704278134991F8401062F38201114A95
:1018B0004032117082780F4991F8401062F3410173
:1018C0000C4A40321170C2780A4991F8401062F314
:1018D0000001084A82F840101146B1F8FE134FF695
:1018E000FE72114041F42541024AA2F8FE137047EE
:1018F000FE4305400040054070B506460C4604F026
:101900008000802808D104F07F0000EB800106F100
:10191000EC0000EBC10507E004F07F0000EB800164
:1019200006F5337000EBC10504F07F00287004F069
:101930008000C0096870294630460AF032FF002056
:1019400070BD70B506460C4604F08000802808D1B2
:1019500004F07F0000EB800106F1EC0000EBC10514
:1019600005E004EB840106F5337000EBC1050020AF
:10197000A87004F07F002870C4F3C0106870294676
:1019800030460AF0E6FE002070BD70B505460C46F4
:1019900004F08000802805D104F07F0128460BF078
:1019A0005DFA02E028460BF0F7F9002070BD2DE942
:1019B000F04106460D4690461F4605F080008028FF
:1019C00008D105F07F0000EB800106F1EC0000EB90
:1019D000C10407E005F07F0000EB800106F53370DD
:1019E00000EBC10405F07F00207005F08000C00905
:1019F0006070C4F80880E770607808B12078E080F3
:101A0000022F01D100202071214630460AF0FDFD51
:101A10000020BDE8F0812DE9F04105460E4617464D
:101A2000984606F07F0000EB800105F5337000EB6F
:101A3000C104E760C4F814800020A061607006F063
:101A40007F002070E878012800D12761207820B934
:101A5000214628460AF0EEFC03E0214628460AF01B
:101A6000B0FF0020BDE8F08108B500220092009A86
:101A700061F30A12009202691268009B1A4303691B
:101A80001A6008BD70B506460C4604F08000802838
:101A900008D104F07F0000EB800106F1EC0000EBC0
:101AA000C10505E004EB840106F5337000EBC105C8
:101AB0000120A87004F07F002870C4F3C010687083
:101AC000294630460AF09CFE002070BD2DE9F04109
:101AD00007460D461646984605F07F0000EB80014C
:101AE00007F1EC0000EBC1040120607005F07F00FD
:101AF0002070E66026610020A061C4F81480207880
:101B000020B9214638460AF095FC03E021463846C4
:101B10000AF057FF0020BDE8F0811CB504462046BE
:101B20000AF02DFCE068C068009020460BF0FDF93B
:101B300003280BD10020A0704FF40070A080009803
:101B400020F4705000F51050009009E00120A070C2
:101B50004020A080009820F4705000F510500090B4
:101B60000098E168C86000200190019820F40050BE
:101B700000F5005001900198E168486101201CBD0A
:101B80002DE9F84304460025A84600200090204691
:101B90000BF030FA064674E006F0010000286ED023
:101BA000E9B2204600F0A0FB8046CDF80080009806
:101BB00000F0010018B3012000FA05F72069406B1E
:101BC000B843216948630120009004F1180050F8DF
:101BD000250000998160E9B22C48006842682046DF
:101BE0009047E07801280AD14DB9E120005D042832
:101BF00005D120460AF0CEFC0021E12001550098D5
:101C0000C0F3C00038B10820009004F1180050F86B
:101C10002500009981600098C0F3001038B11020B1
:101C2000009004F1180050F8250000998160009898
:101C3000C0F3801038B14020009004F1180050F833
:101C40002500009981600098C0F3400038B102205F
:101C5000009004F1180050F8250000998160009868
:101C6000C0F3C01058B12946204600F085FB802003
:101C7000009004F1180050F82500009981606D1C57
:101C80007608002E88D10120BDE8F883E880FF1F88
:101C90002DE9FC47064600250024A14600200190BE
:101CA00030460BF0AFF90746CEE007F00100002800
:101CB0007ED0E9B230460BF0ADF90446019864F3EA
:101CC0000000610861F34100A10861F38200E108AE
:101CD00061F3C300210961F30410610961F3451048
:101CE000A10961F38610E10961F3C710210A61F3CC
:101CF0000820610A61F34920A10A61F38A20E10A00
:101D000061F3CB20210B61F30C30610B61F34D309B
:101D1000A10B61F38E30E10B61F3CF30210C61F345
:101D20001F400190019800F00100002867D00120B9
:101D3000019006F1480050F8250001998160F07883
:101D4000012848D106F1480050F82500D0F810903D
:101D5000CDF8009005EB850106F5337000EBC1006E
:101D600005EB8502816806F5337000EBC20040691F
:101D7000814207D205EB850106F5337000EBC10007
:101D8000806806E005EB850106F5337000EBC100C5
:101D9000406980460098C0F31200A8EB000105EBF3
:101DA000850206F5337000EBC20081619DB100E051
:101DB00048E005EB850106F5337000EBC100406992
:101DC0000099C1F31201411A05EB850206F5337043
:101DD00000EBC2008161E9B21E480068026830462B
:101DE0009047F07801280AD14DB9E120805D05289F
:101DF00005D130460AF0CEFB0021E1208155019843
:101E0000C0F3400038B10220019006F1480050F8BC
:101E1000250001998160E9B230460BF0FBF80446D9
:101E200001940198C0F3C00060B10A48006881685D
:101E3000304688470820019006F1480050F82500F8
:101E4000019981606D1C7F08002F7FF42EAF012067
:101E5000BDE8FC87E880FF1F3EB5044619A00BF0E3
:101E600081FFA07A70B1D4F8DC000090009820F0D7
:101E700002000090009820F0010000900099D4F832
:101E8000DC00016000200190019820F00100401C5E
:101E900001902069406801998843216948600C4895
:101EA000006881692046884700200290029820F04F
:101EB000004000F1004002900298E1684861012072
:101EC0003EBD0000726573756D652021210A00001A
:101ED000E880FF1F7CB5044600200190019820F0A7
:101EE000100010300190E068806901998843E16832
:101EF0008861E068066A009866F30300310961F3BF
:101F00000E10F10B61F3D030710C61F35440710D80
:101F100061F35850710E61F35F600090009800F01B
:101F20000F0000EB800104F5337000EBC105009851
:101F3000C0F3434007282DD2DFE800F02C04051D34
:101F40001E2C1F0027E00098C0F30A1090B10098E3
:101F5000C0F30A122046E9680BF066F8E8680099B9
:101F6000C1F30A110844E860A8690099C1F30A1195
:101F70000844A8610FE00EE00DE0082204F2AC4135
:101F800020460BF051F8A8690099C1F30A110844E2
:101F9000A86100E000BF00BFE068806901990843C4
:101FA000E168886101207CBD38B5044608480068B6
:101FB000C1682046884700200090009820F0080063
:101FC000083000900098E1684861012038BD0000A9
:101FD000E880FF1F1FB504460020009035A00BF0DD
:101FE000C1FEE220005D009035480068416920464E
:101FF000884720698068019960F300010191206998
:1020000080684108019861F342000190206980686E
:10201000C108019861F3C30001902069806801093B
:10202000019861F30710019020698068010A019806
:1020300061F31520019020698068810D019861F39A
:102040009F50019000200390039820F4006000F559
:10205000006003900398E16848619DF80000032840
:1020600025D1A07A18B3019800F00100F8B1E5205D
:10207000005D01281BD100200290029820F0010091
:10208000401C0290D4F8DC00006802990843D4F8A0
:10209000DC100860029820F00200801C0290D4F846
:1020A000DC00006802990843D4F8DC1008600120C5
:1020B00004B010BD73757370656E642021210A0031
:1020C000E880FF1F30B587B00446002002900690DC
:1020D0000590049003900190404941A00BF042FE0E
:1020E000029820F00100401C02902069406802998B
:1020F000884321694860002120460AF0AFFE002590
:102100000BE0FF2104F1180050F82500816004F174
:10211000480050F8250081606D1C6078A842F0D816
:102120004FF0FF312069816106986FF30F00401C6A
:102130000690069880B200F58030069006992069D6
:10214000C161059820F0080008300590059820F03E
:102150000100401C0590059820F00200801C0590AD
:10216000059820F0200020300590059920694161F4
:10217000049820F00100401C0490049820F008000E
:1021800008300490049820F00200801C0490049908
:1021900020690161206900680390039820F4FE60C3
:1021A00003900399206901600EA00BF0DBFD20462F
:1021B0000AF0F0F900200190019820F4805000F519
:1021C000805001900198E168486108480068016901
:1021D00020468847012007B030BD00004CFC0000BD
:1021E00025730A0072657365740A0000E880FF1F9A
:1021F0002DE9F04106460F46394630460AF028FFE1
:102200000121E22081550021E4208155002511E0C3
:1022100005EB850106F1EC0000EBC10401206070C4
:102220002570E5800020E0704020A0600020E06084
:1022300060616D1C7078A842EAD8002510E005EBBB
:10224000850106F5337000EBC10400206070257035
:10225000E580E0704020A0600020E06060616D1CBF
:102260007078A842EBD8E420815D815530460AF0B1
:1022700075F8304609F04BFD002130460AF054FF56
:10228000304609F09BFD30460AF075FDBDE8F0814F
:1022900038B504460020009007480068C169204610
:1022A0008847009820F4801000F580100090009876
:1022B000E1684861012038BDE880FF1F38B5044659
:1022C0000020009007480068016A2046884700986F
:1022D00020F4001000F5001000900098E1684861BB
:1022E000012038BDE880FF1F30B5024615692B6913
:1022F00015696C6B24FA01F505F0010543EAC51375
:1023000002F1180555F82150AD6805EA030030BD0B
:102310001CB5044612480068416A2046884711A04F
:102320000BF020FD00200190019820F0804000F18A
:10233000804001900198E1684861A07A70B1D4F8BA
:10234000DC000090009820F002000090009820F03F
:10235000010000900099D4F8DC00016001201CBD50
:10236000E880FF1F53657373696F6E526571756501
:1023700073742021210A00002DE9F84307460D4619
:1023800000260020009005EB850107F1EC0000EB32
:10239000C104D4E90501461AA068B04200D2A6687B
:1023A000F01C4FEA900807F1180050F825008069EA
:1023B000009960F30F0107F11800009150F8250013
:1023C0008069010C009861F31F40009028E0D4E977
:1023D0000501461AA068B04200D2A668F01C4FEA78
:1023E0009008B3B2EAB23846E1680AF0C3FEE0688A
:1023F0003044E060A0693044A06107F1180050F853
:1024000025008069009960F30F0107F11800009121
:1024100050F825008069010C009861F31F4000907E
:10242000009880B2404506D9D4E90510884202D20E
:1024300060690028CBD10120BDE8F8830120014963
:1024400008707047FE80FF1F10B502460420174B2E
:102450009A4208D0164B9A4205D0164B9A4202D0A7
:10246000154B9A4221D101B30023136093617F235E
:102470005361CC79136864F3020313608C79136899
:1024800064F3C40313600C7A136864F308231360C5
:102490004C79936964F3C81393610B6893610C7969
:1024A000136864F3DF731360002010BD0020054043
:1024B0000024054000280540002C05402DE9F0418E
:1024C00006460C460427304600F008F805460DB1D4
:1024D0002C6000273846BDE8F0810000014600204E
:1024E0000C4A914201D10C4812E00C4A914202D1AF
:1024F0000948001D0CE00A4A914202D10648083002
:1025000006E0084A914202D103480C3000E0002066
:1025100070470000002005400408014000240540E9
:1025200000280540002C054010B50749896888B28D
:1025300007F02CFE04488068044908804FF47A7044
:102540000149886010BD0000002005400081FF1F88
:1025500010B500BF00F15C0303EB81131B6823F08F
:1025600003031478234300F15C0404EB811423601B
:1025700000BF00BF00F15C0303EB81131B6823F075
:102580000C03547843EA840400F15C0303EB8113E9
:102590001C6000BF00BF00F15C0303EB81131B68EC
:1025A00023F01003947843EA041400F15C0303EB76
:1025B00081131C6000BF00BF00F15C0303EB8113BB
:1025C0001B6823F02003D47843EA441400F15C0331
:1025D00003EB81131C6000BF00BF00F15C0303EB41
:1025E00081131B6823F04003147943EA841400F13B
:1025F0005C0303EB81131C6000BF00BF00F15C03B0
:1026000003EB81131B6823F08003547943EAC4145D
:1026100000F15C0303EB81131C6000BF00BF00F1FD
:102620005C0303EB81131B6823F44073947943EA42
:10263000042400F15C0303EB81131C6000BF00BFA6
:1026400000F15C0303EB81131B6823F48063D479EE
:1026500043EA842400F15C0303EB81131C6000BF98
:1026600000BF00F15C0303EB81131B6823F40063DC
:10267000147A43EAC42400F15C0303EB81131C6069
:1026800000BF00BF00F15C0303EB81131B6823F460
:102690008053547A43EA043400F15C0303EB811362
:1026A0001C6000BF10BD0000F0B5034615460022B7
:1026B00000265F48007800286FD101205C4F3870F9
:1026C000DF69884027EA0006002E67D0D86900F04D
:1026D0000100D8B1D1B1986C040C986E0A27B7EB01
:1026E000104F13D3986EB4EB104F0FD909E0501C64
:1026F00082B2B2F5A04F04D900204D4F38700920A6
:10270000F0BDD86900F001000028F0D1D86900F0D0
:102710000200022820D101291ED0D3F88800040C21
:10272000D3F8A8000A27B7EB104F15D3D3F8A800A9
:10273000B4EB104F10D9002209E0501C82B2B2F560
:10274000A04F04D900203A4F38700920D8E7D86943
:1027500000F002000028F0D1D86900F0040004283D
:1027600022D1022920D00022D3F8C800040CD3F8CB
:10277000E8000A27B7EB104F16D3D3F8E800B4EB04
:10278000104F11D90BE0501C82B2B2F5A04F06D900
:102790000020274F38700920B2E746E02AE0D869C8
:1027A00000F004000028EED1D86900F008000828E5
:1027B00020D103291ED00022D3F80801040CD3F83D
:1027C00028010A27B7EB104F14D3D3F82801B4EB34
:1027D000104F0FD909E0501C82B2B2F5A04F04D9B6
:1027E0000020134F387009208AE7D86900F00800EC
:1027F0000028F0D14DB1012D12D1D86901278F40A9
:1028000007F00F073843D8610AE0D86901278F40E5
:102810004FF00F0C2CEA070C00EA0C00D86100BF47
:1028200000BF0020024F38706AE7012068E700000F
:102830000080FF1F70B50346002039B1012905D083
:10284000022903D0032901D0042026E032B1012A55
:102850000AD0022A10D0032A1CD113E05C6901259A
:102860008D402C435C6117E05C6901F11005012685
:10287000AE4034435C610FE09C6901258D402C43E0
:102880009C6109E09C6901F110050126AE403443CA
:102890009C6101E0042000BF00BF70BD026861F3CD
:1028A000000202607047000070B505460C461646EF
:1028B00001212846FFF7F2FF05F15C0000EB8410D0
:1028C000006820F4805105F15C0000EB8410016089
:1028D00005F1400000EB84107168016005F14400CF
:1028E00000EB8410B168016000BF05F1480000EB07
:1028F000841000686FF309003188084305F148012E
:1029000001EB8411086000BF00BF718805F1480029
:1029100000EB8410006861F31F4005F1480101EBF2
:102920008411086000BF00BF05F14C0000EB84106B
:1029300000686FF30900B189084305F14C0101EB10
:102940008411086000BF00BF05F14C0000EB84104B
:1029500000682B490840F18940EA014105F14C002B
:1029600000EB8410016000BF00BF05F1500000EBD8
:10297000841000686FF313007169084305F150017A
:1029800001EB8411086000BF00BF318B05F15000DE
:1029900000EB8410006861F31F5005F1500101EB5A
:1029A0008411086000BF00BF05F1540000EB8410E3
:1029B00000686FF31300F169084305F1540101EB5E
:1029C0008411086000BF00BF318C05F1540000EB9A
:1029D0008410006861F31F5005F1540101EB84116C
:1029E000086000BF05F1580000EB841031690160F8
:1029F00006F1240221462846FFF7AAFD70BD00001B
:102A0000FFFF00FC10B5094B984205D1084C04EBC0
:102A10008103C3F8142807E0064B984204D1044C04
:102A200004EB8103C3F8242810BD000000300540EA
:102A3000000001400034054008B50022009200214A
:102A4000094A116842F21072B1FBF2F106E00091FE
:102A500000BF009A531E0093002AFAD1021EA0F173
:102A60000100F4D108BD0000B480FF1F08B50122A9
:102A7000002100910D4909680D4B994210D90B496D
:102A80000968B1FBF3F206E0009200BF00994B1E0B
:102A900000930029FAD1011EA0F10100F4D104E055
:102AA00000BF011EA0F10100FBD108BDB480FF1FD3
:102AB0008096980010B500244AF201502049088001
:102AC0002048008820F03F0020301E4908804FF445
:102AD00025401B4908801C48406820F080601A4946
:102AE00048601A48C06820F080501849C8600846FD
:102AF000C06820F08070C8600846C06820F40040BC
:102B000000F50040C8600846C06820F48050C860E6
:102B10000846C06820F48060C8600D4807F078FA65
:102B200008B1012409E0002008490861486108460D
:102B3000C06820F008000830C860204610BD0000C2
:102B4000FC3B0540163D054000800440001002405B
:102B500080841E0010B5AFF3008010BD04494860AA
:102B600000BF03490968C1F380110029F9D07047FB
:102B7000001002402DE9F04F8DB0064689461546FB
:102B80001C46169F3048864202D14FF4804001E037
:102B90004FF4004082462D48854202D14FF4F07038
:102BA00001E040F2E31083464FF00408002C47D0C8
:102BB000C7F30800002843D104F0030000283FD1E8
:102BC0000121504603F022FF01213046FFF766FE47
:102BD00000BF302101A8FDF704FC00BF8020ADF844
:102BE0000400780AADF8060005F120000290039475
:102BF00000208DF8280001218DF8291002218DF880
:102C00002E1001AA49463046FFF74EFE01224946E2
:102C10003046FFF749FD022249463046FFF70AFEDB
:102C2000032249463046FFF705FE0121480403F020
:102C3000EDFE5A4649463046FFF7E4FE4FF00008E5
:102C400040460DB0BDE8F08F0030054000FC064066
:102C50002DE9F04F8DB00646894615461C46169F55
:102C60003048864202D14FF4804001E04FF40040EA
:102C700082462D48854202D140F2E11001E04FF436
:102C8000F27083464FF00408002C47D0C7F30800C9
:102C9000002843D104F0030000283FD10121504611
:102CA00003F0B4FE01213046FFF7F8FD00BF3021EC
:102CB00001A8FDF796FB00BF8020ADF80400780A5C
:102CC000ADF80600029405F12000039001208DF874
:102CD000280000218DF8291002218DF82E1001AA5C
:102CE00049463046FFF7E0FD012249463046FFF7EE
:102CF000DBFC022249463046FFF79CFD0322494691
:102D00003046FFF797FD0121480403F07FFE5A4645
:102D100049463046FFF776FE4FF0000840460DB0BA
:102D2000BDE8F08F0030054000FC0640034909680B
:102D300060F31041014A116070470000080401402F
:102D400004480068012804D143F2102001490860BA
:102D500008607047000401400349096860F30711E7
:102D6000014A1160704700000804014040F223103E
:102D70000249086043F210200860704700040140D7
:102D800010B5024610780A4B042414FB0031537826
:102D9000086863F3C71008609378086863F3051048
:102DA0000860D378086863F301000860002010BD54
:102DB00010100540002107200FE0421E094B9A5CCD
:102DC00000EE902AF8EE600AF4EEC00AF1EE10FA76
:102DD00001D8014603E0421ED0B20028EDD100BF69
:102DE000084670470180FF1F0249B1F86410018056
:102DF00070470000000004400249B1F870100180E3
:102E0000704700000000044001480088704700003F
:102E10000081FF1F00BF00BF00BFBFF35F8F00BF77
:102E200000BF00BF0548006820F4803003490860F7
:102E300000200249703108607047000024ED00E076
:102E400030B58DB004460D4605A8FDF7C9FE1A48F9
:102E5000844204D10121102003F0F4FD12E0174850
:102E6000844204D10121202003F0ECFD0AE0144843
:102E7000844204D10121402003F0E4FD02E001205E
:102E80000DB030BD204600F036FB00BF00200190A1
:102E900002900390049000BF8DF8040003950B98F6
:102EA000029001A9204600F04BFB0121204600F0D2
:102EB0001DFB0020E4E7000000E0044000E40440C3
:102EC00000E8044010B5002331221021022003F055
:102ED00021FD002330222021022003F01BFD10BD24
:102EE00010B50E4800680E4908600C48001D0068C7
:102EF0000C4908600948083000680B490860084818
:102F000000680649086007480068091D086006480F
:102F10000068091D0860AFF3008010BD28ED00E0D7
:102F20000C80FF1F1080FF1F1480FF1F00B585B0AD
:102F300000BF0020049000BF00BF039000BF00BF8F
:102F4000029000BF00BF019000BF00BF009000BF13
:102F50003848006800900098C0F3072008B905B011
:102F600000BDFFF757FF039820F0FF000390029881
:102F700000F01F000290019820F03E0020300190E8
:102F8000019820F4803000F580300190019820F401
:102F9000003000F500300190019820F4802000F509
:102FA00080200190019820F0E06000F18070019095
:102FB000019820F4601000F500200190019820F0A5
:102FC0008050019003981B49083108600298091D40
:102FD00008600198091D0860049820F00100401C59
:102FE0000490049820F00400001D0490049820F040
:102FF0000200801C04900F486C38006840F4803058
:103000000C496C39086004980A49091D086000BF22
:1030100000BF00BFBFF34F8F00BF00BF00BF00BFA6
:1030200000BF00BFBFF36F8F00BF00BF00BF00BF76
:1030300095E7000090ED00E019484069C0F380007A
:1030400028B11748406920F0040015494861144828
:103050004069C0F3001028B11148406920F0100009
:103060000F4948610E484069C0F3C00028B10C48C0
:10307000406920F008000A4948610948406900F0A9
:10308000010028B10648406920F001000449486168
:103090000348406820F040004030014948607047D4
:1030A0000000024000200149087070479181FF1F15
:1030B00000B58BB000BF1C2104A8FDF792F900BF3A
:1030C00000BF00200290039000BF00BF009001905D
:1030D00000BF01208DF800008DF806008DF8040077
:1030E0006A460221042003F087FB0121880403F0D3
:1030F000A9FC00232B220121042003F00BFC002358
:1031000028220421084603F005FC00232922082177
:10311000042003F0FFFB06208DF81E0000208DF830
:1031200021000C208DF81F0000208DF820008DF864
:103130001C008DF81D008DF81B008DF822008DF805
:1031400023008DF825008DF826008DF827008DF8D6
:1031500028008DF8290001208DF824008DF810003A
:1031600000208DF8110001208DF8120000208DF84C
:10317000130001208DF8140005208DF815000020A3
:103180008DF8160000218DF8171004A93A4806F0B2
:10319000CDF84FF49B70ADF808000420ADF80A009C
:1031A0003648039002A80BF025FBBDF90A000AF08F
:1031B000FDFDBDF90A000F210AF066FE40F2351050
:1031C000ADF808000520ADF80A002D48039002A8CC
:1031D0000BF010FBBDF90A000AF0E8FDBDF90A008A
:1031E0000F210AF051FEBDF90A000AF02AFE4FF441
:1031F0009C70ADF808000620ADF80A002148039045
:1032000002A80BF0F7FABDF90A000AF0CFFDBDF9EC
:103210000A000F210AF038FEBDF90A000AF011FE7B
:1032200040F23710ADF808000720ADF80A00164844
:10323000039002A80BF0DEFABDF90A000AF0B6FD11
:10324000BDF90A000F210AF01FFEBDF90A000AF0BD
:10325000F8FD0121084806F04DF80A20FFF7ECFBC5
:1032600001221146044806F033F9012203210248E5
:1032700006F02EF90BB000BD00000240F532000050
:103280008D32000039300000A530000010B5144820
:1032900006F056F9134908700846007855280AD1F7
:1032A00011480078012806DD10484078222802D015
:1032B00000200D4908700B4801780B48027800780F
:1032C000401C094B18700948815418460078322870
:1032D00002DB00201946087001200549087010BD66
:1032E000000002409081FF1F9381FF1FA88AFF1FEB
:1032F0009181FF1F10B56021034806F025F90120D8
:103300000249087010BD0000000002409281FF1FBA
:1033100000B587B000BF002004900590069000BF64
:1033200000BF0290039000BF00BF0090019000BF5B
:103330008DF810008DF812008DF813008DF815002F
:103340008DF8140001208DF816008DF8170001216A
:10335000C00603F077FB002325224FF40051022022
:1033600003F0D8FA002324220421052003F0D2FA26
:1033700004A9254807F078FA4FF4E131224807F014
:103380003FFA01220221204807F010F90122002112
:103390001D4807F00BF9012211461B4807F006F9FA
:1033A0004FF49370ADF808001920ADF80A001748E3
:1033B000039002A80BF01EFABDF90A0002210AF0E0
:1033C00077FDBDF90A000AF0FFFCBDF90A000AF01A
:1033D00049FD40F22510ADF808001A20ADF80A00AA
:1033E0000B48039002A80BF005FABDF90A0003216F
:1033F0000AF05EFDBDF90A000AF0E6FCBDF90A001C
:103400000AF030FD07B000BD0014024021A5000005
:103410004DA500002DE9F05F2DED028B04460F460F
:1034200091469A469FED2A0AB0EE408A4FF0000B73
:1034300000250026A846216BC1F3001121B1216BA4
:1034400001F003014D1C00E0002502261FB1BAFB6C
:10345000F7F1A1EB090800EE105AB8EE400ADFEDD3
:103460001D0A70EE200A00EE106AB8EE400A30EE37
:10347000800AF0EE000A60EE200A00EE108AB8EE34
:10348000400A80EE201AB0EE418AB0EE480AFFF7FB
:1034900091FC08B9032600E002260F49095CB8FB3D
:1034A000F1FBE16A60F31241E162C5EB5B018A1B4B
:1034B000E16A62F30401E162ABEB5B01491B8A1B29
:1034C000E16A62F30C21E162BDEC028BBDE8F09F82
:1034D00000000000000000420180FF1F026A024B52
:1034E0000B401A4302627047DF56F000026861F336
:1034F0000002026070470146086820F00100086081
:10350000086820F4004000F5004008600020704783
:10351000026861F3C71202607047026861F3082213
:1035200002607047026861F34922026070470246F8
:103530000020D3690B400BB1012000E00020704750
:1035400070B504460D46002605B10CB9042620E0EE
:10355000206820F001002060206820F4004000F581
:1035600000402060206820F00100401C20602046C0
:10357000D5E90131EA68FFF74DFF206820F04000EF
:103580002060206820F400402060206820F00100C6
:103590002060304670BD026861F38A220260704785
:1035A0002DE9F04707460E4690469946DDF820A0E3
:1035B0004FF480613846FFF7BAFF012803D10103B9
:1035C0003846FFF78BFF4FF400313846FFF7AFFF67
:1035D000012802D10220BDE8F08701213846FFF71B
:1035E0009CFF4FF4005410E0201EA4F101040CD104
:1035F0004FF400313846FFF79AFF012803D101212B
:103600003846FFF78FFF0320E5E780213846FFF7B4
:103610008EFF0028E8D07006010E384600F0EFF863
:103620004FF4005410E0201EA4F101040CD14FF41B
:1036300000313846FFF77BFF012803D101213846CE
:10364000FFF770FF0320C6E708213846FFF76FFF3A
:103650000028E8D04FF4005410E0201EA4F101042B
:103660000CD14FF400313846FFF761FF012803D138
:1036700001213846FFF756FF0420ACE74FF4806184
:103680003846FFF754FF0128E7D04146384600F09E
:10369000B6F84FF4005410E0201EA4F101040CD140
:1036A0004FF400313846FFF742FF012803D10121D2
:1036B0003846FFF737FF03208DE708213846FFF72C
:1036C00036FF0028E8D04FF4005410E0201EA4F18B
:1036D00001040CD14FF400313846FFF728FF0128D0
:1036E00003D101213846FFF71DFF032073E74FF494
:1036F00080613846FFF71BFF0128E7D001213846DB
:10370000FFF7ECFE01213846FFF702FF4FF40054AB
:1037100009E0201EA4F1010405D101213846FFF77C
:1037200001FF012057E74FF400313846FFF7FFFE55
:103730000028EED001213846FFF7F9FE0028E8D036
:103740004FF4005410E0201EA4F101040CD14FF4FA
:1037500000313846FFF7EBFE012803D1012138463E
:10376000FFF7E0FE032036E780213846FFF7DFFE53
:103770000028E8D0012000EB4600C1B2384600F036
:103780003EF8002524E04FF4005409E0201EA4F187
:10379000010405D101213846FFF7C4FE03201AE7D2
:1037A00040213846FFF7C3FE0028EFD0B86A09F879
:1037B0000500AAF10100A84204D101213846FFF713
:1037C000EAFE03E000213846FFF7E5FE681CC5B2BB
:1037D0005545D8DB4FF4005400BF01213846FFF7B0
:1037E000A1FE201EA4F1010401D10320F3E6102163
:1037F0003846FFF79CFE0028EFD00020EBE6416240
:1038000070472DE9F04706460F4690469946DDF889
:1038100020A04FF480613046FFF789FE012803D1D4
:1038200001033046FFF75AFE4FF400313046FFF7F0
:103830007EFE01280FD141023046FFF778FE0128B5
:1038400006D14FF6FF70306201213046FFF76AFE65
:103850000220BDE8F08701213046FFF75EFE4FF4FD
:10386000005410E0201EA4F101040CD14FF40031EB
:103870003046FFF75CFE012803D101213046FFF7F7
:1038800051FE0320E5E780213046FFF750FE002877
:10389000E8D07806010E3046FFF7B1FF4FF4005430
:1038A00010E0201EA4F101040CD14FF40031304689
:1038B000FFF73DFE012803D101213046FFF732FE1C
:1038C0000320C6E708213046FFF731FE0028E8D084
:1038D0004FF4005410E0201EA4F101040CD14FF469
:1038E00000313046FFF723FE012803D10121304685
:1038F000FFF718FE0420ACE74FF480613046FFF775
:1039000016FE0128E7D041463046FFF778FF4FF416
:10391000005410E0201EA4F101040CD14FF400313A
:103920003046FFF704FE012803D101213046FFF79E
:10393000F9FD03208DE708213046FFF7F8FD002848
:10394000E8D04FF4005410E0201EA4F101040CD183
:103950004FF400313046FFF7EAFD012803D1012181
:103960003046FFF7DFFD032073E74FF480613046F8
:10397000FFF7DDFD0128E7D000253BE019F8051031
:103980003046FFF73CFF4FF4005410E0201EA4F136
:1039900001040CD14FF400313046FFF7C8FD012877
:1039A00003D101213046FFF7BDFD032051E7082177
:1039B0003046FFF7BCFD0028E8D04FF4005410E07B
:1039C000201EA4F101040CD14FF400313046FFF762
:1039D000AEFD012803D101213046FFF7A3FD0320EE
:1039E00037E74FF480613046FFF7A1FD0128E7D0AB
:1039F000681CC5B25545C1DB4FF4005400BF01211E
:103A00003046FFF78FFD201EA4F1010401D10320F1
:103A10001FE710213046FFF78AFD0028EFD0002075
:103A200017E7000010B50348006810B101490868A5
:103A3000804710BDB482FF1F10B50348406810B125
:103A400001494868804710BDB482FF1F10B5034884
:103A5000806810B101498868804710BDB482FF1F9B
:103A600010B50348C06810B10149C868804710BD4F
:103A7000B482FF1F10B50348006910B101490869FD
:103A8000804710BDB482FF1F10B50348406910B1D4
:103A900001494869804710BDB482FF1F10B5034833
:103AA000806910B101498869804710BDB482FF1F49
:103AB00010B50348C06910B10149C869804710BDFD
:103AC000B482FF1F10B50348006A10B10149086AAB
:103AD000804710BDB482FF1F10B50348406A10B183
:103AE0000149486A804710BDB482FF1F10B50348E2
:103AF000806A10B10149886A804710BDB482FF1FF7
:103B000010B50348C06A10B10149C86A804710BDAA
:103B1000B482FF1F10B50348006B10B10149086B58
:103B2000804710BDB482FF1F10B50348406B10B131
:103B30000149486B804710BDB482FF1F10B5034890
:103B4000806B10B10149886B804710BDB482FF1FA4
:103B500010B50348C06B10B10149C86B804710BD58
:103B6000B482FF1F10B50348006C10B10149086C06
:103B7000804710BDB482FF1F10B50348406C10B1E0
:103B80000149486C804710BDB482FF1F10B503483F
:103B9000806C10B10149886C804710BDB482FF1F52
:103BA00010B50348C06C10B10149C86C804710BD06
:103BB000B482FF1F10B50348006D10B10149086DB4
:103BC000804710BDB482FF1F10B50348406D10B18F
:103BD0000149486D804710BDB482FF1F10B50348EE
:103BE000806D10B10149886D804710BDB482FF1F00
:103BF00010B50348C06D10B10149C86D804710BDB4
:103C0000B482FF1F10B50348006E10B10149086E61
:103C1000804710BDB482FF1F10B50348406E10B13D
:103C20000149486E804710BDB482FF1F10B503489C
:103C3000806E10B10149886E804710BDB482FF1FAD
:103C400010B50348C06E10B10149C86E804710BD61
:103C5000B482FF1F10B50348006F10B10149086F0F
:103C6000804710BDB482FF1F10B50348406F10B1EC
:103C70000149486F804710BDB482FF1F10B503484B
:103C8000806F10B10149886F804710BDB482FF1F5B
:103C900010B50348C06F10B10149C86F804710BD0F
:103CA000B482FF1F10B50448D0F8800018B1024953
:103CB000D1F88000804710BDB482FF1F10B50448C2
:103CC000D0F8840018B10249D1F88400804710BDB3
:103CD000B482FF1F10B50448D0F8880018B102491B
:103CE000D1F88800804710BDB482FF1F10B504488A
:103CF000D0F88C0018B10249D1F88C00804710BD73
:103D0000B482FF1F10B50448D0F8900018B10249E2
:103D1000D1F89000804710BDB482FF1F10B5044851
:103D2000D0F8940018B10249D1F89400804710BD32
:103D3000B482FF1F10B50448D0F8980018B10249AA
:103D4000D1F89800804710BDB482FF1F10B5044819
:103D5000D0F89C0018B10249D1F89C00804710BDF2
:103D6000B482FF1F10B50448D0F8A00018B1024972
:103D7000D1F8A000804710BDB482FF1F10B50448E1
:103D8000D0F8A40018B10249D1F8A400804710BDB2
:103D9000B482FF1F10B50448D0F8A80018B102493A
:103DA000D1F8A800804710BDB482FF1F10B50448A9
:103DB000D0F8AC0018B10249D1F8AC00804710BD72
:103DC000B482FF1F10B50448D0F8B00018B1024902
:103DD000D1F8B000804710BDB482FF1F10B5044871
:103DE000D0F8B40018B10249D1F8B400804710BD32
:103DF000B482FF1F10B50448D0F8B80018B10249CA
:103E0000D1F8B800804710BDB482FF1F10B5044838
:103E1000D0F8BC0018B10249D1F8BC00804710BDF1
:103E2000B482FF1F10B50448D0F8C00018B1024991
:103E3000D1F8C000804710BDB482FF1F10B5044800
:103E4000D0F8C40018B10249D1F8C400804710BDB1
:103E5000B482FF1F10B50448D0F8C80018B1024959
:103E6000D1F8C800804710BDB482FF1F10B50448C8
:103E7000D0F8CC0018B10249D1F8CC00804710BD71
:103E8000B482FF1F10B50448D0F8D00018B1024921
:103E9000D1F8D000804710BDB482FF1F10B5044890
:103EA000D0F8D40018B10249D1F8D400804710BD31
:103EB000B482FF1F10B50448D0F8D80018B10249E9
:103EC000D1F8D800804710BDB482FF1F10B5044858
:103ED000D0F8DC0018B10249D1F8DC00804710BDF1
:103EE000B482FF1F10B50448D0F8E00018B10249B1
:103EF000D1F8E000804710BDB482FF1F10B5044820
:103F0000D0F8E40018B10249D1F8E400804710BDB0
:103F1000B482FF1F10B50448D0F8E80018B1024978
:103F2000D1F8E800804710BDB482FF1F10B50448E7
:103F3000D0F8EC0018B10249D1F8EC00804710BD70
:103F4000B482FF1F10B50448D0F8F00018B1024940
:103F5000D1F8F000804710BDB482FF1F10B50448AF
:103F6000D0F8F40018B10249D1F8F400804710BD30
:103F7000B482FF1F10B50448D0F8F80018B1024908
:103F8000D1F8F800804710BDB482FF1F10B5044877
:103F9000D0F8FC0018B10249D1F8FC00804710BDF0
:103FA000B482FF1F10B50448D0F8000118B10249CF
:103FB000D1F80001804710BDB482FF1F10B504483E
:103FC000D0F8040118B10249D1F80401804710BDAE
:103FD000B482FF1F10B50448D0F8080118B1024997
:103FE000D1F80801804710BDB482FF1F10B5044806
:103FF000D0F80C0118B10249D1F80C01804710BD6E
:10400000B482FF1F10B50448D0F8100118B102495E
:10401000D1F81001804710BDB482FF1F10B50448CD
:10402000D0F8140118B10249D1F81401804710BD2D
:10403000B482FF1F10B50448D0F8180118B1024926
:10404000D1F81801804710BDB482FF1F10B5044895
:10405000D0F81C0118B10249D1F81C01804710BDED
:10406000B482FF1F10B50448D0F8200118B10249EE
:10407000D1F82001804710BDB482FF1F10B504485D
:10408000D0F8240118B10249D1F82401804710BDAD
:10409000B482FF1F10B50448D0F8280118B10249B6
:1040A000D1F82801804710BDB482FF1F10B5044825
:1040B000D0F82C0118B10249D1F82C01804710BD6D
:1040C000B482FF1F10B50448D0F8300118B102497E
:1040D000D1F83001804710BDB482FF1F10B50448ED
:1040E000D0F8340118B10249D1F83401804710BD2D
:1040F000B482FF1F10B50448D0F8380118B1024946
:10410000D1F83801804710BDB482FF1F10B50448B4
:10411000D0F83C0118B10249D1F83C01804710BDEC
:10412000B482FF1F10B50448D0F8400118B102490D
:10413000D1F84001804710BDB482FF1F10B504487C
:10414000D0F8440118B10249D1F84401804710BDAC
:10415000B482FF1F10B50448D0F8480118B10249D5
:10416000D1F84801804710BDB482FF1F10B5044844
:10417000D0F84C0118B10249D1F84C01804710BD6C
:10418000B482FF1F10B50448D0F8500118B102499D
:10419000D1F85001804710BDB482FF1F10B504480C
:1041A000D0F8540118B10249D1F85401804710BD2C
:1041B000B482FF1F10B50448D0F8580118B1024965
:1041C000D1F85801804710BDB482FF1F10B50448D4
:1041D000D0F85C0118B10249D1F85C01804710BDEC
:1041E000B482FF1F10B50448D0F8600118B102492D
:1041F000D1F86001804710BDB482FF1F10B504489C
:10420000D0F8640118B10249D1F86401804710BDAB
:10421000B482FF1F10B50448D0F8680118B10249F4
:10422000D1F86801804710BDB482FF1F10B5044863
:10423000D0F86C0118B10249D1F86C01804710BD6B
:10424000B482FF1F10B50448D0F8700118B10249BC
:10425000D1F87001804710BDB482FF1F10B504482B
:10426000D0F8740118B10249D1F87401804710BD2B
:10427000B482FF1F10B50448D0F8780118B1024984
:10428000D1F87801804710BDB482FF1F10B50448F3
:10429000D0F87C0118B10249D1F87C01804710BDEB
:1042A000B482FF1F10B50448D0F8800118B102494C
:1042B000D1F88001804710BDB482FF1F10B50448BB
:1042C000D0F8840118B10249D1F88401804710BDAB
:1042D000B482FF1F10B50448D0F8880118B1024914
:1042E000D1F88801804710BDB482FF1F10B5044883
:1042F000D0F88C0118B10249D1F88C01804710BD6B
:10430000B482FF1F10B50448D0F8900118B10249DB
:10431000D1F89001804710BDB482FF1F10B504484A
:10432000D0F8940118B10249D1F89401804710BD2A
:10433000B482FF1F10B50448D0F8980118B10249A3
:10434000D1F89801804710BDB482FF1F10B5044812
:10435000D0F89C0118B10249D1F89C01804710BDEA
:10436000B482FF1F10B50448D0F8A00118B102496B
:10437000D1F8A001804710BDB482FF1F10B50448DA
:10438000D0F8A40118B10249D1F8A401804710BDAA
:10439000B482FF1F10B50448D0F8A80118B1024933
:1043A000D1F8A801804710BDB482FF1F10B50448A2
:1043B000D0F8AC0118B10249D1F8AC01804710BD6A
:1043C000B482FF1F10B50448D0F8B00118B10249FB
:1043D000D1F8B001804710BDB482FF1F10B504486A
:1043E000D0F8B40118B10249D1F8B401804710BD2A
:1043F000B482FF1F10B50448D0F8B80118B10249C3
:10440000D1F8B801804710BDB482FF1F10B5044831
:10441000D0F8BC0118B10249D1F8BC01804710BDE9
:10442000B482FF1F10B50448D0F8C00118B102498A
:10443000D1F8C001804710BDB482FF1F10B50448F9
:10444000D0F8C40118B10249D1F8C401804710BDA9
:10445000B482FF1F10B50448D0F8C80118B1024952
:10446000D1F8C801804710BDB482FF1F10B50448C1
:10447000D0F8CC0118B10249D1F8CC01804710BD69
:10448000B482FF1F10B50448D0F8D00118B102491A
:10449000D1F8D001804710BDB482FF1F10B5044889
:1044A000D0F8D40118B10249D1F8D401804710BD29
:1044B000B482FF1F10B50448D0F8D80118B10249E2
:1044C000D1F8D801804710BDB482FF1F10B5044851
:1044D000D0F8DC0118B10249D1F8DC01804710BDE9
:1044E000B482FF1F10B50448D0F8E00118B10249AA
:1044F000D1F8E001804710BDB482FF1F10B5044819
:10450000D0F8E40118B10249D1F8E401804710BDA8
:10451000B482FF1F10B50448D0F8E80118B1024971
:10452000D1F8E801804710BDB482FF1F10B50448E0
:10453000D0F8EC0118B10249D1F8EC01804710BD68
:10454000B482FF1F10B50448D0F8F00118B1024939
:10455000D1F8F001804710BDB482FF1F10B50448A8
:10456000D0F8F40118B10249D1F8F401804710BD28
:10457000B482FF1F10B50448D0F8F80118B1024901
:10458000D1F8F801804710BDB482FF1F10B5044870
:10459000D0F8FC0118B10249D1F8FC01804710BDE8
:1045A000B482FF1F10B551480468514800680128C3
:1045B00004D104F0010008B1AFF300804C48001DA5
:1045C0000068012804D104F0020008B1AFF30080B4
:1045D000474808300068012804D104F0040008B1FD
:1045E000AFF3008042480C300068012804D104F089
:1045F000080008B1AFF300803D4810300068012882
:1046000004D104F0100008B1AFF300803848143032
:104610000068012804D104F0200008B1AFF3008045
:10462000334818300068012804D104F0400008B174
:10463000AFF300802E481C300068012804D104F03C
:10464000800008B1AFF300802948203000680128BD
:1046500004D104F4807008B1AFF300802448243002
:104660000068012804D104F4007008B1AFF30080A1
:104670001F4828300068012804D104F4806008B184
:10468000AFF300801A482C300068012804D104F4EC
:10469000006008B1AFF30080154830300068012891
:1046A00004D104F4805008B1AFF3008010483430D6
:1046B0000068012804D104F4005008B1AFF3008071
:1046C0000B4838300068012804D104F4804008B158
:1046D000AFF3008006483C300068012804D104F4A0
:1046E000004008B1AFF3008010BD00005C1205402F
:1046F000800AA24270B5FE48046800260025FD48E5
:10470000006801282BD1FC48006840B9FB480068CC
:10471000012804D104F0010008B1AFF30080F6488D
:104720004030006848B9F54840300068012804D19D
:1047300004F4807008B1AFF30080F148406800F0E5
:104740000116EF48C1684FF0011020EA010506EAA2
:10475000050020B104F4803008B1AFF30080E948CF
:10476000006801282DD1E448001D006848B9E348DD
:10477000001D0068012804D104F0020008B1AFF365
:104780000080DD484430006848B9DC4844300068A7
:10479000012804D104F4007008B1AFF30080D848B8
:1047A000406800F00216D648C1684FF0021020EAB7
:1047B000010506EA050020B104F4803008B1AFF32A
:1047C0000080D148006801282DD1CB48083000680E
:1047D00048B9CA4808300068012804D104F0040030
:1047E00008B1AFF30080C4484830006848B9C348F6
:1047F00048300068012804D104F4806008B1AFF3A8
:104800000080BF48406800F00416BD48C1684FF002
:10481000041020EA010506EA050020B104F4803006
:1048200008B1AFF30080B948006801282DD1B24823
:104830000C30006848B9B1480C300068012804D138
:1048400004F0080008B1AFF30080AB484C300068BA
:1048500048B9AA484C300068012804D104F400602B
:1048600008B1AFF30080A648406800F00816A448DD
:10487000C1684FF0081020EA010506EA050020B1E2
:1048800004F4803008B1AFF30080A148006801282B
:104890002CD1A048006840B99F480068012804D185
:1048A00004F0100008B1AFF300809A48403000686F
:1048B00048B9994840300068012804D104F4805078
:1048C00008B1AFF300809548006800F001169348E6
:1048D000083001684FF0011020EA010506EA0500E2
:1048E00020B104F4003008B1AFF300808C480068B8
:1048F00001282ED18748001D006848B98648001D50
:104900000068012804D104F0200008B1AFF3008052
:1049100080484430006848B978484430006801282D
:1049200004D104F4005008B1AFF300807B48006864
:1049300000F002167948083001684FF0021020EAB2
:10494000010506EA050020B104F4003008B1AFF318
:1049500000807448006801282ED16E480830006835
:1049600048B96D4808300068012804D104F04000BF
:1049700008B1AFF3008067484830006848B95F4825
:1049800048300068012804D104F4804008B1AFF336
:1049900000806248006800F0041660480830016832
:1049A0004FF0041020EA010506EA050020B104F4E6
:1049B000003008B1AFF300805B48006801282ED1B9
:1049C00054480C30006848B953480C30006801283E
:1049D00004D104F0800008B1AFF300804D484C30A2
:1049E000006848B945484C300068012804D104F4F7
:1049F000004008B1AFF300804848006800F0081696
:104A00004648083001684FF0081020EA010506EA20
:104A1000050020B104F4003008B1AFF30080434832
:104A20000068012809D14248006800F00F0020B159
:104A300004F4802008B1AFF300803C4808300068DF
:104A4000012809D13948EC380068012804D104F460
:104A5000002008B1AFF300803448001D0068012831
:104A600009D13248F0380068012804D104F48010DC
:104A700008B1AFF300804FF01C40C068C0F3C01015
:104A800020B104F4800008B1AFF3008029488669A2
:104A9000456806EA050000F07F0020B104F400003C
:104AA00008B1AFF30080244806682348143805682D
:104AB00006EA050000F07F0020B104F0807008B124
:104AC000AFF300801D4806681C481438056806EAE4
:104AD000050000F07F0020B104F0007008B1AFF3D2
:104AE0000080174806681648143805682AE0000058
:104AF00060120540B00BA6420002A6420001A64289
:104B000000300540B013A642B01BA642B023A64217
:104B1000B08BA6420082A6420081A6420434054022
:104B2000B093A642B09BA642B0A3A6420083204207
:104B300010040140002005401824054018280540B5
:104B4000182C054006EA050000F07F0020B104F0B3
:104B5000806008B1AFF3008070BD000010B52F4831
:104B600004682F48D0F80802012808D12D480068B1
:104B7000012804D104F0010008B1AFF300802948F6
:104B800038380068012809D12648403000680128DB
:104B900004D104F0020008B1AFF30080224800689D
:104BA000012809D1204878300068012804D104F098
:104BB000040008B1AFF300801B48403000680128B2
:104BC00009D11948B8300068012804D104F0080060
:104BD00008B1AFF3008015480068012809D11348D7
:104BE00020300068012804D104F4001008B1AFF3AC
:104BF00000800F48006B012804D104F4800008B144
:104C0000AFF300800B48006800F4403020B104F49A
:104C1000000008B1AFF3008010BD00006412054031
:104C20000000484280024842088248420008A842E8
:104C3000008098420494044070B5AA480468002695
:104C40000025A9480068012808D1A8480068012863
:104C500004D104F0010008B1AFF30080A248001DA8
:104C60000068012809D1A148001D0068012804D16D
:104C700004F0020008B1AFF300809B4808300068E0
:104C8000012809D1994808300068012804D104F0AE
:104C9000040008B1AFF3008093480C30006801288D
:104CA00009D192480C300068012804D104F00800B2
:104CB00008B1AFF300808C4810300068012809D19A
:104CC0008A4810300068012804D104F0100008B1AF
:104CD000AFF30080844814300068012809D183486C
:104CE00014300068012804D104F0200008B1AFF3AB
:104CF00000807D4818300068012809D17B481830B1
:104D00000068012804D104F0400008B1AFF300802E
:104D100075481C300068012809D174481C300068AF
:104D2000012804D104F0800008B1AFF300806E4880
:104D300020300068012809D16C4820300068012823
:104D400004D104F4807008B1AFF300806848406D6E
:104D500000F44030C6096648006F00F4C06506EAFA
:104D6000050020B104F4006008B1AFF30080604892
:104D7000406D00F44020C6095D48006F00F4C05546
:104D800006EA050020B104F4805008B1AFF30080BA
:104D900058480068012808D157480068012804D104
:104DA00004F4803008B1AFF300805248001D006861
:104DB000012809D15048001D0068012804D104F4DD
:104DC000003008B1AFF300804A480830006801287D
:104DD00009D1494808300068012804D104F4802032
:104DE00008B1AFF3008043480C300068012809D1B6
:104DF00041480C300068012804D104F4002008B1B7
:104E0000AFF300803B4810300068012809D13A48D0
:104E100010300068012804D104F4801008B1AFF309
:104E20000080344814300068012809D13248143019
:104E30000068012804D104F4001008B1AFF3008029
:104E40002C4818300068012809D12B481830006818
:104E5000012804D104F4800008B1AFF30080254894
:104E60001C300068012809D123481C300068012843
:104E700004D104F4000008B1AFF300801D482030D5
:104E80000068012809D11C4820300068012804D19D
:104E900004F0807008B1AFF300801848006800F497
:104EA0004030C60915481C30006800F4C06506EAA9
:104EB000050020B104F0006008B1AFF300800F4896
:104EC000006800F44020C6090C481C30006800F45B
:104ED000C05506EA050020B104F0805008B1AFF3D8
:104EE000008070BD68120540800A3042000E3042DA
:104EF00000800140808A3042008E3042548401405C
:104F000070B55748046800260025564800680128F7
:104F100008D155480068012804D104F0010008B107
:104F2000AFF300804F48001D0068012809D14E48AA
:104F3000001D0068012804D104F0020008B1AFF39D
:104F40000080484808300068012809D146480830E8
:104F50000068012804D104F0040008B1AFF3008018
:104F600040480C300068012809D13F480C300068E7
:104F7000012804D104F0080008B1AFF300803948DB
:104F800010300068012809D1374810300068012826
:104F900004D104F0100008B1AFF3008031481430A0
:104FA0000068012809D1304814300068012804D174
:104FB00004F0200008B1AFF300802A4818300068E0
:104FC000012809D1284818300068012804D104F0CC
:104FD000400008B1AFF3008022481C30006801286F
:104FE00009D121481C300068012804D104F0800058
:104FF00008B1AFF300801B4820300068012809D1B8
:10500000194820300068012804D104F4807008B1E8
:10501000AFF300801548006800F44030C60913481B
:105020001C30006800F4C06506EA050020B104F4F5
:10503000006008B1AFF300800C48006800F4402025
:10504000C6090A481C30006800F4C05506EA05008D
:1050500020B104F4805008B1AFF3008070BD0000AF
:105060006C120540800A3142000E314254880140E2
:1050700070B500240026BA480568BA48D0F88040C8
:1050800004F4805038B104F4804020B105F00100F0
:1050900008B1AFF3008004F4005038B104F40040CC
:1050A00020B105F0020008B1AFF30080AD489030A8
:1050B0000468AC48D0F89C6004EA0600C0B220B195
:1050C00005F0040008B1AFF30080A748046804F4B9
:1050D000805038B104F4804020B105F0080008B1D8
:1050E000AFF3008004F4005038B104F4004020B164
:1050F00005F0100008B1AFF300809B481030046841
:1051000099481C30066804EA0600C0B220B105F0D8
:10511000200008B1AFF300809448046804F4805084
:1051200038B104F4804020B105F0400008B1AFF37D
:10513000008004F4005038B104F4004020B105F0C0
:10514000800008B1AFF300808848103004688748B9
:105150001C30066804EA0600C0B220B105F4807075
:1051600008B1AFF300808248046804F4805038B17D
:1051700004F4804020B105F4007008B1AFF3008062
:1051800004F4005038B104F4004020B105F480600C
:1051900008B1AFF3008076481030046874481C30C2
:1051A000066804EA0600C0B220B105F4006008B148
:1051B000AFF300806F48046804F4805038B104F401
:1051C000804020B105F4805008B1AFF3008004F4B2
:1051D000005038B104F4004020B105F4005008B18B
:1051E000AFF3008063481030046862488038D0F81C
:1051F0009C6004EA0600C0B220B105F4804008B10A
:10520000AFF300805C48046804F4805038B104F4C3
:10521000804020B105F4803008B1AFF3008004F481
:10522000005038B104F4004020B105F4003008B15A
:10523000AFF300805048103004684F481C300668B7
:1052400004EA0600C0B220B105F4802008B1AFF333
:1052500000804A480068012810D1494880694949BE
:1052600000EA01044648406900EA010604EA060033
:1052700020B105F4002008B1AFF300804248046873
:10528000C66806F0200038B104F00B0020B105F428
:10529000800008B1AFF3008006EA040000F02000AF
:1052A00020B105F4000008B1AFF3008006EA040065
:1052B00000F0800020B105F0807008B1AFF30080ED
:1052C00006EA040000F0400020B105F0007008B1CB
:1052D000AFF3008006F0020038B104F4807020B112
:1052E00005F0806008B1AFF30080284804682748C3
:1052F0000C30066806F0200038B104F00B0020B135
:1053000005F0006008B1AFF3008006EA040000F089
:10531000200020B105F0805008B1AFF3008006EA0C
:10532000040000F0800020B105F0005008B1AFF398
:10533000008006EA040000F0400020B105F0804043
:1053400008B1AFF3008006F0020038B104F48070B9
:1053500020B105F0004008B1AFF3008070BD00003F
:105360007C120540005001408054014080580140AB
:10537000805C014080600140806401400001804306
:1053800000000C40FBFC7CF700D0014000D4014041
:1053900070B5002400269948056899480468C668D5
:1053A00006F0200038B104F00B0020B105F0010038
:1053B00008B1AFF3008006EA040000F0200020B13D
:1053C00005F0020008B1AFF3008006EA040000F027
:1053D000800020B105F0040008B1AFF3008006EAB8
:1053E000040000F0400020B105F0080008B1AFF360
:1053F000008006F0020038B104F4807020B105F09E
:10540000100008B1AFF300807E4804687D480C307E
:10541000066806F0200038B104F00B0020B105F05A
:10542000200008B1AFF3008006EA040000F020007D
:1054300020B105F0400008B1AFF3008006EA040097
:1054400000F0800020B105F0800008B1AFF30080CB
:1054500006EA040000F0400020B105F4807008B1B5
:10546000AFF3008006F0020038B104F4807020B180
:1054700005F4007008B1AFF30080634844684669E2
:1054800004F4806038B106F0800020B105F40060BB
:1054900008B1AFF3008004F4007038B106F02000CA
:1054A00020B105F4805008B1AFF3008004F400602F
:1054B00038B106F0010020B905F4005008B1AFF38F
:1054C000008004F4807038B106F01D0020B105F4AE
:1054D000804008B1AFF300804C4804684B4810305E
:1054E000066804F4806038B106F0800020B105F44D
:1054F000803008B1AFF3008004F4007038B106F0DA
:10550000200020B105F4003008B1AFF3008004F4AE
:10551000006038B106F0010020B905F4802008B120
:10552000AFF3008004F4807038B106F01D0020B1A4
:1055300005F4002008B1AFF300803548446846699F
:1055400004F4806038B106F0800020B105F400104A
:1055500008B1AFF3008004F4007038B106F0200009
:1055600020B105F4800008B1AFF3008004F40060BE
:1055700038B106F0010020B905F4000008B1AFF31E
:10558000008004F4807038B106F01D0020B105F0F1
:10559000807008B1AFF300801E4804681D481030C9
:1055A000066804F4806038B106F0800020B105F090
:1055B000806008B1AFF3008004F4007038B106F0E9
:1055C000200020B105F0006008B1AFF3008004F4C2
:1055D000006038B106F0010020B905F0805008B134
:1055E000AFF3008004F4807038B106F01D0020B1E4
:1055F00005F0005008B1AFF3008070BD8012054087
:10560000001002400014024000C0014004C40140E8
:10561000000002400404024070B500248A48056876
:105620008A48048B05F0010038B104F0100020B165
:1056300004F0400008B1AFF3008005F0020038B17B
:1056400004F0200020B104F0800008B1AFF3008026
:105650007E48848B05F0040038B104F0100020B1BE
:1056600004F0400008B1AFF3008005F0080038B145
:1056700004F0200020B104F0800008B1AFF30080F6
:105680007248048C05F0100038B104F0100020B10D
:1056900004F0400008B1AFF3008005F0200038B1FD
:1056A00004F0200020B104F0800008B1AFF30080C6
:1056B00066484830048805F0400038B104F4807032
:1056C00020B104F4007008B1AFF3008005F0800051
:1056D00038B104F4005020B104F4804008B1AFF3B5
:1056E00000805A48A430048805F4807040B104F06A
:1056F0000100C04320B104F0100008B1AFF30080F6
:1057000005F4007040B104F00200C04320B104F47D
:10571000807008B1AFF3008005F4806040B104F000
:105720000400C04320B104F4805008B1AFF30080FE
:105730004748048805F4803038B104F0100020B1E7
:1057400004F0400008B1AFF3008005F4003038B138
:1057500004F0200020B104F0800008B1AFF3008015
:105760003B48001D048805F4802038B104F0100087
:1057700020B104F0400008B1AFF3008005F4002030
:1057800038B104F0200020B104F0800008B1AFF37C
:1057900000802F480830048805F4801038B104F0E8
:1057A000100020B104F0400008B1AFF3008005F410
:1057B000001038B104F0200020B104F0800008B1DE
:1057C000AFF3008022483030048805F4800038B1FF
:1057D00004F4807020B104F4007008B1AFF30080CD
:1057E00005F4000038B104F4005020B104F4804006
:1057F00008B1AFF3008016488C30048805F0807043
:1058000040B104F00100C04320B104F0100008B121
:10581000AFF3008005F0007040B104F00200C04317
:1058200020B104F4807008B1AFF3008005F080600F
:1058300040B104F00400C04320B104F4805008B12A
:10584000AFF3008070BD000084120540007001407D
:105850001848024070B50024464805684648048848
:1058600005F0010038B104F0100020B104F0400050
:1058700008B1AFF3008005F0020038B104F0200059
:1058800020B104F0800008B1AFF300803A48001D59
:10589000048805F0040038B104F0100020B104F0D1
:1058A000400008B1AFF3008005F0080038B104F003
:1058B000200020B104F0800008B1AFF300802E4832
:1058C0000830048805F0100038B104F0100020B151
:1058D00004F0400008B1AFF3008005F0200038B1BB
:1058E00004F0200020B104F0800008B1AFF3008084
:1058F00021483030048805F0400038B104F480704D
:1059000020B104F4007008B1AFF3008005F080000E
:1059100038B104F4005020B104F4804008B1AFF372
:10592000008015488C30048805F4807040B104F084
:105930000100C04320B104F0100008B1AFF30080B3
:1059400005F4007040B104F00200C04320B104F43B
:10595000807008B1AFF3008005F4806040B104F0BE
:105960000400C04320B104F4805008B1AFF30080BC
:1059700070BD000088120540184C024070B57A488E
:105980000468002600257948006800F00F06774873
:105990000830006800F00F0506EA050020B104F0A9
:1059A000400008B1AFF3008070482030006800F07C
:1059B0000F066E482830006800F00F0506EA050063
:1059C00020B104F0800008B1AFF300806748403098
:1059D000006800F00F0665484830006800F00F05C9
:1059E00006EA050020B104F4807008B1AFF300802E
:1059F0005E486030006800F00F065C486830006860
:105A000000F00F0506EA050020B104F4007008B1AB
:105A1000AFF3008056484068012809D154488030CF
:105A20000068012804D104F4803008B1AFF300808D
:105A30004F48C068012809D14D48843000680128CA
:105A400004D104F4003008B1AFF300804848006985
:105A5000012809D14748806800F0030020B104F410
:105A6000802008B1AFF3008043484068012809D185
:105A7000414880300068012804D104F4002008B1B6
:105A8000AFF300803C48C068012809D13A4884300F
:105A90000068012804D104F4801008B1AFF300803D
:105AA00035480069012809D13448006800F0030036
:105AB00020B104F4001008B1AFF300803048406812
:105AC000012809D12E4880300068012804D104F44F
:105AD000800008B1AFF300802948C068012809D1CF
