:020000040000FA
:10000000088FFF1F59030000713D0000DD10000044
:10001000693D0000BD0500003557000000000000EC
:100020000000000000000000000000009D02000031
:100030001D10000000000000F102000061430000FC
:100040007D17000091170000A5170000B9170000E8
:10005000CD170000E1170000F51700000918000097
:100060001D18000031180000451800005918000044
:100070006D1800008118000095180000A9180000F4
:10008000BD180000D1180000E5180000F9180000A4
:100090000D19000021190000351900004919000050
:1000A0005D19000071190000851900009919000000
:1000B000AD190000C1190000D5190000E9190000B0
:1000C000FD190000151A00002D1A0000451A000045
:1000D0005D1A0000751A00008D1A0000A51A0000B4
:1000E000BD1A0000D51A0000ED1A0000051B000023
:1000F0001D1B0000351B00004D1B0000651B000090
:100100007D1B0000951B0000AD1B0000C51B0000FF
:10011000DD1B0000F51B00000D1C0000251C00006D
:100120003D1C0000551C00006D1C0000851C0000DB
:100130009D1C0000B51C0000CD1C0000E51C00004B
:10014000FD1C0000151D00002D1D0000451D0000B8
:100150005D1D0000751D00008D1D0000A51D000027
:10016000BD1D0000D51D0000ED1D0000051E000096
:100170001D1E0000351E00004D1E0000651E000003
:100180007D1E0000951E0000AD1E0000C51E000073
:10019000DD1E0000F51E00000D1F0000251F0000E1
:1001A0003D1F0000551F00006D1F0000851F00004F
:1001B0009D1F0000B51F0000CD1F0000E51F0000BF
:1001C000FD1F0000152000002D200000452000002C
:1001D0005D200000752000008D200000A52000009B
:1001E000BD200000D5200000ED200000052100000A
:1001F0001D210000352100004D2100006521000077
:100200007D21000095210000AD210000C5210000E6
:10021000DD210000F52100000D2200002522000054
:100220003D220000552200006D22000085220000C2
:100230009D220000B5220000CD220000E522000032
:10024000FD2200004D240000B52800009129000087
:10025000592C00009B0300009B0300009B0300003F
:10026000C92D0000E930000071330000AD350000F9
:10027000D5360000E9380000453B0000593C00003D
:10028000DFF814D000F054F900F0A4F8004800475B
:10029000FD5B000000F02BF9088FFF1F2B4B196846
:1002A0000868B0E8F04F80F30988BFF36F8F4FF014
:1002B000000080F3118870470000000006480068C5
:1002C000006880F3088862B661B6BFF34F8FBFF352
:1002D0006F8F00DF00BF00BF08ED00E0DFF80C000B
:1002E000016841F470010160704700BF88ED00E0D3
:1002F000EFF30980BFF36F8F144B1A681EF0100FD5
:1003000008BF20ED108A20E9F04F106008B44FF0CC
:10031000500080F31188BFF34F8FBFF36F8F05F04C
:1003200003FD4FF0000080F3118808BC19680868CD
:10033000B0E8F04F1EF0100F08BFB0EC108A80F349
:100340000988BFF36F8F704700BF00BF8880FF1F11
:10035000EFF305807047000010484FF0770101600F
:100360000F484FF0770101600E484FF4885101604B
:100370000A484FF07601016009484FF076010160AC
:100380000948804709480047FEE7FEE7FEE7FEE729
:10039000FEE7FEE7FEE7FEE7FEE7FEE704080540AE
:1003A0000C08054000080540594400008102000087
:1003B000D2B201E000F8012B491EFBD270470022A7
:1003C000F6E710B513460A4604461946FFF7F0FF54
:1003D000204610BD70B5054C054D03E02068204453
:1003E0008047241DAC42F9D170BD0000805F000041
:1003F000845F000000487047DC80FF1F7047704733
:10040000FFFFFFFFFFFFFFFFFFFFFFFFFFFFFFFFFC
:10041000FFFFFFFFFFFFFFFFFFFFFFFFFFFFFFFFEC
:100420002DE9F05F0546002092469B468846064629
:10043000814640241BE0284641464746224600F0BC
:1004400046F853465A46C01A914110D311461846F1
:10045000224600F02DF82D1A67EB01084F46224680
:100460000120002100F024F817EB00094E41201E66
:10047000A4F10104DFDC484631462A464346BDE884
:10048000F09F2DE9F041074615460E46102005F075
:10049000D3FB04000AD06760C4E90265FFF7AAFF36
:1004A0000168216004600020BDE8F0810120FBE7C5
:1004B000202A04DB203A00FA02F100207047914024
:1004C000C2F1200320FA03F3194390407047202A19
:1004D00004DB203A21FA02F00021704721FA02F3EE
:1004E000D040C2F1200291400843194670472DE9DF
:1004F000F0410646FFF77EFF8046454613E016B101
:10050000E068B0420ED120682860D4E90101D8F833
:1005100000708847204605F0C5F9D8F80000B842B9
:10052000EBD100E025462C68002CE8D1BDE8F08135
:10053000064C074D06E0E06840F0010394E8070030
:1005400098471034AC42F6D3FFF79EFE605F000080
:10055000805F00002DE9F04705460E46144600274F
:100560000021284604F0C1FA80460121284604F003
:10057000BCFA8146012C07D1B8F1010F02D0B9F1C4
:10058000010F08D1012706E03146284604F0ADFAF4
:10059000012800D10127012F0BD1002001E000BF6D
:1005A000401C0549096842F21072B1FBF2F1814228
:1005B000F5D8BDE8F08700008080FF1F10B5AFF3CD
:1005C000008010BD70B50021002200240023002807
:1005D0007ED0444D2D7805F00705052D16D2DFE8B5
:1005E00005F003070A0E11003F4D2D6805603CE041
:1005F0003E4D056039E04FF40045056035E03B4D68
:10060000056032E04FF4004505602EE0354DDA35E7
:100610002D68C5F3C013334D263DD5F800512A0F80
:10062000304DDA352D68C5F308212E4D263DD5F81D
:10063000005105F01F0453B9651C2C4EB6FBF5F5AF
:100640004E1C7543561CB5FBF6F505600CE0012BFE
:100650000AD1254D2E68651CB6FBF5F54E1C754379
:10066000561CB5FBF6F5056000BF00BF1D4E263ECB
:100670000568366AC6F30266F5404560194E263EA7
:100680000568366AC6F30256F5408560154E263E6B
:100690000568366A06F00706F540C560114E263E2D
:1006A0000568366AC6F30216F54005610D4E263E12
:1006B0000568366AC6F30226F5404561094E263EB6
:1006C0000568366AC6F30236F5408561054E00E0DE
:1006D00006E0263E0568366AC6F30246F540C56167
:1006E00070BD0000264005407C80FF1F00127A008C
:1006F0002DE9F04F0021002600278C460022002320
:10070000884689468A460024DFF828B2DBF800B123
:10071000CBF3C015DFF81CB2DBF800B14FEA1B7653
:10072000DFF810B2DBF800B1CBF30367DFF804B2F7
:10073000DBF800B1CBF3035CDFF8F8B1DBF800B114
:10074000CBF30821DFF8ECB1DBF800B10BF01F02AE
:10075000DFF8E0B1DBF804B14FEA1B78DFF8D4B181
:10076000DBF804B1CBF30369DFF8C8B1DBF804B1FF
:10077000CBF3035ADFF8BCB1DBF804B1CBF30823A9
:10078000DFF8B0B1DBF804B10BF01F04F5BB02F1E8
:10079000010BDFF8A4E1BEFBFBFB01F1010E0BFB3B
:1007A0000EFB06F1010EBBFBFEFBC0F800B002F130
:1007B000010BDFF884E1BEFBFBFB01F1010E0BFB3B
:1007C0000EFB07F1010EBBFBFEFBC0F804B002F10B
:1007D000010BDFF864E1BEFBFBFB01F1010E0BFB3B
:1007E0000EFB0CF1010EBBFBFEFBC0F808B004F1E0
:1007F000010BDFF844E1BEFBFBFB03F1010E0BFB39
:100800000EFB08F1010EBBFBFEFB00E022E0C0F88E
:100810000CB004F1010BDFF820E1BEFBFBFB03F1A0
:10082000010E0BFB0EFB09F1010EBBFBFEFBC0F83A
:1008300010B004F1010BDFF800E1BEFBFBFB03F19C
:10084000010E0BFB0EFB0AF1010EBBFBFEFBC0F819
:1008500014B06DE0012D6BD1DFF8E0B0DBF800B033
:1008600002F1010EBBFBFEFB01F1010E0BFB0EFBC7
:1008700006F1010EBBFBFEFBC0F800B0DFF8BCB018
:10088000DBF800B002F1010EBBFBFEFB01F1010E33
:100890000BFB0EFB07F1010EBBFBFEFBC0F804B027
:1008A000DFF898B0DBF800B002F1010EBBFBFEFBF5
:1008B00001F1010E0BFB0EFB0CF1010EBBFBFEFB6D
:1008C000C0F808B0DFF874B0DBF800B004F1010E36
:1008D000BBFBFEFB03F1010E0BFB0EFB08F1010E4F
:1008E000BBFBFEFBC0F80CB0DFF850B0DBF800B08B
:1008F00004F1010EBBFBFEFB03F1010E0BFB0EFB33
:1009000009F1010EBBFBFEFBC0F810B0DFF82CB004
:10091000DBF800B004F1010EBBFBFEFB03F1010E9E
:100920000BFB0EFB0AF1010EBBFBFEFBC0F814B083
:10093000BDE8F08F0040054000127A007C80FF1F68
:1009400010B586B004460020059031480068049038
:100950002F48406803902E48806802902C48C06859
:1009600001902C482A4908612B48007800F00700C4
:10097000052801D0052C0DD1284825490860C01252
:1009800048608860C86000BF0598401C05900598C5
:10099000B028F9D3224800884AF2015108431E4981
:1009A0002639A1F8FE03084690F8260064F30200F9
:1009B00081F826000846B0F8FE034FF6FE710840A5
:1009C00040F4254014492639A1F8FE030020059083
:1009D00000BF0598401C05900598B028F9D30C4934
:1009E0000498086003984860029888600198C8607D
:1009F0000848401E08610020059000BF0598401C73
:100A000005900598B028F9D303F0B0FC06B010BDEE
:100A1000008004400100A5A526400540EEFAFFFF36
:100A2000FE43054010B500BF00F15C0303EB8113EA
:100A30001B6823F003031478234300F15C0404EBE8
:100A40008114236000BF00BF00F15C0303EB81133E
:100A50001B6823F00C03547843EA840400F15C0320
:100A600003EB81131C6000BF00BF00F15C0303EBCC
:100A700081131B6823F01003947843EA041400F1F7
:100A80005C0303EB81131C6000BF00BF00F15C033B
:100A900003EB81131B6823F02003D47843EA44144A
:100AA00000F15C0303EB81131C6000BF00BF00F189
:100AB0005C0303EB81131B6823F04003147943EAC2
:100AC000841400F15C0303EB81131C6000BF00BFC2
:100AD00000F15C0303EB81131B6823F0800354795E
:100AE00043EAC41400F15C0303EB81131C6000BFF4
:100AF00000BF00F15C0303EB81131B6823F4407318
:100B0000947943EA042400F15C0303EB81131C6035
:100B100000BF00BF00F15C0303EB81131B6823F4EB
:100B20008063D47943EA842400F15C0303EB8113EE
:100B30001C6000BF00BF00F15C0303EB81131B6866
:100B400023F40063147A43EAC42400F15C0303EB4A
:100B500081131C6000BF00BF00F15C0303EB811335
:100B60001B6823F48053547A43EA043400F15C0395
:100B700003EB81131C6000BF10BD0000F0B50346FD
:100B80001546002200265F48007800286FD101201A
:100B90005C4F3870DF69884027EA0006002E67D076
:100BA000D86900F00100D8B1D1B1986C040C986EEE
:100BB0000A27B7EB104F13D3986EB4EB104F0FD931
:100BC00009E0501C82B2B2F5A04F04D900204D4F6D
:100BD00038700920F0BDD86900F001000028F0D17C
:100BE000D86900F00200022820D101291ED0D3F8D4
:100BF0008800040CD3F8A8000A27B7EB104F15D3D0
:100C0000D3F8A800B4EB104F10D9002209E0501C13
:100C100082B2B2F5A04F04D900203A4F38700920B3
:100C2000D8E7D86900F002000028F0D1D86900F0B8
:100C30000400042822D1022920D00022D3F8C800C1
:100C4000040CD3F8E8000A27B7EB104F16D3D3F8FB
:100C5000E800B4EB104F11D90BE0501C82B2B2F592
:100C6000A04F06D90020274F38700920B2E746E090
:100C70002AE0D86900F004000028EED1D86900F01D
:100C80000800082820D103291ED00022D3F808012B
:100C9000040CD3F828010A27B7EB104F14D3D3F86C
:100CA0002801B4EB104F0FD909E0501C82B2B2F505
:100CB000A04F04D90020134F387009208AE7D86963
:100CC00000F008000028F0D14DB1012D12D1D869F3
:100CD00001278F4007F00F073843D8610AE0D86931
:100CE00001278F404FF00F0C2CEA070C00EA0C0094
:100CF000D86100BF00BF0020024F38706AE70120B2
:100D000068E700000080FF1F70B50346002039B17E
:100D1000012905D0022903D0032901D0042026E0AF
:100D200032B1012A0AD0022A10D0032A1CD113E0C2
:100D30005C6901258D402C435C6117E05C6901F121
:100D400010050126AE4034435C610FE09C6901252B
:100D50008D402C439C6109E09C6901F1100501263E
:100D6000AE4034439C6101E0042000BF00BF70BD71
:100D7000026861F3000202607047000070B505462A
:100D80000C46164601212846FFF7F2FF05F15C00EC
:100D900000EB8410006820F4805105F15C0000EB4A
:100DA0008410016005F1400000EB8410716801605F
:100DB00005F1440000EB8410B168016000BF05F14B
:100DC000480000EB841000686FF309003188084385
:100DD00005F1480101EB8411086000BF00BF718874
:100DE00005F1480000EB8410006861F31F4005F135
:100DF000480101EB8411086000BF00BF05F14C0001
:100E000000EB841000686FF30900B189084305F115
:100E10004C0101EB8411086000BF00BF05F14C00DC
:100E200000EB841000682B490840F18940EA014139
:100E300005F14C0000EB8410016000BF00BF05F11C
:100E4000500000EB841000686FF3130071690843D1
:100E500005F1500101EB8411086000BF00BF318B28
:100E600005F1500000EB8410006861F31F5005F19C
:100E7000500101EB8411086000BF00BF05F1540070
:100E800000EB841000686FF31300F169084305F16B
:100E9000540101EB8411086000BF00BF318C05F1E3
:100EA000540000EB8410006861F31F5005F15401F9
:100EB00001EB8411086000BF05F1580000EB8410BD
:100EC0003169016006F1240221462846FFF7AAFD98
:100ED00070BD0000FFFF00FC30B503460024002079
:100EE00003F1440505EB81152A600BE0651CACB2EB
:100EF000B4F5805F01D9092004E003F1440505EB56
:100F000081152A6003F1640505EB81152D68954272
:100F1000ECD130BD30B503460024002003F140057C
:100F200005EB81152A600BE0651CACB2B4F5805F5F
:100F300001D9092004E003F1400505EB81152A6081
:100F400003F1600505EB81152D689542ECD130BDAC
:100F500070B503460024002000BF03F1480505EBEF
:100F600081152D6862F31F4503F1480606EB8116D3
:100F7000356000BF14E0651CACB2B4F5805F01D9E8
:100F800009200DE000BF03F1480505EB81152D6830
:100F900062F31F4503F1480606EB8116356000BF7A
:100FA00003F1680505EB81152D68B2EB154FE2D111
:100FB00070BD000010B5094B984205D1084C04EBF8
:100FC0008103C3F8142807E0064B984204D1044C6F
:100FD00004EB8103C3F8242810BD00000030054055
:100FE000000001400034054008B5002200920021B5
:100FF000094A116842F21072B1FBF2F106E0009169
:1010000000BF009A531E0093002AFAD1021EA0F1DD
:101010000100F4D108BD00008080FF1F10B5AFF3C0
:10102000008010BD002107200FE0421E094B9A5C92
:1010300000EE902AF8EE600AF4EEC00AF1EE10FA23
:1010400001D8014603E0421ED0B20028EDD100BF16
:10105000084670470180FF1F30B58DB004460D462D
:1010600005A8FFF7AFFA1A48844204D101211020E5
:1010700002F040FF12E01748844204D101212020F1
:1010800002F038FF0AE01448844204D101214020D4
:1010900002F030FF02E001200DB030BD204600F02C
:1010A000B4F800BF0020019002900390049000BFAC
:1010B0008DF8040003950B98029001A9204600F0DA
:1010C000C9F80121204600F09BF80020E4E7000069
:1010D00000E0044000E4044000E8044010B50E487D
:1010E00000680E4908600C48001D00680C49086043
:1010F0000948083000680B4908600848006806493C
:10110000086007480068091D086006480068091D56
:101110000860AFF3008010BD28ED00E00C80FF1FD9
:101120001080FF1F1480FF1F2DE9F05F2DED028B53
:1011300004460F4691469A469FED2A0AB0EE408A31
:101140004FF0000B00250026A846216BC1F30011CB
:1011500021B1216B01F003014D1C00E000250226A6
:101160001FB1BAFBF7F1A1EB090800EE105AB8EE77
:10117000400ADFED1D0A70EE200A00EE106AB8EE9C
:10118000400A30EE800AF0EE000A60EE200A00EE1F
:10119000108AB8EE400A80EE201AB0EE418AB0EE16
:1011A000480AFFF73FFF08B9032600E002260F496F
:1011B000095CB8FBF1FBE16A60F31241E162C5EB47
:1011C0005B018A1BE16A62F30401E162ABEB5B0144
:1011D000491B8A1BE16A62F30C21E162BDEC028BC0
:1011E000BDE8F09F00000000000000420180FF1FEA
:1011F000026A024B0B401A4302627047DF56F0004E
:10120000026861F30002026070470146086820F03E
:1012100001000860086820F4004000F50040086004
:1012200000207047026861F3C712026070470268CD
:1012300061F3082202607047026861F3492202608C
:10124000704702460020D3690B400BB1012000E03B
:101250000020704770B504460D46002605B10CB954
:10126000042620E0206820F001002060206820F49F
:10127000004000F500402060206820F00100401C84
:1012800020602046D5E90131EA68FFF74DFF20686C
:1012900020F040002060206820F40040206020689A
:1012A00020F001002060304670BD026861F38A22A0
:1012B000026070472DE9F04706460F469046994672
:1012C000DDF820A0B06820F080008030B0604FF4DE
:1012D00080613046FFF7B5FF012803D10103304696
:1012E000FFF786FF4FF400313046FFF7AAFF0128D1
:1012F00002D10220BDE8F08701213046FFF797FFB9
:101300004FF4005410E0201EA4F101040CD14FF45E
:1013100000313046FFF795FF012803D10121304607
:10132000FFF78AFF0320E5E780213046FFF789FFBA
:101330000028E8D07806010E304600F00BF94FF493
:10134000005410E0201EA4F101040CD14FF4003130
:101350003046FFF776FF012803D101213046FFF721
:101360006BFF0320C6E708213046FFF76AFF00281D
:10137000E8D04FF4005410E0201EA4F101040CD179
:101380004FF400313046FFF75CFF012803D1012103
:101390003046FFF751FF0420ACE74FF48061304640
:1013A000FFF74FFF0128E7D04146304600F0D2F862
:1013B0004FF4005410E0201EA4F101040CD14FF4AE
:1013C00000313046FFF73DFF012803D101213046AF
:1013D000FFF732FF03208DE708213046FFF731FF8A
:1013E0000028E8D04FF4005410E0201EA4F10104BE
:1013F0000CD14FF400313046FFF723FF012803D111
:1014000001213046FFF718FF032073E74FF4806196
:101410003046FFF716FF0128E7D001213046FFF7DD
:10142000E7FE01213046FFF7FDFE4FF4005409E0CE
:10143000201EA4F1010405D101213046FFF7FCFE76
:10144000012057E74FF400313046FFF7FAFE00283D
:10145000EED001213046FFF7F4FE0028E8D04FF42B
:10146000005410E0201EA4F101040CD14FF400310F
:101470003046FFF7E6FE012803D101213046FFF791
:10148000DBFE032036E780213046FFF7DAFE002836
:10149000E8D0012000EB4700C1B2304600F05AF816
:1014A0004FF4005410E0201EA4F101040CD14FF4BD
:1014B00000313046FFF7C5FE012803D10121304637
:1014C000FFF7BAFE032015E74FF480613046FFF7BF
:1014D000B8FE0128E7D0002525E04FF4005409E0CC
:1014E000201EA4F1010405D101213046FFF7A4FE1E
:1014F0000320FFE640213046FFF7A3FE0028EFD08F
:10150000AAF10100A84204D101213046FFF7CDFE27
:1015100003E000213046FFF7C8FE96F8280009F8DE
:101520000500681CC5B25545D7DB4FF4005400BF19
:1015300001213046FFF780FE201EA4F1010401D1F5
:101540000320D7E610213046FFF77BFE0028EFD0BE
:101550000020CFE680F8241070472DE9F0470646BA
:101560000F4690469946DDF820A04FF48061304642
:10157000FFF767FE012803D101033046FFF738FE6D
:101580004FF400313046FFF75CFE01280FD14102D5
:101590003046FFF756FE012806D14FF6FF70306245
:1015A00001213046FFF748FE0220BDE8F087012107
:1015B0003046FFF73CFE4FF4005410E0201EA4F12B
:1015C00001040CD14FF400313046FFF73AFE0128F8
:1015D00003D101213046FFF72FFE0320E5E78021EC
:1015E0003046FFF72EFE0028E8D07806010E304680
:1015F000FFF7B0FF4FF4005410E0201EA4F10104E7
:101600000CD14FF400313046FFF71BFE012803D107
:1016100001213046FFF710FE0320C6E708213046BF
:10162000FFF70FFE0028E8D04FF4005410E0201E12
:10163000A4F101040CD14FF400313046FFF701FE54
:10164000012803D101213046FFF7F6FD0420ACE765
:101650004FF480613046FFF7F4FD0128E7D04146A2
:101660003046FFF777FF4FF4005410E0201EA4F13E
:1016700001040CD14FF400313046FFF7E2FD0128A0
:1016800003D101213046FFF7D7FD03208DE7082164
:101690003046FFF7D6FD0028E8D04FF4005410E0A4
:1016A000201EA4F101040CD14FF400313046FFF7A5
:1016B000C8FD012803D101213046FFF7BDFD0320FD
:1016C00073E74FF480613046FFF7BBFD0128E7D098
:1016D00000253BE019F805103046FFF73BFF4FF4BB
:1016E000005410E0201EA4F101040CD14FF400318D
:1016F0003046FFF7A6FD012803D101213046FFF750
:101700009BFD032051E708213046FFF79AFD002892
:10171000E8D04FF4005410E0201EA4F101040CD1D5
:101720004FF400313046FFF78CFD012803D1012131
:101730003046FFF781FD032037E74FF480613046E4
:10174000FFF77FFD0128E7D0681CC5B25545C1DB16
:101750004FF4005400BF01213046FFF76DFD201EFD
:10176000A4F1010401D103201FE710213046FFF747
:1017700068FD0028EFD0002017E7000010B50348EF
:10178000006810B101490868804710BDE880FF1F5C
:1017900010B50348406810B101494868804710BD42
:1017A000E880FF1F10B50348806810B101498868C0
:1017B000804710BDE880FF1F10B50348C06810B116
:1017C0000149C868804710BDE880FF1F10B5034875
:1017D000006910B101490869804710BDE880FF1F0A
:1017E00010B50348406910B101494869804710BDF0
:1017F000E880FF1F10B50348806910B1014988696E
:10180000804710BDE880FF1F10B50348C06910B1C4
:101810000149C869804710BDE880FF1F10B5034823
:10182000006A10B10149086A804710BDE880FF1FB7
:1018300010B50348406A10B10149486A804710BD9D
:10184000E880FF1F10B50348806A10B10149886A1B
:10185000804710BDE880FF1F10B50348C06A10B173
:101860000149C86A804710BDE880FF1F10B50348D2
:10187000006B10B10149086B804710BDE880FF1F65
:1018800010B50348406B10B10149486B804710BD4B
:10189000E880FF1F10B50348806B10B10149886BC9
:1018A000804710BDE880FF1F10B50348C06B10B122
:1018B0000149C86B804710BDE880FF1F10B5034881
:1018C000006C10B10149086C804710BDE880FF1F13
:1018D00010B50348406C10B10149486C804710BDF9
:1018E000E880FF1F10B50348806C10B10149886C77
:1018F000804710BDE880FF1F10B50348C06C10B1D1
:101900000149C86C804710BDE880FF1F10B503482F
:10191000006D10B10149086D804710BDE880FF1FC0
:1019200010B50348406D10B10149486D804710BDA6
:10193000E880FF1F10B50348806D10B10149886D24
:10194000804710BDE880FF1F10B50348C06D10B17F
:101950000149C86D804710BDE880FF1F10B50348DE
:10196000006E10B10149086E804710BDE880FF1F6E
:1019700010B50348406E10B10149486E804710BD54
:10198000E880FF1F10B50348806E10B10149886ED2
:10199000804710BDE880FF1F10B50348C06E10B12E
:1019A0000149C86E804710BDE880FF1F10B503488D
:1019B000006F10B10149086F804710BDE880FF1F1C
:1019C00010B50348406F10B10149486F804710BD02
:1019D000E880FF1F10B50348806F10B10149886F80
:1019E000804710BDE880FF1F10B50348C06F10B1DD
:1019F0000149C86F804710BDE880FF1F10B504483B
:101A0000D0F8800018B10249D1F88000804710BD9D
:101A1000E880FF1F10B50448D0F8840018B10249CF
:101A2000D1F88400804710BDE880FF1F10B504483E
:101A3000D0F8880018B10249D1F88800804710BD5D
:101A4000E880FF1F10B50448D0F88C0018B1024997
:101A5000D1F88C00804710BDE880FF1F10B5044806
:101A6000D0F8900018B10249D1F89000804710BD1D
:101A7000E880FF1F10B50448D0F8940018B102495F
:101A8000D1F89400804710BDE880FF1F10B50448CE
:101A9000D0F8980018B10249D1F89800804710BDDD
:101AA000E880FF1F10B50448D0F89C0018B1024927
:101AB000D1F89C00804710BDE880FF1F10B5044896
:101AC000D0F8A00018B10249D1F8A000804710BD9D
:101AD000E880FF1F10B50448D0F8A40018B10249EF
:101AE000D1F8A400804710BDE880FF1F10B504485E
:101AF000D0F8A80018B10249D1F8A800804710BD5D
:101B0000E880FF1F10B50448D0F8AC0018B10249B6
:101B1000D1F8AC00804710BDE880FF1F10B5044825
:101B2000D0F8B00018B10249D1F8B000804710BD1C
:101B3000E880FF1F10B50448D0F8B40018B102497E
:101B4000D1F8B400804710BDE880FF1F10B50448ED
:101B5000D0F8B80018B10249D1F8B800804710BDDC
:101B6000E880FF1F10B50448D0F8BC0018B1024946
:101B7000D1F8BC00804710BDE880FF1F10B50448B5
:101B8000D0F8C00018B10249D1F8C000804710BD9C
:101B9000E880FF1F10B50448D0F8C40018B102490E
:101BA000D1F8C400804710BDE880FF1F10B504487D
:101BB000D0F8C80018B10249D1F8C800804710BD5C
:101BC000E880FF1F10B50448D0F8CC0018B10249D6
:101BD000D1F8CC00804710BDE880FF1F10B5044845
:101BE000D0F8D00018B10249D1F8D000804710BD1C
:101BF000E880FF1F10B50448D0F8D40018B102499E
:101C0000D1F8D400804710BDE880FF1F10B504480C
:101C1000D0F8D80018B10249D1F8D800804710BDDB
:101C2000E880FF1F10B50448D0F8DC0018B1024965
:101C3000D1F8DC00804710BDE880FF1F10B50448D4
:101C4000D0F8E00018B10249D1F8E000804710BD9B
:101C5000E880FF1F10B50448D0F8E40018B102492D
:101C6000D1F8E400804710BDE880FF1F10B504489C
:101C7000D0F8E80018B10249D1F8E800804710BD5B
:101C8000E880FF1F10B50448D0F8EC0018B10249F5
:101C9000D1F8EC00804710BDE880FF1F10B5044864
:101CA000D0F8F00018B10249D1F8F000804710BD1B
:101CB000E880FF1F10B50448D0F8F40018B10249BD
:101CC000D1F8F400804710BDE880FF1F10B504482C
:101CD000D0F8F80018B10249D1F8F800804710BDDB
:101CE000E880FF1F10B50448D0F8FC0018B1024985
:101CF000D1F8FC00804710BDE880FF1F10B50448F4
:101D0000D0F8000118B10249D1F80001804710BD98
:101D1000E880FF1F10B50448D0F8040118B102494B
:101D2000D1F80401804710BDE880FF1F10B50448BA
:101D3000D0F8080118B10249D1F80801804710BD58
:101D4000E880FF1F10B50448D0F80C0118B1024913
:101D5000D1F80C01804710BDE880FF1F10B5044882
:101D6000D0F8100118B10249D1F81001804710BD18
:101D7000E880FF1F10B50448D0F8140118B10249DB
:101D8000D1F81401804710BDE880FF1F10B504484A
:101D9000D0F8180118B10249D1F81801804710BDD8
:101DA000E880FF1F10B50448D0F81C0118B10249A3
:101DB000D1F81C01804710BDE880FF1F10B5044812
:101DC000D0F8200118B10249D1F82001804710BD98
:101DD000E880FF1F10B50448D0F8240118B102496B
:101DE000D1F82401804710BDE880FF1F10B50448DA
:101DF000D0F8280118B10249D1F82801804710BD58
:101E0000E880FF1F10B50448D0F82C0118B1024932
:101E1000D1F82C01804710BDE880FF1F10B50448A1
:101E2000D0F8300118B10249D1F83001804710BD17
:101E3000E880FF1F10B50448D0F8340118B10249FA
:101E4000D1F83401804710BDE880FF1F10B5044869
:101E5000D0F8380118B10249D1F83801804710BDD7
:101E6000E880FF1F10B50448D0F83C0118B10249C2
:101E7000D1F83C01804710BDE880FF1F10B5044831
:101E8000D0F8400118B10249D1F84001804710BD97
:101E9000E880FF1F10B50448D0F8440118B102498A
:101EA000D1F84401804710BDE880FF1F10B50448F9
:101EB000D0F8480118B10249D1F84801804710BD57
:101EC000E880FF1F10B50448D0F84C0118B1024952
:101ED000D1F84C01804710BDE880FF1F10B50448C1
:101EE000D0F8500118B10249D1F85001804710BD17
:101EF000E880FF1F10B50448D0F8540118B102491A
:101F0000D1F85401804710BDE880FF1F10B5044888
:101F1000D0F8580118B10249D1F85801804710BDD6
:101F2000E880FF1F10B50448D0F85C0118B10249E1
:101F3000D1F85C01804710BDE880FF1F10B5044850
:101F4000D0F8600118B10249D1F86001804710BD96
:101F5000E880FF1F10B50448D0F8640118B10249A9
:101F6000D1F86401804710BDE880FF1F10B5044818
:101F7000D0F8680118B10249D1F86801804710BD56
:101F8000E880FF1F10B50448D0F86C0118B1024971
:101F9000D1F86C01804710BDE880FF1F10B50448E0
:101FA000D0F8700118B10249D1F87001804710BD16
:101FB000E880FF1F10B50448D0F8740118B1024939
:101FC000D1F87401804710BDE880FF1F10B50448A8
:101FD000D0F8780118B10249D1F87801804710BDD6
:101FE000E880FF1F10B50448D0F87C0118B1024901
:101FF000D1F87C01804710BDE880FF1F10B5044870
:10200000D0F8800118B10249D1F88001804710BD95
:10201000E880FF1F10B50448D0F8840118B10249C8
:10202000D1F88401804710BDE880FF1F10B5044837
:10203000D0F8880118B10249D1F88801804710BD55
:10204000E880FF1F10B50448D0F88C0118B1024990
:10205000D1F88C01804710BDE880FF1F10B50448FF
:10206000D0F8900118B10249D1F89001804710BD15
:10207000E880FF1F10B50448D0F8940118B1024958
:10208000D1F89401804710BDE880FF1F10B50448C7
:10209000D0F8980118B10249D1F89801804710BDD5
:1020A000E880FF1F10B50448D0F89C0118B1024920
:1020B000D1F89C01804710BDE880FF1F10B504488F
:1020C000D0F8A00118B10249D1F8A001804710BD95
:1020D000E880FF1F10B50448D0F8A40118B10249E8
:1020E000D1F8A401804710BDE880FF1F10B5044857
:1020F000D0F8A80118B10249D1F8A801804710BD55
:10210000E880FF1F10B50448D0F8AC0118B10249AF
:10211000D1F8AC01804710BDE880FF1F10B504481E
:10212000D0F8B00118B10249D1F8B001804710BD14
:10213000E880FF1F10B50448D0F8B40118B1024977
:10214000D1F8B401804710BDE880FF1F10B50448E6
:10215000D0F8B80118B10249D1F8B801804710BDD4
:10216000E880FF1F10B50448D0F8BC0118B102493F
:10217000D1F8BC01804710BDE880FF1F10B50448AE
:10218000D0F8C00118B10249D1F8C001804710BD94
:10219000E880FF1F10B50448D0F8C40118B1024907
:1021A000D1F8C401804710BDE880FF1F10B5044876
:1021B000D0F8C80118B10249D1F8C801804710BD54
:1021C000E880FF1F10B50448D0F8CC0118B10249CF
:1021D000D1F8CC01804710BDE880FF1F10B504483E
:1021E000D0F8D00118B10249D1F8D001804710BD14
:1021F000E880FF1F10B50448D0F8D40118B1024997
:10220000D1F8D401804710BDE880FF1F10B5044805
:10221000D0F8D80118B10249D1F8D801804710BDD3
:10222000E880FF1F10B50448D0F8DC0118B102495E
:10223000D1F8DC01804710BDE880FF1F10B50448CD
:10224000D0F8E00118B10249D1F8E001804710BD93
:10225000E880FF1F10B50448D0F8E40118B1024926
:10226000D1F8E401804710BDE880FF1F10B5044895
:10227000D0F8E80118B10249D1F8E801804710BD53
:10228000E880FF1F10B50448D0F8EC0118B10249EE
:10229000D1F8EC01804710BDE880FF1F10B504485D
:1022A000D0F8F00118B10249D1F8F001804710BD13
:1022B000E880FF1F10B50448D0F8F40118B10249B6
:1022C000D1F8F401804710BDE880FF1F10B5044825
:1022D000D0F8F80118B10249D1F8F801804710BDD3
:1022E000E880FF1F10B50448D0F8FC0118B102497E
:1022F000D1F8FC01804710BDE880FF1F10B55148A0
:10230000046851480068012804D104F0010008B1B4
:10231000AFF300804C48001D0068012804D104F090
:10232000020008B1AFF30080474808300068012878
:1023300004D104F0040008B1AFF3008042480C302F
:102340000068012804D104F0080008B1AFF3008050
:102350003D4810300068012804D104F0100008B195
:10236000AFF30080384814300068012804D104F02D
:10237000200008B1AFF3008033481830006801280E
:1023800004D104F0400008B1AFF300802E481C30A7
:102390000068012804D104F0800008B1AFF3008088
:1023A000294820300068012804D104F4807008B165
:1023B000AFF30080244824300068012804D104F4DD
:1023C000007008B1AFF300801F4828300068012872
:1023D00004D104F4806008B1AFF300801A482C30B7
:1023E0000068012804D104F4006008B1AFF3008054
:1023F000154830300068012804D104F4805008B139
:10240000AFF30080104834300068012804D104F490
:10241000005008B1AFF300800B4838300068012845
:1024200004D104F4804008B1AFF3008006483C308A
:102430000068012804D104F4004008B1AFF3008023
:1024400010BD00005C120540800AA24270B5FE4833
:10245000046800260025FD48006801282BD1FC48AF
:10246000006840B9FB480068012804D104F001006D
:1024700008B1AFF30080F6484030006848B9F5482D
:1024800040300068012804D104F4807008B1AFF333
:102490000080F148406800F00116EF48C1684FF035
:1024A000011020EA010506EA050020B104F480309D
:1024B00008B1AFF30080E948006801282DD1E44855
:1024C000001D006848B9E348001D0068012804D1D8
:1024D00004F0020008B1AFF30080DD48443000682A
:1024E00048B9DC4844300068012804D104F4007085
:1024F00008B1AFF30080D848406800F00216D64813
:10250000C1684FF0021020EA010506EA050020B17B
:1025100004F4803008B1AFF30080D148006801288E
:102520002DD1CB480830006848B9CA480830006847
:10253000012804D104F0040008B1AFF30080C448BE
:102540004830006848B9C34848300068012804D1C1
:1025500004F4806008B1AFF30080BF48406800F029
:102560000416BD48C1684FF0041020EA010506EAD0
:10257000050020B104F4803008B1AFF30080B94801
:10258000006801282DD1B2480C30006848B9B14824
:102590000C300068012804D104F0080008B1AFF342
:1025A0000080AB484C30006848B9AA484C300068FD
:1025B000012804D104F4006008B1AFF30080A648FC
:1025C000406800F00816A448C1684FF0081020EADF
:1025D000010506EA050020B104F4803008B1AFF32C
:1025E0000080A148006801282CD1A048006840B9AB
:1025F0009F480068012804D104F0100008B1AFF32F
:1026000000809A484030006848B9994840300068D6
:10261000012804D104F4805008B1AFF3008095483C
:10262000006800F001169348083001684FF001106F
:1026300020EA010506EA050020B104F4003008B1E3
:10264000AFF300808C48006801282ED18748001D18
:10265000006848B98648001D0068012804D104F0CC
:10266000200008B1AFF3008080484430006848B9CA
:10267000784844300068012804D104F4005008B1BF
:10268000AFF300807B48006800F0021679480830FC
:1026900001684FF0021020EA010506EA050020B1AA
:1026A00004F4003008B1AFF30080744800680128DA
:1026B0002ED16E480830006848B96D48083000686F
:1026C000012804D104F0400008B1AFF3008067484E
:1026D0004830006848B95F4848300068012804D194
:1026E00004F4804008B1AFF300806248006800F055
:1026F00004166048083001684FF0041020EA010514
:1027000006EA050020B104F4003008B1AFF3008000
:102710005B48006801282ED154480C30006848B945
:1027200053480C300068012804D104F0800008B13F
:10273000AFF300804D484C30006848B945484C30F4
:102740000068012804D104F4004008B1AFF3008010
:102750004848006800F008164648083001684FF005
:10276000081020EA010506EA050020B104F4003053
:1027700008B1AFF3008043480068012809D14248FE
:10278000006800F00F0020B104F4802008B1AFF31E
:1027900000803C4808300068012809D13948EC38ED
:1027A0000068012804D104F4002008B1AFF30080D0
:1027B0003448001D0068012809D13248F03800680B
:1027C000012804D104F4801008B1AFF300804FF069
:1027D0001C40C068C0F3C01020B104F4800008B1F0
:1027E000AFF3008029488669456806EA050000F0D5
:1027F0007F0020B104F4000008B1AFF3008024484A
:10280000066823481438056806EA050000F07F00D2
:1028100020B104F0807008B1AFF300801D48066855
:102820001C481438056806EA050000F07F0020B156
:1028300004F0007008B1AFF300801748066816482E
:10284000143805682AE0000060120540B00BA6426B
:102850000002A6420001A64200300540B013A64285
:10286000B01BA642B023A642B08BA6420082A6426D
:102870000081A64204340540B093A642B09BA64214
:10288000B0A3A6420083204210040140002005406E
:102890001824054018280540182C054006EA0500B4
:1028A00000F07F0020B104F0806008B1AFF3008039
:1028B00070BD000010B52F4804682F48D0F80802FA
:1028C000012808D12D480068012804D104F0010036
:1028D00008B1AFF30080294838380068012809D1D1
:1028E000264840300068012804D104F0020008B1F5
:1028F000AFF3008022480068012809D120487830D1
:102900000068012804D104F0040008B1AFF300808E
:102910001B4840300068012809D11948B8300068C8
:10292000012804D104F0080008B1AFF30080154875
:102930000068012809D1134820300068012804D11B
:1029400004F4001008B1AFF300800F48006B0128B9
:1029500004D104F4800008B1AFF300800B48006894
:1029600000F4403020B104F4000008B1AFF300805F
:1029700010BD000064120540000048428002484239
:10298000088248420008A84200809842049404400B
:1029900070B5AA48046800260025A94800680128E7
:1029A00008D1A8480068012804D104F0010008B14A
:1029B000AFF30080A248001D0068012809D1A1489A
:1029C000001D0068012804D104F0020008B1AFF333
:1029D00000809B4808300068012809D199480830D8
:1029E0000068012804D104F0040008B1AFF30080AE
:1029F00093480C300068012809D192480C300068D7
:102A0000012804D104F0080008B1AFF300808C481D
:102A100010300068012809D18A4810300068012868
:102A200004D104F0100008B1AFF3008084481430E2
:102A30000068012809D1834814300068012804D1B6
:102A400004F0200008B1AFF300807D481830006822
:102A5000012809D17B4818300068012804D104F00E
:102A6000400008B1AFF3008075481C3000680128B1
:102A700009D174481C300068012804D104F080009A
:102A800008B1AFF300806E4820300068012809D1FA
:102A90006C4820300068012804D104F4807008B12B
:102AA000AFF300806848406D00F44030C6096648C6
:102AB000006F00F4C06506EA050020B104F4006070
:102AC00008B1AFF300806048406D00F44020C609B3
:102AD0005D48006F00F4C05506EA050020B104F41B
:102AE000805008B1AFF3008058480068012808D131
:102AF00057480068012804D104F4803008B1AFF3CE
:102B000000805248001D0068012809D15048001D6E
:102B10000068012804D104F4003008B1AFF300804C
:102B20004A4808300068012809D14948083000683F
:102B3000012804D104F4802008B1AFF30080434899
:102B40000C300068012809D141480C300068012888
:102B500004D104F4002008B1AFF300803B481030EA
:102B60000068012809D13A4810300068012804D1D2
:102B700004F4801008B1AFF30080344814300068CA
:102B8000012809D1324814300068012804D104F426
:102B9000001008B1AFF300802C48183000680128FD
:102BA00009D12B4818300068012804D104F48000B2
:102BB00008B1AFF3008025481C300068012809D116
:102BC00023481C300068012804D104F4000008B137
:102BD000AFF300801D4820300068012809D11C484F
:102BE00020300068012804D104F0807008B1AFF3F0
:102BF00000801848006800F44030C60915481C30B1
:102C0000006800F4C06506EA050020B104F0006029
:102C100008B1AFF300800F48006800F44020C609F7
:102C20000C481C30006800F4C05506EA050020B1CD
:102C300004F0805008B1AFF3008070BD6812054009
:102C4000800A3042000E304200800140808A3042CB
:102C5000008E30425484014070B557480468002605
:102C6000002556480068012808D155480068012809
:102C700004D104F0010008B1AFF300804F48001DFB
:102C80000068012809D14E48001D0068012804D1C0
:102C900004F0020008B1AFF3008048480830006833
:102CA000012809D1464808300068012804D104F001
:102CB000040008B1AFF3008040480C3000680128E0
:102CC00009D13F480C300068012804D104F0080005
:102CD00008B1AFF30080394810300068012809D1ED
:102CE000374810300068012804D104F0100008B102
:102CF000AFF30080314814300068012809D1304812
:102D000014300068012804D104F0200008B1AFF3AA
:102D100000802A4818300068012809D12848183056
:102D20000068012804D104F0400008B1AFF300802E
:102D300022481C300068012809D121481C30006855
:102D4000012804D104F0800008B1AFF300801B48D3
:102D500020300068012809D1194820300068012876
:102D600004D104F4807008B1AFF300801548006806
:102D700000F44030C60913481C30006800F4C065F8
:102D800006EA050020B104F4006008B1AFF300804A
:102D90000C48006800F44020C6090A481C3000684E
:102DA00000F4C05506EA050020B104F4805008B1D3
:102DB000AFF3008070BD00006C120540800A314204
:102DC000000E31425488014070B500240026BA48F4
:102DD0000568BA48D0F8804004F4805038B104F453
:102DE000804020B105F0010008B1AFF3008004F489
:102DF000005038B104F4004020B105F0020008B1E1
:102E0000AFF30080AD4890300468AC48D0F89C60C7
:102E100004EA0600C0B220B105F0040008B1AFF327
:102E20000080A748046804F4805038B104F480405E
:102E300020B105F0080008B1AFF3008004F40050A1
:102E400038B104F4004020B105F0100008B1AFF330
:102E500000809B481030046899481C30066804EADA
:102E60000600C0B220B105F0200008B1AFF3008029
:102E70009448046804F4805038B104F4804020B1D0
:102E800005F0400008B1AFF3008004F4005038B101
:102E900004F4004020B105F0800008B1AFF30080D9
:102EA00088481030046887481C30066804EA060029
:102EB000C0B220B105F4807008B1AFF30080824841
:102EC000046804F4805038B104F4804020B105F463
:102ED000007008B1AFF3008004F4005038B104F47E
:102EE000004020B105F4806008B1AFF3008076485F
:102EF0001030046874481C30066804EA0600C0B24A
:102F000020B105F4006008B1AFF300806F48046899
:102F100004F4805038B104F4804020B105F48050AE
:102F200008B1AFF3008004F4005038B104F400405D
:102F300020B105F4005008B1AFF3008063481030B1
:102F4000046862488038D0F89C6004EA0600C0B289
:102F500020B105F4804008B1AFF300805C480468FC
:102F600004F4805038B104F4804020B105F480307E
:102F700008B1AFF3008004F4005038B104F400400D
:102F800020B105F4003008B1AFF300805048103094
:102F900004684F481C30066804EA0600C0B220B13D
:102FA00005F4802008B1AFF300804A48006801288A
:102FB00010D149488069494900EA010446484069FE
:102FC00000EA010604EA060020B105F4002008B179
:102FD000AFF3008042480468C66806F0200038B1AC
:102FE00004F00B0020B105F4800008B1AFF30080BD
:102FF00006EA040000F0200020B105F4000008B14A
:10300000AFF3008006EA040000F0800020B105F074
:10301000807008B1AFF3008006EA040000F04000C1
:1030200020B105F0007008B1AFF3008006F0020097
:1030300038B104F4807020B105F0806008B1AFF3BE
:1030400000802848046827480C30066806F02000F5
:1030500038B104F00B0020B105F0006008B1AFF307
:10306000008006EA040000F0200020B105F0805046
:1030700008B1AFF3008006EA040000F0800020B140
:1030800005F0005008B1AFF3008006EA040000F03C
:10309000400020B105F0804008B1AFF3008006F099
:1030A000020038B104F4807020B105F0004008B18E
:1030B000AFF3008070BD00007C120540005001405D
:1030C0008054014080580140805C01408060014094
:1030D000806401400001804300000C40FBFC7CF751
:1030E00000D0014000D4014070B50024002699486A
:1030F000056899480468C66806F0200038B104F0F5
:103100000B0020B105F0010008B1AFF3008006EA22
:10311000040000F0200020B105F0020008B1AFF378
:10312000008006EA040000F0800020B105F00400F1
:1031300008B1AFF3008006EA040000F0400020B1BF
:1031400005F0080008B1AFF3008006F0020038B1C6
:1031500004F4807020B105F0100008B1AFF30080D6
:103160007E4804687D480C30066806F0200038B1BF
:1031700004F00B0020B105F0200008B1AFF300808F
:1031800006EA040000F0200020B105F0400008B17C
:10319000AFF3008006EA040000F0800020B105F0E3
:1031A000800008B1AFF3008006EA040000F04000A0
:1031B00020B105F4807008B1AFF3008006F0020082
:1031C00038B104F4807020B105F4007008B1AFF399
:1031D000008063484468466904F4806038B106F0B2
:1031E000800020B105F4006008B1AFF3008004F462
:1031F000007038B106F0200020B105F4805008B10D
:10320000AFF3008004F4006038B106F0010020B98B
:1032100005F4005008B1AFF3008004F4807038B1B9
:1032200006F01D0020B105F4804008B1AFF3008026
:103230004C4804684B481030066804F4806038B18C
:1032400006F0800020B105F4803008B1AFF30080B3
:1032500004F4007038B106F0200020B105F400300D
:1032600008B1AFF3008004F4006038B106F001004B
:1032700020B905F4802008B1AFF3008004F4807019
:1032800038B106F01D0020B105F4002008B1AFF3FD
:10329000008035484468466904F4806038B106F01F
:1032A000800020B105F4001008B1AFF3008004F4F1
:1032B000007038B106F0200020B105F4800008B19C
:1032C000AFF3008004F4006038B106F0010020B9CB
:1032D00005F4000008B1AFF3008004F4807038B149
:1032E00006F01D0020B105F0807008B1AFF300803A
:1032F0001E4804681D481030066804F4806038B128
:1033000006F0800020B105F0806008B1AFF30080C6
:1033100004F4007038B106F0200020B105F0006020
:1033200008B1AFF3008004F4006038B106F001008A
:1033300020B905F0805008B1AFF3008004F480702C
:1033400038B106F01D0020B105F0005008B1AFF310
:10335000008070BD80120540001002400014024041
:1033600000C0014004C401400000024004040240C7
:1033700070B500248A4805688A48048B05F001006E
:1033800038B104F0100020B104F0400008B1AFF3F0
:10339000008005F0020038B104F0200020B104F0F4
:1033A000800008B1AFF300807E48848B05F00400F4
:1033B00038B104F0100020B104F0400008B1AFF3C0
:1033C000008005F0080038B104F0200020B104F0BE
:1033D000800008B1AFF300807248048C05F0100043
:1033E00038B104F0100020B104F0400008B1AFF390
:1033F000008005F0200038B104F0200020B104F076
:10340000800008B1AFF3008066484830048805F0BA
:10341000400038B104F4807020B104F4007008B1A9
:10342000AFF3008005F0800038B104F4005020B103
:1034300004F4804008B1AFF300805A48A4300488F7
:1034400005F4807040B104F00100C04320B104F0E5
:10345000100008B1AFF3008005F4007040B104F033
:103460000200C04320B104F4807008B1AFF30080C3
:1034700005F4806040B104F00400C04320B104F4BE
:10348000805008B1AFF300804748048805F48030CD
:1034900038B104F0100020B104F0400008B1AFF3DF
:1034A000008005F4003038B104F0200020B104F0B1
:1034B000800008B1AFF300803B48001D048805F48C
:1034C000802038B104F0100020B104F0400008B1B1
:1034D000AFF3008005F4002038B104F0200020B1E3
:1034E00004F0800008B1AFF300802F480830048852
:1034F00005F4801038B104F0100020B104F0400051
:1035000008B1AFF3008005F4001038B104F02000DA
:1035100020B104F0800008B1AFF3008022483030C1
:10352000048805F4800038B104F4807020B104F4FC
:10353000007008B1AFF3008005F4000038B104F466
:10354000005020B104F4804008B1AFF30080164869
:103550008C30048805F0807040B104F00100C04355
:1035600020B104F0100008B1AFF3008005F0007046
:1035700040B104F00200C04320B104F4807008B1EF
:10358000AFF3008005F0806040B104F00400C04358
:1035900020B104F4805008B1AFF3008070BD00008A
:1035A00084120540007001401848024070B50024A4
:1035B000464805684648048805F0010038B104F023
:1035C000100020B104F0400008B1AFF3008005F016
:1035D000020038B104F0200020B104F0800008B1EE
:1035E000AFF300803A48001D048805F0040038B1AC
:1035F00004F0100020B104F0400008B1AFF30080E7
:1036000005F0080038B104F0200020B104F080007B
:1036100008B1AFF300802E480830048805F0100090
:1036200038B104F0100020B104F0400008B1AFF34D
:10363000008005F0200038B104F0200020B104F033
:10364000800008B1AFF3008021483030048805F0D5
:10365000400038B104F4807020B104F4007008B167
:10366000AFF3008005F0800038B104F4005020B1C1
:1036700004F4804008B1AFF3008015488C30048812
:1036800005F4807040B104F00100C04320B104F0A3
:10369000100008B1AFF3008005F4007040B104F0F1
:1036A0000200C04320B104F4807008B1AFF3008081
:1036B00005F4806040B104F00400C04320B104F47C
:1036C000805008B1AFF3008070BD00008812054043
:1036D000184C024070B57A480468002600257948E5
:1036E000006800F00F0677480830006800F00F050A
:1036F00006EA050020B104F0400008B1AFF30080F5
:1037000070482030006800F00F066E4828300068CE
:1037100000F00F0506EA050020B104F0800008B1B2
:10372000AFF3008067484030006800F00F0665483E
:103730004830006800F00F0506EA050020B104F4E7
:10374000807008B1AFF300805E486030006800F020
:103750000F065C486830006800F00F0506EA0500B7
:1037600020B104F4007008B1AFF3008056484068FF
:10377000012809D1544880300068012804D104F49C
:10378000803008B1AFF300804F48C068012809D1EC
:103790004D4884300068012804D104F4003008B199
:1037A000AFF3008048480069012809D14748806884
:1037B00000F0030020B104F4802008B1AFF30080D2
:1037C00043484068012809D14148803000680128F9
:1037D00004D104F4002008B1AFF300803C48C06875
:1037E000012809D13A4884300068012804D104F442
:1037F000801008B1AFF3008035480069012809D175
:103800003448006800F0030020B104F4001008B14F
:10381000AFF3008030484068012809D12E4880303D
:103820000068012804D104F4800008B1AFF30080DF
:103830002948C068012809D1274884300068012838
:1038400004D104F4000008B1AFF3008022480069FD
:10385000012809D12148806800F0030020B104F05C
:10386000807008B1AFF300801D484068012809D17D
:103870001B4880300068012804D104F0007008B1B2
:10388000AFF300801648C068012809D1144884307D
:103890000068012804D104F0806008B1AFF3008013
:1038A0000F480069012809D10E48006800F00300A4
:1038B00020B104F0006008B1AFF3008070BD0000DB
:1038C0008C1205400C7C014000003C4200E00140AD
:1038D00000803C4208E401400000444200200240D5
:1038E000008044420824024070B5874804680026DE
:1038F00000258648D0F89800012808D1844800683F
:10390000012804D104F0100008B1AFF300807F4813
:103910008C300068012809D17D480C3800680128E6
:1039200004D104F0200008B1AFF3008077489C3048
:103930000068012809D17648001D0068012804D1DB
:1039400004F0400008B1AFF300807248406872494B
:1039500000EA01066F48C06900EA010506EA0500B1
:1039600020B104F0800008B1AFF300806B4800681C
:10397000012808D16A480068012804D104F4807045
:1039800008B1AFF3008065480C380068012809D100
:1039900063480C380068012804D104F4007008B1B1
:1039A000AFF300805D48001D0068012809D15C4824
:1039B000001D0068012804D104F4806008B1AFF351
:1039C000008058480068544900EA010655481830FC
:1039D000006800EA010506EA050020B104F4006071
:1039E00008B1AFF3008050480068012808D14F4863
:1039F0000068012804D104F4805008B1AFF30080BE
:103A000049480C380068012809D148480C3800683A
:103A1000012804D104F4005008B1AFF300804248FB
:103A2000001D0068012809D14048001D00680128D8
:103A300004D104F4804008B1AFF300803C48006832
:103A4000354900EA01063A481830006800EA0105E5
:103A500006EA050020B104F4004008B1AFF300808D
:103A600034480068012808D133480068012804D18F
:103A700004F4003008B1AFF300802E481030006825
:103A8000012809D12C4810300068012804D104F421
:103A9000802008B1AFF3008028480068012809D1D0
:103AA000264880300068012804D104F4801008B151
:103AB000AFF300802148001D0068012809D11F488C
:103AC00084300068012804D104F4001008B1AFF379
:103AD00000801A4808300068012809D1174888304A
:103AE0000068012804D104F4800008B1AFF300801D
:103AF0001348406800F4403020B104F4000008B1DD
:103B0000AFF3008070BD00009012054000009C42A1
:103B100098039C4200E004401752F00098809C42B9
:103B200098839C4204E4044098009D4298039D427F
:103B300004E804406082A842241CA842008390420A
:103B40000090044070B53C48046800253B4800687C
:103B5000012809D1394820380068012804D104F02F
:103B6000010008B1AFF300803448001D006801284F
:103B700009D132481C380068012804D104F0020041
:103B800008B1AFF300802E4805882E480068012850
:103B900009D12D480068012800D025B104F00400A7
:103BA00008B1AFF3008027480068012809D12648F2
:103BB0000068012800D025B104F0080008B1AFF377
:103BC000008022480068012809D120482038006878
:103BD000012804D104F0100008B1AFF300801B48A5
:103BE000001D0068012809D118481C380068012808
:103BF00004D104F0200008B1AFF30080144800683D
:103C0000012809D113480088C0F3080020B104F04E
:103C1000400008B1AFF300800D480068012809D1C9
:103C20000C480088C0F3080020B104F0800008B1FF
:103C3000AFF3008070BD000094120540E0088042A0
:103C4000B00004402014804240168042E088804248
:103C500020948042B00404402DE9F05F0026B34672
:103C6000002400250027A046A146A2463A48006845
:103C700001281AD13948078838480830B0F8008040
:103C8000801FB0F8009035480A30B0F800A007EA6D
:103C9000080040F2F711084028B909EA0A0040F28A
:103CA0007F11084008B1AFF300802B480C3000684A
:103CB000012815D12A48078EB0F83880B0F8329024
:103CC000B0F83AA007EA080040F2F711084028B916
:103CD00009EA0A0040F27F11084008B1AFF3008002
:103CE0001D4810300068012834D11E480678401E57
:103CF00090F800B0801C04781A481A30057805F056
:103D0000200028BB06F0010010BB06EA0B0000F003
:103D1000FE00E8B904F0010010B104F00200B8B9E7
:103D200004F0040010B104F0080088B904F0100099
:103D300010B104F0200058B905F0080010B105F0EA
:103D4000100028B905F0400020B105F0800008B14E
:103D5000AFF30080BDE8F09F0853A24230FC06405C
:103D600000000740A504074010B5AFF3008010BD68
:103D700010B5AFF3008010BDF0B505460F461346F1
:103D8000002400F097F800BF57E00120A040384021
:103D9000002850D02C4800EB851000EB84022A4804
:103DA000801C00EB851000EB84065978108861F3C5
:103DB0008E3010809978108861F30C301080D9789B
:103DC000108861F3492010801979108861F38610FA
:103DD00010809979108861F38200108059791088D9
:103DE00061F305101080187820B101280BD002284B
:103DF0001AD112E0108820F400401080108820F0C2
:103E00000200108011E0108820F40040108010881B
:103E100020F00200801C108007E0108820F4004091
:103E200000F50040108000E000BF00BFD979308865
:103E300061F308203080601CC4B2102CA5D300F0C0
:103E400005F80020F0BD0000003C05404FF425407F
:103E50000149088070470000FC3B0540F0B504466E
:103E60000D4616461F46002300F024F8002319E0F3
:103E700001209840284098B10D48402101FB0400E2
:103E8000042101FB0302108866F305001080012F56
:103E900001D1012000E00020118860F30821118089
:103EA000581CC3B2102BE3D3FFF7D0FF0020F0BDA6
:103EB000023C05404AF20150014908807047000069
:103EC000FC3B0540094A0A4B1A61012904D11A46F4
:103ED000126882431A6004E0054A12680243044BE8
:103EE0001A60024A521E024B1A6170470100A5A5D2
:103EF00000800440012905D1054A52688243044BE1
:103F00005A6004E0024A52680243014B5A6070470B
:103F100000800440012905D1054A92688243044B80
:103F20009A6004E0024A92680243014B9A6070472B
:103F30000080044010B500221146024800F092FDB6
:103F400010BD0000004402402DE9F04F2DED028B22
:103F500083B004468A460026B14600BF9FED410A61
:103F6000B0EE408A00254FF0FF3B042002903E480F
:103F7000844208D03D48844205D03D48844202D066
:103F80003C48844267D1204601F0D8FB0646002E0B
:103F900061D0D14600EE109AB8EE400AF1EE000A68
:103FA00060EE200A00EE106AB8EE400A80EE201A99
:103FB000B7EE000A31EE400AB0EE408ABCEEC80A05
:103FC00010EE105AB5EEC08AF1EE10FA43D3FF2D71
:103FD00041D80020029000EE105AB8EE400A38EEA8
:103FE000400ADFED250AB4EEE00AF1EE10FA1EDD1C
:103FF0006A1C40410021A2FB097300FB093002FB4F
:1040000001084FF480610022A7FB010308FB013186
:1040100007FB021132460023CDE90001FCF700FA4C
:10402000B0F1800BBBF17F0F01D904200290029800
:1040300088B9BBF17F0F01D8012100E00021E068C1
:1040400061F35D70E060A0686BF30600A060A0689B
:1040500065F30F20A060029803B0BDEC028BBDE8B1
:10406000F08F00000000000000D0014000D40140AB
:104070000010024000140240ACC527372DE9F04F74
:104080002DED028B89B004468B460026B146B24620
:104090009FED4F0AB0EE408A00BF0025681E0790D2
:1040A0004C4B0FCB03AF0FC7042002904A48844209
:1040B00008D04A48844205D04948844202D0494841
:1040C00084427FD1204601F039FB8146B9F1000FCF
:1040D00078D05E466069C0F3425003A931F810A061
:1040E00000EE106AF8EE400A00EE10AAB8EE400AA0
:1040F00020EE800AF0EE000A60EE200A00EE109A30
:10410000B8EE401A81EE200AF7EE000A30EE600A9F
:10411000B0EE408ABCEEC80A10EE105AB5EEC08A66
:10412000F1EE10FA4ED3FF2D4CD80020029000EE95
:10413000105AB8EE400A38EE400ADFED2B0AB4EE12
:10414000E00AF1EE10FA27DD6A1C40410023A2FBD1
:10415000061C00FB06C002FB03021846A1FB0A7303
:1041600002FB0A3201FB00284FF400710020A7FB7C
:10417000012308FB013107FB0010CDE900204A466E
:104180000023DDE90001FCF74BF980380790079820
:104190007F2801D904200290029820B907987F282F
:1041A00002D8012101E00DE00021E06861F35D70BB
:1041B000E0600798A16860F30601A160A06865F35C
:1041C0000F20A060029809B0BDEC028BBDE8F08F13
:1041D00000000000505F000000D0014000D401400A
:1041E0000010024000140240ACC527372DE9F04F03
:1041F0002DED028B85B004468B460026B146B246B3
:104200009FED510AB0EE408A00BF0025681E039062
:10421000042002904D48844208D04D48844205D085
:104220004C48844202D04C48844277D1204601F069
:1042300085FA8146B9F1000F7FD05E46E068C0F391
:10424000C03A00EE106AB8EE400AF2EE000A60EEE4
:10425000200A00EE10AAB8EE400AB0EE001A31EEC5
:10426000400A60EE800A00EE109AB8EE401A81EE25
:10427000200AF7EE000A30EE600AB0EE408ABCEE8B
:10428000C80A10EE105AB5EEC08AF1EE10FA54D3F7
:10429000FF2D52D80020029000EE105AB8EE400ACE
:1042A00038EE400ADFED2D0AB4EEE00AF1EE10FA26
:1042B0002DDD0021DAF1020261EB01004FF0010C6B
:1042C00015EB0C0C41EB0103A2FB0C1E00FB0CE0F8
:1042D00002FB03020020A1FB067302FB063201FB76
:1042E00000284FF400610022A7FB010308FB013105
:1042F00007FB02114A460023CDE90001FCF790F8C4
:104300008038039003987F2801D9042002900298F6
:1043100020B903987F2802D8012101E00DE0002197
:10432000E06861F35D70E0600398A16860F30601E6
:10433000A160A06865F30F20A060029805B0BDECF5
:10434000028BBDE8F08F00000000000000D00140AB
:1043500000D401400010024000140240ACC52737D1
:1043600010B5AFF3008001F09DFC10BD70B50024C6
:104370001320012100220023304D2D6805F0010596
:104380001DB12F4D2F4E356002E02F4D2D4E356063
:104390002E4D2D7805F00704062C4CD2DFE804F0F2
:1043A00003080C11151A274D2D68294E356042E07F
:1043B000284D274E35603EE04FF40045244E3560D1
:1043C00039E0244D224E356035E04FF40045204E53
:1043D000356030E01D4DDA352D68C5F3C0131B4D37
:1043E000263DD5F80051C5F30820184DDA352D6863
:1043F000290F164D263DD5F8005105F01F025BB977
:10440000551C144EB6FBF5F5461C75434E1CB5FB0A
:10441000F6F50F4E35600DE0012B0BD1094D2E68DE
:10442000551CB6FBF5F5461C75434E1CB5FBF6F561
:10443000074E356000BF00BF70BD0000840601401C
:104440000024F4007C80FF1F002D31012640054030
:104450008080FF1F00127A0000B50448006840F415
:10446000700002490860FFF781FF00BD88ED00E0A1
:104470002DE9F84304460E4615464FF00008002784
:10448000002D7DD0FE48844201D106B900BF2069CD
:10449000009960F30001009120694108009861F3E0
:1044A0004100009020698108009861F3820000902B
:1044B000207C8DF8000020690109009861F3071045
:1044C00000902069010A009861F30820009020699B
:1044D000410A009861F3492000902069810A009800
:1044E00061F38A200090607C8DF801002069010B47
:1044F000009861F30C3000902069410B009861F343
:104500004D3000902069810B009861F38E3000904F
:104510002069C10B009861F3CF3000902069010C35
:10452000009861F3104000902069410C009861F3FD
:10453000514000902069810C009861F392400090F6
:10454000A07C8DF802002069010D009861F31750DE
:1045500000902069010E009861F3186000902069B6
:10456000410E009861F3596000902069810E009817
:1045700061F39A600090E07C8DF80300206900E010
:104580006BE2010F009861F31C7000902069410FED
:10459000009861F35D7000902069810F009861F3CD
:1045A0009E7000902069C10F009861F3DF70009049
:1045B00026B900986FF30F00009002E0009880B2D7
:1045C00000900098216960F3000121610098410882
:1045D000206961F34100206100988108206961F33E
:1045E000820020619DF80000207400980109206974
:1045F00061F3071020610098010A206961F3082027
:1046000020610098410A206961F3492020610098E7
:10461000810A206961F38A2020619DF8011061748C
:104620000098010B206961F30C3020610098410B68
:10463000206961F34D3020610098810B206961F39E
:104640008E3020610098C10B206961F3CF3020616A
:104650000098010C206961F3104020610098410C22
:10466000206961F3514020610098810C206961F359
:10467000924020619DF80210A1740098010D2069FC
:1046800061F3175020610098010E206961F31860F2
:1046900020610098410E206961F359602061009803
:1046A000810E206961F39A6020619DF80310E17426
:1046B0000098010F206961F31C7020610098410F80
:1046C000206961F35D7020610098810F206961F3BA
:1046D0009E7020610098C10F206961F3DF70206136
:1046E000012231462046FBF735FF07E038467F1CA4
:1046F000B0F5A04F02D94FF0090803E000982169F6
:104700008842F3D100BF16B1012E7DD1D4E0E87804
:1047100010B101280CD105E06978009861F34920B7
:10472000009006E0A978009861F38A20009000E0EC
:1047300000BF00BF2978009861F30710009000982F
:10474000216960F30001216100984108206961F34B
:104750004100206100988108206961F38200206196
:104760009DF80000207400980109206961F307108A
:1047700020610098010A206961F3082020610098F7
:10478000410A206961F3492020610098810A20696B
:1047900061F38A2020619DF8011061740098010B7B
:1047A000206961F30C3020610098410B206961F3AE
:1047B0004D3020610098810B206961F38E302061BB
:1047C0000098C10B206961F3CF3020610098010C83
:1047D000206961F3104020610098410C206961F369
:1047E000514020610098810C206961F39240206162
:1047F0009DF80210A1740098010D206961F3175013
:1048000020610098010E00E025E1206961F3186045
:1048100020610098410E206961F359602061009881
:10482000810E206961F39A6020619DF80310E174A4
:104830000098010F206961F31C7020610098410FFE
:10484000206961F35D7020610098810F206961F338
:104850009E7020610098C10F206961F3DF702061B4
:10486000012231462046FBF775FEA888A060012290
:1048700031462046FBF76EFEE978206902E0000031
:104880000040024061F308202061012231462046A9
:10489000FBF760FE002707E038467F1CB0F5A04F0D
:1048A00002D94FF0090805E0E8782169C1F3002139
:1048B0008842F1D100BFCFE0E87810B101280CD1D7
:1048C00005E06978009861F35960009006E0A978E6
:1048D000009861F39A60009000E000BF00BF297863
:1048E000009861F3175000900098216960F300016F
:1048F000216100984108206961F34100206100981E
:104900008108206961F3820020619DF80000207415
:1049100000980109206961F3071020610098010ADD
:10492000206961F3082020610098410A206961F341
:10493000492020610098810A206961F38A20206162
:104940009DF8011061740098010B206961F30C302F
:1049500020610098410B206961F34D30206100987F
:10496000810B206961F38E3020610098C10B2069B2
:1049700061F3CF3020610098010C206961F3104091
:1049800020610098410C206961F35140206100983A
:10499000810C206961F3924020619DF80210A1749E
:1049A0000098010D206961F3175020610098010EF5
:1049B000206961F3186020610098410E206961F35D
:1049C000596020610098810E206961F39A6020612E
:1049D0009DF80310E1740098010F206961F31C70C9
:1049E00020610098410F206961F35D70206100989B
:1049F000810F206961F39E7020610098C10F2069CA
:104A000061F3DF702061012231462046FBF7A2FDF1
:104A1000A888E060012231462046FBF79BFDE9783B
:104A2000206961F318602061012231462046FBF7BE
:104A300091FD002707E038467F1CB0F5A04F02D952
:104A40004FF0090805E0E8782169C1F30061884268
:104A5000F1D100BF00E000BF01E04FF00408404684
:104A6000BDE8F8832DE9F04104460E4615464FF0A7
:104A70000008002716B1012E32D118E0206965F335
:104A800000002061012231462046FBF763FD07E06C
:104A900038467F1CB0F5A04F02D94FF0090804E05A
:104AA000206900F00100A842F2D100BF19E020699E
:104AB00065F310402061012231462046FBF74AFD94
:104AC00007E038467F1CB0F5A04F02D94FF0090827
:104AD00004E02069C0F30040A842F2D100BF00E02A
:104AE00000BF00BF4046BDE8F0810246002011B182
:104AF000012908D103E01369C3F3002004E013691E
:104B0000C3F3006000E000BF00BF7047F8B5044683
:104B10000E4615460027002D7ED02069009960F3CF
:104B20000001009120694108009861F34100009064
:104B300020698108009861F382000090207C8DF844
:104B4000000020690109009861F3071000902069B6
:104B5000010A009861F3082000902069410A00983A
:104B600061F3492000902069810A009861F38A204E
:104B70000090607C8DF801002069010B009861F3C2
:104B80000C3000902069410B009861F34D3000908B
:104B90002069810B009861F38E3000902069C10B71
:104BA000009861F3CF3000902069010C009861F308
:104BB000104000902069410C009861F35140009032
:104BC0002069810C009861F392400090A07C8DF8E0
:104BD00002002069010D009861F3175000902069D0
:104BE000010E009861F3186000902069410E009852
:104BF00061F3596000902069810E009861F39A601A
:104C00000090E07C8DF803002069010F009861F3AB
:104C10001C700090206900E077E1410F009861F37B
:104C20005D7000902069810F009861F39E70009084
:104C30002069C10F009861F3DF70009016B1012E5A
:104C40007ED1AAE02978009861F34100009029798B
:104C5000009861F3CF3000906979009861F38E304D
:104C60000090E979009861F30C300090A9790098E0
:104C700061F34D3000900098216960F300012161DB
:104C800000984108206961F3410020610098810883
:104C9000206961F3820020619DF800002074009873
:104CA0000109206961F3071020610098010A206959
:104CB00061F3082020610098410A206961F34920CE
:104CC00020610098810A206961F38A2020619DF8A3
:104CD000011061740098010B206961F30C302061B0
:104CE0000098410B206961F34D3020610098810BE1
:104CF000206961F38E3020610098C10B206961F357
:104D0000CF3020610098010C206961F310402061D0
:104D10000098410C206961F3514020610098810C9A
:104D2000206961F3924020619DF80210A1740098FF
:104D3000010D206961F3175020610098010E00E019
:104D4000D4E0206961F3186020610098410E206969
:104D500061F3596020610098810E206961F39A60C7
:104D600020619DF80310E1740098010F206961F340
:104D70001C7020610098410F206961F35D70206113
:104D80000098810F206961F39E7020610098C10F27
:104D9000206961F3DF702061A9E02978009861F350
:104DA000514000902979009861F3DF700090697993
:104DB000009861F39E700090E979009861F31C708F
:104DC0000090A979009861F35D70009000982169C6
:104DD00060F30001216100984108206961F34100FE
:104DE000206100988108206961F3820020619DF8AC
:104DF0000000207400980109206961F30710206108
:104E00000098010A206961F3082020610098410A96
:104E1000206961F3492020610098810A206961F3CB
:104E20008A2020619DF8011061740098010B2069AF
:104E300061F30C3020610098410B206961F34D3023
:104E400020610098810B206961F38E302061009809
:104E5000C10B206961F3CF3020610098010C2069FB
:104E600061F3104020610098410C206961F35140CA
:104E700020610098810C206961F3924020619DF8C7
:104E80000210A1740098010D206961F31750206190
:104E90000098010E206961F3186020610098410EAE
:104EA000206961F3596020610098810E206961F3E7
:104EB0009A6020619DF80310E1740098010F206949
:104EC00061F31C7020610098410F206961F35D70EF
:104ED00020610098810F206961F39E702061009825
:104EE000C10F206961F3DF70206100E000BF00BFE7
:104EF000012231462046FBF72DFB698804480068F3
:104F000061F308000249086000E004273846F8BD54
:104F1000400801402DE9F04104460E4615464FF089
:104F20000008002716B1012E32D118E0206965F380
:104F300082002061012231462046FBF70BFB07E08F
:104F400038467F1CB0F5A04F02D94FF0090804E0A5
:104F50002069C0F38000A842F2D100BF19E02069A7
:104F600065F392402061012231462046FBF7F2FAB8
:104F700007E038467F1CB0F5A04F02D94FF0090872
:104F800004E02069C0F38040A842F2D100BF00E0F5
:104F900000BF00BF4046BDE8F081000010B5002210
:104FA00011460F48FBF7EAFD022200210C48FBF7EF
:104FB000ABFE0A2200210A48FBF7CAFF094A00217A
:104FC0000748FBF789FF012200210548FBF7D6FDC2
:104FD0000548007840F001000349087010BD00004A
:104FE000003405400088FF1F8480FF1F70B5044611
:104FF0000D46224601210F48FBF78CFF2A4601216E
:105000000C48FBF7A5FF022201210A48FBF77CFEB2
:10501000012211460748FBF7B1FD0748C06820F0A0
:1050200008000549C8600846C06820F0080008303C
:10503000C86070BD003405400010024000B587B064
:1050400000BF00200590069000BF00BF03900490B1
:1050500000BF01210220FEF75DFF00208DF8170040
:105060008DF8150001208DF8140041F26F70ADF835
:10507000180005AA00210F48FFF7FAF901208DF862
:1050800009008DF80B0001AA00210A48FFF73EFD38
:10509000012200210748FFF73DFF4220ADF80C0038
:1050A000054804901920ADF80E0003A800F0B6FBE7
:1050B00007B000BD00440240353F000078B503460C
:1050C00004208B4DAB4208D08A4DAB4205D08A4DAF
:1050D000AB4202D0894DAB427DD100200F297BD25B
:1050E000DFE801F0080D12171C2126353A2B30EAB3
:1050F000F2F7FC00DD6862F38205DD60F5E0DD6853
:1051000062F34515DD60F0E0DD6862F3C305DD6044
:10511000EBE0DD6862F3C715DD60E6E0DD6862F3B1
:105120000005DD60E1E0DD6862F34105DD60DCE0A3
:10513000DD6862F30415DD60D7E0DD6862F38A257F
:10514000DD60D2E0DD6862F39E75DD60CDE0DD6894
:1051500062F38615DD60C8E0DD68009E65F3000639
:105160000096DD686E08009D66F341050095DD68D8
:10517000AE08009D66F382050095DD68EE08009D8F
:1051800066F3C3050095DD682E09009D66F30415DE
:105190000095DD686E09009D66F345150095DD6894
:1051A000AE09009D66F386150095DD68EE09009D49
:1051B00066F3C71500959D892E0A009D66F30825A4
:1051C0000095DD686E0A009D66F349250095DD684F
:1051D000AE0A009D01E089E085E066F38A2500952E
:1051E0009D89EE0A009D66F3CB250095DD682E0BA8
:1051F000009D66F30C3500959D896E0B009D66F34E
:105200004E350095DD68EE0B009D66F3CF350095B9
:10521000DD682E0C009D66F310450095DD686E0C70
:10522000009D66F351450095DD68AE0C009D66F368
:1052300092450095DD68EE0C009D66F3D345009520
:10524000DD682E0D009D66F314550095DD686E0D2A
:10525000009D66F357550095DD682E0E009D66F3A0
:1052600018650095DD686E0E009D66F35B65009520
:10527000DD682E0F009D66F31C750095DD686E0FCE
:10528000009D66F35D750095DD68AE0F009D66F3C9
:105290009E750095DD68EE0F009D66F3DF75009545
:1052A000009D62F3C3050095009D62F3C71500954C
:1052B0006C462568DD6018E0DD6862F35D75DD60D1
:1052C00013E00BE005E0FFE71D6962F300051D61D7
:1052D0000BE05D6962F345155D6106E05D6962F3AF
:1052E00049255D6101E0042000BF00BF78BD0000DA
:1052F00000D0014000D401400010024000140240E0
:1053000002494968C1F3074070470000001002409D
:1053100010B520480068C0F3C00038B11D48C0680F
:1053200020F4002000F500201A49C86019480068E0
:10533000C0F3400038B11748C06820F4003000F5D1
:1053400000301449C8601348006800F0010038B10B
:105350001048C06820F4803000F580300D49C860E6
:10536000002211460C48FBF709FC022200210A48E2
:10537000FBF7CAFC0A2200210748FBF7E9FD074AB0
:1053800000210548FBF7A8FD012200210248FBF798
:10539000F5FB10BD00100240003405400088FF1FDF
:1053A00010B51948C06820F4801000F58010164927
:1053B000C860002211461548FFF754FB13480068E7
:1053C0006FF30F0011490860002211461048FBF7E7
:1053D000D5FB022200210E48FBF796FC0A22002191
:1053E0000B48FBF7B5FD0B4A00210948FBF774FD9C
:1053F000012200210648FBF7C1FB0748007840F076
:1054000002000549087010BD00100240004402402F
:10541000003405400088FF1F8480FF1F70B50446DC
:105420000D4604261348844208D01348844205D010
:105430001248844202D01248844218D16069C0F3F5
:10544000401028B129462046FEF718FE06460EE019
:10545000E068C0F3006028B129462046FEF774FDDD
:10546000064604E029462046FEF7C0FE06463046C2
:1054700070BD000000D0014000D401400010024087
:10548000001402401FB502460023039302930193C8
:1054900000930420A34B9A4208D0A34B9A4205D014
:1054A000A24B9A4202D0A24B9A427DD100297BD0D6
:1054B0006FF00C03D360DB07D360002313615361EB
:1054C0004FF6FF73936000239361009B23F020034A
:1054D0000093029B23F0807302934C78039B64F348
:1054E000010303938C78029B64F30C330293CC7812
:1054F000029B64F31C7302930C79019B64F34D339C
:1055000001930C78019B64F3CC2301934B7923B175
:10551000012B07D0022B1DD10FE0029B23F48063E7
:10552000029318E0029B23F400730293029B23F47E
:10553000806303F5806302930DE0029B23F4007304
:1055400003F500730293029B23F4806303F58063E9
:10555000029300E000BF00BF0C7A009B64F3492374
:105560000093CC79029B64F3DF7302938C79029BE6
:1055700064F3CF330293039B946963F30104946152
:10558000039B9361029BD46863F30004D460029B85
:105590005C08D36864F34103D360029B9C08D36822
:1055A00064F38203D36000E0BAE0029BDC08D368B6
:1055B00064F3C303D360029B1C09D36864F3041330
:1055C000D360029B5C09D36864F34513D360029BEC
:1055D0009C09D36864F38613D360029BDC09D3680B
:1055E00064F3C713D3609DF809405473029B5C0AAF
:1055F000D36864F34923D360029B9C0AD36864F3A5
:105600008A23D3609DF809405473029B1C0BD36816
:1056100064F30C33D3609DF809405473029BDC0B98
:10562000D36864F3CF33D360029B1C0CD36864F35C
:105630001043D360029B5C0CD36864F35143D36086
:105640009DF80A409473029BDC0CD36864F3D34347
:10565000D360029B1C0DD36864F31453D3609DF890
:105660000A409473029B1C0ED36864F31863D360E2
:105670009DF80B40D473029B1C0FD36864F31C731A
:10568000D360029B5C0FD36864F35D73D360029BAD
:105690009C0FD36864F39E73D360029BDC0FD368C6
:1056A00064F3DF73D360019B146963F30004146136
:1056B000BDF804301382019BDC0A136964F3CC2328
:1056C0001361019B5C0B136964F34D331361BDF8E7
:1056D0000540A2F811409DF80740D4749DF80030B1
:1056E0001375009B5C09536964F345135361BDF85E
:1056F00000309382009B5C0A536964F34923536131
:1057000002F11403BDF80140A2F81540009B5C0DA6
:10571000536964F3575353619DF80340D4750020D7
:1057200004B010BD00D0014000D401400010024080
:105730000014024010B5AFF3008010BD10B5014653
:1057400000220020084B1B6AC3F302140123A3406C
:10575000064C2468B4FBF3F28B699B075C0F0123B2
:10576000A340B2FBF3F010BD004005408080FF1F56
:1057700070477047002807DB00F01F0201219140AD
:10578000024A430942F823107047000080E200E01B
:1057900000280DDB00BF00BF00F01F020121914077
:1057A0004209920002F1E022C2F8001100BF00BFDE
:1057B0007047000010B5002804DB0A07130E054AE5
:1057C000135406E00A07140E034A00F00F031B1FD0
:1057D000D45410BD00E400E018ED00E002E008C879
:1057E000121F08C1002AFAD170477047002001E05B
:1057F00001C1121F002AFBD17047000010B50448F8
:10580000FFF7B6FF0446034A0349FAF73AFE10BD14
:10581000C480FF1F000000007357000070B50146F0
:1058200000240B88DD1703EBD5656D1105EB4505ED
:10583000202606EB4505B1F90260B5420DDC08886B
:10584000C51700EBD5656D1105EB4505252606EB63
:105850004505B1F90260B54205DAB1F90250202DD3
:1058600001DB042418E048880C4B042515FB0032AA
:105870001068C0F3080040F2FF1398420BD10B8868
:10588000106863F308001060B1F90230044D4868F5
:1058900045F8230000E00724204670BD5C10054059
:1058A000E880FF1F10B5002821D0114B0022001FF7
:1058B000196803E0814203D80A4649680029F9D1F2
:1058C00052B11368841A9C4204D1006818441060D5
:1058D000104602E0506000E0186039B102680B1A0F
:1058E000934203D10B681A4402604968416010BDBD
:1058F000E080FF1F00B58FB000BF302103A8FAF78A
:105900005EFD00BF00BF00200190029000BF01209B
:10591000ADF80C000A20ADF80E0027480590274886
:1059200004900020ADF818000A20ADF81A000021FC
:105930008DF837108DF832108DF8331000208DF867
:10594000300001218DF831108DF8391000218DF8CB
:1059500036100121C803FEF7B5FA01211848FBF7FC
:1059600007FA03AA00211648FBF708FA01220021D2
:105970001348FBF703F9022200211148FBF7C4F991
:105980002420ADF804001A20ADF806000D4802905E
:1059900001A8FFF743FFBDF90600FFF7F9FE01215B
:1059A0004804FEF78FFA40F2211200210448FBF769
:1059B00001FB0FB000BD00000088FF1F0610024071
:1059C000003405409D4F000000B58FB000BF30216E
:1059D00003A8FAF7F4FC00BF00BF0020019002907A
:1059E00000BF0120ADF80C000420ADF80E002748E0
:1059F0000590274804900420ADF818000020ADF869
:105A00001A0000218DF837108DF832108DF8331000
:105A100001208DF830008DF8311001218DF83910FA
:105A200000218DF836100121C003FEF74BFA012149
:105A30001848FBF79DF903AA01211648FBF79EF9C8
:105A4000012211461348FBF799F80222012111485F
:105A5000FBF75AF92520ADF804001B20ADF806002D
:105A60000D48029001A8FFF7D9FEBDF90600FFF727
:105A70008FFE01214804FEF725FA4FF491720121AF
:105A80000448FBF797FA0FB000BD00000410024075
:105A90000A88FF1F00340540FF03000000B587B0EF
:105AA00000BF002004900590069000BF00BF029048
:105AB000039000BF00BF0090019000BF8DF8100060
:105AC0008DF812008DF813008DF815008DF8140074
:105AD00001208DF816008DF8170001218006FEF7D1
